{
	"data": {
		"bytecode": {
			"linkReferences": {},
			"object": "608060405273fe2f637036b869d7f296708baad3622c53f0d97d6000806101000a81548173ffffffffffffffffffffffffffffffffffffffff021916908373ffffffffffffffffffffffffffffffffffffffff1602179055507317864b7bf61073df9ed6c0ee90f8117687c2ade6600160006101000a81548173ffffffffffffffffffffffffffffffffffffffff021916908373ffffffffffffffffffffffffffffffffffffffff16021790555073b41e3ce9a37643d7b4a67f62126468f1c6f70364600260006101000a81548173ffffffffffffffffffffffffffffffffffffffff021916908373ffffffffffffffffffffffffffffffffffffffff1602179055507380ff8a9a77f78fc413015068a858f7a56848480a600360006101000a81548173ffffffffffffffffffffffffffffffffffffffff021916908373ffffffffffffffffffffffffffffffffffffffff1602179055507361d620473acd26cb76c2867860479c9a18e63020600460006101000a81548173ffffffffffffffffffffffffffffffffffffffff021916908373ffffffffffffffffffffffffffffffffffffffff1602179055503480156101b857600080fd5b50613d5e806101c86000396000f3fe6080604052600436106101095760003560e01c8063c491f8df11610095578063d30456c511610064578063d30456c51461036f578063dc2d98d2146103ac578063ef14101e146103e9578063f834ec5a14610414578063fae254441461043057610109565b8063c491f8df146102c5578063c815729d146102f0578063cce3785f14610319578063d21220a71461034457610109565b80635c62455f116100dc5780635c62455f146101c657806377e67f2d146101f557806379950f5514610220578063b4543fbe1461024b578063b53408e81461028857610109565b806325be124e1461010e5780632e1a7d4d146101395780634579268a146101555780635b6f5e531461019b575b600080fd5b34801561011a57600080fd5b5061012361045b565b6040516101309190612bf1565b60405180910390f35b610153600480360381019061014e9190612c47565b610481565b005b34801561016157600080fd5b5061017c60048036038101906101779190612c47565b610b2f565b6040516101929a99989796959493929190612c83565b60405180910390f35b3480156101a757600080fd5b506101b0610ba9565b6040516101bd9190612bf1565b60405180910390f35b3480156101d257600080fd5b506101db610bcf565b6040516101ec959493929190612d1f565b60405180910390f35b34801561020157600080fd5b5061020a610f6e565b6040516102179190612e3c565b60405180910390f35b34801561022c57600080fd5b5061023561101e565b6040516102429190612bf1565b60405180910390f35b34801561025757600080fd5b50610272600480360381019061026d9190612c47565b611044565b60405161027f9190612e6d565b60405180910390f35b34801561029457600080fd5b506102af60048036038101906102aa9190612c47565b6110b2565b6040516102bc9190612f18565b60405180910390f35b3480156102d157600080fd5b506102da611345565b6040516102e79190613046565b60405180910390f35b3480156102fc57600080fd5b5061031760048036038101906103129190612c47565b6113f3565b005b34801561032557600080fd5b5061032e611fe7565b60405161033b9190612e3c565b60405180910390f35b34801561035057600080fd5b50610359612097565b6040516103669190612bf1565b60405180910390f35b34801561037b57600080fd5b5061039660048036038101906103919190612c47565b6120bb565b6040516103a39190613126565b60405180910390f35b3480156103b857600080fd5b506103d360048036038101906103ce9190612c47565b6121e5565b6040516103e09190612e6d565b60405180910390f35b3480156103f557600080fd5b506103fe612212565b60405161040b9190612bf1565b60405180910390f35b61042e60048036038101906104299190613148565b612238565b005b34801561043c57600080fd5b506104456129e9565b6040516104529190613227565b60405180910390f35b600160009054906101000a900473ffffffffffffffffffffffffffffffffffffffff1681565b60008110156104c5576040517f08c379a00000000000000000000000000000000000000000000000000000000081526004016104bc9061328e565b60405180910390fd5b6001151560056000838152602001908152602001600020600d0160009054906101000a900460ff1615151461052f576040517f08c379a0000000000000000000000000000000000000000000000000000000008152600401610526906132fa565b60405180910390fd5b6005600082815260200190815260200160002060010160009054906101000a900473ffffffffffffffffffffffffffffffffffffffff1673ffffffffffffffffffffffffffffffffffffffff163373ffffffffffffffffffffffffffffffffffffffff16146105d3576040517f08c379a00000000000000000000000000000000000000000000000000000000081526004016105ca9061338c565b60405180910390fd5b60006005600083815260200190815260200160002090506000816002015411156106ec5760008054906101000a900473ffffffffffffffffffffffffffffffffffffffff1673ffffffffffffffffffffffffffffffffffffffff1663a9059cbb33670de0b6b3a7640000846002015461064c91906133db565b6040518363ffffffff1660e01b815260040161066992919061341d565b6020604051808303816000875af1158015610688573d6000803e3d6000fd5b505050506040513d601f19601f820116820180604052508101906106ac9190613472565b6106eb576040517f08c379a00000000000000000000000000000000000000000000000000000000081526004016106e2906134eb565b60405180910390fd5b5b6000816003015411156107f057600160009054906101000a900473ffffffffffffffffffffffffffffffffffffffff1673ffffffffffffffffffffffffffffffffffffffff1663a9059cbb33670de0b6b3a7640000846003015461075091906133db565b6040518363ffffffff1660e01b815260040161076d92919061341d565b6020604051808303816000875af115801561078c573d6000803e3d6000fd5b505050506040513d601f19601f820116820180604052508101906107b09190613472565b6107ef576040517f08c379a00000000000000000000000000000000000000000000000000000000081526004016107e690613557565b60405180910390fd5b5b6000816004015411156108f457600260009054906101000a900473ffffffffffffffffffffffffffffffffffffffff1673ffffffffffffffffffffffffffffffffffffffff1663a9059cbb33670de0b6b3a7640000846004015461085491906133db565b6040518363ffffffff1660e01b815260040161087192919061341d565b6020604051808303816000875af1158015610890573d6000803e3d6000fd5b505050506040513d601f19601f820116820180604052508101906108b49190613472565b6108f3576040517f08c379a00000000000000000000000000000000000000000000000000000000081526004016108ea906135c3565b60405180910390fd5b5b6000816005015411156109f857600360009054906101000a900473ffffffffffffffffffffffffffffffffffffffff1673ffffffffffffffffffffffffffffffffffffffff1663a9059cbb33670de0b6b3a7640000846005015461095891906133db565b6040518363ffffffff1660e01b815260040161097592919061341d565b6020604051808303816000875af1158015610994573d6000803e3d6000fd5b505050506040513d601f19601f820116820180604052508101906109b89190613472565b6109f7576040517f08c379a00000000000000000000000000000000000000000000000000000000081526004016109ee9061362f565b60405180910390fd5b5b600081600601541115610afc57600460009054906101000a900473ffffffffffffffffffffffffffffffffffffffff1673ffffffffffffffffffffffffffffffffffffffff1663a9059cbb33670de0b6b3a76400008460060154610a5c91906133db565b6040518363ffffffff1660e01b8152600401610a7992919061341d565b6020604051808303816000875af1158015610a98573d6000803e3d6000fd5b505050506040513d601f19601f82011682018060405250810190610abc9190613472565b610afb576040517f08c379a0000000000000000000000000000000000000000000000000000000008152600401610af29061369b565b60405180910390fd5b5b600060056000848152602001908152602001600020600d0160006101000a81548160ff0219169083151502179055505050565b6000806000806000806000806000806000600560008d815260200190815260200160002090508060020154816003015482600401548360050154846006015485600701548660080154876009015488600a015489600b01549a509a509a509a509a509a509a509a509a509a50509193959799509193959799565b600460009054906101000a900473ffffffffffffffffffffffffffffffffffffffff1681565b600080600080600080670de0b6b3a764000060008054906101000a900473ffffffffffffffffffffffffffffffffffffffff1673ffffffffffffffffffffffffffffffffffffffff166370a08231306040518263ffffffff1660e01b8152600401610c3a9190612bf1565b602060405180830381865afa158015610c57573d6000803e3d6000fd5b505050506040513d601f19601f82011682018060405250810190610c7b91906136d0565b610c85919061372c565b90506000670de0b6b3a7640000600160009054906101000a900473ffffffffffffffffffffffffffffffffffffffff1673ffffffffffffffffffffffffffffffffffffffff166370a08231306040518263ffffffff1660e01b8152600401610ced9190612bf1565b602060405180830381865afa158015610d0a573d6000803e3d6000fd5b505050506040513d601f19601f82011682018060405250810190610d2e91906136d0565b610d38919061372c565b90506000670de0b6b3a7640000600260009054906101000a900473ffffffffffffffffffffffffffffffffffffffff1673ffffffffffffffffffffffffffffffffffffffff166370a08231306040518263ffffffff1660e01b8152600401610da09190612bf1565b602060405180830381865afa158015610dbd573d6000803e3d6000fd5b505050506040513d601f19601f82011682018060405250810190610de191906136d0565b610deb919061372c565b90506000670de0b6b3a7640000600360009054906101000a900473ffffffffffffffffffffffffffffffffffffffff1673ffffffffffffffffffffffffffffffffffffffff166370a08231306040518263ffffffff1660e01b8152600401610e539190612bf1565b602060405180830381865afa158015610e70573d6000803e3d6000fd5b505050506040513d601f19601f82011682018060405250810190610e9491906136d0565b610e9e919061372c565b90506000670de0b6b3a7640000600460009054906101000a900473ffffffffffffffffffffffffffffffffffffffff1673ffffffffffffffffffffffffffffffffffffffff166370a08231306040518263ffffffff1660e01b8152600401610f069190612bf1565b602060405180830381865afa158015610f23573d6000803e3d6000fd5b505050506040513d601f19601f82011682018060405250810190610f4791906136d0565b610f51919061372c565b905084848484849950995099509950995050505050509091929394565b60606000610f7a6129e9565b905060008167ffffffffffffffff811115610f9857610f9761375d565b5b604051908082528060200260200182016040528015610fc65781602001602082028036833780820191505090505b50905060005b8281101561101557610fdd816121e5565b828281518110610ff057610fef61378c565b5b602002602001019015159081151581525050808061100d906137bb565b915050610fcc565b50809250505090565b600360009054906101000a900473ffffffffffffffffffffffffffffffffffffffff1681565b60006005600083815260200190815260200160002060010160009054906101000a900473ffffffffffffffffffffffffffffffffffffffff1673ffffffffffffffffffffffffffffffffffffffff163373ffffffffffffffffffffffffffffffffffffffff16149050919050565b60606000806000806000806000806000806110cc8c610b2f565b9950995099509950995099509950995099509950600060405180602001604052806000815250905060008b111561112a57806111078c612a2c565b60405160200161111892919061388b565b60405160208183030381529060405290505b60008a1115611160578061113d8b612a2c565b60405160200161114e929190613906565b60405160208183030381529060405290505b600089111561119657806111738a612a2c565b604051602001611184929190613981565b60405160208183030381529060405290505b60008811156111cc57806111a989612a2c565b6040516020016111ba9291906139fc565b60405160208183030381529060405290505b600087111561120257806111df88612a2c565b6040516020016111f0929190613a77565b60405160208183030381529060405290505b806040516020016112139190613af2565b6040516020818303038152906040529050600086111561125a578061123787612a2c565b60405160200161124892919061388b565b60405160208183030381529060405290505b6000851115611290578061126d86612a2c565b60405160200161127e929190613906565b60405160208183030381529060405290505b60008411156112c657806112a385612a2c565b6040516020016112b4929190613981565b60405160208183030381529060405290505b60008311156112fc57806112d984612a2c565b6040516020016112ea9291906139fc565b60405160208183030381529060405290505b6000821115611332578061130f83612a2c565b604051602001611320929190613a77565b60405160208183030381529060405290505b809b505050505050505050505050919050565b606060006113516129e9565b905060008167ffffffffffffffff81111561136f5761136e61375d565b5b6040519080825280602002602001820160405280156113a257816020015b606081526020019060019003908161138d5790505b50905060005b828110156113ea576113b9816110b2565b8282815181106113cc576113cb61378c565b5b602002602001018190525080806113e2906137bb565b9150506113a8565b50809250505090565b6000811015611437576040517f08c379a000000000000000000000000000000000000000000000000000000000815260040161142e9061328e565b60405180910390fd5b6001151560056000838152602001908152602001600020600d0160009054906101000a900460ff161515146114a1576040517f08c379a000000000000000000000000000000000000000000000000000000000815260040161149890613b60565b60405180910390fd5b6005600082815260200190815260200160002060010160009054906101000a900473ffffffffffffffffffffffffffffffffffffffff1673ffffffffffffffffffffffffffffffffffffffff163373ffffffffffffffffffffffffffffffffffffffff1603611545576040517f08c379a000000000000000000000000000000000000000000000000000000000815260040161153c90613bcc565b60405180910390fd5b60006005600083815260200190815260200160002060010160009054906101000a900473ffffffffffffffffffffffffffffffffffffffff16905060006005600084815260200190815260200160002090506000816002015411156116995760008054906101000a900473ffffffffffffffffffffffffffffffffffffffff1673ffffffffffffffffffffffffffffffffffffffff1663a9059cbb33670de0b6b3a764000084600201546115f991906133db565b6040518363ffffffff1660e01b815260040161161692919061341d565b6020604051808303816000875af1158015611635573d6000803e3d6000fd5b505050506040513d601f19601f820116820180604052508101906116599190613472565b611698576040517f08c379a000000000000000000000000000000000000000000000000000000000815260040161168f906134eb565b60405180910390fd5b5b60008160030154111561179d57600160009054906101000a900473ffffffffffffffffffffffffffffffffffffffff1673ffffffffffffffffffffffffffffffffffffffff1663a9059cbb33670de0b6b3a764000084600301546116fd91906133db565b6040518363ffffffff1660e01b815260040161171a92919061341d565b6020604051808303816000875af1158015611739573d6000803e3d6000fd5b505050506040513d601f19601f8201168201806040525081019061175d9190613472565b61179c576040517f08c379a000000000000000000000000000000000000000000000000000000000815260040161179390613557565b60405180910390fd5b5b6000816004015411156118a157600260009054906101000a900473ffffffffffffffffffffffffffffffffffffffff1673ffffffffffffffffffffffffffffffffffffffff1663a9059cbb33670de0b6b3a7640000846004015461180191906133db565b6040518363ffffffff1660e01b815260040161181e92919061341d565b6020604051808303816000875af115801561183d573d6000803e3d6000fd5b505050506040513d601f19601f820116820180604052508101906118619190613472565b6118a0576040517f08c379a0000000000000000000000000000000000000000000000000000000008152600401611897906135c3565b60405180910390fd5b5b6000816005015411156119a557600360009054906101000a900473ffffffffffffffffffffffffffffffffffffffff1673ffffffffffffffffffffffffffffffffffffffff1663a9059cbb33670de0b6b3a7640000846005015461190591906133db565b6040518363ffffffff1660e01b815260040161192292919061341d565b6020604051808303816000875af1158015611941573d6000803e3d6000fd5b505050506040513d601f19601f820116820180604052508101906119659190613472565b6119a4576040517f08c379a000000000000000000000000000000000000000000000000000000000815260040161199b9061362f565b60405180910390fd5b5b600081600601541115611aa957600460009054906101000a900473ffffffffffffffffffffffffffffffffffffffff1673ffffffffffffffffffffffffffffffffffffffff1663a9059cbb33670de0b6b3a76400008460060154611a0991906133db565b6040518363ffffffff1660e01b8152600401611a2692919061341d565b6020604051808303816000875af1158015611a45573d6000803e3d6000fd5b505050506040513d601f19601f82011682018060405250810190611a699190613472565b611aa8576040517f08c379a0000000000000000000000000000000000000000000000000000000008152600401611a9f9061369b565b60405180910390fd5b5b600081600701541115611bad5760008054906101000a900473ffffffffffffffffffffffffffffffffffffffff1673ffffffffffffffffffffffffffffffffffffffff166323b872dd3384670de0b6b3a76400008560070154611b0c91906133db565b6040518463ffffffff1660e01b8152600401611b2a93929190613bec565b6020604051808303816000875af1158015611b49573d6000803e3d6000fd5b505050506040513d601f19601f82011682018060405250810190611b6d9190613472565b611bac576040517f08c379a0000000000000000000000000000000000000000000000000000000008152600401611ba3906134eb565b60405180910390fd5b5b600081600801541115611cb357600160009054906101000a900473ffffffffffffffffffffffffffffffffffffffff1673ffffffffffffffffffffffffffffffffffffffff166323b872dd3384670de0b6b3a76400008560080154611c1291906133db565b6040518463ffffffff1660e01b8152600401611c3093929190613bec565b6020604051808303816000875af1158015611c4f573d6000803e3d6000fd5b505050506040513d601f19601f82011682018060405250810190611c739190613472565b611cb2576040517f08c379a0000000000000000000000000000000000000000000000000000000008152600401611ca990613557565b60405180910390fd5b5b600081600901541115611db957600260009054906101000a900473ffffffffffffffffffffffffffffffffffffffff1673ffffffffffffffffffffffffffffffffffffffff166323b872dd3384670de0b6b3a76400008560090154611d1891906133db565b6040518463ffffffff1660e01b8152600401611d3693929190613bec565b6020604051808303816000875af1158015611d55573d6000803e3d6000fd5b505050506040513d601f19601f82011682018060405250810190611d799190613472565b611db8576040517f08c379a0000000000000000000000000000000000000000000000000000000008152600401611daf906135c3565b60405180910390fd5b5b600081600a01541115611ebf57600360009054906101000a900473ffffffffffffffffffffffffffffffffffffffff1673ffffffffffffffffffffffffffffffffffffffff166323b872dd3384670de0b6b3a764000085600a0154611e1e91906133db565b6040518463ffffffff1660e01b8152600401611e3c93929190613bec565b6020604051808303816000875af1158015611e5b573d6000803e3d6000fd5b505050506040513d601f19601f82011682018060405250810190611e7f9190613472565b611ebe576040517f08c379a0000000000000000000000000000000000000000000000000000000008152600401611eb59061362f565b60405180910390fd5b5b600081600b01541115611fc557600460009054906101000a900473ffffffffffffffffffffffffffffffffffffffff1673ffffffffffffffffffffffffffffffffffffffff166323b872dd3384670de0b6b3a764000085600b0154611f2491906133db565b6040518463ffffffff1660e01b8152600401611f4293929190613bec565b6020604051808303816000875af1158015611f61573d6000803e3d6000fd5b505050506040513d601f19601f82011682018060405250810190611f859190613472565b611fc4576040517f08c379a0000000000000000000000000000000000000000000000000000000008152600401611fbb9061369b565b60405180910390fd5b5b600081600d0160006101000a81548160ff021916908315150217905550505050565b60606000611ff36129e9565b905060008167ffffffffffffffff8111156120115761201061375d565b5b60405190808252806020026020018201604052801561203f5781602001602082028036833780820191505090505b50905060005b8281101561208e5761205681611044565b8282815181106120695761206861378c565b5b6020026020010190151590811515815250508080612086906137bb565b915050612045565b50809250505090565b60008054906101000a900473ffffffffffffffffffffffffffffffffffffffff1681565b606060006005600084815260200190815260200160002090506000600567ffffffffffffffff8111156120f1576120f061375d565b5b60405190808252806020026020018201604052801561211f5781602001602082028036833780820191505090505b50905081600701548160008151811061213b5761213a61378c565b5b6020026020010181815250508160080154816001815181106121605761215f61378c565b5b6020026020010181815250508160090154816002815181106121855761218461378c565b5b60200260200101818152505081600a0154816003815181106121aa576121a961378c565b5b60200260200101818152505081600b0154816004815181106121cf576121ce61378c565b5b6020026020010181815250508092505050919050565b600060056000838152602001908152602001600020600d0160009054906101000a900460ff169050919050565b600260009054906101000a900473ffffffffffffffffffffffffffffffffffffffff1681565b60008a11806122475750600089115b806122525750600088115b8061225d5750600087115b806122685750600086115b80156122a05750600085118061227e5750600084115b806122895750600083115b806122945750600082115b8061229f5750600081115b5b6122df576040517f08c379a00000000000000000000000000000000000000000000000000000000081526004016122d690613c6f565b60405180910390fd5b60008a11156123db5760008054906101000a900473ffffffffffffffffffffffffffffffffffffffff1673ffffffffffffffffffffffffffffffffffffffff166323b872dd3330670de0b6b3a76400008e61233a91906133db565b6040518463ffffffff1660e01b815260040161235893929190613bec565b6020604051808303816000875af1158015612377573d6000803e3d6000fd5b505050506040513d601f19601f8201168201806040525081019061239b9190613472565b6123da576040517f08c379a00000000000000000000000000000000000000000000000000000000081526004016123d1906134eb565b60405180910390fd5b5b60008911156124d957600160009054906101000a900473ffffffffffffffffffffffffffffffffffffffff1673ffffffffffffffffffffffffffffffffffffffff166323b872dd3330670de0b6b3a76400008d61243891906133db565b6040518463ffffffff1660e01b815260040161245693929190613bec565b6020604051808303816000875af1158015612475573d6000803e3d6000fd5b505050506040513d601f19601f820116820180604052508101906124999190613472565b6124d8576040517f08c379a00000000000000000000000000000000000000000000000000000000081526004016124cf90613557565b60405180910390fd5b5b60008811156125d757600260009054906101000a900473ffffffffffffffffffffffffffffffffffffffff1673ffffffffffffffffffffffffffffffffffffffff166323b872dd3330670de0b6b3a76400008c61253691906133db565b6040518463ffffffff1660e01b815260040161255493929190613bec565b6020604051808303816000875af1158015612573573d6000803e3d6000fd5b505050506040513d601f19601f820116820180604052508101906125979190613472565b6125d6576040517f08c379a00000000000000000000000000000000000000000000000000000000081526004016125cd906135c3565b60405180910390fd5b5b60008711156126d557600360009054906101000a900473ffffffffffffffffffffffffffffffffffffffff1673ffffffffffffffffffffffffffffffffffffffff166323b872dd3330670de0b6b3a76400008b61263491906133db565b6040518463ffffffff1660e01b815260040161265293929190613bec565b6020604051808303816000875af1158015612671573d6000803e3d6000fd5b505050506040513d601f19601f820116820180604052508101906126959190613472565b6126d4576040517f08c379a00000000000000000000000000000000000000000000000000000000081526004016126cb9061369b565b60405180910390fd5b5b60008611156127d357600460009054906101000a900473ffffffffffffffffffffffffffffffffffffffff1673ffffffffffffffffffffffffffffffffffffffff166323b872dd3330670de0b6b3a76400008a61273291906133db565b6040518463ffffffff1660e01b815260040161275093929190613bec565b6020604051808303816000875af115801561276f573d6000803e3d6000fd5b505050506040513d601f19601f820116820180604052508101906127939190613472565b6127d2576040517f08c379a00000000000000000000000000000000000000000000000000000000081526004016127c99061362f565b60405180910390fd5b5b60006127df6007612b8c565b90506127eb6007612b9a565b806005600083815260200190815260200160002060000181905550336005600083815260200190815260200160002060010160006101000a81548173ffffffffffffffffffffffffffffffffffffffff021916908373ffffffffffffffffffffffffffffffffffffffff1602179055508a60056000838152602001908152602001600020600201819055508960056000838152602001908152602001600020600301819055508860056000838152602001908152602001600020600401819055508760056000838152602001908152602001600020600501819055508660056000838152602001908152602001600020600601819055508560056000838152602001908152602001600020600701819055508460056000838152602001908152602001600020600801819055508360056000838152602001908152602001600020600901819055508260056000838152602001908152602001600020600a01819055508160056000838152602001908152602001600020600b01819055504260056000838152602001908152602001600020600c0181905550600160056000838152602001908152602001600020600d0160006101000a81548160ff02191690831515021790555060068190806001815401808255809150506001900390600052602060002001600090919091909150555050505050505050505050565b6000600160066001600680549050612a019190613c8f565b81548110612a1257612a1161378c565b5b9060005260206000200154612a279190613cc3565b905090565b606060008203612a73576040518060400160405280600181526020017f30000000000000000000000000000000000000000000000000000000000000008152509050612b87565b600082905060005b60008214612aa5578080612a8e906137bb565b915050600a82612a9e919061372c565b9150612a7b565b60008167ffffffffffffffff811115612ac157612ac061375d565b5b6040519080825280601f01601f191660200182016040528015612af35781602001600182028036833780820191505090505b5090505b60008514612b8057600182612b0c9190613c8f565b9150600a85612b1b9190613cf7565b6030612b279190613cc3565b60f81b818381518110612b3d57612b3c61378c565b5b60200101907effffffffffffffffffffffffffffffffffffffffffffffffffffffffffffff1916908160001a905350600a85612b79919061372c565b9450612af7565b8093505050505b919050565b600081600001549050919050565b6001816000016000828254019250508190555050565b600073ffffffffffffffffffffffffffffffffffffffff82169050919050565b6000612bdb82612bb0565b9050919050565b612beb81612bd0565b82525050565b6000602082019050612c066000830184612be2565b92915050565b600080fd5b6000819050919050565b612c2481612c11565b8114612c2f57600080fd5b50565b600081359050612c4181612c1b565b92915050565b600060208284031215612c5d57612c5c612c0c565b5b6000612c6b84828501612c32565b91505092915050565b612c7d81612c11565b82525050565b600061014082019050612c99600083018d612c74565b612ca6602083018c612c74565b612cb3604083018b612c74565b612cc0606083018a612c74565b612ccd6080830189612c74565b612cda60a0830188612c74565b612ce760c0830187612c74565b612cf460e0830186612c74565b612d02610100830185612c74565b612d10610120830184612c74565b9b9a5050505050505050505050565b600060a082019050612d346000830188612c74565b612d416020830187612c74565b612d4e6040830186612c74565b612d5b6060830185612c74565b612d686080830184612c74565b9695505050505050565b600081519050919050565b600082825260208201905092915050565b6000819050602082019050919050565b60008115159050919050565b612db381612d9e565b82525050565b6000612dc58383612daa565b60208301905092915050565b6000602082019050919050565b6000612de982612d72565b612df38185612d7d565b9350612dfe83612d8e565b8060005b83811015612e2f578151612e168882612db9565b9750612e2183612dd1565b925050600181019050612e02565b5085935050505092915050565b60006020820190508181036000830152612e568184612dde565b905092915050565b612e6781612d9e565b82525050565b6000602082019050612e826000830184612e5e565b92915050565b600081519050919050565b600082825260208201905092915050565b60005b83811015612ec2578082015181840152602081019050612ea7565b60008484015250505050565b6000601f19601f8301169050919050565b6000612eea82612e88565b612ef48185612e93565b9350612f04818560208601612ea4565b612f0d81612ece565b840191505092915050565b60006020820190508181036000830152612f328184612edf565b905092915050565b600081519050919050565b600082825260208201905092915050565b6000819050602082019050919050565b600082825260208201905092915050565b6000612f8282612e88565b612f8c8185612f66565b9350612f9c818560208601612ea4565b612fa581612ece565b840191505092915050565b6000612fbc8383612f77565b905092915050565b6000602082019050919050565b6000612fdc82612f3a565b612fe68185612f45565b935083602082028501612ff885612f56565b8060005b8581101561303457848403895281516130158582612fb0565b945061302083612fc4565b925060208a01995050600181019050612ffc565b50829750879550505050505092915050565b600060208201905081810360008301526130608184612fd1565b905092915050565b600081519050919050565b600082825260208201905092915050565b6000819050602082019050919050565b61309d81612c11565b82525050565b60006130af8383613094565b60208301905092915050565b6000602082019050919050565b60006130d382613068565b6130dd8185613073565b93506130e883613084565b8060005b8381101561311957815161310088826130a3565b975061310b836130bb565b9250506001810190506130ec565b5085935050505092915050565b6000602082019050818103600083015261314081846130c8565b905092915050565b6000806000806000806000806000806101408b8d03121561316c5761316b612c0c565b5b600061317a8d828e01612c32565b9a5050602061318b8d828e01612c32565b995050604061319c8d828e01612c32565b98505060606131ad8d828e01612c32565b97505060806131be8d828e01612c32565b96505060a06131cf8d828e01612c32565b95505060c06131e08d828e01612c32565b94505060e06131f18d828e01612c32565b9350506101006132038d828e01612c32565b9250506101206132158d828e01612c32565b9150509295989b9194979a5092959850565b600060208201905061323c6000830184612c74565b92915050565b7f4f6666657220646f6573206e6f74206578697374000000000000000000000000600082015250565b6000613278601483612e93565b915061328382613242565b602082019050919050565b600060208201905081810360008301526132a78161326b565b9050919050565b7f6f66666572206e6f7420617661696c61626c6500000000000000000000000000600082015250565b60006132e4601383612e93565b91506132ef826132ae565b602082019050919050565b60006020820190508181036000830152613313816132d7565b9050919050565b7f796f752063616e207769746864726177206f6e6c7920796f7572206f776e206f60008201527f6666657200000000000000000000000000000000000000000000000000000000602082015250565b6000613376602483612e93565b91506133818261331a565b604082019050919050565b600060208201905081810360008301526133a581613369565b9050919050565b7f4e487b7100000000000000000000000000000000000000000000000000000000600052601160045260246000fd5b60006133e682612c11565b91506133f183612c11565b92508282026133ff81612c11565b91508282048414831517613416576134156133ac565b5b5092915050565b60006040820190506134326000830185612be2565b61343f6020830184612c74565b9392505050565b61344f81612d9e565b811461345a57600080fd5b50565b60008151905061346c81613446565b92915050565b60006020828403121561348857613487612c0c565b5b60006134968482850161345d565b91505092915050565b7f5472616e73666572206f6620746f6b656e31206661696c656400000000000000600082015250565b60006134d5601983612e93565b91506134e08261349f565b602082019050919050565b60006020820190508181036000830152613504816134c8565b9050919050565b7f5472616e73666572206f6620746f6b656e32206661696c656400000000000000600082015250565b6000613541601983612e93565b915061354c8261350b565b602082019050919050565b6000602082019050818103600083015261357081613534565b9050919050565b7f5472616e73666572206f6620746f6b656e33206661696c656400000000000000600082015250565b60006135ad601983612e93565b91506135b882613577565b602082019050919050565b600060208201905081810360008301526135dc816135a0565b9050919050565b7f5472616e73666572206f6620746f6b656e34206661696c656400000000000000600082015250565b6000613619601983612e93565b9150613624826135e3565b602082019050919050565b600060208201905081810360008301526136488161360c565b9050919050565b7f5472616e73666572206f6620746f6b656e35206661696c656400000000000000600082015250565b6000613685601983612e93565b91506136908261364f565b602082019050919050565b600060208201905081810360008301526136b481613678565b9050919050565b6000815190506136ca81612c1b565b92915050565b6000602082840312156136e6576136e5612c0c565b5b60006136f4848285016136bb565b91505092915050565b7f4e487b7100000000000000000000000000000000000000000000000000000000600052601260045260246000fd5b600061373782612c11565b915061374283612c11565b925082613752576137516136fd565b5b828204905092915050565b7f4e487b7100000000000000000000000000000000000000000000000000000000600052604160045260246000fd5b7f4e487b7100000000000000000000000000000000000000000000000000000000600052603260045260246000fd5b60006137c682612c11565b91507fffffffffffffffffffffffffffffffffffffffffffffffffffffffffffffffff82036137f8576137f76133ac565b5b600182019050919050565b600081905092915050565b600061381982612e88565b6138238185613803565b9350613833818560208601612ea4565b80840191505092915050565b7f20574f4f44200000000000000000000000000000000000000000000000000000600082015250565b6000613875600683613803565b91506138808261383f565b600682019050919050565b6000613897828561380e565b91506138a3828461380e565b91506138ae82613868565b91508190509392505050565b7f20524f434b200000000000000000000000000000000000000000000000000000600082015250565b60006138f0600683613803565b91506138fb826138ba565b600682019050919050565b6000613912828561380e565b915061391e828461380e565b9150613929826138e3565b91508190509392505050565b7f20434c4159200000000000000000000000000000000000000000000000000000600082015250565b600061396b600683613803565b915061397682613935565b600682019050919050565b600061398d828561380e565b9150613999828461380e565b91506139a48261395e565b91508190509392505050565b7f20574f4f4c200000000000000000000000000000000000000000000000000000600082015250565b60006139e6600683613803565b91506139f1826139b0565b600682019050919050565b6000613a08828561380e565b9150613a14828461380e565b9150613a1f826139d9565b91508190509392505050565b7f2046495348200000000000000000000000000000000000000000000000000000600082015250565b6000613a61600683613803565b9150613a6c82613a2b565b600682019050919050565b6000613a83828561380e565b9150613a8f828461380e565b9150613a9a82613a54565b91508190509392505050565b7f666f722000000000000000000000000000000000000000000000000000000000600082015250565b6000613adc600483613803565b9150613ae782613aa6565b600482019050919050565b6000613afe828461380e565b9150613b0982613acf565b915081905092915050565b7f496e76616c6964204f6666657200000000000000000000000000000000000000600082015250565b6000613b4a600d83612e93565b9150613b5582613b14565b602082019050919050565b60006020820190508181036000830152613b7981613b3d565b9050919050565b7f596f752063616e6e6f742061636365707420796f7572206f776e206f66666572600082015250565b6000613bb6602083612e93565b9150613bc182613b80565b602082019050919050565b60006020820190508181036000830152613be581613ba9565b9050919050565b6000606082019050613c016000830186612be2565b613c0e6020830185612be2565b613c1b6040830184612c74565b949350505050565b7f4f6666657220496e76616c696400000000000000000000000000000000000000600082015250565b6000613c59600d83612e93565b9150613c6482613c23565b602082019050919050565b60006020820190508181036000830152613c8881613c4c565b9050919050565b6000613c9a82612c11565b9150613ca583612c11565b9250828203905081811115613cbd57613cbc6133ac565b5b92915050565b6000613cce82612c11565b9150613cd983612c11565b9250828201905080821115613cf157613cf06133ac565b5b92915050565b6000613d0282612c11565b9150613d0d83612c11565b925082613d1d57613d1c6136fd565b5b82820690509291505056fea26469706673582212203db748c2e6ad6d2f0bb5435e66ab73f1b9572549779cc1456584593e4162dbc164736f6c63430008120033",
			"opcodes": "PUSH1 0x80 PUSH1 0x40 MSTORE PUSH20 0xFE2F637036B869D7F296708BAAD3622C53F0D97D PUSH1 0x0 DUP1 PUSH2 0x100 EXP DUP2 SLOAD DUP2 PUSH20 0xFFFFFFFFFFFFFFFFFFFFFFFFFFFFFFFFFFFFFFFF MUL NOT AND SWAP1 DUP4 PUSH20 0xFFFFFFFFFFFFFFFFFFFFFFFFFFFFFFFFFFFFFFFF AND MUL OR SWAP1 SSTORE POP PUSH20 0x17864B7BF61073DF9ED6C0EE90F8117687C2ADE6 PUSH1 0x1 PUSH1 0x0 PUSH2 0x100 EXP DUP2 SLOAD DUP2 PUSH20 0xFFFFFFFFFFFFFFFFFFFFFFFFFFFFFFFFFFFFFFFF MUL NOT AND SWAP1 DUP4 PUSH20 0xFFFFFFFFFFFFFFFFFFFFFFFFFFFFFFFFFFFFFFFF AND MUL OR SWAP1 SSTORE POP PUSH20 0xB41E3CE9A37643D7B4A67F62126468F1C6F70364 PUSH1 0x2 PUSH1 0x0 PUSH2 0x100 EXP DUP2 SLOAD DUP2 PUSH20 0xFFFFFFFFFFFFFFFFFFFFFFFFFFFFFFFFFFFFFFFF MUL NOT AND SWAP1 DUP4 PUSH20 0xFFFFFFFFFFFFFFFFFFFFFFFFFFFFFFFFFFFFFFFF AND MUL OR SWAP1 SSTORE POP PUSH20 0x80FF8A9A77F78FC413015068A858F7A56848480A PUSH1 0x3 PUSH1 0x0 PUSH2 0x100 EXP DUP2 SLOAD DUP2 PUSH20 0xFFFFFFFFFFFFFFFFFFFFFFFFFFFFFFFFFFFFFFFF MUL NOT AND SWAP1 DUP4 PUSH20 0xFFFFFFFFFFFFFFFFFFFFFFFFFFFFFFFFFFFFFFFF AND MUL OR SWAP1 SSTORE POP PUSH20 0x61D620473ACD26CB76C2867860479C9A18E63020 PUSH1 0x4 PUSH1 0x0 PUSH2 0x100 EXP DUP2 SLOAD DUP2 PUSH20 0xFFFFFFFFFFFFFFFFFFFFFFFFFFFFFFFFFFFFFFFF MUL NOT AND SWAP1 DUP4 PUSH20 0xFFFFFFFFFFFFFFFFFFFFFFFFFFFFFFFFFFFFFFFF AND MUL OR SWAP1 SSTORE POP CALLVALUE DUP1 ISZERO PUSH2 0x1B8 JUMPI PUSH1 0x0 DUP1 REVERT JUMPDEST POP PUSH2 0x3D5E DUP1 PUSH2 0x1C8 PUSH1 0x0 CODECOPY PUSH1 0x0 RETURN INVALID PUSH1 0x80 PUSH1 0x40 MSTORE PUSH1 0x4 CALLDATASIZE LT PUSH2 0x109 JUMPI PUSH1 0x0 CALLDATALOAD PUSH1 0xE0 SHR DUP1 PUSH4 0xC491F8DF GT PUSH2 0x95 JUMPI DUP1 PUSH4 0xD30456C5 GT PUSH2 0x64 JUMPI DUP1 PUSH4 0xD30456C5 EQ PUSH2 0x36F JUMPI DUP1 PUSH4 0xDC2D98D2 EQ PUSH2 0x3AC JUMPI DUP1 PUSH4 0xEF14101E EQ PUSH2 0x3E9 JUMPI DUP1 PUSH4 0xF834EC5A EQ PUSH2 0x414 JUMPI DUP1 PUSH4 0xFAE25444 EQ PUSH2 0x430 JUMPI PUSH2 0x109 JUMP JUMPDEST DUP1 PUSH4 0xC491F8DF EQ PUSH2 0x2C5 JUMPI DUP1 PUSH4 0xC815729D EQ PUSH2 0x2F0 JUMPI DUP1 PUSH4 0xCCE3785F EQ PUSH2 0x319 JUMPI DUP1 PUSH4 0xD21220A7 EQ PUSH2 0x344 JUMPI PUSH2 0x109 JUMP JUMPDEST DUP1 PUSH4 0x5C62455F GT PUSH2 0xDC JUMPI DUP1 PUSH4 0x5C62455F EQ PUSH2 0x1C6 JUMPI DUP1 PUSH4 0x77E67F2D EQ PUSH2 0x1F5 JUMPI DUP1 PUSH4 0x79950F55 EQ PUSH2 0x220 JUMPI DUP1 PUSH4 0xB4543FBE EQ PUSH2 0x24B JUMPI DUP1 PUSH4 0xB53408E8 EQ PUSH2 0x288 JUMPI PUSH2 0x109 JUMP JUMPDEST DUP1 PUSH4 0x25BE124E EQ PUSH2 0x10E JUMPI DUP1 PUSH4 0x2E1A7D4D EQ PUSH2 0x139 JUMPI DUP1 PUSH4 0x4579268A EQ PUSH2 0x155 JUMPI DUP1 PUSH4 0x5B6F5E53 EQ PUSH2 0x19B JUMPI JUMPDEST PUSH1 0x0 DUP1 REVERT JUMPDEST CALLVALUE DUP1 ISZERO PUSH2 0x11A JUMPI PUSH1 0x0 DUP1 REVERT JUMPDEST POP PUSH2 0x123 PUSH2 0x45B JUMP JUMPDEST PUSH1 0x40 MLOAD PUSH2 0x130 SWAP2 SWAP1 PUSH2 0x2BF1 JUMP JUMPDEST PUSH1 0x40 MLOAD DUP1 SWAP2 SUB SWAP1 RETURN JUMPDEST PUSH2 0x153 PUSH1 0x4 DUP1 CALLDATASIZE SUB DUP2 ADD SWAP1 PUSH2 0x14E SWAP2 SWAP1 PUSH2 0x2C47 JUMP JUMPDEST PUSH2 0x481 JUMP JUMPDEST STOP JUMPDEST CALLVALUE DUP1 ISZERO PUSH2 0x161 JUMPI PUSH1 0x0 DUP1 REVERT JUMPDEST POP PUSH2 0x17C PUSH1 0x4 DUP1 CALLDATASIZE SUB DUP2 ADD SWAP1 PUSH2 0x177 SWAP2 SWAP1 PUSH2 0x2C47 JUMP JUMPDEST PUSH2 0xB2F JUMP JUMPDEST PUSH1 0x40 MLOAD PUSH2 0x192 SWAP11 SWAP10 SWAP9 SWAP8 SWAP7 SWAP6 SWAP5 SWAP4 SWAP3 SWAP2 SWAP1 PUSH2 0x2C83 JUMP JUMPDEST PUSH1 0x40 MLOAD DUP1 SWAP2 SUB SWAP1 RETURN JUMPDEST CALLVALUE DUP1 ISZERO PUSH2 0x1A7 JUMPI PUSH1 0x0 DUP1 REVERT JUMPDEST POP PUSH2 0x1B0 PUSH2 0xBA9 JUMP JUMPDEST PUSH1 0x40 MLOAD PUSH2 0x1BD SWAP2 SWAP1 PUSH2 0x2BF1 JUMP JUMPDEST PUSH1 0x40 MLOAD DUP1 SWAP2 SUB SWAP1 RETURN JUMPDEST CALLVALUE DUP1 ISZERO PUSH2 0x1D2 JUMPI PUSH1 0x0 DUP1 REVERT JUMPDEST POP PUSH2 0x1DB PUSH2 0xBCF JUMP JUMPDEST PUSH1 0x40 MLOAD PUSH2 0x1EC SWAP6 SWAP5 SWAP4 SWAP3 SWAP2 SWAP1 PUSH2 0x2D1F JUMP JUMPDEST PUSH1 0x40 MLOAD DUP1 SWAP2 SUB SWAP1 RETURN JUMPDEST CALLVALUE DUP1 ISZERO PUSH2 0x201 JUMPI PUSH1 0x0 DUP1 REVERT JUMPDEST POP PUSH2 0x20A PUSH2 0xF6E JUMP JUMPDEST PUSH1 0x40 MLOAD PUSH2 0x217 SWAP2 SWAP1 PUSH2 0x2E3C JUMP JUMPDEST PUSH1 0x40 MLOAD DUP1 SWAP2 SUB SWAP1 RETURN JUMPDEST CALLVALUE DUP1 ISZERO PUSH2 0x22C JUMPI PUSH1 0x0 DUP1 REVERT JUMPDEST POP PUSH2 0x235 PUSH2 0x101E JUMP JUMPDEST PUSH1 0x40 MLOAD PUSH2 0x242 SWAP2 SWAP1 PUSH2 0x2BF1 JUMP JUMPDEST PUSH1 0x40 MLOAD DUP1 SWAP2 SUB SWAP1 RETURN JUMPDEST CALLVALUE DUP1 ISZERO PUSH2 0x257 JUMPI PUSH1 0x0 DUP1 REVERT JUMPDEST POP PUSH2 0x272 PUSH1 0x4 DUP1 CALLDATASIZE SUB DUP2 ADD SWAP1 PUSH2 0x26D SWAP2 SWAP1 PUSH2 0x2C47 JUMP JUMPDEST PUSH2 0x1044 JUMP JUMPDEST PUSH1 0x40 MLOAD PUSH2 0x27F SWAP2 SWAP1 PUSH2 0x2E6D JUMP JUMPDEST PUSH1 0x40 MLOAD DUP1 SWAP2 SUB SWAP1 RETURN JUMPDEST CALLVALUE DUP1 ISZERO PUSH2 0x294 JUMPI PUSH1 0x0 DUP1 REVERT JUMPDEST POP PUSH2 0x2AF PUSH1 0x4 DUP1 CALLDATASIZE SUB DUP2 ADD SWAP1 PUSH2 0x2AA SWAP2 SWAP1 PUSH2 0x2C47 JUMP JUMPDEST PUSH2 0x10B2 JUMP JUMPDEST PUSH1 0x40 MLOAD PUSH2 0x2BC SWAP2 SWAP1 PUSH2 0x2F18 JUMP JUMPDEST PUSH1 0x40 MLOAD DUP1 SWAP2 SUB SWAP1 RETURN JUMPDEST CALLVALUE DUP1 ISZERO PUSH2 0x2D1 JUMPI PUSH1 0x0 DUP1 REVERT JUMPDEST POP PUSH2 0x2DA PUSH2 0x1345 JUMP JUMPDEST PUSH1 0x40 MLOAD PUSH2 0x2E7 SWAP2 SWAP1 PUSH2 0x3046 JUMP JUMPDEST PUSH1 0x40 MLOAD DUP1 SWAP2 SUB SWAP1 RETURN JUMPDEST CALLVALUE DUP1 ISZERO PUSH2 0x2FC JUMPI PUSH1 0x0 DUP1 REVERT JUMPDEST POP PUSH2 0x317 PUSH1 0x4 DUP1 CALLDATASIZE SUB DUP2 ADD SWAP1 PUSH2 0x312 SWAP2 SWAP1 PUSH2 0x2C47 JUMP JUMPDEST PUSH2 0x13F3 JUMP JUMPDEST STOP JUMPDEST CALLVALUE DUP1 ISZERO PUSH2 0x325 JUMPI PUSH1 0x0 DUP1 REVERT JUMPDEST POP PUSH2 0x32E PUSH2 0x1FE7 JUMP JUMPDEST PUSH1 0x40 MLOAD PUSH2 0x33B SWAP2 SWAP1 PUSH2 0x2E3C JUMP JUMPDEST PUSH1 0x40 MLOAD DUP1 SWAP2 SUB SWAP1 RETURN JUMPDEST CALLVALUE DUP1 ISZERO PUSH2 0x350 JUMPI PUSH1 0x0 DUP1 REVERT JUMPDEST POP PUSH2 0x359 PUSH2 0x2097 JUMP JUMPDEST PUSH1 0x40 MLOAD PUSH2 0x366 SWAP2 SWAP1 PUSH2 0x2BF1 JUMP JUMPDEST PUSH1 0x40 MLOAD DUP1 SWAP2 SUB SWAP1 RETURN JUMPDEST CALLVALUE DUP1 ISZERO PUSH2 0x37B JUMPI PUSH1 0x0 DUP1 REVERT JUMPDEST POP PUSH2 0x396 PUSH1 0x4 DUP1 CALLDATASIZE SUB DUP2 ADD SWAP1 PUSH2 0x391 SWAP2 SWAP1 PUSH2 0x2C47 JUMP JUMPDEST PUSH2 0x20BB JUMP JUMPDEST PUSH1 0x40 MLOAD PUSH2 0x3A3 SWAP2 SWAP1 PUSH2 0x3126 JUMP JUMPDEST PUSH1 0x40 MLOAD DUP1 SWAP2 SUB SWAP1 RETURN JUMPDEST CALLVALUE DUP1 ISZERO PUSH2 0x3B8 JUMPI PUSH1 0x0 DUP1 REVERT JUMPDEST POP PUSH2 0x3D3 PUSH1 0x4 DUP1 CALLDATASIZE SUB DUP2 ADD SWAP1 PUSH2 0x3CE SWAP2 SWAP1 PUSH2 0x2C47 JUMP JUMPDEST PUSH2 0x21E5 JUMP JUMPDEST PUSH1 0x40 MLOAD PUSH2 0x3E0 SWAP2 SWAP1 PUSH2 0x2E6D JUMP JUMPDEST PUSH1 0x40 MLOAD DUP1 SWAP2 SUB SWAP1 RETURN JUMPDEST CALLVALUE DUP1 ISZERO PUSH2 0x3F5 JUMPI PUSH1 0x0 DUP1 REVERT JUMPDEST POP PUSH2 0x3FE PUSH2 0x2212 JUMP JUMPDEST PUSH1 0x40 MLOAD PUSH2 0x40B SWAP2 SWAP1 PUSH2 0x2BF1 JUMP JUMPDEST PUSH1 0x40 MLOAD DUP1 SWAP2 SUB SWAP1 RETURN JUMPDEST PUSH2 0x42E PUSH1 0x4 DUP1 CALLDATASIZE SUB DUP2 ADD SWAP1 PUSH2 0x429 SWAP2 SWAP1 PUSH2 0x3148 JUMP JUMPDEST PUSH2 0x2238 JUMP JUMPDEST STOP JUMPDEST CALLVALUE DUP1 ISZERO PUSH2 0x43C JUMPI PUSH1 0x0 DUP1 REVERT JUMPDEST POP PUSH2 0x445 PUSH2 0x29E9 JUMP JUMPDEST PUSH1 0x40 MLOAD PUSH2 0x452 SWAP2 SWAP1 PUSH2 0x3227 JUMP JUMPDEST PUSH1 0x40 MLOAD DUP1 SWAP2 SUB SWAP1 RETURN JUMPDEST PUSH1 0x1 PUSH1 0x0 SWAP1 SLOAD SWAP1 PUSH2 0x100 EXP SWAP1 DIV PUSH20 0xFFFFFFFFFFFFFFFFFFFFFFFFFFFFFFFFFFFFFFFF AND DUP2 JUMP JUMPDEST PUSH1 0x0 DUP2 LT ISZERO PUSH2 0x4C5 JUMPI PUSH1 0x40 MLOAD PUSH32 0x8C379A000000000000000000000000000000000000000000000000000000000 DUP2 MSTORE PUSH1 0x4 ADD PUSH2 0x4BC SWAP1 PUSH2 0x328E JUMP JUMPDEST PUSH1 0x40 MLOAD DUP1 SWAP2 SUB SWAP1 REVERT JUMPDEST PUSH1 0x1 ISZERO ISZERO PUSH1 0x5 PUSH1 0x0 DUP4 DUP2 MSTORE PUSH1 0x20 ADD SWAP1 DUP2 MSTORE PUSH1 0x20 ADD PUSH1 0x0 KECCAK256 PUSH1 0xD ADD PUSH1 0x0 SWAP1 SLOAD SWAP1 PUSH2 0x100 EXP SWAP1 DIV PUSH1 0xFF AND ISZERO ISZERO EQ PUSH2 0x52F JUMPI PUSH1 0x40 MLOAD PUSH32 0x8C379A000000000000000000000000000000000000000000000000000000000 DUP2 MSTORE PUSH1 0x4 ADD PUSH2 0x526 SWAP1 PUSH2 0x32FA JUMP JUMPDEST PUSH1 0x40 MLOAD DUP1 SWAP2 SUB SWAP1 REVERT JUMPDEST PUSH1 0x5 PUSH1 0x0 DUP3 DUP2 MSTORE PUSH1 0x20 ADD SWAP1 DUP2 MSTORE PUSH1 0x20 ADD PUSH1 0x0 KECCAK256 PUSH1 0x1 ADD PUSH1 0x0 SWAP1 SLOAD SWAP1 PUSH2 0x100 EXP SWAP1 DIV PUSH20 0xFFFFFFFFFFFFFFFFFFFFFFFFFFFFFFFFFFFFFFFF AND PUSH20 0xFFFFFFFFFFFFFFFFFFFFFFFFFFFFFFFFFFFFFFFF AND CALLER PUSH20 0xFFFFFFFFFFFFFFFFFFFFFFFFFFFFFFFFFFFFFFFF AND EQ PUSH2 0x5D3 JUMPI PUSH1 0x40 MLOAD PUSH32 0x8C379A000000000000000000000000000000000000000000000000000000000 DUP2 MSTORE PUSH1 0x4 ADD PUSH2 0x5CA SWAP1 PUSH2 0x338C JUMP JUMPDEST PUSH1 0x40 MLOAD DUP1 SWAP2 SUB SWAP1 REVERT JUMPDEST PUSH1 0x0 PUSH1 0x5 PUSH1 0x0 DUP4 DUP2 MSTORE PUSH1 0x20 ADD SWAP1 DUP2 MSTORE PUSH1 0x20 ADD PUSH1 0x0 KECCAK256 SWAP1 POP PUSH1 0x0 DUP2 PUSH1 0x2 ADD SLOAD GT ISZERO PUSH2 0x6EC JUMPI PUSH1 0x0 DUP1 SLOAD SWAP1 PUSH2 0x100 EXP SWAP1 DIV PUSH20 0xFFFFFFFFFFFFFFFFFFFFFFFFFFFFFFFFFFFFFFFF AND PUSH20 0xFFFFFFFFFFFFFFFFFFFFFFFFFFFFFFFFFFFFFFFF AND PUSH4 0xA9059CBB CALLER PUSH8 0xDE0B6B3A7640000 DUP5 PUSH1 0x2 ADD SLOAD PUSH2 0x64C SWAP2 SWAP1 PUSH2 0x33DB JUMP JUMPDEST PUSH1 0x40 MLOAD DUP4 PUSH4 0xFFFFFFFF AND PUSH1 0xE0 SHL DUP2 MSTORE PUSH1 0x4 ADD PUSH2 0x669 SWAP3 SWAP2 SWAP1 PUSH2 0x341D JUMP JUMPDEST PUSH1 0x20 PUSH1 0x40 MLOAD DUP1 DUP4 SUB DUP2 PUSH1 0x0 DUP8 GAS CALL ISZERO DUP1 ISZERO PUSH2 0x688 JUMPI RETURNDATASIZE PUSH1 0x0 DUP1 RETURNDATACOPY RETURNDATASIZE PUSH1 0x0 REVERT JUMPDEST POP POP POP POP PUSH1 0x40 MLOAD RETURNDATASIZE PUSH1 0x1F NOT PUSH1 0x1F DUP3 ADD AND DUP3 ADD DUP1 PUSH1 0x40 MSTORE POP DUP2 ADD SWAP1 PUSH2 0x6AC SWAP2 SWAP1 PUSH2 0x3472 JUMP JUMPDEST PUSH2 0x6EB JUMPI PUSH1 0x40 MLOAD PUSH32 0x8C379A000000000000000000000000000000000000000000000000000000000 DUP2 MSTORE PUSH1 0x4 ADD PUSH2 0x6E2 SWAP1 PUSH2 0x34EB JUMP JUMPDEST PUSH1 0x40 MLOAD DUP1 SWAP2 SUB SWAP1 REVERT JUMPDEST JUMPDEST PUSH1 0x0 DUP2 PUSH1 0x3 ADD SLOAD GT ISZERO PUSH2 0x7F0 JUMPI PUSH1 0x1 PUSH1 0x0 SWAP1 SLOAD SWAP1 PUSH2 0x100 EXP SWAP1 DIV PUSH20 0xFFFFFFFFFFFFFFFFFFFFFFFFFFFFFFFFFFFFFFFF AND PUSH20 0xFFFFFFFFFFFFFFFFFFFFFFFFFFFFFFFFFFFFFFFF AND PUSH4 0xA9059CBB CALLER PUSH8 0xDE0B6B3A7640000 DUP5 PUSH1 0x3 ADD SLOAD PUSH2 0x750 SWAP2 SWAP1 PUSH2 0x33DB JUMP JUMPDEST PUSH1 0x40 MLOAD DUP4 PUSH4 0xFFFFFFFF AND PUSH1 0xE0 SHL DUP2 MSTORE PUSH1 0x4 ADD PUSH2 0x76D SWAP3 SWAP2 SWAP1 PUSH2 0x341D JUMP JUMPDEST PUSH1 0x20 PUSH1 0x40 MLOAD DUP1 DUP4 SUB DUP2 PUSH1 0x0 DUP8 GAS CALL ISZERO DUP1 ISZERO PUSH2 0x78C JUMPI RETURNDATASIZE PUSH1 0x0 DUP1 RETURNDATACOPY RETURNDATASIZE PUSH1 0x0 REVERT JUMPDEST POP POP POP POP PUSH1 0x40 MLOAD RETURNDATASIZE PUSH1 0x1F NOT PUSH1 0x1F DUP3 ADD AND DUP3 ADD DUP1 PUSH1 0x40 MSTORE POP DUP2 ADD SWAP1 PUSH2 0x7B0 SWAP2 SWAP1 PUSH2 0x3472 JUMP JUMPDEST PUSH2 0x7EF JUMPI PUSH1 0x40 MLOAD PUSH32 0x8C379A000000000000000000000000000000000000000000000000000000000 DUP2 MSTORE PUSH1 0x4 ADD PUSH2 0x7E6 SWAP1 PUSH2 0x3557 JUMP JUMPDEST PUSH1 0x40 MLOAD DUP1 SWAP2 SUB SWAP1 REVERT JUMPDEST JUMPDEST PUSH1 0x0 DUP2 PUSH1 0x4 ADD SLOAD GT ISZERO PUSH2 0x8F4 JUMPI PUSH1 0x2 PUSH1 0x0 SWAP1 SLOAD SWAP1 PUSH2 0x100 EXP SWAP1 DIV PUSH20 0xFFFFFFFFFFFFFFFFFFFFFFFFFFFFFFFFFFFFFFFF AND PUSH20 0xFFFFFFFFFFFFFFFFFFFFFFFFFFFFFFFFFFFFFFFF AND PUSH4 0xA9059CBB CALLER PUSH8 0xDE0B6B3A7640000 DUP5 PUSH1 0x4 ADD SLOAD PUSH2 0x854 SWAP2 SWAP1 PUSH2 0x33DB JUMP JUMPDEST PUSH1 0x40 MLOAD DUP4 PUSH4 0xFFFFFFFF AND PUSH1 0xE0 SHL DUP2 MSTORE PUSH1 0x4 ADD PUSH2 0x871 SWAP3 SWAP2 SWAP1 PUSH2 0x341D JUMP JUMPDEST PUSH1 0x20 PUSH1 0x40 MLOAD DUP1 DUP4 SUB DUP2 PUSH1 0x0 DUP8 GAS CALL ISZERO DUP1 ISZERO PUSH2 0x890 JUMPI RETURNDATASIZE PUSH1 0x0 DUP1 RETURNDATACOPY RETURNDATASIZE PUSH1 0x0 REVERT JUMPDEST POP POP POP POP PUSH1 0x40 MLOAD RETURNDATASIZE PUSH1 0x1F NOT PUSH1 0x1F DUP3 ADD AND DUP3 ADD DUP1 PUSH1 0x40 MSTORE POP DUP2 ADD SWAP1 PUSH2 0x8B4 SWAP2 SWAP1 PUSH2 0x3472 JUMP JUMPDEST PUSH2 0x8F3 JUMPI PUSH1 0x40 MLOAD PUSH32 0x8C379A000000000000000000000000000000000000000000000000000000000 DUP2 MSTORE PUSH1 0x4 ADD PUSH2 0x8EA SWAP1 PUSH2 0x35C3 JUMP JUMPDEST PUSH1 0x40 MLOAD DUP1 SWAP2 SUB SWAP1 REVERT JUMPDEST JUMPDEST PUSH1 0x0 DUP2 PUSH1 0x5 ADD SLOAD GT ISZERO PUSH2 0x9F8 JUMPI PUSH1 0x3 PUSH1 0x0 SWAP1 SLOAD SWAP1 PUSH2 0x100 EXP SWAP1 DIV PUSH20 0xFFFFFFFFFFFFFFFFFFFFFFFFFFFFFFFFFFFFFFFF AND PUSH20 0xFFFFFFFFFFFFFFFFFFFFFFFFFFFFFFFFFFFFFFFF AND PUSH4 0xA9059CBB CALLER PUSH8 0xDE0B6B3A7640000 DUP5 PUSH1 0x5 ADD SLOAD PUSH2 0x958 SWAP2 SWAP1 PUSH2 0x33DB JUMP JUMPDEST PUSH1 0x40 MLOAD DUP4 PUSH4 0xFFFFFFFF AND PUSH1 0xE0 SHL DUP2 MSTORE PUSH1 0x4 ADD PUSH2 0x975 SWAP3 SWAP2 SWAP1 PUSH2 0x341D JUMP JUMPDEST PUSH1 0x20 PUSH1 0x40 MLOAD DUP1 DUP4 SUB DUP2 PUSH1 0x0 DUP8 GAS CALL ISZERO DUP1 ISZERO PUSH2 0x994 JUMPI RETURNDATASIZE PUSH1 0x0 DUP1 RETURNDATACOPY RETURNDATASIZE PUSH1 0x0 REVERT JUMPDEST POP POP POP POP PUSH1 0x40 MLOAD RETURNDATASIZE PUSH1 0x1F NOT PUSH1 0x1F DUP3 ADD AND DUP3 ADD DUP1 PUSH1 0x40 MSTORE POP DUP2 ADD SWAP1 PUSH2 0x9B8 SWAP2 SWAP1 PUSH2 0x3472 JUMP JUMPDEST PUSH2 0x9F7 JUMPI PUSH1 0x40 MLOAD PUSH32 0x8C379A000000000000000000000000000000000000000000000000000000000 DUP2 MSTORE PUSH1 0x4 ADD PUSH2 0x9EE SWAP1 PUSH2 0x362F JUMP JUMPDEST PUSH1 0x40 MLOAD DUP1 SWAP2 SUB SWAP1 REVERT JUMPDEST JUMPDEST PUSH1 0x0 DUP2 PUSH1 0x6 ADD SLOAD GT ISZERO PUSH2 0xAFC JUMPI PUSH1 0x4 PUSH1 0x0 SWAP1 SLOAD SWAP1 PUSH2 0x100 EXP SWAP1 DIV PUSH20 0xFFFFFFFFFFFFFFFFFFFFFFFFFFFFFFFFFFFFFFFF AND PUSH20 0xFFFFFFFFFFFFFFFFFFFFFFFFFFFFFFFFFFFFFFFF AND PUSH4 0xA9059CBB CALLER PUSH8 0xDE0B6B3A7640000 DUP5 PUSH1 0x6 ADD SLOAD PUSH2 0xA5C SWAP2 SWAP1 PUSH2 0x33DB JUMP JUMPDEST PUSH1 0x40 MLOAD DUP4 PUSH4 0xFFFFFFFF AND PUSH1 0xE0 SHL DUP2 MSTORE PUSH1 0x4 ADD PUSH2 0xA79 SWAP3 SWAP2 SWAP1 PUSH2 0x341D JUMP JUMPDEST PUSH1 0x20 PUSH1 0x40 MLOAD DUP1 DUP4 SUB DUP2 PUSH1 0x0 DUP8 GAS CALL ISZERO DUP1 ISZERO PUSH2 0xA98 JUMPI RETURNDATASIZE PUSH1 0x0 DUP1 RETURNDATACOPY RETURNDATASIZE PUSH1 0x0 REVERT JUMPDEST POP POP POP POP PUSH1 0x40 MLOAD RETURNDATASIZE PUSH1 0x1F NOT PUSH1 0x1F DUP3 ADD AND DUP3 ADD DUP1 PUSH1 0x40 MSTORE POP DUP2 ADD SWAP1 PUSH2 0xABC SWAP2 SWAP1 PUSH2 0x3472 JUMP JUMPDEST PUSH2 0xAFB JUMPI PUSH1 0x40 MLOAD PUSH32 0x8C379A000000000000000000000000000000000000000000000000000000000 DUP2 MSTORE PUSH1 0x4 ADD PUSH2 0xAF2 SWAP1 PUSH2 0x369B JUMP JUMPDEST PUSH1 0x40 MLOAD DUP1 SWAP2 SUB SWAP1 REVERT JUMPDEST JUMPDEST PUSH1 0x0 PUSH1 0x5 PUSH1 0x0 DUP5 DUP2 MSTORE PUSH1 0x20 ADD SWAP1 DUP2 MSTORE PUSH1 0x20 ADD PUSH1 0x0 KECCAK256 PUSH1 0xD ADD PUSH1 0x0 PUSH2 0x100 EXP DUP2 SLOAD DUP2 PUSH1 0xFF MUL NOT AND SWAP1 DUP4 ISZERO ISZERO MUL OR SWAP1 SSTORE POP POP POP JUMP JUMPDEST PUSH1 0x0 DUP1 PUSH1 0x0 DUP1 PUSH1 0x0 DUP1 PUSH1 0x0 DUP1 PUSH1 0x0 DUP1 PUSH1 0x0 PUSH1 0x5 PUSH1 0x0 DUP14 DUP2 MSTORE PUSH1 0x20 ADD SWAP1 DUP2 MSTORE PUSH1 0x20 ADD PUSH1 0x0 KECCAK256 SWAP1 POP DUP1 PUSH1 0x2 ADD SLOAD DUP2 PUSH1 0x3 ADD SLOAD DUP3 PUSH1 0x4 ADD SLOAD DUP4 PUSH1 0x5 ADD SLOAD DUP5 PUSH1 0x6 ADD SLOAD DUP6 PUSH1 0x7 ADD SLOAD DUP7 PUSH1 0x8 ADD SLOAD DUP8 PUSH1 0x9 ADD SLOAD DUP9 PUSH1 0xA ADD SLOAD DUP10 PUSH1 0xB ADD SLOAD SWAP11 POP SWAP11 POP SWAP11 POP SWAP11 POP SWAP11 POP SWAP11 POP SWAP11 POP SWAP11 POP SWAP11 POP SWAP11 POP POP SWAP2 SWAP4 SWAP6 SWAP8 SWAP10 POP SWAP2 SWAP4 SWAP6 SWAP8 SWAP10 JUMP JUMPDEST PUSH1 0x4 PUSH1 0x0 SWAP1 SLOAD SWAP1 PUSH2 0x100 EXP SWAP1 DIV PUSH20 0xFFFFFFFFFFFFFFFFFFFFFFFFFFFFFFFFFFFFFFFF AND DUP2 JUMP JUMPDEST PUSH1 0x0 DUP1 PUSH1 0x0 DUP1 PUSH1 0x0 DUP1 PUSH8 0xDE0B6B3A7640000 PUSH1 0x0 DUP1 SLOAD SWAP1 PUSH2 0x100 EXP SWAP1 DIV PUSH20 0xFFFFFFFFFFFFFFFFFFFFFFFFFFFFFFFFFFFFFFFF AND PUSH20 0xFFFFFFFFFFFFFFFFFFFFFFFFFFFFFFFFFFFFFFFF AND PUSH4 0x70A08231 ADDRESS PUSH1 0x40 MLOAD DUP3 PUSH4 0xFFFFFFFF AND PUSH1 0xE0 SHL DUP2 MSTORE PUSH1 0x4 ADD PUSH2 0xC3A SWAP2 SWAP1 PUSH2 0x2BF1 JUMP JUMPDEST PUSH1 0x20 PUSH1 0x40 MLOAD DUP1 DUP4 SUB DUP2 DUP7 GAS STATICCALL ISZERO DUP1 ISZERO PUSH2 0xC57 JUMPI RETURNDATASIZE PUSH1 0x0 DUP1 RETURNDATACOPY RETURNDATASIZE PUSH1 0x0 REVERT JUMPDEST POP POP POP POP PUSH1 0x40 MLOAD RETURNDATASIZE PUSH1 0x1F NOT PUSH1 0x1F DUP3 ADD AND DUP3 ADD DUP1 PUSH1 0x40 MSTORE POP DUP2 ADD SWAP1 PUSH2 0xC7B SWAP2 SWAP1 PUSH2 0x36D0 JUMP JUMPDEST PUSH2 0xC85 SWAP2 SWAP1 PUSH2 0x372C JUMP JUMPDEST SWAP1 POP PUSH1 0x0 PUSH8 0xDE0B6B3A7640000 PUSH1 0x1 PUSH1 0x0 SWAP1 SLOAD SWAP1 PUSH2 0x100 EXP SWAP1 DIV PUSH20 0xFFFFFFFFFFFFFFFFFFFFFFFFFFFFFFFFFFFFFFFF AND PUSH20 0xFFFFFFFFFFFFFFFFFFFFFFFFFFFFFFFFFFFFFFFF AND PUSH4 0x70A08231 ADDRESS PUSH1 0x40 MLOAD DUP3 PUSH4 0xFFFFFFFF AND PUSH1 0xE0 SHL DUP2 MSTORE PUSH1 0x4 ADD PUSH2 0xCED SWAP2 SWAP1 PUSH2 0x2BF1 JUMP JUMPDEST PUSH1 0x20 PUSH1 0x40 MLOAD DUP1 DUP4 SUB DUP2 DUP7 GAS STATICCALL ISZERO DUP1 ISZERO PUSH2 0xD0A JUMPI RETURNDATASIZE PUSH1 0x0 DUP1 RETURNDATACOPY RETURNDATASIZE PUSH1 0x0 REVERT JUMPDEST POP POP POP POP PUSH1 0x40 MLOAD RETURNDATASIZE PUSH1 0x1F NOT PUSH1 0x1F DUP3 ADD AND DUP3 ADD DUP1 PUSH1 0x40 MSTORE POP DUP2 ADD SWAP1 PUSH2 0xD2E SWAP2 SWAP1 PUSH2 0x36D0 JUMP JUMPDEST PUSH2 0xD38 SWAP2 SWAP1 PUSH2 0x372C JUMP JUMPDEST SWAP1 POP PUSH1 0x0 PUSH8 0xDE0B6B3A7640000 PUSH1 0x2 PUSH1 0x0 SWAP1 SLOAD SWAP1 PUSH2 0x100 EXP SWAP1 DIV PUSH20 0xFFFFFFFFFFFFFFFFFFFFFFFFFFFFFFFFFFFFFFFF AND PUSH20 0xFFFFFFFFFFFFFFFFFFFFFFFFFFFFFFFFFFFFFFFF AND PUSH4 0x70A08231 ADDRESS PUSH1 0x40 MLOAD DUP3 PUSH4 0xFFFFFFFF AND PUSH1 0xE0 SHL DUP2 MSTORE PUSH1 0x4 ADD PUSH2 0xDA0 SWAP2 SWAP1 PUSH2 0x2BF1 JUMP JUMPDEST PUSH1 0x20 PUSH1 0x40 MLOAD DUP1 DUP4 SUB DUP2 DUP7 GAS STATICCALL ISZERO DUP1 ISZERO PUSH2 0xDBD JUMPI RETURNDATASIZE PUSH1 0x0 DUP1 RETURNDATACOPY RETURNDATASIZE PUSH1 0x0 REVERT JUMPDEST POP POP POP POP PUSH1 0x40 MLOAD RETURNDATASIZE PUSH1 0x1F NOT PUSH1 0x1F DUP3 ADD AND DUP3 ADD DUP1 PUSH1 0x40 MSTORE POP DUP2 ADD SWAP1 PUSH2 0xDE1 SWAP2 SWAP1 PUSH2 0x36D0 JUMP JUMPDEST PUSH2 0xDEB SWAP2 SWAP1 PUSH2 0x372C JUMP JUMPDEST SWAP1 POP PUSH1 0x0 PUSH8 0xDE0B6B3A7640000 PUSH1 0x3 PUSH1 0x0 SWAP1 SLOAD SWAP1 PUSH2 0x100 EXP SWAP1 DIV PUSH20 0xFFFFFFFFFFFFFFFFFFFFFFFFFFFFFFFFFFFFFFFF AND PUSH20 0xFFFFFFFFFFFFFFFFFFFFFFFFFFFFFFFFFFFFFFFF AND PUSH4 0x70A08231 ADDRESS PUSH1 0x40 MLOAD DUP3 PUSH4 0xFFFFFFFF AND PUSH1 0xE0 SHL DUP2 MSTORE PUSH1 0x4 ADD PUSH2 0xE53 SWAP2 SWAP1 PUSH2 0x2BF1 JUMP JUMPDEST PUSH1 0x20 PUSH1 0x40 MLOAD DUP1 DUP4 SUB DUP2 DUP7 GAS STATICCALL ISZERO DUP1 ISZERO PUSH2 0xE70 JUMPI RETURNDATASIZE PUSH1 0x0 DUP1 RETURNDATACOPY RETURNDATASIZE PUSH1 0x0 REVERT JUMPDEST POP POP POP POP PUSH1 0x40 MLOAD RETURNDATASIZE PUSH1 0x1F NOT PUSH1 0x1F DUP3 ADD AND DUP3 ADD DUP1 PUSH1 0x40 MSTORE POP DUP2 ADD SWAP1 PUSH2 0xE94 SWAP2 SWAP1 PUSH2 0x36D0 JUMP JUMPDEST PUSH2 0xE9E SWAP2 SWAP1 PUSH2 0x372C JUMP JUMPDEST SWAP1 POP PUSH1 0x0 PUSH8 0xDE0B6B3A7640000 PUSH1 0x4 PUSH1 0x0 SWAP1 SLOAD SWAP1 PUSH2 0x100 EXP SWAP1 DIV PUSH20 0xFFFFFFFFFFFFFFFFFFFFFFFFFFFFFFFFFFFFFFFF AND PUSH20 0xFFFFFFFFFFFFFFFFFFFFFFFFFFFFFFFFFFFFFFFF AND PUSH4 0x70A08231 ADDRESS PUSH1 0x40 MLOAD DUP3 PUSH4 0xFFFFFFFF AND PUSH1 0xE0 SHL DUP2 MSTORE PUSH1 0x4 ADD PUSH2 0xF06 SWAP2 SWAP1 PUSH2 0x2BF1 JUMP JUMPDEST PUSH1 0x20 PUSH1 0x40 MLOAD DUP1 DUP4 SUB DUP2 DUP7 GAS STATICCALL ISZERO DUP1 ISZERO PUSH2 0xF23 JUMPI RETURNDATASIZE PUSH1 0x0 DUP1 RETURNDATACOPY RETURNDATASIZE PUSH1 0x0 REVERT JUMPDEST POP POP POP POP PUSH1 0x40 MLOAD RETURNDATASIZE PUSH1 0x1F NOT PUSH1 0x1F DUP3 ADD AND DUP3 ADD DUP1 PUSH1 0x40 MSTORE POP DUP2 ADD SWAP1 PUSH2 0xF47 SWAP2 SWAP1 PUSH2 0x36D0 JUMP JUMPDEST PUSH2 0xF51 SWAP2 SWAP1 PUSH2 0x372C JUMP JUMPDEST SWAP1 POP DUP5 DUP5 DUP5 DUP5 DUP5 SWAP10 POP SWAP10 POP SWAP10 POP SWAP10 POP SWAP10 POP POP POP POP POP POP SWAP1 SWAP2 SWAP3 SWAP4 SWAP5 JUMP JUMPDEST PUSH1 0x60 PUSH1 0x0 PUSH2 0xF7A PUSH2 0x29E9 JUMP JUMPDEST SWAP1 POP PUSH1 0x0 DUP2 PUSH8 0xFFFFFFFFFFFFFFFF DUP2 GT ISZERO PUSH2 0xF98 JUMPI PUSH2 0xF97 PUSH2 0x375D JUMP JUMPDEST JUMPDEST PUSH1 0x40 MLOAD SWAP1 DUP1 DUP3 MSTORE DUP1 PUSH1 0x20 MUL PUSH1 0x20 ADD DUP3 ADD PUSH1 0x40 MSTORE DUP1 ISZERO PUSH2 0xFC6 JUMPI DUP2 PUSH1 0x20 ADD PUSH1 0x20 DUP3 MUL DUP1 CALLDATASIZE DUP4 CALLDATACOPY DUP1 DUP3 ADD SWAP2 POP POP SWAP1 POP JUMPDEST POP SWAP1 POP PUSH1 0x0 JUMPDEST DUP3 DUP2 LT ISZERO PUSH2 0x1015 JUMPI PUSH2 0xFDD DUP2 PUSH2 0x21E5 JUMP JUMPDEST DUP3 DUP3 DUP2 MLOAD DUP2 LT PUSH2 0xFF0 JUMPI PUSH2 0xFEF PUSH2 0x378C JUMP JUMPDEST JUMPDEST PUSH1 0x20 MUL PUSH1 0x20 ADD ADD SWAP1 ISZERO ISZERO SWAP1 DUP2 ISZERO ISZERO DUP2 MSTORE POP POP DUP1 DUP1 PUSH2 0x100D SWAP1 PUSH2 0x37BB JUMP JUMPDEST SWAP2 POP POP PUSH2 0xFCC JUMP JUMPDEST POP DUP1 SWAP3 POP POP POP SWAP1 JUMP JUMPDEST PUSH1 0x3 PUSH1 0x0 SWAP1 SLOAD SWAP1 PUSH2 0x100 EXP SWAP1 DIV PUSH20 0xFFFFFFFFFFFFFFFFFFFFFFFFFFFFFFFFFFFFFFFF AND DUP2 JUMP JUMPDEST PUSH1 0x0 PUSH1 0x5 PUSH1 0x0 DUP4 DUP2 MSTORE PUSH1 0x20 ADD SWAP1 DUP2 MSTORE PUSH1 0x20 ADD PUSH1 0x0 KECCAK256 PUSH1 0x1 ADD PUSH1 0x0 SWAP1 SLOAD SWAP1 PUSH2 0x100 EXP SWAP1 DIV PUSH20 0xFFFFFFFFFFFFFFFFFFFFFFFFFFFFFFFFFFFFFFFF AND PUSH20 0xFFFFFFFFFFFFFFFFFFFFFFFFFFFFFFFFFFFFFFFF AND CALLER PUSH20 0xFFFFFFFFFFFFFFFFFFFFFFFFFFFFFFFFFFFFFFFF AND EQ SWAP1 POP SWAP2 SWAP1 POP JUMP JUMPDEST PUSH1 0x60 PUSH1 0x0 DUP1 PUSH1 0x0 DUP1 PUSH1 0x0 DUP1 PUSH1 0x0 DUP1 PUSH1 0x0 DUP1 PUSH2 0x10CC DUP13 PUSH2 0xB2F JUMP JUMPDEST SWAP10 POP SWAP10 POP SWAP10 POP SWAP10 POP SWAP10 POP SWAP10 POP SWAP10 POP SWAP10 POP SWAP10 POP SWAP10 POP PUSH1 0x0 PUSH1 0x40 MLOAD DUP1 PUSH1 0x20 ADD PUSH1 0x40 MSTORE DUP1 PUSH1 0x0 DUP2 MSTORE POP SWAP1 POP PUSH1 0x0 DUP12 GT ISZERO PUSH2 0x112A JUMPI DUP1 PUSH2 0x1107 DUP13 PUSH2 0x2A2C JUMP JUMPDEST PUSH1 0x40 MLOAD PUSH1 0x20 ADD PUSH2 0x1118 SWAP3 SWAP2 SWAP1 PUSH2 0x388B JUMP JUMPDEST PUSH1 0x40 MLOAD PUSH1 0x20 DUP2 DUP4 SUB SUB DUP2 MSTORE SWAP1 PUSH1 0x40 MSTORE SWAP1 POP JUMPDEST PUSH1 0x0 DUP11 GT ISZERO PUSH2 0x1160 JUMPI DUP1 PUSH2 0x113D DUP12 PUSH2 0x2A2C JUMP JUMPDEST PUSH1 0x40 MLOAD PUSH1 0x20 ADD PUSH2 0x114E SWAP3 SWAP2 SWAP1 PUSH2 0x3906 JUMP JUMPDEST PUSH1 0x40 MLOAD PUSH1 0x20 DUP2 DUP4 SUB SUB DUP2 MSTORE SWAP1 PUSH1 0x40 MSTORE SWAP1 POP JUMPDEST PUSH1 0x0 DUP10 GT ISZERO PUSH2 0x1196 JUMPI DUP1 PUSH2 0x1173 DUP11 PUSH2 0x2A2C JUMP JUMPDEST PUSH1 0x40 MLOAD PUSH1 0x20 ADD PUSH2 0x1184 SWAP3 SWAP2 SWAP1 PUSH2 0x3981 JUMP JUMPDEST PUSH1 0x40 MLOAD PUSH1 0x20 DUP2 DUP4 SUB SUB DUP2 MSTORE SWAP1 PUSH1 0x40 MSTORE SWAP1 POP JUMPDEST PUSH1 0x0 DUP9 GT ISZERO PUSH2 0x11CC JUMPI DUP1 PUSH2 0x11A9 DUP10 PUSH2 0x2A2C JUMP JUMPDEST PUSH1 0x40 MLOAD PUSH1 0x20 ADD PUSH2 0x11BA SWAP3 SWAP2 SWAP1 PUSH2 0x39FC JUMP JUMPDEST PUSH1 0x40 MLOAD PUSH1 0x20 DUP2 DUP4 SUB SUB DUP2 MSTORE SWAP1 PUSH1 0x40 MSTORE SWAP1 POP JUMPDEST PUSH1 0x0 DUP8 GT ISZERO PUSH2 0x1202 JUMPI DUP1 PUSH2 0x11DF DUP9 PUSH2 0x2A2C JUMP JUMPDEST PUSH1 0x40 MLOAD PUSH1 0x20 ADD PUSH2 0x11F0 SWAP3 SWAP2 SWAP1 PUSH2 0x3A77 JUMP JUMPDEST PUSH1 0x40 MLOAD PUSH1 0x20 DUP2 DUP4 SUB SUB DUP2 MSTORE SWAP1 PUSH1 0x40 MSTORE SWAP1 POP JUMPDEST DUP1 PUSH1 0x40 MLOAD PUSH1 0x20 ADD PUSH2 0x1213 SWAP2 SWAP1 PUSH2 0x3AF2 JUMP JUMPDEST PUSH1 0x40 MLOAD PUSH1 0x20 DUP2 DUP4 SUB SUB DUP2 MSTORE SWAP1 PUSH1 0x40 MSTORE SWAP1 POP PUSH1 0x0 DUP7 GT ISZERO PUSH2 0x125A JUMPI DUP1 PUSH2 0x1237 DUP8 PUSH2 0x2A2C JUMP JUMPDEST PUSH1 0x40 MLOAD PUSH1 0x20 ADD PUSH2 0x1248 SWAP3 SWAP2 SWAP1 PUSH2 0x388B JUMP JUMPDEST PUSH1 0x40 MLOAD PUSH1 0x20 DUP2 DUP4 SUB SUB DUP2 MSTORE SWAP1 PUSH1 0x40 MSTORE SWAP1 POP JUMPDEST PUSH1 0x0 DUP6 GT ISZERO PUSH2 0x1290 JUMPI DUP1 PUSH2 0x126D DUP7 PUSH2 0x2A2C JUMP JUMPDEST PUSH1 0x40 MLOAD PUSH1 0x20 ADD PUSH2 0x127E SWAP3 SWAP2 SWAP1 PUSH2 0x3906 JUMP JUMPDEST PUSH1 0x40 MLOAD PUSH1 0x20 DUP2 DUP4 SUB SUB DUP2 MSTORE SWAP1 PUSH1 0x40 MSTORE SWAP1 POP JUMPDEST PUSH1 0x0 DUP5 GT ISZERO PUSH2 0x12C6 JUMPI DUP1 PUSH2 0x12A3 DUP6 PUSH2 0x2A2C JUMP JUMPDEST PUSH1 0x40 MLOAD PUSH1 0x20 ADD PUSH2 0x12B4 SWAP3 SWAP2 SWAP1 PUSH2 0x3981 JUMP JUMPDEST PUSH1 0x40 MLOAD PUSH1 0x20 DUP2 DUP4 SUB SUB DUP2 MSTORE SWAP1 PUSH1 0x40 MSTORE SWAP1 POP JUMPDEST PUSH1 0x0 DUP4 GT ISZERO PUSH2 0x12FC JUMPI DUP1 PUSH2 0x12D9 DUP5 PUSH2 0x2A2C JUMP JUMPDEST PUSH1 0x40 MLOAD PUSH1 0x20 ADD PUSH2 0x12EA SWAP3 SWAP2 SWAP1 PUSH2 0x39FC JUMP JUMPDEST PUSH1 0x40 MLOAD PUSH1 0x20 DUP2 DUP4 SUB SUB DUP2 MSTORE SWAP1 PUSH1 0x40 MSTORE SWAP1 POP JUMPDEST PUSH1 0x0 DUP3 GT ISZERO PUSH2 0x1332 JUMPI DUP1 PUSH2 0x130F DUP4 PUSH2 0x2A2C JUMP JUMPDEST PUSH1 0x40 MLOAD PUSH1 0x20 ADD PUSH2 0x1320 SWAP3 SWAP2 SWAP1 PUSH2 0x3A77 JUMP JUMPDEST PUSH1 0x40 MLOAD PUSH1 0x20 DUP2 DUP4 SUB SUB DUP2 MSTORE SWAP1 PUSH1 0x40 MSTORE SWAP1 POP JUMPDEST DUP1 SWAP12 POP POP POP POP POP POP POP POP POP POP POP POP SWAP2 SWAP1 POP JUMP JUMPDEST PUSH1 0x60 PUSH1 0x0 PUSH2 0x1351 PUSH2 0x29E9 JUMP JUMPDEST SWAP1 POP PUSH1 0x0 DUP2 PUSH8 0xFFFFFFFFFFFFFFFF DUP2 GT ISZERO PUSH2 0x136F JUMPI PUSH2 0x136E PUSH2 0x375D JUMP JUMPDEST JUMPDEST PUSH1 0x40 MLOAD SWAP1 DUP1 DUP3 MSTORE DUP1 PUSH1 0x20 MUL PUSH1 0x20 ADD DUP3 ADD PUSH1 0x40 MSTORE DUP1 ISZERO PUSH2 0x13A2 JUMPI DUP2 PUSH1 0x20 ADD JUMPDEST PUSH1 0x60 DUP2 MSTORE PUSH1 0x20 ADD SWAP1 PUSH1 0x1 SWAP1 SUB SWAP1 DUP2 PUSH2 0x138D JUMPI SWAP1 POP JUMPDEST POP SWAP1 POP PUSH1 0x0 JUMPDEST DUP3 DUP2 LT ISZERO PUSH2 0x13EA JUMPI PUSH2 0x13B9 DUP2 PUSH2 0x10B2 JUMP JUMPDEST DUP3 DUP3 DUP2 MLOAD DUP2 LT PUSH2 0x13CC JUMPI PUSH2 0x13CB PUSH2 0x378C JUMP JUMPDEST JUMPDEST PUSH1 0x20 MUL PUSH1 0x20 ADD ADD DUP2 SWAP1 MSTORE POP DUP1 DUP1 PUSH2 0x13E2 SWAP1 PUSH2 0x37BB JUMP JUMPDEST SWAP2 POP POP PUSH2 0x13A8 JUMP JUMPDEST POP DUP1 SWAP3 POP POP POP SWAP1 JUMP JUMPDEST PUSH1 0x0 DUP2 LT ISZERO PUSH2 0x1437 JUMPI PUSH1 0x40 MLOAD PUSH32 0x8C379A000000000000000000000000000000000000000000000000000000000 DUP2 MSTORE PUSH1 0x4 ADD PUSH2 0x142E SWAP1 PUSH2 0x328E JUMP JUMPDEST PUSH1 0x40 MLOAD DUP1 SWAP2 SUB SWAP1 REVERT JUMPDEST PUSH1 0x1 ISZERO ISZERO PUSH1 0x5 PUSH1 0x0 DUP4 DUP2 MSTORE PUSH1 0x20 ADD SWAP1 DUP2 MSTORE PUSH1 0x20 ADD PUSH1 0x0 KECCAK256 PUSH1 0xD ADD PUSH1 0x0 SWAP1 SLOAD SWAP1 PUSH2 0x100 EXP SWAP1 DIV PUSH1 0xFF AND ISZERO ISZERO EQ PUSH2 0x14A1 JUMPI PUSH1 0x40 MLOAD PUSH32 0x8C379A000000000000000000000000000000000000000000000000000000000 DUP2 MSTORE PUSH1 0x4 ADD PUSH2 0x1498 SWAP1 PUSH2 0x3B60 JUMP JUMPDEST PUSH1 0x40 MLOAD DUP1 SWAP2 SUB SWAP1 REVERT JUMPDEST PUSH1 0x5 PUSH1 0x0 DUP3 DUP2 MSTORE PUSH1 0x20 ADD SWAP1 DUP2 MSTORE PUSH1 0x20 ADD PUSH1 0x0 KECCAK256 PUSH1 0x1 ADD PUSH1 0x0 SWAP1 SLOAD SWAP1 PUSH2 0x100 EXP SWAP1 DIV PUSH20 0xFFFFFFFFFFFFFFFFFFFFFFFFFFFFFFFFFFFFFFFF AND PUSH20 0xFFFFFFFFFFFFFFFFFFFFFFFFFFFFFFFFFFFFFFFF AND CALLER PUSH20 0xFFFFFFFFFFFFFFFFFFFFFFFFFFFFFFFFFFFFFFFF AND SUB PUSH2 0x1545 JUMPI PUSH1 0x40 MLOAD PUSH32 0x8C379A000000000000000000000000000000000000000000000000000000000 DUP2 MSTORE PUSH1 0x4 ADD PUSH2 0x153C SWAP1 PUSH2 0x3BCC JUMP JUMPDEST PUSH1 0x40 MLOAD DUP1 SWAP2 SUB SWAP1 REVERT JUMPDEST PUSH1 0x0 PUSH1 0x5 PUSH1 0x0 DUP4 DUP2 MSTORE PUSH1 0x20 ADD SWAP1 DUP2 MSTORE PUSH1 0x20 ADD PUSH1 0x0 KECCAK256 PUSH1 0x1 ADD PUSH1 0x0 SWAP1 SLOAD SWAP1 PUSH2 0x100 EXP SWAP1 DIV PUSH20 0xFFFFFFFFFFFFFFFFFFFFFFFFFFFFFFFFFFFFFFFF AND SWAP1 POP PUSH1 0x0 PUSH1 0x5 PUSH1 0x0 DUP5 DUP2 MSTORE PUSH1 0x20 ADD SWAP1 DUP2 MSTORE PUSH1 0x20 ADD PUSH1 0x0 KECCAK256 SWAP1 POP PUSH1 0x0 DUP2 PUSH1 0x2 ADD SLOAD GT ISZERO PUSH2 0x1699 JUMPI PUSH1 0x0 DUP1 SLOAD SWAP1 PUSH2 0x100 EXP SWAP1 DIV PUSH20 0xFFFFFFFFFFFFFFFFFFFFFFFFFFFFFFFFFFFFFFFF AND PUSH20 0xFFFFFFFFFFFFFFFFFFFFFFFFFFFFFFFFFFFFFFFF AND PUSH4 0xA9059CBB CALLER PUSH8 0xDE0B6B3A7640000 DUP5 PUSH1 0x2 ADD SLOAD PUSH2 0x15F9 SWAP2 SWAP1 PUSH2 0x33DB JUMP JUMPDEST PUSH1 0x40 MLOAD DUP4 PUSH4 0xFFFFFFFF AND PUSH1 0xE0 SHL DUP2 MSTORE PUSH1 0x4 ADD PUSH2 0x1616 SWAP3 SWAP2 SWAP1 PUSH2 0x341D JUMP JUMPDEST PUSH1 0x20 PUSH1 0x40 MLOAD DUP1 DUP4 SUB DUP2 PUSH1 0x0 DUP8 GAS CALL ISZERO DUP1 ISZERO PUSH2 0x1635 JUMPI RETURNDATASIZE PUSH1 0x0 DUP1 RETURNDATACOPY RETURNDATASIZE PUSH1 0x0 REVERT JUMPDEST POP POP POP POP PUSH1 0x40 MLOAD RETURNDATASIZE PUSH1 0x1F NOT PUSH1 0x1F DUP3 ADD AND DUP3 ADD DUP1 PUSH1 0x40 MSTORE POP DUP2 ADD SWAP1 PUSH2 0x1659 SWAP2 SWAP1 PUSH2 0x3472 JUMP JUMPDEST PUSH2 0x1698 JUMPI PUSH1 0x40 MLOAD PUSH32 0x8C379A000000000000000000000000000000000000000000000000000000000 DUP2 MSTORE PUSH1 0x4 ADD PUSH2 0x168F SWAP1 PUSH2 0x34EB JUMP JUMPDEST PUSH1 0x40 MLOAD DUP1 SWAP2 SUB SWAP1 REVERT JUMPDEST JUMPDEST PUSH1 0x0 DUP2 PUSH1 0x3 ADD SLOAD GT ISZERO PUSH2 0x179D JUMPI PUSH1 0x1 PUSH1 0x0 SWAP1 SLOAD SWAP1 PUSH2 0x100 EXP SWAP1 DIV PUSH20 0xFFFFFFFFFFFFFFFFFFFFFFFFFFFFFFFFFFFFFFFF AND PUSH20 0xFFFFFFFFFFFFFFFFFFFFFFFFFFFFFFFFFFFFFFFF AND PUSH4 0xA9059CBB CALLER PUSH8 0xDE0B6B3A7640000 DUP5 PUSH1 0x3 ADD SLOAD PUSH2 0x16FD SWAP2 SWAP1 PUSH2 0x33DB JUMP JUMPDEST PUSH1 0x40 MLOAD DUP4 PUSH4 0xFFFFFFFF AND PUSH1 0xE0 SHL DUP2 MSTORE PUSH1 0x4 ADD PUSH2 0x171A SWAP3 SWAP2 SWAP1 PUSH2 0x341D JUMP JUMPDEST PUSH1 0x20 PUSH1 0x40 MLOAD DUP1 DUP4 SUB DUP2 PUSH1 0x0 DUP8 GAS CALL ISZERO DUP1 ISZERO PUSH2 0x1739 JUMPI RETURNDATASIZE PUSH1 0x0 DUP1 RETURNDATACOPY RETURNDATASIZE PUSH1 0x0 REVERT JUMPDEST POP POP POP POP PUSH1 0x40 MLOAD RETURNDATASIZE PUSH1 0x1F NOT PUSH1 0x1F DUP3 ADD AND DUP3 ADD DUP1 PUSH1 0x40 MSTORE POP DUP2 ADD SWAP1 PUSH2 0x175D SWAP2 SWAP1 PUSH2 0x3472 JUMP JUMPDEST PUSH2 0x179C JUMPI PUSH1 0x40 MLOAD PUSH32 0x8C379A000000000000000000000000000000000000000000000000000000000 DUP2 MSTORE PUSH1 0x4 ADD PUSH2 0x1793 SWAP1 PUSH2 0x3557 JUMP JUMPDEST PUSH1 0x40 MLOAD DUP1 SWAP2 SUB SWAP1 REVERT JUMPDEST JUMPDEST PUSH1 0x0 DUP2 PUSH1 0x4 ADD SLOAD GT ISZERO PUSH2 0x18A1 JUMPI PUSH1 0x2 PUSH1 0x0 SWAP1 SLOAD SWAP1 PUSH2 0x100 EXP SWAP1 DIV PUSH20 0xFFFFFFFFFFFFFFFFFFFFFFFFFFFFFFFFFFFFFFFF AND PUSH20 0xFFFFFFFFFFFFFFFFFFFFFFFFFFFFFFFFFFFFFFFF AND PUSH4 0xA9059CBB CALLER PUSH8 0xDE0B6B3A7640000 DUP5 PUSH1 0x4 ADD SLOAD PUSH2 0x1801 SWAP2 SWAP1 PUSH2 0x33DB JUMP JUMPDEST PUSH1 0x40 MLOAD DUP4 PUSH4 0xFFFFFFFF AND PUSH1 0xE0 SHL DUP2 MSTORE PUSH1 0x4 ADD PUSH2 0x181E SWAP3 SWAP2 SWAP1 PUSH2 0x341D JUMP JUMPDEST PUSH1 0x20 PUSH1 0x40 MLOAD DUP1 DUP4 SUB DUP2 PUSH1 0x0 DUP8 GAS CALL ISZERO DUP1 ISZERO PUSH2 0x183D JUMPI RETURNDATASIZE PUSH1 0x0 DUP1 RETURNDATACOPY RETURNDATASIZE PUSH1 0x0 REVERT JUMPDEST POP POP POP POP PUSH1 0x40 MLOAD RETURNDATASIZE PUSH1 0x1F NOT PUSH1 0x1F DUP3 ADD AND DUP3 ADD DUP1 PUSH1 0x40 MSTORE POP DUP2 ADD SWAP1 PUSH2 0x1861 SWAP2 SWAP1 PUSH2 0x3472 JUMP JUMPDEST PUSH2 0x18A0 JUMPI PUSH1 0x40 MLOAD PUSH32 0x8C379A000000000000000000000000000000000000000000000000000000000 DUP2 MSTORE PUSH1 0x4 ADD PUSH2 0x1897 SWAP1 PUSH2 0x35C3 JUMP JUMPDEST PUSH1 0x40 MLOAD DUP1 SWAP2 SUB SWAP1 REVERT JUMPDEST JUMPDEST PUSH1 0x0 DUP2 PUSH1 0x5 ADD SLOAD GT ISZERO PUSH2 0x19A5 JUMPI PUSH1 0x3 PUSH1 0x0 SWAP1 SLOAD SWAP1 PUSH2 0x100 EXP SWAP1 DIV PUSH20 0xFFFFFFFFFFFFFFFFFFFFFFFFFFFFFFFFFFFFFFFF AND PUSH20 0xFFFFFFFFFFFFFFFFFFFFFFFFFFFFFFFFFFFFFFFF AND PUSH4 0xA9059CBB CALLER PUSH8 0xDE0B6B3A7640000 DUP5 PUSH1 0x5 ADD SLOAD PUSH2 0x1905 SWAP2 SWAP1 PUSH2 0x33DB JUMP JUMPDEST PUSH1 0x40 MLOAD DUP4 PUSH4 0xFFFFFFFF AND PUSH1 0xE0 SHL DUP2 MSTORE PUSH1 0x4 ADD PUSH2 0x1922 SWAP3 SWAP2 SWAP1 PUSH2 0x341D JUMP JUMPDEST PUSH1 0x20 PUSH1 0x40 MLOAD DUP1 DUP4 SUB DUP2 PUSH1 0x0 DUP8 GAS CALL ISZERO DUP1 ISZERO PUSH2 0x1941 JUMPI RETURNDATASIZE PUSH1 0x0 DUP1 RETURNDATACOPY RETURNDATASIZE PUSH1 0x0 REVERT JUMPDEST POP POP POP POP PUSH1 0x40 MLOAD RETURNDATASIZE PUSH1 0x1F NOT PUSH1 0x1F DUP3 ADD AND DUP3 ADD DUP1 PUSH1 0x40 MSTORE POP DUP2 ADD SWAP1 PUSH2 0x1965 SWAP2 SWAP1 PUSH2 0x3472 JUMP JUMPDEST PUSH2 0x19A4 JUMPI PUSH1 0x40 MLOAD PUSH32 0x8C379A000000000000000000000000000000000000000000000000000000000 DUP2 MSTORE PUSH1 0x4 ADD PUSH2 0x199B SWAP1 PUSH2 0x362F JUMP JUMPDEST PUSH1 0x40 MLOAD DUP1 SWAP2 SUB SWAP1 REVERT JUMPDEST JUMPDEST PUSH1 0x0 DUP2 PUSH1 0x6 ADD SLOAD GT ISZERO PUSH2 0x1AA9 JUMPI PUSH1 0x4 PUSH1 0x0 SWAP1 SLOAD SWAP1 PUSH2 0x100 EXP SWAP1 DIV PUSH20 0xFFFFFFFFFFFFFFFFFFFFFFFFFFFFFFFFFFFFFFFF AND PUSH20 0xFFFFFFFFFFFFFFFFFFFFFFFFFFFFFFFFFFFFFFFF AND PUSH4 0xA9059CBB CALLER PUSH8 0xDE0B6B3A7640000 DUP5 PUSH1 0x6 ADD SLOAD PUSH2 0x1A09 SWAP2 SWAP1 PUSH2 0x33DB JUMP JUMPDEST PUSH1 0x40 MLOAD DUP4 PUSH4 0xFFFFFFFF AND PUSH1 0xE0 SHL DUP2 MSTORE PUSH1 0x4 ADD PUSH2 0x1A26 SWAP3 SWAP2 SWAP1 PUSH2 0x341D JUMP JUMPDEST PUSH1 0x20 PUSH1 0x40 MLOAD DUP1 DUP4 SUB DUP2 PUSH1 0x0 DUP8 GAS CALL ISZERO DUP1 ISZERO PUSH2 0x1A45 JUMPI RETURNDATASIZE PUSH1 0x0 DUP1 RETURNDATACOPY RETURNDATASIZE PUSH1 0x0 REVERT JUMPDEST POP POP POP POP PUSH1 0x40 MLOAD RETURNDATASIZE PUSH1 0x1F NOT PUSH1 0x1F DUP3 ADD AND DUP3 ADD DUP1 PUSH1 0x40 MSTORE POP DUP2 ADD SWAP1 PUSH2 0x1A69 SWAP2 SWAP1 PUSH2 0x3472 JUMP JUMPDEST PUSH2 0x1AA8 JUMPI PUSH1 0x40 MLOAD PUSH32 0x8C379A000000000000000000000000000000000000000000000000000000000 DUP2 MSTORE PUSH1 0x4 ADD PUSH2 0x1A9F SWAP1 PUSH2 0x369B JUMP JUMPDEST PUSH1 0x40 MLOAD DUP1 SWAP2 SUB SWAP1 REVERT JUMPDEST JUMPDEST PUSH1 0x0 DUP2 PUSH1 0x7 ADD SLOAD GT ISZERO PUSH2 0x1BAD JUMPI PUSH1 0x0 DUP1 SLOAD SWAP1 PUSH2 0x100 EXP SWAP1 DIV PUSH20 0xFFFFFFFFFFFFFFFFFFFFFFFFFFFFFFFFFFFFFFFF AND PUSH20 0xFFFFFFFFFFFFFFFFFFFFFFFFFFFFFFFFFFFFFFFF AND PUSH4 0x23B872DD CALLER DUP5 PUSH8 0xDE0B6B3A7640000 DUP6 PUSH1 0x7 ADD SLOAD PUSH2 0x1B0C SWAP2 SWAP1 PUSH2 0x33DB JUMP JUMPDEST PUSH1 0x40 MLOAD DUP5 PUSH4 0xFFFFFFFF AND PUSH1 0xE0 SHL DUP2 MSTORE PUSH1 0x4 ADD PUSH2 0x1B2A SWAP4 SWAP3 SWAP2 SWAP1 PUSH2 0x3BEC JUMP JUMPDEST PUSH1 0x20 PUSH1 0x40 MLOAD DUP1 DUP4 SUB DUP2 PUSH1 0x0 DUP8 GAS CALL ISZERO DUP1 ISZERO PUSH2 0x1B49 JUMPI RETURNDATASIZE PUSH1 0x0 DUP1 RETURNDATACOPY RETURNDATASIZE PUSH1 0x0 REVERT JUMPDEST POP POP POP POP PUSH1 0x40 MLOAD RETURNDATASIZE PUSH1 0x1F NOT PUSH1 0x1F DUP3 ADD AND DUP3 ADD DUP1 PUSH1 0x40 MSTORE POP DUP2 ADD SWAP1 PUSH2 0x1B6D SWAP2 SWAP1 PUSH2 0x3472 JUMP JUMPDEST PUSH2 0x1BAC JUMPI PUSH1 0x40 MLOAD PUSH32 0x8C379A000000000000000000000000000000000000000000000000000000000 DUP2 MSTORE PUSH1 0x4 ADD PUSH2 0x1BA3 SWAP1 PUSH2 0x34EB JUMP JUMPDEST PUSH1 0x40 MLOAD DUP1 SWAP2 SUB SWAP1 REVERT JUMPDEST JUMPDEST PUSH1 0x0 DUP2 PUSH1 0x8 ADD SLOAD GT ISZERO PUSH2 0x1CB3 JUMPI PUSH1 0x1 PUSH1 0x0 SWAP1 SLOAD SWAP1 PUSH2 0x100 EXP SWAP1 DIV PUSH20 0xFFFFFFFFFFFFFFFFFFFFFFFFFFFFFFFFFFFFFFFF AND PUSH20 0xFFFFFFFFFFFFFFFFFFFFFFFFFFFFFFFFFFFFFFFF AND PUSH4 0x23B872DD CALLER DUP5 PUSH8 0xDE0B6B3A7640000 DUP6 PUSH1 0x8 ADD SLOAD PUSH2 0x1C12 SWAP2 SWAP1 PUSH2 0x33DB JUMP JUMPDEST PUSH1 0x40 MLOAD DUP5 PUSH4 0xFFFFFFFF AND PUSH1 0xE0 SHL DUP2 MSTORE PUSH1 0x4 ADD PUSH2 0x1C30 SWAP4 SWAP3 SWAP2 SWAP1 PUSH2 0x3BEC JUMP JUMPDEST PUSH1 0x20 PUSH1 0x40 MLOAD DUP1 DUP4 SUB DUP2 PUSH1 0x0 DUP8 GAS CALL ISZERO DUP1 ISZERO PUSH2 0x1C4F JUMPI RETURNDATASIZE PUSH1 0x0 DUP1 RETURNDATACOPY RETURNDATASIZE PUSH1 0x0 REVERT JUMPDEST POP POP POP POP PUSH1 0x40 MLOAD RETURNDATASIZE PUSH1 0x1F NOT PUSH1 0x1F DUP3 ADD AND DUP3 ADD DUP1 PUSH1 0x40 MSTORE POP DUP2 ADD SWAP1 PUSH2 0x1C73 SWAP2 SWAP1 PUSH2 0x3472 JUMP JUMPDEST PUSH2 0x1CB2 JUMPI PUSH1 0x40 MLOAD PUSH32 0x8C379A000000000000000000000000000000000000000000000000000000000 DUP2 MSTORE PUSH1 0x4 ADD PUSH2 0x1CA9 SWAP1 PUSH2 0x3557 JUMP JUMPDEST PUSH1 0x40 MLOAD DUP1 SWAP2 SUB SWAP1 REVERT JUMPDEST JUMPDEST PUSH1 0x0 DUP2 PUSH1 0x9 ADD SLOAD GT ISZERO PUSH2 0x1DB9 JUMPI PUSH1 0x2 PUSH1 0x0 SWAP1 SLOAD SWAP1 PUSH2 0x100 EXP SWAP1 DIV PUSH20 0xFFFFFFFFFFFFFFFFFFFFFFFFFFFFFFFFFFFFFFFF AND PUSH20 0xFFFFFFFFFFFFFFFFFFFFFFFFFFFFFFFFFFFFFFFF AND PUSH4 0x23B872DD CALLER DUP5 PUSH8 0xDE0B6B3A7640000 DUP6 PUSH1 0x9 ADD SLOAD PUSH2 0x1D18 SWAP2 SWAP1 PUSH2 0x33DB JUMP JUMPDEST PUSH1 0x40 MLOAD DUP5 PUSH4 0xFFFFFFFF AND PUSH1 0xE0 SHL DUP2 MSTORE PUSH1 0x4 ADD PUSH2 0x1D36 SWAP4 SWAP3 SWAP2 SWAP1 PUSH2 0x3BEC JUMP JUMPDEST PUSH1 0x20 PUSH1 0x40 MLOAD DUP1 DUP4 SUB DUP2 PUSH1 0x0 DUP8 GAS CALL ISZERO DUP1 ISZERO PUSH2 0x1D55 JUMPI RETURNDATASIZE PUSH1 0x0 DUP1 RETURNDATACOPY RETURNDATASIZE PUSH1 0x0 REVERT JUMPDEST POP POP POP POP PUSH1 0x40 MLOAD RETURNDATASIZE PUSH1 0x1F NOT PUSH1 0x1F DUP3 ADD AND DUP3 ADD DUP1 PUSH1 0x40 MSTORE POP DUP2 ADD SWAP1 PUSH2 0x1D79 SWAP2 SWAP1 PUSH2 0x3472 JUMP JUMPDEST PUSH2 0x1DB8 JUMPI PUSH1 0x40 MLOAD PUSH32 0x8C379A000000000000000000000000000000000000000000000000000000000 DUP2 MSTORE PUSH1 0x4 ADD PUSH2 0x1DAF SWAP1 PUSH2 0x35C3 JUMP JUMPDEST PUSH1 0x40 MLOAD DUP1 SWAP2 SUB SWAP1 REVERT JUMPDEST JUMPDEST PUSH1 0x0 DUP2 PUSH1 0xA ADD SLOAD GT ISZERO PUSH2 0x1EBF JUMPI PUSH1 0x3 PUSH1 0x0 SWAP1 SLOAD SWAP1 PUSH2 0x100 EXP SWAP1 DIV PUSH20 0xFFFFFFFFFFFFFFFFFFFFFFFFFFFFFFFFFFFFFFFF AND PUSH20 0xFFFFFFFFFFFFFFFFFFFFFFFFFFFFFFFFFFFFFFFF AND PUSH4 0x23B872DD CALLER DUP5 PUSH8 0xDE0B6B3A7640000 DUP6 PUSH1 0xA ADD SLOAD PUSH2 0x1E1E SWAP2 SWAP1 PUSH2 0x33DB JUMP JUMPDEST PUSH1 0x40 MLOAD DUP5 PUSH4 0xFFFFFFFF AND PUSH1 0xE0 SHL DUP2 MSTORE PUSH1 0x4 ADD PUSH2 0x1E3C SWAP4 SWAP3 SWAP2 SWAP1 PUSH2 0x3BEC JUMP JUMPDEST PUSH1 0x20 PUSH1 0x40 MLOAD DUP1 DUP4 SUB DUP2 PUSH1 0x0 DUP8 GAS CALL ISZERO DUP1 ISZERO PUSH2 0x1E5B JUMPI RETURNDATASIZE PUSH1 0x0 DUP1 RETURNDATACOPY RETURNDATASIZE PUSH1 0x0 REVERT JUMPDEST POP POP POP POP PUSH1 0x40 MLOAD RETURNDATASIZE PUSH1 0x1F NOT PUSH1 0x1F DUP3 ADD AND DUP3 ADD DUP1 PUSH1 0x40 MSTORE POP DUP2 ADD SWAP1 PUSH2 0x1E7F SWAP2 SWAP1 PUSH2 0x3472 JUMP JUMPDEST PUSH2 0x1EBE JUMPI PUSH1 0x40 MLOAD PUSH32 0x8C379A000000000000000000000000000000000000000000000000000000000 DUP2 MSTORE PUSH1 0x4 ADD PUSH2 0x1EB5 SWAP1 PUSH2 0x362F JUMP JUMPDEST PUSH1 0x40 MLOAD DUP1 SWAP2 SUB SWAP1 REVERT JUMPDEST JUMPDEST PUSH1 0x0 DUP2 PUSH1 0xB ADD SLOAD GT ISZERO PUSH2 0x1FC5 JUMPI PUSH1 0x4 PUSH1 0x0 SWAP1 SLOAD SWAP1 PUSH2 0x100 EXP SWAP1 DIV PUSH20 0xFFFFFFFFFFFFFFFFFFFFFFFFFFFFFFFFFFFFFFFF AND PUSH20 0xFFFFFFFFFFFFFFFFFFFFFFFFFFFFFFFFFFFFFFFF AND PUSH4 0x23B872DD CALLER DUP5 PUSH8 0xDE0B6B3A7640000 DUP6 PUSH1 0xB ADD SLOAD PUSH2 0x1F24 SWAP2 SWAP1 PUSH2 0x33DB JUMP JUMPDEST PUSH1 0x40 MLOAD DUP5 PUSH4 0xFFFFFFFF AND PUSH1 0xE0 SHL DUP2 MSTORE PUSH1 0x4 ADD PUSH2 0x1F42 SWAP4 SWAP3 SWAP2 SWAP1 PUSH2 0x3BEC JUMP JUMPDEST PUSH1 0x20 PUSH1 0x40 MLOAD DUP1 DUP4 SUB DUP2 PUSH1 0x0 DUP8 GAS CALL ISZERO DUP1 ISZERO PUSH2 0x1F61 JUMPI RETURNDATASIZE PUSH1 0x0 DUP1 RETURNDATACOPY RETURNDATASIZE PUSH1 0x0 REVERT JUMPDEST POP POP POP POP PUSH1 0x40 MLOAD RETURNDATASIZE PUSH1 0x1F NOT PUSH1 0x1F DUP3 ADD AND DUP3 ADD DUP1 PUSH1 0x40 MSTORE POP DUP2 ADD SWAP1 PUSH2 0x1F85 SWAP2 SWAP1 PUSH2 0x3472 JUMP JUMPDEST PUSH2 0x1FC4 JUMPI PUSH1 0x40 MLOAD PUSH32 0x8C379A000000000000000000000000000000000000000000000000000000000 DUP2 MSTORE PUSH1 0x4 ADD PUSH2 0x1FBB SWAP1 PUSH2 0x369B JUMP JUMPDEST PUSH1 0x40 MLOAD DUP1 SWAP2 SUB SWAP1 REVERT JUMPDEST JUMPDEST PUSH1 0x0 DUP2 PUSH1 0xD ADD PUSH1 0x0 PUSH2 0x100 EXP DUP2 SLOAD DUP2 PUSH1 0xFF MUL NOT AND SWAP1 DUP4 ISZERO ISZERO MUL OR SWAP1 SSTORE POP POP POP POP JUMP JUMPDEST PUSH1 0x60 PUSH1 0x0 PUSH2 0x1FF3 PUSH2 0x29E9 JUMP JUMPDEST SWAP1 POP PUSH1 0x0 DUP2 PUSH8 0xFFFFFFFFFFFFFFFF DUP2 GT ISZERO PUSH2 0x2011 JUMPI PUSH2 0x2010 PUSH2 0x375D JUMP JUMPDEST JUMPDEST PUSH1 0x40 MLOAD SWAP1 DUP1 DUP3 MSTORE DUP1 PUSH1 0x20 MUL PUSH1 0x20 ADD DUP3 ADD PUSH1 0x40 MSTORE DUP1 ISZERO PUSH2 0x203F JUMPI DUP2 PUSH1 0x20 ADD PUSH1 0x20 DUP3 MUL DUP1 CALLDATASIZE DUP4 CALLDATACOPY DUP1 DUP3 ADD SWAP2 POP POP SWAP1 POP JUMPDEST POP SWAP1 POP PUSH1 0x0 JUMPDEST DUP3 DUP2 LT ISZERO PUSH2 0x208E JUMPI PUSH2 0x2056 DUP2 PUSH2 0x1044 JUMP JUMPDEST DUP3 DUP3 DUP2 MLOAD DUP2 LT PUSH2 0x2069 JUMPI PUSH2 0x2068 PUSH2 0x378C JUMP JUMPDEST JUMPDEST PUSH1 0x20 MUL PUSH1 0x20 ADD ADD SWAP1 ISZERO ISZERO SWAP1 DUP2 ISZERO ISZERO DUP2 MSTORE POP POP DUP1 DUP1 PUSH2 0x2086 SWAP1 PUSH2 0x37BB JUMP JUMPDEST SWAP2 POP POP PUSH2 0x2045 JUMP JUMPDEST POP DUP1 SWAP3 POP POP POP SWAP1 JUMP JUMPDEST PUSH1 0x0 DUP1 SLOAD SWAP1 PUSH2 0x100 EXP SWAP1 DIV PUSH20 0xFFFFFFFFFFFFFFFFFFFFFFFFFFFFFFFFFFFFFFFF AND DUP2 JUMP JUMPDEST PUSH1 0x60 PUSH1 0x0 PUSH1 0x5 PUSH1 0x0 DUP5 DUP2 MSTORE PUSH1 0x20 ADD SWAP1 DUP2 MSTORE PUSH1 0x20 ADD PUSH1 0x0 KECCAK256 SWAP1 POP PUSH1 0x0 PUSH1 0x5 PUSH8 0xFFFFFFFFFFFFFFFF DUP2 GT ISZERO PUSH2 0x20F1 JUMPI PUSH2 0x20F0 PUSH2 0x375D JUMP JUMPDEST JUMPDEST PUSH1 0x40 MLOAD SWAP1 DUP1 DUP3 MSTORE DUP1 PUSH1 0x20 MUL PUSH1 0x20 ADD DUP3 ADD PUSH1 0x40 MSTORE DUP1 ISZERO PUSH2 0x211F JUMPI DUP2 PUSH1 0x20 ADD PUSH1 0x20 DUP3 MUL DUP1 CALLDATASIZE DUP4 CALLDATACOPY DUP1 DUP3 ADD SWAP2 POP POP SWAP1 POP JUMPDEST POP SWAP1 POP DUP2 PUSH1 0x7 ADD SLOAD DUP2 PUSH1 0x0 DUP2 MLOAD DUP2 LT PUSH2 0x213B JUMPI PUSH2 0x213A PUSH2 0x378C JUMP JUMPDEST JUMPDEST PUSH1 0x20 MUL PUSH1 0x20 ADD ADD DUP2 DUP2 MSTORE POP POP DUP2 PUSH1 0x8 ADD SLOAD DUP2 PUSH1 0x1 DUP2 MLOAD DUP2 LT PUSH2 0x2160 JUMPI PUSH2 0x215F PUSH2 0x378C JUMP JUMPDEST JUMPDEST PUSH1 0x20 MUL PUSH1 0x20 ADD ADD DUP2 DUP2 MSTORE POP POP DUP2 PUSH1 0x9 ADD SLOAD DUP2 PUSH1 0x2 DUP2 MLOAD DUP2 LT PUSH2 0x2185 JUMPI PUSH2 0x2184 PUSH2 0x378C JUMP JUMPDEST JUMPDEST PUSH1 0x20 MUL PUSH1 0x20 ADD ADD DUP2 DUP2 MSTORE POP POP DUP2 PUSH1 0xA ADD SLOAD DUP2 PUSH1 0x3 DUP2 MLOAD DUP2 LT PUSH2 0x21AA JUMPI PUSH2 0x21A9 PUSH2 0x378C JUMP JUMPDEST JUMPDEST PUSH1 0x20 MUL PUSH1 0x20 ADD ADD DUP2 DUP2 MSTORE POP POP DUP2 PUSH1 0xB ADD SLOAD DUP2 PUSH1 0x4 DUP2 MLOAD DUP2 LT PUSH2 0x21CF JUMPI PUSH2 0x21CE PUSH2 0x378C JUMP JUMPDEST JUMPDEST PUSH1 0x20 MUL PUSH1 0x20 ADD ADD DUP2 DUP2 MSTORE POP POP DUP1 SWAP3 POP POP POP SWAP2 SWAP1 POP JUMP JUMPDEST PUSH1 0x0 PUSH1 0x5 PUSH1 0x0 DUP4 DUP2 MSTORE PUSH1 0x20 ADD SWAP1 DUP2 MSTORE PUSH1 0x20 ADD PUSH1 0x0 KECCAK256 PUSH1 0xD ADD PUSH1 0x0 SWAP1 SLOAD SWAP1 PUSH2 0x100 EXP SWAP1 DIV PUSH1 0xFF AND SWAP1 POP SWAP2 SWAP1 POP JUMP JUMPDEST PUSH1 0x2 PUSH1 0x0 SWAP1 SLOAD SWAP1 PUSH2 0x100 EXP SWAP1 DIV PUSH20 0xFFFFFFFFFFFFFFFFFFFFFFFFFFFFFFFFFFFFFFFF AND DUP2 JUMP JUMPDEST PUSH1 0x0 DUP11 GT DUP1 PUSH2 0x2247 JUMPI POP PUSH1 0x0 DUP10 GT JUMPDEST DUP1 PUSH2 0x2252 JUMPI POP PUSH1 0x0 DUP9 GT JUMPDEST DUP1 PUSH2 0x225D JUMPI POP PUSH1 0x0 DUP8 GT JUMPDEST DUP1 PUSH2 0x2268 JUMPI POP PUSH1 0x0 DUP7 GT JUMPDEST DUP1 ISZERO PUSH2 0x22A0 JUMPI POP PUSH1 0x0 DUP6 GT DUP1 PUSH2 0x227E JUMPI POP PUSH1 0x0 DUP5 GT JUMPDEST DUP1 PUSH2 0x2289 JUMPI POP PUSH1 0x0 DUP4 GT JUMPDEST DUP1 PUSH2 0x2294 JUMPI POP PUSH1 0x0 DUP3 GT JUMPDEST DUP1 PUSH2 0x229F JUMPI POP PUSH1 0x0 DUP2 GT JUMPDEST JUMPDEST PUSH2 0x22DF JUMPI PUSH1 0x40 MLOAD PUSH32 0x8C379A000000000000000000000000000000000000000000000000000000000 DUP2 MSTORE PUSH1 0x4 ADD PUSH2 0x22D6 SWAP1 PUSH2 0x3C6F JUMP JUMPDEST PUSH1 0x40 MLOAD DUP1 SWAP2 SUB SWAP1 REVERT JUMPDEST PUSH1 0x0 DUP11 GT ISZERO PUSH2 0x23DB JUMPI PUSH1 0x0 DUP1 SLOAD SWAP1 PUSH2 0x100 EXP SWAP1 DIV PUSH20 0xFFFFFFFFFFFFFFFFFFFFFFFFFFFFFFFFFFFFFFFF AND PUSH20 0xFFFFFFFFFFFFFFFFFFFFFFFFFFFFFFFFFFFFFFFF AND PUSH4 0x23B872DD CALLER ADDRESS PUSH8 0xDE0B6B3A7640000 DUP15 PUSH2 0x233A SWAP2 SWAP1 PUSH2 0x33DB JUMP JUMPDEST PUSH1 0x40 MLOAD DUP5 PUSH4 0xFFFFFFFF AND PUSH1 0xE0 SHL DUP2 MSTORE PUSH1 0x4 ADD PUSH2 0x2358 SWAP4 SWAP3 SWAP2 SWAP1 PUSH2 0x3BEC JUMP JUMPDEST PUSH1 0x20 PUSH1 0x40 MLOAD DUP1 DUP4 SUB DUP2 PUSH1 0x0 DUP8 GAS CALL ISZERO DUP1 ISZERO PUSH2 0x2377 JUMPI RETURNDATASIZE PUSH1 0x0 DUP1 RETURNDATACOPY RETURNDATASIZE PUSH1 0x0 REVERT JUMPDEST POP POP POP POP PUSH1 0x40 MLOAD RETURNDATASIZE PUSH1 0x1F NOT PUSH1 0x1F DUP3 ADD AND DUP3 ADD DUP1 PUSH1 0x40 MSTORE POP DUP2 ADD SWAP1 PUSH2 0x239B SWAP2 SWAP1 PUSH2 0x3472 JUMP JUMPDEST PUSH2 0x23DA JUMPI PUSH1 0x40 MLOAD PUSH32 0x8C379A000000000000000000000000000000000000000000000000000000000 DUP2 MSTORE PUSH1 0x4 ADD PUSH2 0x23D1 SWAP1 PUSH2 0x34EB JUMP JUMPDEST PUSH1 0x40 MLOAD DUP1 SWAP2 SUB SWAP1 REVERT JUMPDEST JUMPDEST PUSH1 0x0 DUP10 GT ISZERO PUSH2 0x24D9 JUMPI PUSH1 0x1 PUSH1 0x0 SWAP1 SLOAD SWAP1 PUSH2 0x100 EXP SWAP1 DIV PUSH20 0xFFFFFFFFFFFFFFFFFFFFFFFFFFFFFFFFFFFFFFFF AND PUSH20 0xFFFFFFFFFFFFFFFFFFFFFFFFFFFFFFFFFFFFFFFF AND PUSH4 0x23B872DD CALLER ADDRESS PUSH8 0xDE0B6B3A7640000 DUP14 PUSH2 0x2438 SWAP2 SWAP1 PUSH2 0x33DB JUMP JUMPDEST PUSH1 0x40 MLOAD DUP5 PUSH4 0xFFFFFFFF AND PUSH1 0xE0 SHL DUP2 MSTORE PUSH1 0x4 ADD PUSH2 0x2456 SWAP4 SWAP3 SWAP2 SWAP1 PUSH2 0x3BEC JUMP JUMPDEST PUSH1 0x20 PUSH1 0x40 MLOAD DUP1 DUP4 SUB DUP2 PUSH1 0x0 DUP8 GAS CALL ISZERO DUP1 ISZERO PUSH2 0x2475 JUMPI RETURNDATASIZE PUSH1 0x0 DUP1 RETURNDATACOPY RETURNDATASIZE PUSH1 0x0 REVERT JUMPDEST POP POP POP POP PUSH1 0x40 MLOAD RETURNDATASIZE PUSH1 0x1F NOT PUSH1 0x1F DUP3 ADD AND DUP3 ADD DUP1 PUSH1 0x40 MSTORE POP DUP2 ADD SWAP1 PUSH2 0x2499 SWAP2 SWAP1 PUSH2 0x3472 JUMP JUMPDEST PUSH2 0x24D8 JUMPI PUSH1 0x40 MLOAD PUSH32 0x8C379A000000000000000000000000000000000000000000000000000000000 DUP2 MSTORE PUSH1 0x4 ADD PUSH2 0x24CF SWAP1 PUSH2 0x3557 JUMP JUMPDEST PUSH1 0x40 MLOAD DUP1 SWAP2 SUB SWAP1 REVERT JUMPDEST JUMPDEST PUSH1 0x0 DUP9 GT ISZERO PUSH2 0x25D7 JUMPI PUSH1 0x2 PUSH1 0x0 SWAP1 SLOAD SWAP1 PUSH2 0x100 EXP SWAP1 DIV PUSH20 0xFFFFFFFFFFFFFFFFFFFFFFFFFFFFFFFFFFFFFFFF AND PUSH20 0xFFFFFFFFFFFFFFFFFFFFFFFFFFFFFFFFFFFFFFFF AND PUSH4 0x23B872DD CALLER ADDRESS PUSH8 0xDE0B6B3A7640000 DUP13 PUSH2 0x2536 SWAP2 SWAP1 PUSH2 0x33DB JUMP JUMPDEST PUSH1 0x40 MLOAD DUP5 PUSH4 0xFFFFFFFF AND PUSH1 0xE0 SHL DUP2 MSTORE PUSH1 0x4 ADD PUSH2 0x2554 SWAP4 SWAP3 SWAP2 SWAP1 PUSH2 0x3BEC JUMP JUMPDEST PUSH1 0x20 PUSH1 0x40 MLOAD DUP1 DUP4 SUB DUP2 PUSH1 0x0 DUP8 GAS CALL ISZERO DUP1 ISZERO PUSH2 0x2573 JUMPI RETURNDATASIZE PUSH1 0x0 DUP1 RETURNDATACOPY RETURNDATASIZE PUSH1 0x0 REVERT JUMPDEST POP POP POP POP PUSH1 0x40 MLOAD RETURNDATASIZE PUSH1 0x1F NOT PUSH1 0x1F DUP3 ADD AND DUP3 ADD DUP1 PUSH1 0x40 MSTORE POP DUP2 ADD SWAP1 PUSH2 0x2597 SWAP2 SWAP1 PUSH2 0x3472 JUMP JUMPDEST PUSH2 0x25D6 JUMPI PUSH1 0x40 MLOAD PUSH32 0x8C379A000000000000000000000000000000000000000000000000000000000 DUP2 MSTORE PUSH1 0x4 ADD PUSH2 0x25CD SWAP1 PUSH2 0x35C3 JUMP JUMPDEST PUSH1 0x40 MLOAD DUP1 SWAP2 SUB SWAP1 REVERT JUMPDEST JUMPDEST PUSH1 0x0 DUP8 GT ISZERO PUSH2 0x26D5 JUMPI PUSH1 0x3 PUSH1 0x0 SWAP1 SLOAD SWAP1 PUSH2 0x100 EXP SWAP1 DIV PUSH20 0xFFFFFFFFFFFFFFFFFFFFFFFFFFFFFFFFFFFFFFFF AND PUSH20 0xFFFFFFFFFFFFFFFFFFFFFFFFFFFFFFFFFFFFFFFF AND PUSH4 0x23B872DD CALLER ADDRESS PUSH8 0xDE0B6B3A7640000 DUP12 PUSH2 0x2634 SWAP2 SWAP1 PUSH2 0x33DB JUMP JUMPDEST PUSH1 0x40 MLOAD DUP5 PUSH4 0xFFFFFFFF AND PUSH1 0xE0 SHL DUP2 MSTORE PUSH1 0x4 ADD PUSH2 0x2652 SWAP4 SWAP3 SWAP2 SWAP1 PUSH2 0x3BEC JUMP JUMPDEST PUSH1 0x20 PUSH1 0x40 MLOAD DUP1 DUP4 SUB DUP2 PUSH1 0x0 DUP8 GAS CALL ISZERO DUP1 ISZERO PUSH2 0x2671 JUMPI RETURNDATASIZE PUSH1 0x0 DUP1 RETURNDATACOPY RETURNDATASIZE PUSH1 0x0 REVERT JUMPDEST POP POP POP POP PUSH1 0x40 MLOAD RETURNDATASIZE PUSH1 0x1F NOT PUSH1 0x1F DUP3 ADD AND DUP3 ADD DUP1 PUSH1 0x40 MSTORE POP DUP2 ADD SWAP1 PUSH2 0x2695 SWAP2 SWAP1 PUSH2 0x3472 JUMP JUMPDEST PUSH2 0x26D4 JUMPI PUSH1 0x40 MLOAD PUSH32 0x8C379A000000000000000000000000000000000000000000000000000000000 DUP2 MSTORE PUSH1 0x4 ADD PUSH2 0x26CB SWAP1 PUSH2 0x369B JUMP JUMPDEST PUSH1 0x40 MLOAD DUP1 SWAP2 SUB SWAP1 REVERT JUMPDEST JUMPDEST PUSH1 0x0 DUP7 GT ISZERO PUSH2 0x27D3 JUMPI PUSH1 0x4 PUSH1 0x0 SWAP1 SLOAD SWAP1 PUSH2 0x100 EXP SWAP1 DIV PUSH20 0xFFFFFFFFFFFFFFFFFFFFFFFFFFFFFFFFFFFFFFFF AND PUSH20 0xFFFFFFFFFFFFFFFFFFFFFFFFFFFFFFFFFFFFFFFF AND PUSH4 0x23B872DD CALLER ADDRESS PUSH8 0xDE0B6B3A7640000 DUP11 PUSH2 0x2732 SWAP2 SWAP1 PUSH2 0x33DB JUMP JUMPDEST PUSH1 0x40 MLOAD DUP5 PUSH4 0xFFFFFFFF AND PUSH1 0xE0 SHL DUP2 MSTORE PUSH1 0x4 ADD PUSH2 0x2750 SWAP4 SWAP3 SWAP2 SWAP1 PUSH2 0x3BEC JUMP JUMPDEST PUSH1 0x20 PUSH1 0x40 MLOAD DUP1 DUP4 SUB DUP2 PUSH1 0x0 DUP8 GAS CALL ISZERO DUP1 ISZERO PUSH2 0x276F JUMPI RETURNDATASIZE PUSH1 0x0 DUP1 RETURNDATACOPY RETURNDATASIZE PUSH1 0x0 REVERT JUMPDEST POP POP POP POP PUSH1 0x40 MLOAD RETURNDATASIZE PUSH1 0x1F NOT PUSH1 0x1F DUP3 ADD AND DUP3 ADD DUP1 PUSH1 0x40 MSTORE POP DUP2 ADD SWAP1 PUSH2 0x2793 SWAP2 SWAP1 PUSH2 0x3472 JUMP JUMPDEST PUSH2 0x27D2 JUMPI PUSH1 0x40 MLOAD PUSH32 0x8C379A000000000000000000000000000000000000000000000000000000000 DUP2 MSTORE PUSH1 0x4 ADD PUSH2 0x27C9 SWAP1 PUSH2 0x362F JUMP JUMPDEST PUSH1 0x40 MLOAD DUP1 SWAP2 SUB SWAP1 REVERT JUMPDEST JUMPDEST PUSH1 0x0 PUSH2 0x27DF PUSH1 0x7 PUSH2 0x2B8C JUMP JUMPDEST SWAP1 POP PUSH2 0x27EB PUSH1 0x7 PUSH2 0x2B9A JUMP JUMPDEST DUP1 PUSH1 0x5 PUSH1 0x0 DUP4 DUP2 MSTORE PUSH1 0x20 ADD SWAP1 DUP2 MSTORE PUSH1 0x20 ADD PUSH1 0x0 KECCAK256 PUSH1 0x0 ADD DUP2 SWAP1 SSTORE POP CALLER PUSH1 0x5 PUSH1 0x0 DUP4 DUP2 MSTORE PUSH1 0x20 ADD SWAP1 DUP2 MSTORE PUSH1 0x20 ADD PUSH1 0x0 KECCAK256 PUSH1 0x1 ADD PUSH1 0x0 PUSH2 0x100 EXP DUP2 SLOAD DUP2 PUSH20 0xFFFFFFFFFFFFFFFFFFFFFFFFFFFFFFFFFFFFFFFF MUL NOT AND SWAP1 DUP4 PUSH20 0xFFFFFFFFFFFFFFFFFFFFFFFFFFFFFFFFFFFFFFFF AND MUL OR SWAP1 SSTORE POP DUP11 PUSH1 0x5 PUSH1 0x0 DUP4 DUP2 MSTORE PUSH1 0x20 ADD SWAP1 DUP2 MSTORE PUSH1 0x20 ADD PUSH1 0x0 KECCAK256 PUSH1 0x2 ADD DUP2 SWAP1 SSTORE POP DUP10 PUSH1 0x5 PUSH1 0x0 DUP4 DUP2 MSTORE PUSH1 0x20 ADD SWAP1 DUP2 MSTORE PUSH1 0x20 ADD PUSH1 0x0 KECCAK256 PUSH1 0x3 ADD DUP2 SWAP1 SSTORE POP DUP9 PUSH1 0x5 PUSH1 0x0 DUP4 DUP2 MSTORE PUSH1 0x20 ADD SWAP1 DUP2 MSTORE PUSH1 0x20 ADD PUSH1 0x0 KECCAK256 PUSH1 0x4 ADD DUP2 SWAP1 SSTORE POP DUP8 PUSH1 0x5 PUSH1 0x0 DUP4 DUP2 MSTORE PUSH1 0x20 ADD SWAP1 DUP2 MSTORE PUSH1 0x20 ADD PUSH1 0x0 KECCAK256 PUSH1 0x5 ADD DUP2 SWAP1 SSTORE POP DUP7 PUSH1 0x5 PUSH1 0x0 DUP4 DUP2 MSTORE PUSH1 0x20 ADD SWAP1 DUP2 MSTORE PUSH1 0x20 ADD PUSH1 0x0 KECCAK256 PUSH1 0x6 ADD DUP2 SWAP1 SSTORE POP DUP6 PUSH1 0x5 PUSH1 0x0 DUP4 DUP2 MSTORE PUSH1 0x20 ADD SWAP1 DUP2 MSTORE PUSH1 0x20 ADD PUSH1 0x0 KECCAK256 PUSH1 0x7 ADD DUP2 SWAP1 SSTORE POP DUP5 PUSH1 0x5 PUSH1 0x0 DUP4 DUP2 MSTORE PUSH1 0x20 ADD SWAP1 DUP2 MSTORE PUSH1 0x20 ADD PUSH1 0x0 KECCAK256 PUSH1 0x8 ADD DUP2 SWAP1 SSTORE POP DUP4 PUSH1 0x5 PUSH1 0x0 DUP4 DUP2 MSTORE PUSH1 0x20 ADD SWAP1 DUP2 MSTORE PUSH1 0x20 ADD PUSH1 0x0 KECCAK256 PUSH1 0x9 ADD DUP2 SWAP1 SSTORE POP DUP3 PUSH1 0x5 PUSH1 0x0 DUP4 DUP2 MSTORE PUSH1 0x20 ADD SWAP1 DUP2 MSTORE PUSH1 0x20 ADD PUSH1 0x0 KECCAK256 PUSH1 0xA ADD DUP2 SWAP1 SSTORE POP DUP2 PUSH1 0x5 PUSH1 0x0 DUP4 DUP2 MSTORE PUSH1 0x20 ADD SWAP1 DUP2 MSTORE PUSH1 0x20 ADD PUSH1 0x0 KECCAK256 PUSH1 0xB ADD DUP2 SWAP1 SSTORE POP TIMESTAMP PUSH1 0x5 PUSH1 0x0 DUP4 DUP2 MSTORE PUSH1 0x20 ADD SWAP1 DUP2 MSTORE PUSH1 0x20 ADD PUSH1 0x0 KECCAK256 PUSH1 0xC ADD DUP2 SWAP1 SSTORE POP PUSH1 0x1 PUSH1 0x5 PUSH1 0x0 DUP4 DUP2 MSTORE PUSH1 0x20 ADD SWAP1 DUP2 MSTORE PUSH1 0x20 ADD PUSH1 0x0 KECCAK256 PUSH1 0xD ADD PUSH1 0x0 PUSH2 0x100 EXP DUP2 SLOAD DUP2 PUSH1 0xFF MUL NOT AND SWAP1 DUP4 ISZERO ISZERO MUL OR SWAP1 SSTORE POP PUSH1 0x6 DUP2 SWAP1 DUP1 PUSH1 0x1 DUP2 SLOAD ADD DUP1 DUP3 SSTORE DUP1 SWAP2 POP POP PUSH1 0x1 SWAP1 SUB SWAP1 PUSH1 0x0 MSTORE PUSH1 0x20 PUSH1 0x0 KECCAK256 ADD PUSH1 0x0 SWAP1 SWAP2 SWAP1 SWAP2 SWAP1 SWAP2 POP SSTORE POP POP POP POP POP POP POP POP POP POP POP JUMP JUMPDEST PUSH1 0x0 PUSH1 0x1 PUSH1 0x6 PUSH1 0x1 PUSH1 0x6 DUP1 SLOAD SWAP1 POP PUSH2 0x2A01 SWAP2 SWAP1 PUSH2 0x3C8F JUMP JUMPDEST DUP2 SLOAD DUP2 LT PUSH2 0x2A12 JUMPI PUSH2 0x2A11 PUSH2 0x378C JUMP JUMPDEST JUMPDEST SWAP1 PUSH1 0x0 MSTORE PUSH1 0x20 PUSH1 0x0 KECCAK256 ADD SLOAD PUSH2 0x2A27 SWAP2 SWAP1 PUSH2 0x3CC3 JUMP JUMPDEST SWAP1 POP SWAP1 JUMP JUMPDEST PUSH1 0x60 PUSH1 0x0 DUP3 SUB PUSH2 0x2A73 JUMPI PUSH1 0x40 MLOAD DUP1 PUSH1 0x40 ADD PUSH1 0x40 MSTORE DUP1 PUSH1 0x1 DUP2 MSTORE PUSH1 0x20 ADD PUSH32 0x3000000000000000000000000000000000000000000000000000000000000000 DUP2 MSTORE POP SWAP1 POP PUSH2 0x2B87 JUMP JUMPDEST PUSH1 0x0 DUP3 SWAP1 POP PUSH1 0x0 JUMPDEST PUSH1 0x0 DUP3 EQ PUSH2 0x2AA5 JUMPI DUP1 DUP1 PUSH2 0x2A8E SWAP1 PUSH2 0x37BB JUMP JUMPDEST SWAP2 POP POP PUSH1 0xA DUP3 PUSH2 0x2A9E SWAP2 SWAP1 PUSH2 0x372C JUMP JUMPDEST SWAP2 POP PUSH2 0x2A7B JUMP JUMPDEST PUSH1 0x0 DUP2 PUSH8 0xFFFFFFFFFFFFFFFF DUP2 GT ISZERO PUSH2 0x2AC1 JUMPI PUSH2 0x2AC0 PUSH2 0x375D JUMP JUMPDEST JUMPDEST PUSH1 0x40 MLOAD SWAP1 DUP1 DUP3 MSTORE DUP1 PUSH1 0x1F ADD PUSH1 0x1F NOT AND PUSH1 0x20 ADD DUP3 ADD PUSH1 0x40 MSTORE DUP1 ISZERO PUSH2 0x2AF3 JUMPI DUP2 PUSH1 0x20 ADD PUSH1 0x1 DUP3 MUL DUP1 CALLDATASIZE DUP4 CALLDATACOPY DUP1 DUP3 ADD SWAP2 POP POP SWAP1 POP JUMPDEST POP SWAP1 POP JUMPDEST PUSH1 0x0 DUP6 EQ PUSH2 0x2B80 JUMPI PUSH1 0x1 DUP3 PUSH2 0x2B0C SWAP2 SWAP1 PUSH2 0x3C8F JUMP JUMPDEST SWAP2 POP PUSH1 0xA DUP6 PUSH2 0x2B1B SWAP2 SWAP1 PUSH2 0x3CF7 JUMP JUMPDEST PUSH1 0x30 PUSH2 0x2B27 SWAP2 SWAP1 PUSH2 0x3CC3 JUMP JUMPDEST PUSH1 0xF8 SHL DUP2 DUP4 DUP2 MLOAD DUP2 LT PUSH2 0x2B3D JUMPI PUSH2 0x2B3C PUSH2 0x378C JUMP JUMPDEST JUMPDEST PUSH1 0x20 ADD ADD SWAP1 PUSH31 0xFFFFFFFFFFFFFFFFFFFFFFFFFFFFFFFFFFFFFFFFFFFFFFFFFFFFFFFFFFFFFF NOT AND SWAP1 DUP2 PUSH1 0x0 BYTE SWAP1 MSTORE8 POP PUSH1 0xA DUP6 PUSH2 0x2B79 SWAP2 SWAP1 PUSH2 0x372C JUMP JUMPDEST SWAP5 POP PUSH2 0x2AF7 JUMP JUMPDEST DUP1 SWAP4 POP POP POP POP JUMPDEST SWAP2 SWAP1 POP JUMP JUMPDEST PUSH1 0x0 DUP2 PUSH1 0x0 ADD SLOAD SWAP1 POP SWAP2 SWAP1 POP JUMP JUMPDEST PUSH1 0x1 DUP2 PUSH1 0x0 ADD PUSH1 0x0 DUP3 DUP3 SLOAD ADD SWAP3 POP POP DUP2 SWAP1 SSTORE POP POP JUMP JUMPDEST PUSH1 0x0 PUSH20 0xFFFFFFFFFFFFFFFFFFFFFFFFFFFFFFFFFFFFFFFF DUP3 AND SWAP1 POP SWAP2 SWAP1 POP JUMP JUMPDEST PUSH1 0x0 PUSH2 0x2BDB DUP3 PUSH2 0x2BB0 JUMP JUMPDEST SWAP1 POP SWAP2 SWAP1 POP JUMP JUMPDEST PUSH2 0x2BEB DUP2 PUSH2 0x2BD0 JUMP JUMPDEST DUP3 MSTORE POP POP JUMP JUMPDEST PUSH1 0x0 PUSH1 0x20 DUP3 ADD SWAP1 POP PUSH2 0x2C06 PUSH1 0x0 DUP4 ADD DUP5 PUSH2 0x2BE2 JUMP JUMPDEST SWAP3 SWAP2 POP POP JUMP JUMPDEST PUSH1 0x0 DUP1 REVERT JUMPDEST PUSH1 0x0 DUP2 SWAP1 POP SWAP2 SWAP1 POP JUMP JUMPDEST PUSH2 0x2C24 DUP2 PUSH2 0x2C11 JUMP JUMPDEST DUP2 EQ PUSH2 0x2C2F JUMPI PUSH1 0x0 DUP1 REVERT JUMPDEST POP JUMP JUMPDEST PUSH1 0x0 DUP2 CALLDATALOAD SWAP1 POP PUSH2 0x2C41 DUP2 PUSH2 0x2C1B JUMP JUMPDEST SWAP3 SWAP2 POP POP JUMP JUMPDEST PUSH1 0x0 PUSH1 0x20 DUP3 DUP5 SUB SLT ISZERO PUSH2 0x2C5D JUMPI PUSH2 0x2C5C PUSH2 0x2C0C JUMP JUMPDEST JUMPDEST PUSH1 0x0 PUSH2 0x2C6B DUP5 DUP3 DUP6 ADD PUSH2 0x2C32 JUMP JUMPDEST SWAP2 POP POP SWAP3 SWAP2 POP POP JUMP JUMPDEST PUSH2 0x2C7D DUP2 PUSH2 0x2C11 JUMP JUMPDEST DUP3 MSTORE POP POP JUMP JUMPDEST PUSH1 0x0 PUSH2 0x140 DUP3 ADD SWAP1 POP PUSH2 0x2C99 PUSH1 0x0 DUP4 ADD DUP14 PUSH2 0x2C74 JUMP JUMPDEST PUSH2 0x2CA6 PUSH1 0x20 DUP4 ADD DUP13 PUSH2 0x2C74 JUMP JUMPDEST PUSH2 0x2CB3 PUSH1 0x40 DUP4 ADD DUP12 PUSH2 0x2C74 JUMP JUMPDEST PUSH2 0x2CC0 PUSH1 0x60 DUP4 ADD DUP11 PUSH2 0x2C74 JUMP JUMPDEST PUSH2 0x2CCD PUSH1 0x80 DUP4 ADD DUP10 PUSH2 0x2C74 JUMP JUMPDEST PUSH2 0x2CDA PUSH1 0xA0 DUP4 ADD DUP9 PUSH2 0x2C74 JUMP JUMPDEST PUSH2 0x2CE7 PUSH1 0xC0 DUP4 ADD DUP8 PUSH2 0x2C74 JUMP JUMPDEST PUSH2 0x2CF4 PUSH1 0xE0 DUP4 ADD DUP7 PUSH2 0x2C74 JUMP JUMPDEST PUSH2 0x2D02 PUSH2 0x100 DUP4 ADD DUP6 PUSH2 0x2C74 JUMP JUMPDEST PUSH2 0x2D10 PUSH2 0x120 DUP4 ADD DUP5 PUSH2 0x2C74 JUMP JUMPDEST SWAP12 SWAP11 POP POP POP POP POP POP POP POP POP POP POP JUMP JUMPDEST PUSH1 0x0 PUSH1 0xA0 DUP3 ADD SWAP1 POP PUSH2 0x2D34 PUSH1 0x0 DUP4 ADD DUP9 PUSH2 0x2C74 JUMP JUMPDEST PUSH2 0x2D41 PUSH1 0x20 DUP4 ADD DUP8 PUSH2 0x2C74 JUMP JUMPDEST PUSH2 0x2D4E PUSH1 0x40 DUP4 ADD DUP7 PUSH2 0x2C74 JUMP JUMPDEST PUSH2 0x2D5B PUSH1 0x60 DUP4 ADD DUP6 PUSH2 0x2C74 JUMP JUMPDEST PUSH2 0x2D68 PUSH1 0x80 DUP4 ADD DUP5 PUSH2 0x2C74 JUMP JUMPDEST SWAP7 SWAP6 POP POP POP POP POP POP JUMP JUMPDEST PUSH1 0x0 DUP2 MLOAD SWAP1 POP SWAP2 SWAP1 POP JUMP JUMPDEST PUSH1 0x0 DUP3 DUP3 MSTORE PUSH1 0x20 DUP3 ADD SWAP1 POP SWAP3 SWAP2 POP POP JUMP JUMPDEST PUSH1 0x0 DUP2 SWAP1 POP PUSH1 0x20 DUP3 ADD SWAP1 POP SWAP2 SWAP1 POP JUMP JUMPDEST PUSH1 0x0 DUP2 ISZERO ISZERO SWAP1 POP SWAP2 SWAP1 POP JUMP JUMPDEST PUSH2 0x2DB3 DUP2 PUSH2 0x2D9E JUMP JUMPDEST DUP3 MSTORE POP POP JUMP JUMPDEST PUSH1 0x0 PUSH2 0x2DC5 DUP4 DUP4 PUSH2 0x2DAA JUMP JUMPDEST PUSH1 0x20 DUP4 ADD SWAP1 POP SWAP3 SWAP2 POP POP JUMP JUMPDEST PUSH1 0x0 PUSH1 0x20 DUP3 ADD SWAP1 POP SWAP2 SWAP1 POP JUMP JUMPDEST PUSH1 0x0 PUSH2 0x2DE9 DUP3 PUSH2 0x2D72 JUMP JUMPDEST PUSH2 0x2DF3 DUP2 DUP6 PUSH2 0x2D7D JUMP JUMPDEST SWAP4 POP PUSH2 0x2DFE DUP4 PUSH2 0x2D8E JUMP JUMPDEST DUP1 PUSH1 0x0 JUMPDEST DUP4 DUP2 LT ISZERO PUSH2 0x2E2F JUMPI DUP2 MLOAD PUSH2 0x2E16 DUP9 DUP3 PUSH2 0x2DB9 JUMP JUMPDEST SWAP8 POP PUSH2 0x2E21 DUP4 PUSH2 0x2DD1 JUMP JUMPDEST SWAP3 POP POP PUSH1 0x1 DUP2 ADD SWAP1 POP PUSH2 0x2E02 JUMP JUMPDEST POP DUP6 SWAP4 POP POP POP POP SWAP3 SWAP2 POP POP JUMP JUMPDEST PUSH1 0x0 PUSH1 0x20 DUP3 ADD SWAP1 POP DUP2 DUP2 SUB PUSH1 0x0 DUP4 ADD MSTORE PUSH2 0x2E56 DUP2 DUP5 PUSH2 0x2DDE JUMP JUMPDEST SWAP1 POP SWAP3 SWAP2 POP POP JUMP JUMPDEST PUSH2 0x2E67 DUP2 PUSH2 0x2D9E JUMP JUMPDEST DUP3 MSTORE POP POP JUMP JUMPDEST PUSH1 0x0 PUSH1 0x20 DUP3 ADD SWAP1 POP PUSH2 0x2E82 PUSH1 0x0 DUP4 ADD DUP5 PUSH2 0x2E5E JUMP JUMPDEST SWAP3 SWAP2 POP POP JUMP JUMPDEST PUSH1 0x0 DUP2 MLOAD SWAP1 POP SWAP2 SWAP1 POP JUMP JUMPDEST PUSH1 0x0 DUP3 DUP3 MSTORE PUSH1 0x20 DUP3 ADD SWAP1 POP SWAP3 SWAP2 POP POP JUMP JUMPDEST PUSH1 0x0 JUMPDEST DUP4 DUP2 LT ISZERO PUSH2 0x2EC2 JUMPI DUP1 DUP3 ADD MLOAD DUP2 DUP5 ADD MSTORE PUSH1 0x20 DUP2 ADD SWAP1 POP PUSH2 0x2EA7 JUMP JUMPDEST PUSH1 0x0 DUP5 DUP5 ADD MSTORE POP POP POP POP JUMP JUMPDEST PUSH1 0x0 PUSH1 0x1F NOT PUSH1 0x1F DUP4 ADD AND SWAP1 POP SWAP2 SWAP1 POP JUMP JUMPDEST PUSH1 0x0 PUSH2 0x2EEA DUP3 PUSH2 0x2E88 JUMP JUMPDEST PUSH2 0x2EF4 DUP2 DUP6 PUSH2 0x2E93 JUMP JUMPDEST SWAP4 POP PUSH2 0x2F04 DUP2 DUP6 PUSH1 0x20 DUP7 ADD PUSH2 0x2EA4 JUMP JUMPDEST PUSH2 0x2F0D DUP2 PUSH2 0x2ECE JUMP JUMPDEST DUP5 ADD SWAP2 POP POP SWAP3 SWAP2 POP POP JUMP JUMPDEST PUSH1 0x0 PUSH1 0x20 DUP3 ADD SWAP1 POP DUP2 DUP2 SUB PUSH1 0x0 DUP4 ADD MSTORE PUSH2 0x2F32 DUP2 DUP5 PUSH2 0x2EDF JUMP JUMPDEST SWAP1 POP SWAP3 SWAP2 POP POP JUMP JUMPDEST PUSH1 0x0 DUP2 MLOAD SWAP1 POP SWAP2 SWAP1 POP JUMP JUMPDEST PUSH1 0x0 DUP3 DUP3 MSTORE PUSH1 0x20 DUP3 ADD SWAP1 POP SWAP3 SWAP2 POP POP JUMP JUMPDEST PUSH1 0x0 DUP2 SWAP1 POP PUSH1 0x20 DUP3 ADD SWAP1 POP SWAP2 SWAP1 POP JUMP JUMPDEST PUSH1 0x0 DUP3 DUP3 MSTORE PUSH1 0x20 DUP3 ADD SWAP1 POP SWAP3 SWAP2 POP POP JUMP JUMPDEST PUSH1 0x0 PUSH2 0x2F82 DUP3 PUSH2 0x2E88 JUMP JUMPDEST PUSH2 0x2F8C DUP2 DUP6 PUSH2 0x2F66 JUMP JUMPDEST SWAP4 POP PUSH2 0x2F9C DUP2 DUP6 PUSH1 0x20 DUP7 ADD PUSH2 0x2EA4 JUMP JUMPDEST PUSH2 0x2FA5 DUP2 PUSH2 0x2ECE JUMP JUMPDEST DUP5 ADD SWAP2 POP POP SWAP3 SWAP2 POP POP JUMP JUMPDEST PUSH1 0x0 PUSH2 0x2FBC DUP4 DUP4 PUSH2 0x2F77 JUMP JUMPDEST SWAP1 POP SWAP3 SWAP2 POP POP JUMP JUMPDEST PUSH1 0x0 PUSH1 0x20 DUP3 ADD SWAP1 POP SWAP2 SWAP1 POP JUMP JUMPDEST PUSH1 0x0 PUSH2 0x2FDC DUP3 PUSH2 0x2F3A JUMP JUMPDEST PUSH2 0x2FE6 DUP2 DUP6 PUSH2 0x2F45 JUMP JUMPDEST SWAP4 POP DUP4 PUSH1 0x20 DUP3 MUL DUP6 ADD PUSH2 0x2FF8 DUP6 PUSH2 0x2F56 JUMP JUMPDEST DUP1 PUSH1 0x0 JUMPDEST DUP6 DUP2 LT ISZERO PUSH2 0x3034 JUMPI DUP5 DUP5 SUB DUP10 MSTORE DUP2 MLOAD PUSH2 0x3015 DUP6 DUP3 PUSH2 0x2FB0 JUMP JUMPDEST SWAP5 POP PUSH2 0x3020 DUP4 PUSH2 0x2FC4 JUMP JUMPDEST SWAP3 POP PUSH1 0x20 DUP11 ADD SWAP10 POP POP PUSH1 0x1 DUP2 ADD SWAP1 POP PUSH2 0x2FFC JUMP JUMPDEST POP DUP3 SWAP8 POP DUP8 SWAP6 POP POP POP POP POP POP SWAP3 SWAP2 POP POP JUMP JUMPDEST PUSH1 0x0 PUSH1 0x20 DUP3 ADD SWAP1 POP DUP2 DUP2 SUB PUSH1 0x0 DUP4 ADD MSTORE PUSH2 0x3060 DUP2 DUP5 PUSH2 0x2FD1 JUMP JUMPDEST SWAP1 POP SWAP3 SWAP2 POP POP JUMP JUMPDEST PUSH1 0x0 DUP2 MLOAD SWAP1 POP SWAP2 SWAP1 POP JUMP JUMPDEST PUSH1 0x0 DUP3 DUP3 MSTORE PUSH1 0x20 DUP3 ADD SWAP1 POP SWAP3 SWAP2 POP POP JUMP JUMPDEST PUSH1 0x0 DUP2 SWAP1 POP PUSH1 0x20 DUP3 ADD SWAP1 POP SWAP2 SWAP1 POP JUMP JUMPDEST PUSH2 0x309D DUP2 PUSH2 0x2C11 JUMP JUMPDEST DUP3 MSTORE POP POP JUMP JUMPDEST PUSH1 0x0 PUSH2 0x30AF DUP4 DUP4 PUSH2 0x3094 JUMP JUMPDEST PUSH1 0x20 DUP4 ADD SWAP1 POP SWAP3 SWAP2 POP POP JUMP JUMPDEST PUSH1 0x0 PUSH1 0x20 DUP3 ADD SWAP1 POP SWAP2 SWAP1 POP JUMP JUMPDEST PUSH1 0x0 PUSH2 0x30D3 DUP3 PUSH2 0x3068 JUMP JUMPDEST PUSH2 0x30DD DUP2 DUP6 PUSH2 0x3073 JUMP JUMPDEST SWAP4 POP PUSH2 0x30E8 DUP4 PUSH2 0x3084 JUMP JUMPDEST DUP1 PUSH1 0x0 JUMPDEST DUP4 DUP2 LT ISZERO PUSH2 0x3119 JUMPI DUP2 MLOAD PUSH2 0x3100 DUP9 DUP3 PUSH2 0x30A3 JUMP JUMPDEST SWAP8 POP PUSH2 0x310B DUP4 PUSH2 0x30BB JUMP JUMPDEST SWAP3 POP POP PUSH1 0x1 DUP2 ADD SWAP1 POP PUSH2 0x30EC JUMP JUMPDEST POP DUP6 SWAP4 POP POP POP POP SWAP3 SWAP2 POP POP JUMP JUMPDEST PUSH1 0x0 PUSH1 0x20 DUP3 ADD SWAP1 POP DUP2 DUP2 SUB PUSH1 0x0 DUP4 ADD MSTORE PUSH2 0x3140 DUP2 DUP5 PUSH2 0x30C8 JUMP JUMPDEST SWAP1 POP SWAP3 SWAP2 POP POP JUMP JUMPDEST PUSH1 0x0 DUP1 PUSH1 0x0 DUP1 PUSH1 0x0 DUP1 PUSH1 0x0 DUP1 PUSH1 0x0 DUP1 PUSH2 0x140 DUP12 DUP14 SUB SLT ISZERO PUSH2 0x316C JUMPI PUSH2 0x316B PUSH2 0x2C0C JUMP JUMPDEST JUMPDEST PUSH1 0x0 PUSH2 0x317A DUP14 DUP3 DUP15 ADD PUSH2 0x2C32 JUMP JUMPDEST SWAP11 POP POP PUSH1 0x20 PUSH2 0x318B DUP14 DUP3 DUP15 ADD PUSH2 0x2C32 JUMP JUMPDEST SWAP10 POP POP PUSH1 0x40 PUSH2 0x319C DUP14 DUP3 DUP15 ADD PUSH2 0x2C32 JUMP JUMPDEST SWAP9 POP POP PUSH1 0x60 PUSH2 0x31AD DUP14 DUP3 DUP15 ADD PUSH2 0x2C32 JUMP JUMPDEST SWAP8 POP POP PUSH1 0x80 PUSH2 0x31BE DUP14 DUP3 DUP15 ADD PUSH2 0x2C32 JUMP JUMPDEST SWAP7 POP POP PUSH1 0xA0 PUSH2 0x31CF DUP14 DUP3 DUP15 ADD PUSH2 0x2C32 JUMP JUMPDEST SWAP6 POP POP PUSH1 0xC0 PUSH2 0x31E0 DUP14 DUP3 DUP15 ADD PUSH2 0x2C32 JUMP JUMPDEST SWAP5 POP POP PUSH1 0xE0 PUSH2 0x31F1 DUP14 DUP3 DUP15 ADD PUSH2 0x2C32 JUMP JUMPDEST SWAP4 POP POP PUSH2 0x100 PUSH2 0x3203 DUP14 DUP3 DUP15 ADD PUSH2 0x2C32 JUMP JUMPDEST SWAP3 POP POP PUSH2 0x120 PUSH2 0x3215 DUP14 DUP3 DUP15 ADD PUSH2 0x2C32 JUMP JUMPDEST SWAP2 POP POP SWAP3 SWAP6 SWAP9 SWAP12 SWAP2 SWAP5 SWAP8 SWAP11 POP SWAP3 SWAP6 SWAP9 POP JUMP JUMPDEST PUSH1 0x0 PUSH1 0x20 DUP3 ADD SWAP1 POP PUSH2 0x323C PUSH1 0x0 DUP4 ADD DUP5 PUSH2 0x2C74 JUMP JUMPDEST SWAP3 SWAP2 POP POP JUMP JUMPDEST PUSH32 0x4F6666657220646F6573206E6F74206578697374000000000000000000000000 PUSH1 0x0 DUP3 ADD MSTORE POP JUMP JUMPDEST PUSH1 0x0 PUSH2 0x3278 PUSH1 0x14 DUP4 PUSH2 0x2E93 JUMP JUMPDEST SWAP2 POP PUSH2 0x3283 DUP3 PUSH2 0x3242 JUMP JUMPDEST PUSH1 0x20 DUP3 ADD SWAP1 POP SWAP2 SWAP1 POP JUMP JUMPDEST PUSH1 0x0 PUSH1 0x20 DUP3 ADD SWAP1 POP DUP2 DUP2 SUB PUSH1 0x0 DUP4 ADD MSTORE PUSH2 0x32A7 DUP2 PUSH2 0x326B JUMP JUMPDEST SWAP1 POP SWAP2 SWAP1 POP JUMP JUMPDEST PUSH32 0x6F66666572206E6F7420617661696C61626C6500000000000000000000000000 PUSH1 0x0 DUP3 ADD MSTORE POP JUMP JUMPDEST PUSH1 0x0 PUSH2 0x32E4 PUSH1 0x13 DUP4 PUSH2 0x2E93 JUMP JUMPDEST SWAP2 POP PUSH2 0x32EF DUP3 PUSH2 0x32AE JUMP JUMPDEST PUSH1 0x20 DUP3 ADD SWAP1 POP SWAP2 SWAP1 POP JUMP JUMPDEST PUSH1 0x0 PUSH1 0x20 DUP3 ADD SWAP1 POP DUP2 DUP2 SUB PUSH1 0x0 DUP4 ADD MSTORE PUSH2 0x3313 DUP2 PUSH2 0x32D7 JUMP JUMPDEST SWAP1 POP SWAP2 SWAP1 POP JUMP JUMPDEST PUSH32 0x796F752063616E207769746864726177206F6E6C7920796F7572206F776E206F PUSH1 0x0 DUP3 ADD MSTORE PUSH32 0x6666657200000000000000000000000000000000000000000000000000000000 PUSH1 0x20 DUP3 ADD MSTORE POP JUMP JUMPDEST PUSH1 0x0 PUSH2 0x3376 PUSH1 0x24 DUP4 PUSH2 0x2E93 JUMP JUMPDEST SWAP2 POP PUSH2 0x3381 DUP3 PUSH2 0x331A JUMP JUMPDEST PUSH1 0x40 DUP3 ADD SWAP1 POP SWAP2 SWAP1 POP JUMP JUMPDEST PUSH1 0x0 PUSH1 0x20 DUP3 ADD SWAP1 POP DUP2 DUP2 SUB PUSH1 0x0 DUP4 ADD MSTORE PUSH2 0x33A5 DUP2 PUSH2 0x3369 JUMP JUMPDEST SWAP1 POP SWAP2 SWAP1 POP JUMP JUMPDEST PUSH32 0x4E487B7100000000000000000000000000000000000000000000000000000000 PUSH1 0x0 MSTORE PUSH1 0x11 PUSH1 0x4 MSTORE PUSH1 0x24 PUSH1 0x0 REVERT JUMPDEST PUSH1 0x0 PUSH2 0x33E6 DUP3 PUSH2 0x2C11 JUMP JUMPDEST SWAP2 POP PUSH2 0x33F1 DUP4 PUSH2 0x2C11 JUMP JUMPDEST SWAP3 POP DUP3 DUP3 MUL PUSH2 0x33FF DUP2 PUSH2 0x2C11 JUMP JUMPDEST SWAP2 POP DUP3 DUP3 DIV DUP5 EQ DUP4 ISZERO OR PUSH2 0x3416 JUMPI PUSH2 0x3415 PUSH2 0x33AC JUMP JUMPDEST JUMPDEST POP SWAP3 SWAP2 POP POP JUMP JUMPDEST PUSH1 0x0 PUSH1 0x40 DUP3 ADD SWAP1 POP PUSH2 0x3432 PUSH1 0x0 DUP4 ADD DUP6 PUSH2 0x2BE2 JUMP JUMPDEST PUSH2 0x343F PUSH1 0x20 DUP4 ADD DUP5 PUSH2 0x2C74 JUMP JUMPDEST SWAP4 SWAP3 POP POP POP JUMP JUMPDEST PUSH2 0x344F DUP2 PUSH2 0x2D9E JUMP JUMPDEST DUP2 EQ PUSH2 0x345A JUMPI PUSH1 0x0 DUP1 REVERT JUMPDEST POP JUMP JUMPDEST PUSH1 0x0 DUP2 MLOAD SWAP1 POP PUSH2 0x346C DUP2 PUSH2 0x3446 JUMP JUMPDEST SWAP3 SWAP2 POP POP JUMP JUMPDEST PUSH1 0x0 PUSH1 0x20 DUP3 DUP5 SUB SLT ISZERO PUSH2 0x3488 JUMPI PUSH2 0x3487 PUSH2 0x2C0C JUMP JUMPDEST JUMPDEST PUSH1 0x0 PUSH2 0x3496 DUP5 DUP3 DUP6 ADD PUSH2 0x345D JUMP JUMPDEST SWAP2 POP POP SWAP3 SWAP2 POP POP JUMP JUMPDEST PUSH32 0x5472616E73666572206F6620746F6B656E31206661696C656400000000000000 PUSH1 0x0 DUP3 ADD MSTORE POP JUMP JUMPDEST PUSH1 0x0 PUSH2 0x34D5 PUSH1 0x19 DUP4 PUSH2 0x2E93 JUMP JUMPDEST SWAP2 POP PUSH2 0x34E0 DUP3 PUSH2 0x349F JUMP JUMPDEST PUSH1 0x20 DUP3 ADD SWAP1 POP SWAP2 SWAP1 POP JUMP JUMPDEST PUSH1 0x0 PUSH1 0x20 DUP3 ADD SWAP1 POP DUP2 DUP2 SUB PUSH1 0x0 DUP4 ADD MSTORE PUSH2 0x3504 DUP2 PUSH2 0x34C8 JUMP JUMPDEST SWAP1 POP SWAP2 SWAP1 POP JUMP JUMPDEST PUSH32 0x5472616E73666572206F6620746F6B656E32206661696C656400000000000000 PUSH1 0x0 DUP3 ADD MSTORE POP JUMP JUMPDEST PUSH1 0x0 PUSH2 0x3541 PUSH1 0x19 DUP4 PUSH2 0x2E93 JUMP JUMPDEST SWAP2 POP PUSH2 0x354C DUP3 PUSH2 0x350B JUMP JUMPDEST PUSH1 0x20 DUP3 ADD SWAP1 POP SWAP2 SWAP1 POP JUMP JUMPDEST PUSH1 0x0 PUSH1 0x20 DUP3 ADD SWAP1 POP DUP2 DUP2 SUB PUSH1 0x0 DUP4 ADD MSTORE PUSH2 0x3570 DUP2 PUSH2 0x3534 JUMP JUMPDEST SWAP1 POP SWAP2 SWAP1 POP JUMP JUMPDEST PUSH32 0x5472616E73666572206F6620746F6B656E33206661696C656400000000000000 PUSH1 0x0 DUP3 ADD MSTORE POP JUMP JUMPDEST PUSH1 0x0 PUSH2 0x35AD PUSH1 0x19 DUP4 PUSH2 0x2E93 JUMP JUMPDEST SWAP2 POP PUSH2 0x35B8 DUP3 PUSH2 0x3577 JUMP JUMPDEST PUSH1 0x20 DUP3 ADD SWAP1 POP SWAP2 SWAP1 POP JUMP JUMPDEST PUSH1 0x0 PUSH1 0x20 DUP3 ADD SWAP1 POP DUP2 DUP2 SUB PUSH1 0x0 DUP4 ADD MSTORE PUSH2 0x35DC DUP2 PUSH2 0x35A0 JUMP JUMPDEST SWAP1 POP SWAP2 SWAP1 POP JUMP JUMPDEST PUSH32 0x5472616E73666572206F6620746F6B656E34206661696C656400000000000000 PUSH1 0x0 DUP3 ADD MSTORE POP JUMP JUMPDEST PUSH1 0x0 PUSH2 0x3619 PUSH1 0x19 DUP4 PUSH2 0x2E93 JUMP JUMPDEST SWAP2 POP PUSH2 0x3624 DUP3 PUSH2 0x35E3 JUMP JUMPDEST PUSH1 0x20 DUP3 ADD SWAP1 POP SWAP2 SWAP1 POP JUMP JUMPDEST PUSH1 0x0 PUSH1 0x20 DUP3 ADD SWAP1 POP DUP2 DUP2 SUB PUSH1 0x0 DUP4 ADD MSTORE PUSH2 0x3648 DUP2 PUSH2 0x360C JUMP JUMPDEST SWAP1 POP SWAP2 SWAP1 POP JUMP JUMPDEST PUSH32 0x5472616E73666572206F6620746F6B656E35206661696C656400000000000000 PUSH1 0x0 DUP3 ADD MSTORE POP JUMP JUMPDEST PUSH1 0x0 PUSH2 0x3685 PUSH1 0x19 DUP4 PUSH2 0x2E93 JUMP JUMPDEST SWAP2 POP PUSH2 0x3690 DUP3 PUSH2 0x364F JUMP JUMPDEST PUSH1 0x20 DUP3 ADD SWAP1 POP SWAP2 SWAP1 POP JUMP JUMPDEST PUSH1 0x0 PUSH1 0x20 DUP3 ADD SWAP1 POP DUP2 DUP2 SUB PUSH1 0x0 DUP4 ADD MSTORE PUSH2 0x36B4 DUP2 PUSH2 0x3678 JUMP JUMPDEST SWAP1 POP SWAP2 SWAP1 POP JUMP JUMPDEST PUSH1 0x0 DUP2 MLOAD SWAP1 POP PUSH2 0x36CA DUP2 PUSH2 0x2C1B JUMP JUMPDEST SWAP3 SWAP2 POP POP JUMP JUMPDEST PUSH1 0x0 PUSH1 0x20 DUP3 DUP5 SUB SLT ISZERO PUSH2 0x36E6 JUMPI PUSH2 0x36E5 PUSH2 0x2C0C JUMP JUMPDEST JUMPDEST PUSH1 0x0 PUSH2 0x36F4 DUP5 DUP3 DUP6 ADD PUSH2 0x36BB JUMP JUMPDEST SWAP2 POP POP SWAP3 SWAP2 POP POP JUMP JUMPDEST PUSH32 0x4E487B7100000000000000000000000000000000000000000000000000000000 PUSH1 0x0 MSTORE PUSH1 0x12 PUSH1 0x4 MSTORE PUSH1 0x24 PUSH1 0x0 REVERT JUMPDEST PUSH1 0x0 PUSH2 0x3737 DUP3 PUSH2 0x2C11 JUMP JUMPDEST SWAP2 POP PUSH2 0x3742 DUP4 PUSH2 0x2C11 JUMP JUMPDEST SWAP3 POP DUP3 PUSH2 0x3752 JUMPI PUSH2 0x3751 PUSH2 0x36FD JUMP JUMPDEST JUMPDEST DUP3 DUP3 DIV SWAP1 POP SWAP3 SWAP2 POP POP JUMP JUMPDEST PUSH32 0x4E487B7100000000000000000000000000000000000000000000000000000000 PUSH1 0x0 MSTORE PUSH1 0x41 PUSH1 0x4 MSTORE PUSH1 0x24 PUSH1 0x0 REVERT JUMPDEST PUSH32 0x4E487B7100000000000000000000000000000000000000000000000000000000 PUSH1 0x0 MSTORE PUSH1 0x32 PUSH1 0x4 MSTORE PUSH1 0x24 PUSH1 0x0 REVERT JUMPDEST PUSH1 0x0 PUSH2 0x37C6 DUP3 PUSH2 0x2C11 JUMP JUMPDEST SWAP2 POP PUSH32 0xFFFFFFFFFFFFFFFFFFFFFFFFFFFFFFFFFFFFFFFFFFFFFFFFFFFFFFFFFFFFFFFF DUP3 SUB PUSH2 0x37F8 JUMPI PUSH2 0x37F7 PUSH2 0x33AC JUMP JUMPDEST JUMPDEST PUSH1 0x1 DUP3 ADD SWAP1 POP SWAP2 SWAP1 POP JUMP JUMPDEST PUSH1 0x0 DUP2 SWAP1 POP SWAP3 SWAP2 POP POP JUMP JUMPDEST PUSH1 0x0 PUSH2 0x3819 DUP3 PUSH2 0x2E88 JUMP JUMPDEST PUSH2 0x3823 DUP2 DUP6 PUSH2 0x3803 JUMP JUMPDEST SWAP4 POP PUSH2 0x3833 DUP2 DUP6 PUSH1 0x20 DUP7 ADD PUSH2 0x2EA4 JUMP JUMPDEST DUP1 DUP5 ADD SWAP2 POP POP SWAP3 SWAP2 POP POP JUMP JUMPDEST PUSH32 0x20574F4F44200000000000000000000000000000000000000000000000000000 PUSH1 0x0 DUP3 ADD MSTORE POP JUMP JUMPDEST PUSH1 0x0 PUSH2 0x3875 PUSH1 0x6 DUP4 PUSH2 0x3803 JUMP JUMPDEST SWAP2 POP PUSH2 0x3880 DUP3 PUSH2 0x383F JUMP JUMPDEST PUSH1 0x6 DUP3 ADD SWAP1 POP SWAP2 SWAP1 POP JUMP JUMPDEST PUSH1 0x0 PUSH2 0x3897 DUP3 DUP6 PUSH2 0x380E JUMP JUMPDEST SWAP2 POP PUSH2 0x38A3 DUP3 DUP5 PUSH2 0x380E JUMP JUMPDEST SWAP2 POP PUSH2 0x38AE DUP3 PUSH2 0x3868 JUMP JUMPDEST SWAP2 POP DUP2 SWAP1 POP SWAP4 SWAP3 POP POP POP JUMP JUMPDEST PUSH32 0x20524F434B200000000000000000000000000000000000000000000000000000 PUSH1 0x0 DUP3 ADD MSTORE POP JUMP JUMPDEST PUSH1 0x0 PUSH2 0x38F0 PUSH1 0x6 DUP4 PUSH2 0x3803 JUMP JUMPDEST SWAP2 POP PUSH2 0x38FB DUP3 PUSH2 0x38BA JUMP JUMPDEST PUSH1 0x6 DUP3 ADD SWAP1 POP SWAP2 SWAP1 POP JUMP JUMPDEST PUSH1 0x0 PUSH2 0x3912 DUP3 DUP6 PUSH2 0x380E JUMP JUMPDEST SWAP2 POP PUSH2 0x391E DUP3 DUP5 PUSH2 0x380E JUMP JUMPDEST SWAP2 POP PUSH2 0x3929 DUP3 PUSH2 0x38E3 JUMP JUMPDEST SWAP2 POP DUP2 SWAP1 POP SWAP4 SWAP3 POP POP POP JUMP JUMPDEST PUSH32 0x20434C4159200000000000000000000000000000000000000000000000000000 PUSH1 0x0 DUP3 ADD MSTORE POP JUMP JUMPDEST PUSH1 0x0 PUSH2 0x396B PUSH1 0x6 DUP4 PUSH2 0x3803 JUMP JUMPDEST SWAP2 POP PUSH2 0x3976 DUP3 PUSH2 0x3935 JUMP JUMPDEST PUSH1 0x6 DUP3 ADD SWAP1 POP SWAP2 SWAP1 POP JUMP JUMPDEST PUSH1 0x0 PUSH2 0x398D DUP3 DUP6 PUSH2 0x380E JUMP JUMPDEST SWAP2 POP PUSH2 0x3999 DUP3 DUP5 PUSH2 0x380E JUMP JUMPDEST SWAP2 POP PUSH2 0x39A4 DUP3 PUSH2 0x395E JUMP JUMPDEST SWAP2 POP DUP2 SWAP1 POP SWAP4 SWAP3 POP POP POP JUMP JUMPDEST PUSH32 0x20574F4F4C200000000000000000000000000000000000000000000000000000 PUSH1 0x0 DUP3 ADD MSTORE POP JUMP JUMPDEST PUSH1 0x0 PUSH2 0x39E6 PUSH1 0x6 DUP4 PUSH2 0x3803 JUMP JUMPDEST SWAP2 POP PUSH2 0x39F1 DUP3 PUSH2 0x39B0 JUMP JUMPDEST PUSH1 0x6 DUP3 ADD SWAP1 POP SWAP2 SWAP1 POP JUMP JUMPDEST PUSH1 0x0 PUSH2 0x3A08 DUP3 DUP6 PUSH2 0x380E JUMP JUMPDEST SWAP2 POP PUSH2 0x3A14 DUP3 DUP5 PUSH2 0x380E JUMP JUMPDEST SWAP2 POP PUSH2 0x3A1F DUP3 PUSH2 0x39D9 JUMP JUMPDEST SWAP2 POP DUP2 SWAP1 POP SWAP4 SWAP3 POP POP POP JUMP JUMPDEST PUSH32 0x2046495348200000000000000000000000000000000000000000000000000000 PUSH1 0x0 DUP3 ADD MSTORE POP JUMP JUMPDEST PUSH1 0x0 PUSH2 0x3A61 PUSH1 0x6 DUP4 PUSH2 0x3803 JUMP JUMPDEST SWAP2 POP PUSH2 0x3A6C DUP3 PUSH2 0x3A2B JUMP JUMPDEST PUSH1 0x6 DUP3 ADD SWAP1 POP SWAP2 SWAP1 POP JUMP JUMPDEST PUSH1 0x0 PUSH2 0x3A83 DUP3 DUP6 PUSH2 0x380E JUMP JUMPDEST SWAP2 POP PUSH2 0x3A8F DUP3 DUP5 PUSH2 0x380E JUMP JUMPDEST SWAP2 POP PUSH2 0x3A9A DUP3 PUSH2 0x3A54 JUMP JUMPDEST SWAP2 POP DUP2 SWAP1 POP SWAP4 SWAP3 POP POP POP JUMP JUMPDEST PUSH32 0x666F722000000000000000000000000000000000000000000000000000000000 PUSH1 0x0 DUP3 ADD MSTORE POP JUMP JUMPDEST PUSH1 0x0 PUSH2 0x3ADC PUSH1 0x4 DUP4 PUSH2 0x3803 JUMP JUMPDEST SWAP2 POP PUSH2 0x3AE7 DUP3 PUSH2 0x3AA6 JUMP JUMPDEST PUSH1 0x4 DUP3 ADD SWAP1 POP SWAP2 SWAP1 POP JUMP JUMPDEST PUSH1 0x0 PUSH2 0x3AFE DUP3 DUP5 PUSH2 0x380E JUMP JUMPDEST SWAP2 POP PUSH2 0x3B09 DUP3 PUSH2 0x3ACF JUMP JUMPDEST SWAP2 POP DUP2 SWAP1 POP SWAP3 SWAP2 POP POP JUMP JUMPDEST PUSH32 0x496E76616C6964204F6666657200000000000000000000000000000000000000 PUSH1 0x0 DUP3 ADD MSTORE POP JUMP JUMPDEST PUSH1 0x0 PUSH2 0x3B4A PUSH1 0xD DUP4 PUSH2 0x2E93 JUMP JUMPDEST SWAP2 POP PUSH2 0x3B55 DUP3 PUSH2 0x3B14 JUMP JUMPDEST PUSH1 0x20 DUP3 ADD SWAP1 POP SWAP2 SWAP1 POP JUMP JUMPDEST PUSH1 0x0 PUSH1 0x20 DUP3 ADD SWAP1 POP DUP2 DUP2 SUB PUSH1 0x0 DUP4 ADD MSTORE PUSH2 0x3B79 DUP2 PUSH2 0x3B3D JUMP JUMPDEST SWAP1 POP SWAP2 SWAP1 POP JUMP JUMPDEST PUSH32 0x596F752063616E6E6F742061636365707420796F7572206F776E206F66666572 PUSH1 0x0 DUP3 ADD MSTORE POP JUMP JUMPDEST PUSH1 0x0 PUSH2 0x3BB6 PUSH1 0x20 DUP4 PUSH2 0x2E93 JUMP JUMPDEST SWAP2 POP PUSH2 0x3BC1 DUP3 PUSH2 0x3B80 JUMP JUMPDEST PUSH1 0x20 DUP3 ADD SWAP1 POP SWAP2 SWAP1 POP JUMP JUMPDEST PUSH1 0x0 PUSH1 0x20 DUP3 ADD SWAP1 POP DUP2 DUP2 SUB PUSH1 0x0 DUP4 ADD MSTORE PUSH2 0x3BE5 DUP2 PUSH2 0x3BA9 JUMP JUMPDEST SWAP1 POP SWAP2 SWAP1 POP JUMP JUMPDEST PUSH1 0x0 PUSH1 0x60 DUP3 ADD SWAP1 POP PUSH2 0x3C01 PUSH1 0x0 DUP4 ADD DUP7 PUSH2 0x2BE2 JUMP JUMPDEST PUSH2 0x3C0E PUSH1 0x20 DUP4 ADD DUP6 PUSH2 0x2BE2 JUMP JUMPDEST PUSH2 0x3C1B PUSH1 0x40 DUP4 ADD DUP5 PUSH2 0x2C74 JUMP JUMPDEST SWAP5 SWAP4 POP POP POP POP JUMP JUMPDEST PUSH32 0x4F6666657220496E76616C696400000000000000000000000000000000000000 PUSH1 0x0 DUP3 ADD MSTORE POP JUMP JUMPDEST PUSH1 0x0 PUSH2 0x3C59 PUSH1 0xD DUP4 PUSH2 0x2E93 JUMP JUMPDEST SWAP2 POP PUSH2 0x3C64 DUP3 PUSH2 0x3C23 JUMP JUMPDEST PUSH1 0x20 DUP3 ADD SWAP1 POP SWAP2 SWAP1 POP JUMP JUMPDEST PUSH1 0x0 PUSH1 0x20 DUP3 ADD SWAP1 POP DUP2 DUP2 SUB PUSH1 0x0 DUP4 ADD MSTORE PUSH2 0x3C88 DUP2 PUSH2 0x3C4C JUMP JUMPDEST SWAP1 POP SWAP2 SWAP1 POP JUMP JUMPDEST PUSH1 0x0 PUSH2 0x3C9A DUP3 PUSH2 0x2C11 JUMP JUMPDEST SWAP2 POP PUSH2 0x3CA5 DUP4 PUSH2 0x2C11 JUMP JUMPDEST SWAP3 POP DUP3 DUP3 SUB SWAP1 POP DUP2 DUP2 GT ISZERO PUSH2 0x3CBD JUMPI PUSH2 0x3CBC PUSH2 0x33AC JUMP JUMPDEST JUMPDEST SWAP3 SWAP2 POP POP JUMP JUMPDEST PUSH1 0x0 PUSH2 0x3CCE DUP3 PUSH2 0x2C11 JUMP JUMPDEST SWAP2 POP PUSH2 0x3CD9 DUP4 PUSH2 0x2C11 JUMP JUMPDEST SWAP3 POP DUP3 DUP3 ADD SWAP1 POP DUP1 DUP3 GT ISZERO PUSH2 0x3CF1 JUMPI PUSH2 0x3CF0 PUSH2 0x33AC JUMP JUMPDEST JUMPDEST SWAP3 SWAP2 POP POP JUMP JUMPDEST PUSH1 0x0 PUSH2 0x3D02 DUP3 PUSH2 0x2C11 JUMP JUMPDEST SWAP2 POP PUSH2 0x3D0D DUP4 PUSH2 0x2C11 JUMP JUMPDEST SWAP3 POP DUP3 PUSH2 0x3D1D JUMPI PUSH2 0x3D1C PUSH2 0x36FD JUMP JUMPDEST JUMPDEST DUP3 DUP3 MOD SWAP1 POP SWAP3 SWAP2 POP POP JUMP INVALID LOG2 PUSH5 0x6970667358 0x22 SLT KECCAK256 RETURNDATASIZE 0xB7 BASEFEE 0xC2 0xE6 0xAD PUSH14 0x2F0BB5435E66AB73F1B957254977 SWAP13 0xC1 GASLIMIT PUSH6 0x84593E4162DB 0xC1 PUSH5 0x736F6C6343 STOP ADDMOD SLT STOP CALLER "
		},
		"gasEstimates": {
			"creation": {
				"codeDepositCost": "3142000",
				"executionCost": "124802",
				"totalCost": "3266802"
			},
			"external": {
				"acceptOffer(uint256)": "infinite",
				"getContractAssets()": "infinite",
				"getNumberOfOffers()": "infinite",
				"getOffer(uint256)": "infinite",
				"getOfferArrayToAccept(uint256)": "infinite",
				"getOfferCreator(uint256)": "2934",
				"getOfferCreatorsArray()": "infinite",
				"getOfferStatus(uint256)": "2872",
				"getOfferStatusArray()": "infinite",
				"getOfferString(uint256)": "infinite",
				"getOfferStringsArray()": "infinite",
				"makeOffer(uint256,uint256,uint256,uint256,uint256,uint256,uint256,uint256,uint256,uint256)": "infinite",
				"token1()": "2600",
				"token2()": "2538",
				"token3()": "2580",
				"token4()": "2581",
				"token5()": "2604",
				"withdraw(uint256)": "infinite"
			},
			"internal": {
				"uint256ToString(uint256)": "infinite"
			}
		},
		"methodIdentifiers": {
			"acceptOffer(uint256)": "c815729d",
			"getContractAssets()": "5c62455f",
			"getNumberOfOffers()": "fae25444",
			"getOffer(uint256)": "4579268a",
			"getOfferArrayToAccept(uint256)": "d30456c5",
			"getOfferCreator(uint256)": "b4543fbe",
			"getOfferCreatorsArray()": "cce3785f",
			"getOfferStatus(uint256)": "dc2d98d2",
			"getOfferStatusArray()": "77e67f2d",
			"getOfferString(uint256)": "b53408e8",
			"getOfferStringsArray()": "c491f8df",
			"makeOffer(uint256,uint256,uint256,uint256,uint256,uint256,uint256,uint256,uint256,uint256)": "f834ec5a",
			"token1()": "d21220a7",
			"token2()": "25be124e",
			"token3()": "ef14101e",
			"token4()": "79950f55",
			"token5()": "5b6f5e53",
			"withdraw(uint256)": "2e1a7d4d"
		}
	},
	"abi": [
		{
			"inputs": [
				{
					"internalType": "uint256",
					"name": "_offerId",
					"type": "uint256"
				}
			],
			"name": "acceptOffer",
			"outputs": [],
			"stateMutability": "nonpayable",
			"type": "function"
		},
		{
			"inputs": [],
			"name": "getContractAssets",
			"outputs": [
				{
					"internalType": "uint256",
					"name": "Wood",
					"type": "uint256"
				},
				{
					"internalType": "uint256",
					"name": "Rock",
					"type": "uint256"
				},
				{
					"internalType": "uint256",
					"name": "Clay",
					"type": "uint256"
				},
				{
					"internalType": "uint256",
					"name": "Wool",
					"type": "uint256"
				},
				{
					"internalType": "uint256",
					"name": "Fish",
					"type": "uint256"
				}
			],
			"stateMutability": "view",
			"type": "function"
		},
		{
			"inputs": [],
			"name": "getNumberOfOffers",
			"outputs": [
				{
					"internalType": "uint256",
					"name": "",
					"type": "uint256"
				}
			],
			"stateMutability": "view",
			"type": "function"
		},
		{
			"inputs": [
				{
					"internalType": "uint256",
					"name": "_offerId",
					"type": "uint256"
				}
			],
			"name": "getOffer",
			"outputs": [
				{
					"internalType": "uint256",
					"name": "",
					"type": "uint256"
				},
				{
					"internalType": "uint256",
					"name": "",
					"type": "uint256"
				},
				{
					"internalType": "uint256",
					"name": "",
					"type": "uint256"
				},
				{
					"internalType": "uint256",
					"name": "",
					"type": "uint256"
				},
				{
					"internalType": "uint256",
					"name": "",
					"type": "uint256"
				},
				{
					"internalType": "uint256",
					"name": "",
					"type": "uint256"
				},
				{
					"internalType": "uint256",
					"name": "",
					"type": "uint256"
				},
				{
					"internalType": "uint256",
					"name": "",
					"type": "uint256"
				},
				{
					"internalType": "uint256",
					"name": "",
					"type": "uint256"
				},
				{
					"internalType": "uint256",
					"name": "",
					"type": "uint256"
				}
			],
			"stateMutability": "view",
			"type": "function"
		},
		{
			"inputs": [
				{
					"internalType": "uint256",
					"name": "_offerId",
					"type": "uint256"
				}
			],
			"name": "getOfferArrayToAccept",
			"outputs": [
				{
					"internalType": "uint256[]",
					"name": "",
					"type": "uint256[]"
				}
			],
			"stateMutability": "view",
			"type": "function"
		},
		{
			"inputs": [
				{
					"internalType": "uint256",
					"name": "_offerId",
					"type": "uint256"
				}
			],
			"name": "getOfferCreator",
			"outputs": [
				{
					"internalType": "bool",
					"name": "",
					"type": "bool"
				}
			],
			"stateMutability": "view",
			"type": "function"
		},
		{
			"inputs": [],
			"name": "getOfferCreatorsArray",
			"outputs": [
				{
					"internalType": "bool[]",
					"name": "",
					"type": "bool[]"
				}
			],
			"stateMutability": "view",
			"type": "function"
		},
		{
			"inputs": [
				{
					"internalType": "uint256",
					"name": "_offerId",
					"type": "uint256"
				}
			],
			"name": "getOfferStatus",
			"outputs": [
				{
					"internalType": "bool",
					"name": "",
					"type": "bool"
				}
			],
			"stateMutability": "view",
			"type": "function"
		},
		{
			"inputs": [],
			"name": "getOfferStatusArray",
			"outputs": [
				{
					"internalType": "bool[]",
					"name": "",
					"type": "bool[]"
				}
			],
			"stateMutability": "view",
			"type": "function"
		},
		{
			"inputs": [
				{
					"internalType": "uint256",
					"name": "_offerId",
					"type": "uint256"
				}
			],
			"name": "getOfferString",
			"outputs": [
				{
					"internalType": "string",
					"name": "",
					"type": "string"
				}
			],
			"stateMutability": "view",
			"type": "function"
		},
		{
			"inputs": [],
			"name": "getOfferStringsArray",
			"outputs": [
				{
					"internalType": "string[]",
					"name": "",
					"type": "string[]"
				}
			],
			"stateMutability": "view",
			"type": "function"
		},
		{
			"inputs": [
				{
					"internalType": "uint256",
					"name": "_offerAmount1",
					"type": "uint256"
				},
				{
					"internalType": "uint256",
					"name": "_offerAmount2",
					"type": "uint256"
				},
				{
					"internalType": "uint256",
					"name": "_offerAmount3",
					"type": "uint256"
				},
				{
					"internalType": "uint256",
					"name": "_offerAmount4",
					"type": "uint256"
				},
				{
					"internalType": "uint256",
					"name": "_offerAmount5",
					"type": "uint256"
				},
				{
					"internalType": "uint256",
					"name": "_wantedAmount1",
					"type": "uint256"
				},
				{
					"internalType": "uint256",
					"name": "_wantedAmount2",
					"type": "uint256"
				},
				{
					"internalType": "uint256",
					"name": "_wantedAmount3",
					"type": "uint256"
				},
				{
					"internalType": "uint256",
					"name": "_wantedAmount4",
					"type": "uint256"
				},
				{
					"internalType": "uint256",
					"name": "_wantedAmount5",
					"type": "uint256"
				}
			],
			"name": "makeOffer",
			"outputs": [],
			"stateMutability": "payable",
			"type": "function"
		},
		{
			"inputs": [],
			"name": "token1",
			"outputs": [
				{
					"internalType": "address",
					"name": "",
					"type": "address"
				}
			],
			"stateMutability": "view",
			"type": "function"
		},
		{
			"inputs": [],
			"name": "token2",
			"outputs": [
				{
					"internalType": "address",
					"name": "",
					"type": "address"
				}
			],
			"stateMutability": "view",
			"type": "function"
		},
		{
			"inputs": [],
			"name": "token3",
			"outputs": [
				{
					"internalType": "address",
					"name": "",
					"type": "address"
				}
			],
			"stateMutability": "view",
			"type": "function"
		},
		{
			"inputs": [],
			"name": "token4",
			"outputs": [
				{
					"internalType": "address",
					"name": "",
					"type": "address"
				}
			],
			"stateMutability": "view",
			"type": "function"
		},
		{
			"inputs": [],
			"name": "token5",
			"outputs": [
				{
					"internalType": "address",
					"name": "",
					"type": "address"
				}
			],
			"stateMutability": "view",
			"type": "function"
		},
		{
			"inputs": [
				{
					"internalType": "uint256",
					"name": "_offerId",
					"type": "uint256"
				}
			],
			"name": "withdraw",
			"outputs": [],
			"stateMutability": "payable",
			"type": "function"
		}
	]
}