{
  "contractName": "AnvilNFT",
  "abi": [
    {
      "inputs": [
        {
          "internalType": "contract ERC20",
          "name": "_paymentCurrency1",
          "type": "address"
        },
        {
          "internalType": "contract ERC20",
          "name": "_paymentCurrency2",
          "type": "address"
        },
        {
          "internalType": "contract ERC721",
          "name": "_requiredNFT1",
          "type": "address"
        },
        {
          "internalType": "contract ERC721",
          "name": "_requiredNFT2",
          "type": "address"
        },
        {
          "internalType": "uint256",
          "name": "_requiredAmount1",
          "type": "uint256"
        },
        {
          "internalType": "uint256",
          "name": "_requiredAmount2",
          "type": "uint256"
        }
      ],
      "stateMutability": "nonpayable",
      "type": "constructor"
    },
    {
      "anonymous": false,
      "inputs": [
        {
          "indexed": true,
          "internalType": "address",
          "name": "owner",
          "type": "address"
        },
        {
          "indexed": true,
          "internalType": "address",
          "name": "approved",
          "type": "address"
        },
        {
          "indexed": true,
          "internalType": "uint256",
          "name": "tokenId",
          "type": "uint256"
        }
      ],
      "name": "Approval",
      "type": "event"
    },
    {
      "anonymous": false,
      "inputs": [
        {
          "indexed": true,
          "internalType": "address",
          "name": "owner",
          "type": "address"
        },
        {
          "indexed": true,
          "internalType": "address",
          "name": "operator",
          "type": "address"
        },
        {
          "indexed": false,
          "internalType": "bool",
          "name": "approved",
          "type": "bool"
        }
      ],
      "name": "ApprovalForAll",
      "type": "event"
    },
    {
      "anonymous": false,
      "inputs": [
        {
          "indexed": false,
          "internalType": "uint256",
          "name": "_fromTokenId",
          "type": "uint256"
        },
        {
          "indexed": false,
          "internalType": "uint256",
          "name": "_toTokenId",
          "type": "uint256"
        }
      ],
      "name": "BatchMetadataUpdate",
      "type": "event"
    },
    {
      "anonymous": false,
      "inputs": [
        {
          "indexed": false,
          "internalType": "uint256",
          "name": "_tokenId",
          "type": "uint256"
        }
      ],
      "name": "MetadataUpdate",
      "type": "event"
    },
    {
      "anonymous": false,
      "inputs": [
        {
          "indexed": true,
          "internalType": "address",
          "name": "previousOwner",
          "type": "address"
        },
        {
          "indexed": true,
          "internalType": "address",
          "name": "newOwner",
          "type": "address"
        }
      ],
      "name": "OwnershipTransferred",
      "type": "event"
    },
    {
      "anonymous": false,
      "inputs": [
        {
          "indexed": true,
          "internalType": "address",
          "name": "from",
          "type": "address"
        },
        {
          "indexed": true,
          "internalType": "address",
          "name": "to",
          "type": "address"
        },
        {
          "indexed": true,
          "internalType": "uint256",
          "name": "tokenId",
          "type": "uint256"
        }
      ],
      "name": "Transfer",
      "type": "event"
    },
    {
      "inputs": [
        {
          "internalType": "address",
          "name": "to",
          "type": "address"
        },
        {
          "internalType": "uint256",
          "name": "tokenId",
          "type": "uint256"
        }
      ],
      "name": "approve",
      "outputs": [],
      "stateMutability": "nonpayable",
      "type": "function"
    },
    {
      "inputs": [
        {
          "internalType": "address",
          "name": "owner",
          "type": "address"
        }
      ],
      "name": "balanceOf",
      "outputs": [
        {
          "internalType": "uint256",
          "name": "",
          "type": "uint256"
        }
      ],
      "stateMutability": "view",
      "type": "function",
      "constant": true
    },
    {
      "inputs": [
        {
          "internalType": "uint256",
          "name": "tokenId",
          "type": "uint256"
        }
      ],
      "name": "getApproved",
      "outputs": [
        {
          "internalType": "address",
          "name": "",
          "type": "address"
        }
      ],
      "stateMutability": "view",
      "type": "function",
      "constant": true
    },
    {
      "inputs": [
        {
          "internalType": "address",
          "name": "owner",
          "type": "address"
        },
        {
          "internalType": "address",
          "name": "operator",
          "type": "address"
        }
      ],
      "name": "isApprovedForAll",
      "outputs": [
        {
          "internalType": "bool",
          "name": "",
          "type": "bool"
        }
      ],
      "stateMutability": "view",
      "type": "function",
      "constant": true
    },
    {
      "inputs": [],
      "name": "name",
      "outputs": [
        {
          "internalType": "string",
          "name": "",
          "type": "string"
        }
      ],
      "stateMutability": "view",
      "type": "function",
      "constant": true
    },
    {
      "inputs": [],
      "name": "owner",
      "outputs": [
        {
          "internalType": "address",
          "name": "",
          "type": "address"
        }
      ],
      "stateMutability": "view",
      "type": "function",
      "constant": true
    },
    {
      "inputs": [
        {
          "internalType": "uint256",
          "name": "tokenId",
          "type": "uint256"
        }
      ],
      "name": "ownerOf",
      "outputs": [
        {
          "internalType": "address",
          "name": "",
          "type": "address"
        }
      ],
      "stateMutability": "view",
      "type": "function",
      "constant": true
    },
    {
      "inputs": [],
      "name": "paymentCurrency1",
      "outputs": [
        {
          "internalType": "contract ERC20",
          "name": "",
          "type": "address"
        }
      ],
      "stateMutability": "view",
      "type": "function",
      "constant": true
    },
    {
      "inputs": [],
      "name": "paymentCurrency2",
      "outputs": [
        {
          "internalType": "contract ERC20",
          "name": "",
          "type": "address"
        }
      ],
      "stateMutability": "view",
      "type": "function",
      "constant": true
    },
    {
      "inputs": [],
      "name": "renounceOwnership",
      "outputs": [],
      "stateMutability": "nonpayable",
      "type": "function"
    },
    {
      "inputs": [],
      "name": "requiredAmount1",
      "outputs": [
        {
          "internalType": "uint256",
          "name": "",
          "type": "uint256"
        }
      ],
      "stateMutability": "view",
      "type": "function",
      "constant": true
    },
    {
      "inputs": [],
      "name": "requiredAmount2",
      "outputs": [
        {
          "internalType": "uint256",
          "name": "",
          "type": "uint256"
        }
      ],
      "stateMutability": "view",
      "type": "function",
      "constant": true
    },
    {
      "inputs": [],
      "name": "requiredNFT1",
      "outputs": [
        {
          "internalType": "contract ERC721",
          "name": "",
          "type": "address"
        }
      ],
      "stateMutability": "view",
      "type": "function",
      "constant": true
    },
    {
      "inputs": [],
      "name": "requiredNFT2",
      "outputs": [
        {
          "internalType": "contract ERC721",
          "name": "",
          "type": "address"
        }
      ],
      "stateMutability": "view",
      "type": "function",
      "constant": true
    },
    {
      "inputs": [
        {
          "internalType": "address",
          "name": "from",
          "type": "address"
        },
        {
          "internalType": "address",
          "name": "to",
          "type": "address"
        },
        {
          "internalType": "uint256",
          "name": "tokenId",
          "type": "uint256"
        }
      ],
      "name": "safeTransferFrom",
      "outputs": [],
      "stateMutability": "nonpayable",
      "type": "function"
    },
    {
      "inputs": [
        {
          "internalType": "address",
          "name": "from",
          "type": "address"
        },
        {
          "internalType": "address",
          "name": "to",
          "type": "address"
        },
        {
          "internalType": "uint256",
          "name": "tokenId",
          "type": "uint256"
        },
        {
          "internalType": "bytes",
          "name": "data",
          "type": "bytes"
        }
      ],
      "name": "safeTransferFrom",
      "outputs": [],
      "stateMutability": "nonpayable",
      "type": "function"
    },
    {
      "inputs": [
        {
          "internalType": "address",
          "name": "operator",
          "type": "address"
        },
        {
          "internalType": "bool",
          "name": "approved",
          "type": "bool"
        }
      ],
      "name": "setApprovalForAll",
      "outputs": [],
      "stateMutability": "nonpayable",
      "type": "function"
    },
    {
      "inputs": [],
      "name": "symbol",
      "outputs": [
        {
          "internalType": "string",
          "name": "",
          "type": "string"
        }
      ],
      "stateMutability": "view",
      "type": "function",
      "constant": true
    },
    {
      "inputs": [
        {
          "internalType": "uint256",
          "name": "index",
          "type": "uint256"
        }
      ],
      "name": "tokenByIndex",
      "outputs": [
        {
          "internalType": "uint256",
          "name": "",
          "type": "uint256"
        }
      ],
      "stateMutability": "view",
      "type": "function",
      "constant": true
    },
    {
      "inputs": [
        {
          "internalType": "address",
          "name": "owner",
          "type": "address"
        },
        {
          "internalType": "uint256",
          "name": "index",
          "type": "uint256"
        }
      ],
      "name": "tokenOfOwnerByIndex",
      "outputs": [
        {
          "internalType": "uint256",
          "name": "",
          "type": "uint256"
        }
      ],
      "stateMutability": "view",
      "type": "function",
      "constant": true
    },
    {
      "inputs": [],
      "name": "totalSupply",
      "outputs": [
        {
          "internalType": "uint256",
          "name": "",
          "type": "uint256"
        }
      ],
      "stateMutability": "view",
      "type": "function",
      "constant": true
    },
    {
      "inputs": [
        {
          "internalType": "address",
          "name": "from",
          "type": "address"
        },
        {
          "internalType": "address",
          "name": "to",
          "type": "address"
        },
        {
          "internalType": "uint256",
          "name": "tokenId",
          "type": "uint256"
        }
      ],
      "name": "transferFrom",
      "outputs": [],
      "stateMutability": "nonpayable",
      "type": "function"
    },
    {
      "inputs": [
        {
          "internalType": "address",
          "name": "newOwner",
          "type": "address"
        }
      ],
      "name": "transferOwnership",
      "outputs": [],
      "stateMutability": "nonpayable",
      "type": "function"
    },
    {
      "inputs": [
        {
          "internalType": "contract ERC20",
          "name": "_paymentCurrency",
          "type": "address"
        }
      ],
      "name": "setPaymentCurrency1",
      "outputs": [],
      "stateMutability": "nonpayable",
      "type": "function"
    },
    {
      "inputs": [
        {
          "internalType": "contract ERC20",
          "name": "_paymentCurrency",
          "type": "address"
        }
      ],
      "name": "setPaymentCurrency2",
      "outputs": [],
      "stateMutability": "nonpayable",
      "type": "function"
    },
    {
      "inputs": [
        {
          "internalType": "contract ERC721",
          "name": "_requiredNFT",
          "type": "address"
        }
      ],
      "name": "setRequiredNFT1",
      "outputs": [],
      "stateMutability": "nonpayable",
      "type": "function"
    },
    {
      "inputs": [
        {
          "internalType": "contract ERC721",
          "name": "_requiredNFT",
          "type": "address"
        }
      ],
      "name": "setRequiredNFT2",
      "outputs": [],
      "stateMutability": "nonpayable",
      "type": "function"
    },
    {
      "inputs": [
        {
          "internalType": "uint256",
          "name": "_requiredAmount",
          "type": "uint256"
        }
      ],
      "name": "setRequiredAmount1",
      "outputs": [],
      "stateMutability": "nonpayable",
      "type": "function"
    },
    {
      "inputs": [
        {
          "internalType": "uint256",
          "name": "_requiredAmount",
          "type": "uint256"
        }
      ],
      "name": "setRequiredAmount2",
      "outputs": [],
      "stateMutability": "nonpayable",
      "type": "function"
    },
    {
      "inputs": [],
      "name": "buyAnvil",
      "outputs": [],
      "stateMutability": "nonpayable",
      "type": "function"
    },
    {
      "inputs": [
        {
          "internalType": "uint256",
          "name": "tokenId",
          "type": "uint256"
        }
      ],
      "name": "tokenURI",
      "outputs": [
        {
          "internalType": "string",
          "name": "",
          "type": "string"
        }
      ],
      "stateMutability": "view",
      "type": "function",
      "constant": true
    },
    {
      "inputs": [
        {
          "internalType": "bytes4",
          "name": "interfaceId",
          "type": "bytes4"
        }
      ],
      "name": "supportsInterface",
      "outputs": [
        {
          "internalType": "bool",
          "name": "",
          "type": "bool"
        }
      ],
      "stateMutability": "view",
      "type": "function",
      "constant": true
    }
  ],
  "bytecode": "0x60806040523480156200001157600080fd5b506040516200525038038062005250833981810160405281019062000037919062000627565b6040518060400160405280600881526020017f416e76696c4e46540000000000000000000000000000000000000000000000008152506040518060400160405280600581526020017f416e76696c0000000000000000000000000000000000000000000000000000008152508160009081620000b4919062000933565b508060019081620000c6919062000933565b505050620000e9620000dd6200045b60201b60201c565b6200046360201b60201c565b600073ffffffffffffffffffffffffffffffffffffffff168673ffffffffffffffffffffffffffffffffffffffff16036200015b576040517f08c379a0000000000000000000000000000000000000000000000000000000008152600401620001529062000aa1565b60405180910390fd5b600073ffffffffffffffffffffffffffffffffffffffff168573ffffffffffffffffffffffffffffffffffffffff1603620001cd576040517f08c379a0000000000000000000000000000000000000000000000000000000008152600401620001c49062000aa1565b60405180910390fd5b600073ffffffffffffffffffffffffffffffffffffffff168473ffffffffffffffffffffffffffffffffffffffff16036200023f576040517f08c379a0000000000000000000000000000000000000000000000000000000008152600401620002369062000b13565b60405180910390fd5b600073ffffffffffffffffffffffffffffffffffffffff168373ffffffffffffffffffffffffffffffffffffffff1603620002b1576040517f08c379a0000000000000000000000000000000000000000000000000000000008152600401620002a89062000b13565b60405180910390fd5b60008211620002f7576040517f08c379a0000000000000000000000000000000000000000000000000000000008152600401620002ee9062000b85565b60405180910390fd5b600081116200033d576040517f08c379a0000000000000000000000000000000000000000000000000000000008152600401620003349062000b85565b60405180910390fd5b85600c60006101000a81548173ffffffffffffffffffffffffffffffffffffffff021916908373ffffffffffffffffffffffffffffffffffffffff16021790555084600d60006101000a81548173ffffffffffffffffffffffffffffffffffffffff021916908373ffffffffffffffffffffffffffffffffffffffff16021790555083600e60006101000a81548173ffffffffffffffffffffffffffffffffffffffff021916908373ffffffffffffffffffffffffffffffffffffffff16021790555082600f60006101000a81548173ffffffffffffffffffffffffffffffffffffffff021916908373ffffffffffffffffffffffffffffffffffffffff160217905550816010819055508060118190555050505050505062000ba7565b600033905090565b6000600b60009054906101000a900473ffffffffffffffffffffffffffffffffffffffff16905081600b60006101000a81548173ffffffffffffffffffffffffffffffffffffffff021916908373ffffffffffffffffffffffffffffffffffffffff1602179055508173ffffffffffffffffffffffffffffffffffffffff168173ffffffffffffffffffffffffffffffffffffffff167f8be0079c531659141344cd1fd0a4f28419497f9722a3daafe3b4186f6b6457e060405160405180910390a35050565b600080fd5b600073ffffffffffffffffffffffffffffffffffffffff82169050919050565b60006200055b826200052e565b9050919050565b60006200056f826200054e565b9050919050565b620005818162000562565b81146200058d57600080fd5b50565b600081519050620005a18162000576565b92915050565b6000620005b4826200054e565b9050919050565b620005c681620005a7565b8114620005d257600080fd5b50565b600081519050620005e681620005bb565b92915050565b6000819050919050565b6200060181620005ec565b81146200060d57600080fd5b50565b6000815190506200062181620005f6565b92915050565b60008060008060008060c0878903121562000647576200064662000529565b5b60006200065789828a0162000590565b96505060206200066a89828a0162000590565b95505060406200067d89828a01620005d5565b94505060606200069089828a01620005d5565b9350506080620006a389828a0162000610565b92505060a0620006b689828a0162000610565b9150509295509295509295565b600081519050919050565b7f4e487b7100000000000000000000000000000000000000000000000000000000600052604160045260246000fd5b7f4e487b7100000000000000000000000000000000000000000000000000000000600052602260045260246000fd5b600060028204905060018216806200074557607f821691505b6020821081036200075b576200075a620006fd565b5b50919050565b60008190508160005260206000209050919050565b60006020601f8301049050919050565b600082821b905092915050565b600060088302620007c57fffffffffffffffffffffffffffffffffffffffffffffffffffffffffffffffff8262000786565b620007d1868362000786565b95508019841693508086168417925050509392505050565b6000819050919050565b6000620008146200080e6200080884620005ec565b620007e9565b620005ec565b9050919050565b6000819050919050565b6200083083620007f3565b620008486200083f826200081b565b84845462000793565b825550505050565b600090565b6200085f62000850565b6200086c81848462000825565b505050565b5b8181101562000894576200088860008262000855565b60018101905062000872565b5050565b601f821115620008e357620008ad8162000761565b620008b88462000776565b81016020851015620008c8578190505b620008e0620008d78562000776565b83018262000871565b50505b505050565b600082821c905092915050565b60006200090860001984600802620008e8565b1980831691505092915050565b6000620009238383620008f5565b9150826002028217905092915050565b6200093e82620006c3565b67ffffffffffffffff8111156200095a5762000959620006ce565b5b6200096682546200072c565b6200097382828562000898565b600060209050601f831160018114620009ab576000841562000996578287015190505b620009a2858262000915565b86555062000a12565b601f198416620009bb8662000761565b60005b82811015620009e557848901518255600182019150602085019450602081019050620009be565b8683101562000a05578489015162000a01601f891682620008f5565b8355505b6001600288020188555050505b505050505050565b600082825260208201905092915050565b7f546f6b656e20616464726573732063616e27742062652061646472657373207a60008201527f65726f0000000000000000000000000000000000000000000000000000000000602082015250565b600062000a8960238362000a1a565b915062000a968262000a2b565b604082019050919050565b6000602082019050818103600083015262000abc8162000a7a565b9050919050565b7f41646472657373732063616e2774206265207a65726f00000000000000000000600082015250565b600062000afb60168362000a1a565b915062000b088262000ac3565b602082019050919050565b6000602082019050818103600083015262000b2e8162000aec565b9050919050565b7f616d6f756e742063616e6e6f74206265207a65726f0000000000000000000000600082015250565b600062000b6d60158362000a1a565b915062000b7a8262000b35565b602082019050919050565b6000602082019050818103600083015262000ba08162000b5e565b9050919050565b6146998062000bb76000396000f3fe608060405234801561001057600080fd5b50600436106101f05760003560e01c806370a082311161010f578063b88d4fde116100a2578063d861584111610071578063d86158411461057f578063e985e9c51461059b578063f2fde38b146105cb578063f8e80d86146105e7576101f0565b8063b88d4fde146104f9578063c3cce1b414610515578063c87b56dd14610533578063cc528abb14610563576101f0565b806395d89b41116100de57806395d89b4114610485578063a22cb465146104a3578063a9084571146104bf578063b2a77331146104dd576101f0565b806370a0823114610411578063715018a6146104415780637ed3f6291461044b5780638da5cb5b14610467576101f0565b80632f745c59116101875780634bd0cdc2116101565780634bd0cdc2146103895780634f6ccce7146103935780635d8c9ee6146103c35780636352211e146103e1576101f0565b80632f745c59146103035780633db437721461033357806342842e0e146103515780634b084c521461036d576101f0565b80630cd73ee4116101c35780630cd73ee41461028f5780630eb547c9146102ad57806318160ddd146102c957806323b872dd146102e7576101f0565b806301ffc9a7146101f557806306fdde0314610225578063081812fc14610243578063095ea7b314610273575b600080fd5b61020f600480360381019061020a9190612d1d565b610605565b60405161021c9190612d65565b60405180910390f35b61022d610617565b60405161023a9190612e10565b60405180910390f35b61025d60048036038101906102589190612e68565b6106a9565b60405161026a9190612ed6565b60405180910390f35b61028d60048036038101906102889190612f1d565b6106ef565b005b610297610806565b6040516102a49190612f6c565b60405180910390f35b6102c760048036038101906102c29190612fc5565b61080c565b005b6102d16108c7565b6040516102de9190612f6c565b60405180910390f35b61030160048036038101906102fc9190612ff2565b6108d4565b005b61031d60048036038101906103189190612f1d565b610934565b60405161032a9190612f6c565b60405180910390f35b61033b6109d9565b60405161034891906130a4565b60405180910390f35b61036b60048036038101906103669190612ff2565b6109ff565b005b61038760048036038101906103829190612fc5565b610a1f565b005b610391610ada565b005b6103ad60048036038101906103a89190612e68565b610e97565b6040516103ba9190612f6c565b60405180910390f35b6103cb610f08565b6040516103d891906130e0565b60405180910390f35b6103fb60048036038101906103f69190612e68565b610f2e565b6040516104089190612ed6565b60405180910390f35b61042b600480360381019061042691906130fb565b610fb4565b6040516104389190612f6c565b60405180910390f35b61044961106b565b005b61046560048036038101906104609190612e68565b61107f565b005b61046f6110d4565b60405161047c9190612ed6565b60405180910390f35b61048d6110fe565b60405161049a9190612e10565b60405180910390f35b6104bd60048036038101906104b89190613154565b611190565b005b6104c76111a6565b6040516104d491906130e0565b60405180910390f35b6104f760048036038101906104f291906131d2565b6111cc565b005b610513600480360381019061050e9190613334565b611287565b005b61051d6112e9565b60405161052a91906130a4565b60405180910390f35b61054d60048036038101906105489190612e68565b61130f565b60405161055a9190612e10565b60405180910390f35b61057d60048036038101906105789190612e68565b611321565b005b610599600480360381019061059491906131d2565b611376565b005b6105b560048036038101906105b091906133b7565b611431565b6040516105c29190612d65565b60405180910390f35b6105e560048036038101906105e091906130fb565b6114c5565b005b6105ef611548565b6040516105fc9190612f6c565b60405180910390f35b60006106108261154e565b9050919050565b60606000805461062690613426565b80601f016020809104026020016040519081016040528092919081815260200182805461065290613426565b801561069f5780601f106106745761010080835404028352916020019161069f565b820191906000526020600020905b81548152906001019060200180831161068257829003601f168201915b5050505050905090565b60006106b4826115af565b6004600083815260200190815260200160002060009054906101000a900473ffffffffffffffffffffffffffffffffffffffff169050919050565b60006106fa82610f2e565b90508073ffffffffffffffffffffffffffffffffffffffff168373ffffffffffffffffffffffffffffffffffffffff160361076a576040517f08c379a0000000000000000000000000000000000000000000000000000000008152600401610761906134c9565b60405180910390fd5b8073ffffffffffffffffffffffffffffffffffffffff166107896115fa565b73ffffffffffffffffffffffffffffffffffffffff1614806107b857506107b7816107b26115fa565b611431565b5b6107f7576040517f08c379a00000000000000000000000000000000000000000000000000000000081526004016107ee9061355b565b60405180910390fd5b6108018383611602565b505050565b60115481565b6108146116bb565b600073ffffffffffffffffffffffffffffffffffffffff168173ffffffffffffffffffffffffffffffffffffffff1603610883576040517f08c379a000000000000000000000000000000000000000000000000000000000815260040161087a906135c7565b60405180910390fd5b80600f60006101000a81548173ffffffffffffffffffffffffffffffffffffffff021916908373ffffffffffffffffffffffffffffffffffffffff16021790555050565b6000600880549050905090565b6108e56108df6115fa565b82611739565b610924576040517f08c379a000000000000000000000000000000000000000000000000000000000815260040161091b90613659565b60405180910390fd5b61092f8383836117ce565b505050565b600061093f83610fb4565b8210610980576040517f08c379a0000000000000000000000000000000000000000000000000000000008152600401610977906136eb565b60405180910390fd5b600660008473ffffffffffffffffffffffffffffffffffffffff1673ffffffffffffffffffffffffffffffffffffffff168152602001908152602001600020600083815260200190815260200160002054905092915050565b600f60009054906101000a900473ffffffffffffffffffffffffffffffffffffffff1681565b610a1a83838360405180602001604052806000815250611287565b505050565b610a276116bb565b600073ffffffffffffffffffffffffffffffffffffffff168173ffffffffffffffffffffffffffffffffffffffff1603610a96576040517f08c379a0000000000000000000000000000000000000000000000000000000008152600401610a8d906135c7565b60405180910390fd5b80600e60006101000a81548173ffffffffffffffffffffffffffffffffffffffff021916908373ffffffffffffffffffffffffffffffffffffffff16021790555050565b6000600e60009054906101000a900473ffffffffffffffffffffffffffffffffffffffff1673ffffffffffffffffffffffffffffffffffffffff166370a08231336040518263ffffffff1660e01b8152600401610b379190612ed6565b602060405180830381865afa158015610b54573d6000803e3d6000fd5b505050506040513d601f19601f82011682018060405250810190610b789190613720565b11610bb8576040517f08c379a0000000000000000000000000000000000000000000000000000000008152600401610baf90613799565b60405180910390fd5b6000600f60009054906101000a900473ffffffffffffffffffffffffffffffffffffffff1673ffffffffffffffffffffffffffffffffffffffff166370a08231336040518263ffffffff1660e01b8152600401610c159190612ed6565b602060405180830381865afa158015610c32573d6000803e3d6000fd5b505050506040513d601f19601f82011682018060405250810190610c569190613720565b11610c96576040517f08c379a0000000000000000000000000000000000000000000000000000000008152600401610c8d90613805565b60405180910390fd5b600c60009054906101000a900473ffffffffffffffffffffffffffffffffffffffff1673ffffffffffffffffffffffffffffffffffffffff166323b872dd33306010546040518463ffffffff1660e01b8152600401610cf793929190613825565b6020604051808303816000875af1158015610d16573d6000803e3d6000fd5b505050506040513d601f19601f82011682018060405250810190610d3a9190613871565b610d79576040517f08c379a0000000000000000000000000000000000000000000000000000000008152600401610d7090613910565b60405180910390fd5b600d60009054906101000a900473ffffffffffffffffffffffffffffffffffffffff1673ffffffffffffffffffffffffffffffffffffffff166323b872dd33306011546040518463ffffffff1660e01b8152600401610dda93929190613825565b6020604051808303816000875af1158015610df9573d6000803e3d6000fd5b505050506040513d601f19601f82011682018060405250810190610e1d9190613871565b610e5c576040517f08c379a0000000000000000000000000000000000000000000000000000000008152600401610e53906139a2565b60405180910390fd5b6000610e666108c7565b9050610e723382611ac7565b610e948160405180608001604052806050815260200161461460509139611ae5565b50565b6000610ea16108c7565b8210610ee2576040517f08c379a0000000000000000000000000000000000000000000000000000000008152600401610ed990613a34565b60405180910390fd5b60088281548110610ef657610ef5613a54565b5b90600052602060002001549050919050565b600d60009054906101000a900473ffffffffffffffffffffffffffffffffffffffff1681565b600080610f3a83611b89565b9050600073ffffffffffffffffffffffffffffffffffffffff168173ffffffffffffffffffffffffffffffffffffffff1603610fab576040517f08c379a0000000000000000000000000000000000000000000000000000000008152600401610fa290613acf565b60405180910390fd5b80915050919050565b60008073ffffffffffffffffffffffffffffffffffffffff168273ffffffffffffffffffffffffffffffffffffffff1603611024576040517f08c379a000000000000000000000000000000000000000000000000000000000815260040161101b90613b61565b60405180910390fd5b600360008373ffffffffffffffffffffffffffffffffffffffff1673ffffffffffffffffffffffffffffffffffffffff168152602001908152602001600020549050919050565b6110736116bb565b61107d6000611bc6565b565b6110876116bb565b600081116110ca576040517f08c379a00000000000000000000000000000000000000000000000000000000081526004016110c190613bcd565b60405180910390fd5b8060108190555050565b6000600b60009054906101000a900473ffffffffffffffffffffffffffffffffffffffff16905090565b60606001805461110d90613426565b80601f016020809104026020016040519081016040528092919081815260200182805461113990613426565b80156111865780601f1061115b57610100808354040283529160200191611186565b820191906000526020600020905b81548152906001019060200180831161116957829003601f168201915b5050505050905090565b6111a261119b6115fa565b8383611c8c565b5050565b600c60009054906101000a900473ffffffffffffffffffffffffffffffffffffffff1681565b6111d46116bb565b600073ffffffffffffffffffffffffffffffffffffffff168173ffffffffffffffffffffffffffffffffffffffff1603611243576040517f08c379a000000000000000000000000000000000000000000000000000000000815260040161123a90613c5f565b60405180910390fd5b80600d60006101000a81548173ffffffffffffffffffffffffffffffffffffffff021916908373ffffffffffffffffffffffffffffffffffffffff16021790555050565b6112986112926115fa565b83611739565b6112d7576040517f08c379a00000000000000000000000000000000000000000000000000000000081526004016112ce90613659565b60405180910390fd5b6112e384848484611df8565b50505050565b600e60009054906101000a900473ffffffffffffffffffffffffffffffffffffffff1681565b606061131a82611e54565b9050919050565b6113296116bb565b6000811161136c576040517f08c379a000000000000000000000000000000000000000000000000000000000815260040161136390613bcd565b60405180910390fd5b8060118190555050565b61137e6116bb565b600073ffffffffffffffffffffffffffffffffffffffff168173ffffffffffffffffffffffffffffffffffffffff16036113ed576040517f08c379a00000000000000000000000000000000000000000000000000000000081526004016113e490613c5f565b60405180910390fd5b80600c60006101000a81548173ffffffffffffffffffffffffffffffffffffffff021916908373ffffffffffffffffffffffffffffffffffffffff16021790555050565b6000600560008473ffffffffffffffffffffffffffffffffffffffff1673ffffffffffffffffffffffffffffffffffffffff16815260200190815260200160002060008373ffffffffffffffffffffffffffffffffffffffff1673ffffffffffffffffffffffffffffffffffffffff16815260200190815260200160002060009054906101000a900460ff16905092915050565b6114cd6116bb565b600073ffffffffffffffffffffffffffffffffffffffff168173ffffffffffffffffffffffffffffffffffffffff160361153c576040517f08c379a000000000000000000000000000000000000000000000000000000000815260040161153390613cf1565b60405180910390fd5b61154581611bc6565b50565b60105481565b6000634906490660e01b7bffffffffffffffffffffffffffffffffffffffffffffffffffffffff1916827bffffffffffffffffffffffffffffffffffffffffffffffffffffffff191614806115a857506115a782611f66565b5b9050919050565b6115b881611fe0565b6115f7576040517f08c379a00000000000000000000000000000000000000000000000000000000081526004016115ee90613acf565b60405180910390fd5b50565b600033905090565b816004600083815260200190815260200160002060006101000a81548173ffffffffffffffffffffffffffffffffffffffff021916908373ffffffffffffffffffffffffffffffffffffffff160217905550808273ffffffffffffffffffffffffffffffffffffffff1661167583610f2e565b73ffffffffffffffffffffffffffffffffffffffff167f8c5be1e5ebec7d5bd14f71427d1e84f3dd0314c0f7b2291e5b200ac8c7c3b92560405160405180910390a45050565b6116c36115fa565b73ffffffffffffffffffffffffffffffffffffffff166116e16110d4565b73ffffffffffffffffffffffffffffffffffffffff1614611737576040517f08c379a000000000000000000000000000000000000000000000000000000000815260040161172e90613d5d565b60405180910390fd5b565b60008061174583610f2e565b90508073ffffffffffffffffffffffffffffffffffffffff168473ffffffffffffffffffffffffffffffffffffffff16148061178757506117868185611431565b5b806117c557508373ffffffffffffffffffffffffffffffffffffffff166117ad846106a9565b73ffffffffffffffffffffffffffffffffffffffff16145b91505092915050565b8273ffffffffffffffffffffffffffffffffffffffff166117ee82610f2e565b73ffffffffffffffffffffffffffffffffffffffff1614611844576040517f08c379a000000000000000000000000000000000000000000000000000000000815260040161183b90613def565b60405180910390fd5b600073ffffffffffffffffffffffffffffffffffffffff168273ffffffffffffffffffffffffffffffffffffffff16036118b3576040517f08c379a00000000000000000000000000000000000000000000000000000000081526004016118aa90613e81565b60405180910390fd5b6118c08383836001612021565b8273ffffffffffffffffffffffffffffffffffffffff166118e082610f2e565b73ffffffffffffffffffffffffffffffffffffffff1614611936576040517f08c379a000000000000000000000000000000000000000000000000000000000815260040161192d90613def565b60405180910390fd5b6004600082815260200190815260200160002060006101000a81549073ffffffffffffffffffffffffffffffffffffffff02191690556001600360008573ffffffffffffffffffffffffffffffffffffffff1673ffffffffffffffffffffffffffffffffffffffff168152602001908152602001600020600082825403925050819055506001600360008473ffffffffffffffffffffffffffffffffffffffff1673ffffffffffffffffffffffffffffffffffffffff16815260200190815260200160002060008282540192505081905550816002600083815260200190815260200160002060006101000a81548173ffffffffffffffffffffffffffffffffffffffff021916908373ffffffffffffffffffffffffffffffffffffffff160217905550808273ffffffffffffffffffffffffffffffffffffffff168473ffffffffffffffffffffffffffffffffffffffff167fddf252ad1be2c89b69c2b068fc378daa952ba7f163c4a11628f55a4df523b3ef60405160405180910390a4611ac28383836001612033565b505050565b611ae1828260405180602001604052806000815250612039565b5050565b611aee82611fe0565b611b2d576040517f08c379a0000000000000000000000000000000000000000000000000000000008152600401611b2490613f13565b60405180910390fd5b80600a60008481526020019081526020016000209081611b4d91906140d5565b507ff8e1a15aba9398e019f0b49df1a4fde98ee17ae345cb5f6b5e2c27f5033e8ce782604051611b7d9190612f6c565b60405180910390a15050565b60006002600083815260200190815260200160002060009054906101000a900473ffffffffffffffffffffffffffffffffffffffff169050919050565b6000600b60009054906101000a900473ffffffffffffffffffffffffffffffffffffffff16905081600b60006101000a81548173ffffffffffffffffffffffffffffffffffffffff021916908373ffffffffffffffffffffffffffffffffffffffff1602179055508173ffffffffffffffffffffffffffffffffffffffff168173ffffffffffffffffffffffffffffffffffffffff167f8be0079c531659141344cd1fd0a4f28419497f9722a3daafe3b4186f6b6457e060405160405180910390a35050565b8173ffffffffffffffffffffffffffffffffffffffff168373ffffffffffffffffffffffffffffffffffffffff1603611cfa576040517f08c379a0000000000000000000000000000000000000000000000000000000008152600401611cf1906141f3565b60405180910390fd5b80600560008573ffffffffffffffffffffffffffffffffffffffff1673ffffffffffffffffffffffffffffffffffffffff16815260200190815260200160002060008473ffffffffffffffffffffffffffffffffffffffff1673ffffffffffffffffffffffffffffffffffffffff16815260200190815260200160002060006101000a81548160ff0219169083151502179055508173ffffffffffffffffffffffffffffffffffffffff168373ffffffffffffffffffffffffffffffffffffffff167f17307eab39ab6107e8899845ad3d59bd9653f200f220920489ca2b5937696c3183604051611deb9190612d65565b60405180910390a3505050565b611e038484846117ce565b611e0f84848484612094565b611e4e576040517f08c379a0000000000000000000000000000000000000000000000000000000008152600401611e4590614285565b60405180910390fd5b50505050565b6060611e5f826115af565b6000600a60008481526020019081526020016000208054611e7f90613426565b80601f0160208091040260200160405190810160405280929190818152602001828054611eab90613426565b8015611ef85780601f10611ecd57610100808354040283529160200191611ef8565b820191906000526020600020905b815481529060010190602001808311611edb57829003601f168201915b505050505090506000611f0961221b565b90506000815103611f1e578192505050611f61565b600082511115611f53578082604051602001611f3b9291906142e1565b60405160208183030381529060405292505050611f61565b611f5c84612232565b925050505b919050565b60007f780e9d63000000000000000000000000000000000000000000000000000000007bffffffffffffffffffffffffffffffffffffffffffffffffffffffff1916827bffffffffffffffffffffffffffffffffffffffffffffffffffffffff19161480611fd95750611fd88261229a565b5b9050919050565b60008073ffffffffffffffffffffffffffffffffffffffff1661200283611b89565b73ffffffffffffffffffffffffffffffffffffffff1614159050919050565b61202d8484848461237c565b50505050565b50505050565b61204383836124da565b6120506000848484612094565b61208f576040517f08c379a000000000000000000000000000000000000000000000000000000000815260040161208690614285565b60405180910390fd5b505050565b60006120b58473ffffffffffffffffffffffffffffffffffffffff166126f7565b1561220e578373ffffffffffffffffffffffffffffffffffffffff1663150b7a026120de6115fa565b8786866040518563ffffffff1660e01b8152600401612100949392919061435a565b6020604051808303816000875af192505050801561213c57506040513d601f19601f8201168201806040525081019061213991906143bb565b60015b6121be573d806000811461216c576040519150601f19603f3d011682016040523d82523d6000602084013e612171565b606091505b5060008151036121b6576040517f08c379a00000000000000000000000000000000000000000000000000000000081526004016121ad90614285565b60405180910390fd5b805181602001fd5b63150b7a0260e01b7bffffffffffffffffffffffffffffffffffffffffffffffffffffffff1916817bffffffffffffffffffffffffffffffffffffffffffffffffffffffff191614915050612213565b600190505b949350505050565b606060405180602001604052806000815250905090565b606061223d826115af565b600061224761221b565b905060008151116122675760405180602001604052806000815250612292565b806122718461271a565b6040516020016122829291906142e1565b6040516020818303038152906040525b915050919050565b60007f80ac58cd000000000000000000000000000000000000000000000000000000007bffffffffffffffffffffffffffffffffffffffffffffffffffffffff1916827bffffffffffffffffffffffffffffffffffffffffffffffffffffffff1916148061236557507f5b5e139f000000000000000000000000000000000000000000000000000000007bffffffffffffffffffffffffffffffffffffffffffffffffffffffff1916827bffffffffffffffffffffffffffffffffffffffffffffffffffffffff1916145b806123755750612374826127e8565b5b9050919050565b61238884848484612852565b60018111156123cc576040517f08c379a00000000000000000000000000000000000000000000000000000000081526004016123c39061445a565b60405180910390fd5b6000829050600073ffffffffffffffffffffffffffffffffffffffff168573ffffffffffffffffffffffffffffffffffffffff16036124135761240e81612858565b612452565b8373ffffffffffffffffffffffffffffffffffffffff168573ffffffffffffffffffffffffffffffffffffffff16146124515761245085826128a1565b5b5b600073ffffffffffffffffffffffffffffffffffffffff168473ffffffffffffffffffffffffffffffffffffffff16036124945761248f81612a0e565b6124d3565b8473ffffffffffffffffffffffffffffffffffffffff168473ffffffffffffffffffffffffffffffffffffffff16146124d2576124d18482612adf565b5b5b5050505050565b600073ffffffffffffffffffffffffffffffffffffffff168273ffffffffffffffffffffffffffffffffffffffff1603612549576040517f08c379a0000000000000000000000000000000000000000000000000000000008152600401612540906144c6565b60405180910390fd5b61255281611fe0565b15612592576040517f08c379a000000000000000000000000000000000000000000000000000000000815260040161258990614532565b60405180910390fd5b6125a0600083836001612021565b6125a981611fe0565b156125e9576040517f08c379a00000000000000000000000000000000000000000000000000000000081526004016125e090614532565b60405180910390fd5b6001600360008473ffffffffffffffffffffffffffffffffffffffff1673ffffffffffffffffffffffffffffffffffffffff16815260200190815260200160002060008282540192505081905550816002600083815260200190815260200160002060006101000a81548173ffffffffffffffffffffffffffffffffffffffff021916908373ffffffffffffffffffffffffffffffffffffffff160217905550808273ffffffffffffffffffffffffffffffffffffffff16600073ffffffffffffffffffffffffffffffffffffffff167fddf252ad1be2c89b69c2b068fc378daa952ba7f163c4a11628f55a4df523b3ef60405160405180910390a46126f3600083836001612033565b5050565b6000808273ffffffffffffffffffffffffffffffffffffffff163b119050919050565b60606000600161272984612b5e565b01905060008167ffffffffffffffff81111561274857612747613209565b5b6040519080825280601f01601f19166020018201604052801561277a5781602001600182028036833780820191505090505b509050600082602001820190505b6001156127dd578080600190039150507f3031323334353637383961626364656600000000000000000000000000000000600a86061a8153600a85816127d1576127d0614552565b5b04945060008503612788575b819350505050919050565b60007f01ffc9a7000000000000000000000000000000000000000000000000000000007bffffffffffffffffffffffffffffffffffffffffffffffffffffffff1916827bffffffffffffffffffffffffffffffffffffffffffffffffffffffff1916149050919050565b50505050565b6008805490506009600083815260200190815260200160002081905550600881908060018154018082558091505060019003906000526020600020016000909190919091505550565b600060016128ae84610fb4565b6128b891906145b0565b905060006007600084815260200190815260200160002054905081811461299d576000600660008673ffffffffffffffffffffffffffffffffffffffff1673ffffffffffffffffffffffffffffffffffffffff168152602001908152602001600020600084815260200190815260200160002054905080600660008773ffffffffffffffffffffffffffffffffffffffff1673ffffffffffffffffffffffffffffffffffffffff168152602001908152602001600020600084815260200190815260200160002081905550816007600083815260200190815260200160002081905550505b6007600084815260200190815260200160002060009055600660008573ffffffffffffffffffffffffffffffffffffffff1673ffffffffffffffffffffffffffffffffffffffff16815260200190815260200160002060008381526020019081526020016000206000905550505050565b60006001600880549050612a2291906145b0565b9050600060096000848152602001908152602001600020549050600060088381548110612a5257612a51613a54565b5b906000526020600020015490508060088381548110612a7457612a73613a54565b5b906000526020600020018190555081600960008381526020019081526020016000208190555060096000858152602001908152602001600020600090556008805480612ac357612ac26145e4565b5b6001900381819060005260206000200160009055905550505050565b6000612aea83610fb4565b905081600660008573ffffffffffffffffffffffffffffffffffffffff1673ffffffffffffffffffffffffffffffffffffffff168152602001908152602001600020600083815260200190815260200160002081905550806007600084815260200190815260200160002081905550505050565b600080600090507a184f03e93ff9f4daa797ed6e38ed64bf6a1f0100000000000000008310612bbc577a184f03e93ff9f4daa797ed6e38ed64bf6a1f0100000000000000008381612bb257612bb1614552565b5b0492506040810190505b6d04ee2d6d415b85acef81000000008310612bf9576d04ee2d6d415b85acef81000000008381612bef57612bee614552565b5b0492506020810190505b662386f26fc100008310612c2857662386f26fc100008381612c1e57612c1d614552565b5b0492506010810190505b6305f5e1008310612c51576305f5e1008381612c4757612c46614552565b5b0492506008810190505b6127108310612c76576127108381612c6c57612c6b614552565b5b0492506004810190505b60648310612c995760648381612c8f57612c8e614552565b5b0492506002810190505b600a8310612ca8576001810190505b80915050919050565b6000604051905090565b600080fd5b600080fd5b60007fffffffff0000000000000000000000000000000000000000000000000000000082169050919050565b612cfa81612cc5565b8114612d0557600080fd5b50565b600081359050612d1781612cf1565b92915050565b600060208284031215612d3357612d32612cbb565b5b6000612d4184828501612d08565b91505092915050565b60008115159050919050565b612d5f81612d4a565b82525050565b6000602082019050612d7a6000830184612d56565b92915050565b600081519050919050565b600082825260208201905092915050565b60005b83811015612dba578082015181840152602081019050612d9f565b60008484015250505050565b6000601f19601f8301169050919050565b6000612de282612d80565b612dec8185612d8b565b9350612dfc818560208601612d9c565b612e0581612dc6565b840191505092915050565b60006020820190508181036000830152612e2a8184612dd7565b905092915050565b6000819050919050565b612e4581612e32565b8114612e5057600080fd5b50565b600081359050612e6281612e3c565b92915050565b600060208284031215612e7e57612e7d612cbb565b5b6000612e8c84828501612e53565b91505092915050565b600073ffffffffffffffffffffffffffffffffffffffff82169050919050565b6000612ec082612e95565b9050919050565b612ed081612eb5565b82525050565b6000602082019050612eeb6000830184612ec7565b92915050565b612efa81612eb5565b8114612f0557600080fd5b50565b600081359050612f1781612ef1565b92915050565b60008060408385031215612f3457612f33612cbb565b5b6000612f4285828601612f08565b9250506020612f5385828601612e53565b9150509250929050565b612f6681612e32565b82525050565b6000602082019050612f816000830184612f5d565b92915050565b6000612f9282612eb5565b9050919050565b612fa281612f87565b8114612fad57600080fd5b50565b600081359050612fbf81612f99565b92915050565b600060208284031215612fdb57612fda612cbb565b5b6000612fe984828501612fb0565b91505092915050565b60008060006060848603121561300b5761300a612cbb565b5b600061301986828701612f08565b935050602061302a86828701612f08565b925050604061303b86828701612e53565b9150509250925092565b6000819050919050565b600061306a61306561306084612e95565b613045565b612e95565b9050919050565b600061307c8261304f565b9050919050565b600061308e82613071565b9050919050565b61309e81613083565b82525050565b60006020820190506130b96000830184613095565b92915050565b60006130ca82613071565b9050919050565b6130da816130bf565b82525050565b60006020820190506130f560008301846130d1565b92915050565b60006020828403121561311157613110612cbb565b5b600061311f84828501612f08565b91505092915050565b61313181612d4a565b811461313c57600080fd5b50565b60008135905061314e81613128565b92915050565b6000806040838503121561316b5761316a612cbb565b5b600061317985828601612f08565b925050602061318a8582860161313f565b9150509250929050565b600061319f82612eb5565b9050919050565b6131af81613194565b81146131ba57600080fd5b50565b6000813590506131cc816131a6565b92915050565b6000602082840312156131e8576131e7612cbb565b5b60006131f6848285016131bd565b91505092915050565b600080fd5b600080fd5b7f4e487b7100000000000000000000000000000000000000000000000000000000600052604160045260246000fd5b61324182612dc6565b810181811067ffffffffffffffff821117156132605761325f613209565b5b80604052505050565b6000613273612cb1565b905061327f8282613238565b919050565b600067ffffffffffffffff82111561329f5761329e613209565b5b6132a882612dc6565b9050602081019050919050565b82818337600083830152505050565b60006132d76132d284613284565b613269565b9050828152602081018484840111156132f3576132f2613204565b5b6132fe8482856132b5565b509392505050565b600082601f83011261331b5761331a6131ff565b5b813561332b8482602086016132c4565b91505092915050565b6000806000806080858703121561334e5761334d612cbb565b5b600061335c87828801612f08565b945050602061336d87828801612f08565b935050604061337e87828801612e53565b925050606085013567ffffffffffffffff81111561339f5761339e612cc0565b5b6133ab87828801613306565b91505092959194509250565b600080604083850312156133ce576133cd612cbb565b5b60006133dc85828601612f08565b92505060206133ed85828601612f08565b9150509250929050565b7f4e487b7100000000000000000000000000000000000000000000000000000000600052602260045260246000fd5b6000600282049050600182168061343e57607f821691505b602082108103613451576134506133f7565b5b50919050565b7f4552433732313a20617070726f76616c20746f2063757272656e74206f776e6560008201527f7200000000000000000000000000000000000000000000000000000000000000602082015250565b60006134b3602183612d8b565b91506134be82613457565b604082019050919050565b600060208201905081810360008301526134e2816134a6565b9050919050565b7f4552433732313a20617070726f76652063616c6c6572206973206e6f7420746f60008201527f6b656e206f776e6572206f7220617070726f76656420666f7220616c6c000000602082015250565b6000613545603d83612d8b565b9150613550826134e9565b604082019050919050565b6000602082019050818103600083015261357481613538565b9050919050565b7f416464726573732063616e2774206265207a65726f0000000000000000000000600082015250565b60006135b1601583612d8b565b91506135bc8261357b565b602082019050919050565b600060208201905081810360008301526135e0816135a4565b9050919050565b7f4552433732313a2063616c6c6572206973206e6f7420746f6b656e206f776e6560008201527f72206f7220617070726f76656400000000000000000000000000000000000000602082015250565b6000613643602d83612d8b565b915061364e826135e7565b604082019050919050565b6000602082019050818103600083015261367281613636565b9050919050565b7f455243373231456e756d657261626c653a206f776e657220696e646578206f7560008201527f74206f6620626f756e6473000000000000000000000000000000000000000000602082015250565b60006136d5602b83612d8b565b91506136e082613679565b604082019050919050565b60006020820190508181036000830152613704816136c8565b9050919050565b60008151905061371a81612e3c565b92915050565b60006020828403121561373657613735612cbb565b5b60006137448482850161370b565b91505092915050565b7f596f75204e656564206120466f726765204e4654000000000000000000000000600082015250565b6000613783601483612d8b565b915061378e8261374d565b602082019050919050565b600060208201905081810360008301526137b281613776565b9050919050565b7f596f75204e656564206120436861726163746572204e46540000000000000000600082015250565b60006137ef601883612d8b565b91506137fa826137b9565b602082019050919050565b6000602082019050818103600083015261381e816137e2565b9050919050565b600060608201905061383a6000830186612ec7565b6138476020830185612ec7565b6138546040830184612f5d565b949350505050565b60008151905061386b81613128565b92915050565b60006020828403121561388757613886612cbb565b5b60006138958482850161385c565b91505092915050565b7f4661696c656420746f2070726f63657373207061796d656e7420666f7220637560008201527f7272656e63792031210000000000000000000000000000000000000000000000602082015250565b60006138fa602983612d8b565b91506139058261389e565b604082019050919050565b60006020820190508181036000830152613929816138ed565b9050919050565b7f4661696c656420746f2070726f63657373207061796d656e7420666f7220637560008201527f7272656e63792032210000000000000000000000000000000000000000000000602082015250565b600061398c602983612d8b565b915061399782613930565b604082019050919050565b600060208201905081810360008301526139bb8161397f565b9050919050565b7f455243373231456e756d657261626c653a20676c6f62616c20696e646578206f60008201527f7574206f6620626f756e64730000000000000000000000000000000000000000602082015250565b6000613a1e602c83612d8b565b9150613a29826139c2565b604082019050919050565b60006020820190508181036000830152613a4d81613a11565b9050919050565b7f4e487b7100000000000000000000000000000000000000000000000000000000600052603260045260246000fd5b7f4552433732313a20696e76616c696420746f6b656e2049440000000000000000600082015250565b6000613ab9601883612d8b565b9150613ac482613a83565b602082019050919050565b60006020820190508181036000830152613ae881613aac565b9050919050565b7f4552433732313a2061646472657373207a65726f206973206e6f74206120766160008201527f6c6964206f776e65720000000000000000000000000000000000000000000000602082015250565b6000613b4b602983612d8b565b9150613b5682613aef565b604082019050919050565b60006020820190508181036000830152613b7a81613b3e565b9050919050565b7f416d6f756e742063616e6e6f74206265207a65726f0000000000000000000000600082015250565b6000613bb7601583612d8b565b9150613bc282613b81565b602082019050919050565b60006020820190508181036000830152613be681613baa565b9050919050565b7f546f6b656e20616464726573732063616e27742062652061646472657373207a60008201527f65726f0000000000000000000000000000000000000000000000000000000000602082015250565b6000613c49602383612d8b565b9150613c5482613bed565b604082019050919050565b60006020820190508181036000830152613c7881613c3c565b9050919050565b7f4f776e61626c653a206e6577206f776e657220697320746865207a65726f206160008201527f6464726573730000000000000000000000000000000000000000000000000000602082015250565b6000613cdb602683612d8b565b9150613ce682613c7f565b604082019050919050565b60006020820190508181036000830152613d0a81613cce565b9050919050565b7f4f776e61626c653a2063616c6c6572206973206e6f7420746865206f776e6572600082015250565b6000613d47602083612d8b565b9150613d5282613d11565b602082019050919050565b60006020820190508181036000830152613d7681613d3a565b9050919050565b7f4552433732313a207472616e736665722066726f6d20696e636f72726563742060008201527f6f776e6572000000000000000000000000000000000000000000000000000000602082015250565b6000613dd9602583612d8b565b9150613de482613d7d565b604082019050919050565b60006020820190508181036000830152613e0881613dcc565b9050919050565b7f4552433732313a207472616e7366657220746f20746865207a65726f2061646460008201527f7265737300000000000000000000000000000000000000000000000000000000602082015250565b6000613e6b602483612d8b565b9150613e7682613e0f565b604082019050919050565b60006020820190508181036000830152613e9a81613e5e565b9050919050565b7f45524337323155524953746f726167653a2055524920736574206f66206e6f6e60008201527f6578697374656e7420746f6b656e000000000000000000000000000000000000602082015250565b6000613efd602e83612d8b565b9150613f0882613ea1565b604082019050919050565b60006020820190508181036000830152613f2c81613ef0565b9050919050565b60008190508160005260206000209050919050565b60006020601f8301049050919050565b600082821b905092915050565b600060088302613f957fffffffffffffffffffffffffffffffffffffffffffffffffffffffffffffffff82613f58565b613f9f8683613f58565b95508019841693508086168417925050509392505050565b6000613fd2613fcd613fc884612e32565b613045565b612e32565b9050919050565b6000819050919050565b613fec83613fb7565b614000613ff882613fd9565b848454613f65565b825550505050565b600090565b614015614008565b614020818484613fe3565b505050565b5b818110156140445761403960008261400d565b600181019050614026565b5050565b601f8211156140895761405a81613f33565b61406384613f48565b81016020851015614072578190505b61408661407e85613f48565b830182614025565b50505b505050565b600082821c905092915050565b60006140ac6000198460080261408e565b1980831691505092915050565b60006140c5838361409b565b9150826002028217905092915050565b6140de82612d80565b67ffffffffffffffff8111156140f7576140f6613209565b5b6141018254613426565b61410c828285614048565b600060209050601f83116001811461413f576000841561412d578287015190505b61413785826140b9565b86555061419f565b601f19841661414d86613f33565b60005b8281101561417557848901518255600182019150602085019450602081019050614150565b86831015614192578489015161418e601f89168261409b565b8355505b6001600288020188555050505b505050505050565b7f4552433732313a20617070726f766520746f2063616c6c657200000000000000600082015250565b60006141dd601983612d8b565b91506141e8826141a7565b602082019050919050565b6000602082019050818103600083015261420c816141d0565b9050919050565b7f4552433732313a207472616e7366657220746f206e6f6e20455243373231526560008201527f63656976657220696d706c656d656e7465720000000000000000000000000000602082015250565b600061426f603283612d8b565b915061427a82614213565b604082019050919050565b6000602082019050818103600083015261429e81614262565b9050919050565b600081905092915050565b60006142bb82612d80565b6142c581856142a5565b93506142d5818560208601612d9c565b80840191505092915050565b60006142ed82856142b0565b91506142f982846142b0565b91508190509392505050565b600081519050919050565b600082825260208201905092915050565b600061432c82614305565b6143368185614310565b9350614346818560208601612d9c565b61434f81612dc6565b840191505092915050565b600060808201905061436f6000830187612ec7565b61437c6020830186612ec7565b6143896040830185612f5d565b818103606083015261439b8184614321565b905095945050505050565b6000815190506143b581612cf1565b92915050565b6000602082840312156143d1576143d0612cbb565b5b60006143df848285016143a6565b91505092915050565b7f455243373231456e756d657261626c653a20636f6e736563757469766520747260008201527f616e7366657273206e6f7420737570706f727465640000000000000000000000602082015250565b6000614444603583612d8b565b915061444f826143e8565b604082019050919050565b6000602082019050818103600083015261447381614437565b9050919050565b7f4552433732313a206d696e7420746f20746865207a65726f2061646472657373600082015250565b60006144b0602083612d8b565b91506144bb8261447a565b602082019050919050565b600060208201905081810360008301526144df816144a3565b9050919050565b7f4552433732313a20746f6b656e20616c7265616479206d696e74656400000000600082015250565b600061451c601c83612d8b565b9150614527826144e6565b602082019050919050565b6000602082019050818103600083015261454b8161450f565b9050919050565b7f4e487b7100000000000000000000000000000000000000000000000000000000600052601260045260246000fd5b7f4e487b7100000000000000000000000000000000000000000000000000000000600052601160045260246000fd5b60006145bb82612e32565b91506145c683612e32565b92508282039050818111156145de576145dd614581565b5b92915050565b7f4e487b7100000000000000000000000000000000000000000000000000000000600052603160045260246000fdfe68747470733a2f2f676174657761792e70696e6174612e636c6f75642f697066732f516d653933643856325a72385178394e37754774376238666764565a4752694b61714b6a4d484d6779684c774759a26469706673582212208005ed906e26410c9c6aa45a2986c1755b58b9e1e6446ae2086376c0ce3f4d6a64736f6c63430008100033",
  "immutableReferences": {},
  "source": "// SPDX-License-Identifier: MIT\r\npragma solidity ^0.8.7;\r\n\r\nimport \"@openzeppelin/contracts/token/ERC20/ERC20.sol\";\r\nimport \"@openzeppelin/contracts/token/ERC721/ERC721.sol\";\r\nimport \"@openzeppelin/contracts/token/ERC721/extensions/ERC721Enumerable.sol\";\r\nimport \"@openzeppelin/contracts/token/ERC721/extensions/ERC721URIStorage.sol\";\r\nimport \"@openzeppelin/contracts/access/Ownable.sol\";\r\n\r\ncontract AnvilNFT is ERC721, ERC721Enumerable, ERC721URIStorage, Ownable {\r\n    ERC20 public paymentCurrency1;\r\n    ERC20 public paymentCurrency2;\r\n    ERC721 public requiredNFT1;\r\n    ERC721 public requiredNFT2;\r\n\r\n    uint256 public requiredAmount1;\r\n    uint256 public requiredAmount2;\r\n\r\n    constructor(\r\n        ERC20 _paymentCurrency1,\r\n        ERC20 _paymentCurrency2,\r\n        ERC721 _requiredNFT1,\r\n        ERC721 _requiredNFT2,\r\n        uint256 _requiredAmount1,\r\n        uint256 _requiredAmount2\r\n    ) ERC721(\"AnvilNFT\", \"Anvil\") {\r\n        require(\r\n            address(_paymentCurrency1) != address(0),\r\n            \"Token address can't be address zero\"\r\n        );\r\n        require(\r\n            address(_paymentCurrency2) != address(0),\r\n            \"Token address can't be address zero\"\r\n        );\r\n        require(address(_requiredNFT1) != address(0), \"Addresss can't be zero\");\r\n        require(address(_requiredNFT2) != address(0), \"Addresss can't be zero\");\r\n        require(_requiredAmount1 > 0, \"amount cannot be zero\");\r\n        require(_requiredAmount2 > 0, \"amount cannot be zero\");\r\n        paymentCurrency1 = _paymentCurrency1;\r\n        paymentCurrency2 = _paymentCurrency2;\r\n        requiredNFT1 = _requiredNFT1;\r\n        requiredNFT2 = _requiredNFT2;\r\n        requiredAmount1 = _requiredAmount1;\r\n        requiredAmount2 = _requiredAmount2;\r\n    }\r\n\r\n    //Setter Functions\r\n\r\n    function setPaymentCurrency1(ERC20 _paymentCurrency) public onlyOwner {\r\n        require(\r\n            address(_paymentCurrency) != address(0),\r\n            \"Token address can't be address zero\"\r\n        );\r\n        paymentCurrency1 = _paymentCurrency;\r\n    }\r\n\r\n    function setPaymentCurrency2(ERC20 _paymentCurrency) public onlyOwner {\r\n        require(\r\n            address(_paymentCurrency) != address(0),\r\n            \"Token address can't be address zero\"\r\n        );\r\n        paymentCurrency2 = _paymentCurrency;\r\n    }\r\n\r\n    function setRequiredNFT1(ERC721 _requiredNFT) public onlyOwner {\r\n        require(address(_requiredNFT) != address(0), \"Address can't be zero\");\r\n        requiredNFT1 = _requiredNFT;\r\n    }\r\n\r\n    function setRequiredNFT2(ERC721 _requiredNFT) public onlyOwner {\r\n        require(address(_requiredNFT) != address(0), \"Address can't be zero\");\r\n        requiredNFT2 = _requiredNFT;\r\n    }\r\n\r\n    function setRequiredAmount1(uint256 _requiredAmount) public onlyOwner {\r\n        require(_requiredAmount > 0, \"Amount cannot be zero\");\r\n        requiredAmount1 = _requiredAmount;\r\n    }\r\n\r\n    function setRequiredAmount2(uint256 _requiredAmount) public onlyOwner {\r\n        require(_requiredAmount > 0, \"Amount cannot be zero\");\r\n        requiredAmount2 = _requiredAmount;\r\n    }\r\n\r\n    // buy function\r\n\r\n    function buyAnvil() public {\r\n        require(\r\n            ERC721(requiredNFT1).balanceOf(msg.sender) > 0,\r\n            \"You Need a Forge NFT\"\r\n        );\r\n        require(\r\n            ERC721(requiredNFT2).balanceOf(msg.sender) > 0,\r\n            \"You Need a Character NFT\"\r\n        );\r\n        require(\r\n            paymentCurrency1.transferFrom(\r\n                msg.sender,\r\n                address(this),\r\n                requiredAmount1\r\n            ),\r\n            \"Failed to process payment for currency 1!\"\r\n        );\r\n        require(\r\n            paymentCurrency2.transferFrom(\r\n                msg.sender,\r\n                address(this),\r\n                requiredAmount2\r\n            ),\r\n            \"Failed to process payment for currency 2!\"\r\n        );\r\n        uint256 tokenId = totalSupply(); // Use totalSupply() to get the next token ID\r\n        _safeMint(msg.sender, tokenId);\r\n        _setTokenURI(\r\n            tokenId,\r\n            \"https://gateway.pinata.cloud/ipfs/Qme93d8V2Zr8Qx9N7uGt7b8fgdVZGRiKaqKjMHMgyhLwGY\"\r\n        );\r\n    }\r\n\r\n    // The following functions are overrides required by Solidity.\r\n\r\n    function _beforeTokenTransfer(\r\n        address from,\r\n        address to,\r\n        uint256 tokenId,\r\n        uint256 batchSize\r\n    ) internal override(ERC721, ERC721Enumerable) {\r\n        super._beforeTokenTransfer(from, to, tokenId, batchSize);\r\n    }\r\n\r\n    function _burn(\r\n        uint256 tokenId\r\n    ) internal override(ERC721, ERC721URIStorage) {\r\n        super._burn(tokenId);\r\n    }\r\n\r\n    function tokenURI(\r\n        uint256 tokenId\r\n    ) public view override(ERC721, ERC721URIStorage) returns (string memory) {\r\n        return super.tokenURI(tokenId);\r\n    }\r\n\r\n    function supportsInterface(\r\n        bytes4 interfaceId\r\n    )\r\n        public\r\n        view\r\n        override(ERC721, ERC721Enumerable, ERC721URIStorage)\r\n        returns (bool)\r\n    {\r\n        return super.supportsInterface(interfaceId);\r\n    }\r\n}\r\n",
  "sourcePath": "C:\\Users\\sumer\\OneDrive\\Desktop\\Workbench\\NFTDeployment\\contracts\\AnvilNFT.sol",
  "compiler": {
    "name": "solc",
    "version": "0.8.16+commit.07a7930e.Emscripten.clang"
  },
  "schemaVersion": "3.4.15",
  "updatedAt": "2023-08-14T13:13:56.967Z",
  "networkType": "ethereum",
  "devdoc": {
    "kind": "dev",
    "methods": {
      "approve(address,uint256)": {
        "details": "See {IERC721-approve}."
      },
      "balanceOf(address)": {
        "details": "See {IERC721-balanceOf}."
      },
      "getApproved(uint256)": {
        "details": "See {IERC721-getApproved}."
      },
      "isApprovedForAll(address,address)": {
        "details": "See {IERC721-isApprovedForAll}."
      },
      "name()": {
        "details": "See {IERC721Metadata-name}."
      },
      "owner()": {
        "details": "Returns the address of the current owner."
      },
      "ownerOf(uint256)": {
        "details": "See {IERC721-ownerOf}."
      },
      "renounceOwnership()": {
        "details": "Leaves the contract without owner. It will not be possible to call `onlyOwner` functions. Can only be called by the current owner. NOTE: Renouncing ownership will leave the contract without an owner, thereby disabling any functionality that is only available to the owner."
      },
      "safeTransferFrom(address,address,uint256)": {
        "details": "See {IERC721-safeTransferFrom}."
      },
      "safeTransferFrom(address,address,uint256,bytes)": {
        "details": "See {IERC721-safeTransferFrom}."
      },
      "setApprovalForAll(address,bool)": {
        "details": "See {IERC721-setApprovalForAll}."
      },
      "symbol()": {
        "details": "See {IERC721Metadata-symbol}."
      },
      "tokenByIndex(uint256)": {
        "details": "See {IERC721Enumerable-tokenByIndex}."
      },
      "tokenOfOwnerByIndex(address,uint256)": {
        "details": "See {IERC721Enumerable-tokenOfOwnerByIndex}."
      },
      "totalSupply()": {
        "details": "See {IERC721Enumerable-totalSupply}."
      },
      "transferFrom(address,address,uint256)": {
        "details": "See {IERC721-transferFrom}."
      },
      "transferOwnership(address)": {
        "details": "Transfers ownership of the contract to a new account (`newOwner`). Can only be called by the current owner."
      }
    },
    "version": 1
  },
  "userdoc": {
    "kind": "user",
    "methods": {},
    "version": 1
  }
}