{
  "contractName": "HammerNFT",
  "abi": [
    {
      "inputs": [
        {
          "internalType": "contract ERC20",
          "name": "_paymentCurrency1",
          "type": "address"
        },
        {
          "internalType": "contract ERC20",
          "name": "_paymentCurrency2",
          "type": "address"
        },
        {
          "internalType": "contract ERC721",
          "name": "_requiredNFT1",
          "type": "address"
        },
        {
          "internalType": "contract ERC721",
          "name": "_requiredNFT2",
          "type": "address"
        },
        {
          "internalType": "contract ERC721",
          "name": "_requiredNFT3",
          "type": "address"
        },
        {
          "internalType": "uint256",
          "name": "_requiredAmount1",
          "type": "uint256"
        },
        {
          "internalType": "uint256",
          "name": "_requiredAmount2",
          "type": "uint256"
        }
      ],
      "stateMutability": "nonpayable",
      "type": "constructor"
    },
    {
      "anonymous": false,
      "inputs": [
        {
          "indexed": true,
          "internalType": "address",
          "name": "owner",
          "type": "address"
        },
        {
          "indexed": true,
          "internalType": "address",
          "name": "approved",
          "type": "address"
        },
        {
          "indexed": true,
          "internalType": "uint256",
          "name": "tokenId",
          "type": "uint256"
        }
      ],
      "name": "Approval",
      "type": "event"
    },
    {
      "anonymous": false,
      "inputs": [
        {
          "indexed": true,
          "internalType": "address",
          "name": "owner",
          "type": "address"
        },
        {
          "indexed": true,
          "internalType": "address",
          "name": "operator",
          "type": "address"
        },
        {
          "indexed": false,
          "internalType": "bool",
          "name": "approved",
          "type": "bool"
        }
      ],
      "name": "ApprovalForAll",
      "type": "event"
    },
    {
      "anonymous": false,
      "inputs": [
        {
          "indexed": false,
          "internalType": "uint256",
          "name": "_fromTokenId",
          "type": "uint256"
        },
        {
          "indexed": false,
          "internalType": "uint256",
          "name": "_toTokenId",
          "type": "uint256"
        }
      ],
      "name": "BatchMetadataUpdate",
      "type": "event"
    },
    {
      "anonymous": false,
      "inputs": [
        {
          "indexed": false,
          "internalType": "uint256",
          "name": "_tokenId",
          "type": "uint256"
        }
      ],
      "name": "MetadataUpdate",
      "type": "event"
    },
    {
      "anonymous": false,
      "inputs": [
        {
          "indexed": true,
          "internalType": "address",
          "name": "previousOwner",
          "type": "address"
        },
        {
          "indexed": true,
          "internalType": "address",
          "name": "newOwner",
          "type": "address"
        }
      ],
      "name": "OwnershipTransferred",
      "type": "event"
    },
    {
      "anonymous": false,
      "inputs": [
        {
          "indexed": true,
          "internalType": "address",
          "name": "from",
          "type": "address"
        },
        {
          "indexed": true,
          "internalType": "address",
          "name": "to",
          "type": "address"
        },
        {
          "indexed": true,
          "internalType": "uint256",
          "name": "tokenId",
          "type": "uint256"
        }
      ],
      "name": "Transfer",
      "type": "event"
    },
    {
      "inputs": [
        {
          "internalType": "address",
          "name": "to",
          "type": "address"
        },
        {
          "internalType": "uint256",
          "name": "tokenId",
          "type": "uint256"
        }
      ],
      "name": "approve",
      "outputs": [],
      "stateMutability": "nonpayable",
      "type": "function"
    },
    {
      "inputs": [
        {
          "internalType": "address",
          "name": "owner",
          "type": "address"
        }
      ],
      "name": "balanceOf",
      "outputs": [
        {
          "internalType": "uint256",
          "name": "",
          "type": "uint256"
        }
      ],
      "stateMutability": "view",
      "type": "function",
      "constant": true
    },
    {
      "inputs": [
        {
          "internalType": "uint256",
          "name": "tokenId",
          "type": "uint256"
        }
      ],
      "name": "getApproved",
      "outputs": [
        {
          "internalType": "address",
          "name": "",
          "type": "address"
        }
      ],
      "stateMutability": "view",
      "type": "function",
      "constant": true
    },
    {
      "inputs": [
        {
          "internalType": "address",
          "name": "owner",
          "type": "address"
        },
        {
          "internalType": "address",
          "name": "operator",
          "type": "address"
        }
      ],
      "name": "isApprovedForAll",
      "outputs": [
        {
          "internalType": "bool",
          "name": "",
          "type": "bool"
        }
      ],
      "stateMutability": "view",
      "type": "function",
      "constant": true
    },
    {
      "inputs": [],
      "name": "name",
      "outputs": [
        {
          "internalType": "string",
          "name": "",
          "type": "string"
        }
      ],
      "stateMutability": "view",
      "type": "function",
      "constant": true
    },
    {
      "inputs": [],
      "name": "owner",
      "outputs": [
        {
          "internalType": "address",
          "name": "",
          "type": "address"
        }
      ],
      "stateMutability": "view",
      "type": "function",
      "constant": true
    },
    {
      "inputs": [
        {
          "internalType": "uint256",
          "name": "tokenId",
          "type": "uint256"
        }
      ],
      "name": "ownerOf",
      "outputs": [
        {
          "internalType": "address",
          "name": "",
          "type": "address"
        }
      ],
      "stateMutability": "view",
      "type": "function",
      "constant": true
    },
    {
      "inputs": [],
      "name": "paymentCurrency1",
      "outputs": [
        {
          "internalType": "contract ERC20",
          "name": "",
          "type": "address"
        }
      ],
      "stateMutability": "view",
      "type": "function",
      "constant": true
    },
    {
      "inputs": [],
      "name": "paymentCurrency2",
      "outputs": [
        {
          "internalType": "contract ERC20",
          "name": "",
          "type": "address"
        }
      ],
      "stateMutability": "view",
      "type": "function",
      "constant": true
    },
    {
      "inputs": [],
      "name": "renounceOwnership",
      "outputs": [],
      "stateMutability": "nonpayable",
      "type": "function"
    },
    {
      "inputs": [],
      "name": "requiredAmount1",
      "outputs": [
        {
          "internalType": "uint256",
          "name": "",
          "type": "uint256"
        }
      ],
      "stateMutability": "view",
      "type": "function",
      "constant": true
    },
    {
      "inputs": [],
      "name": "requiredAmount2",
      "outputs": [
        {
          "internalType": "uint256",
          "name": "",
          "type": "uint256"
        }
      ],
      "stateMutability": "view",
      "type": "function",
      "constant": true
    },
    {
      "inputs": [],
      "name": "requiredNFT1",
      "outputs": [
        {
          "internalType": "contract ERC721",
          "name": "",
          "type": "address"
        }
      ],
      "stateMutability": "view",
      "type": "function",
      "constant": true
    },
    {
      "inputs": [],
      "name": "requiredNFT2",
      "outputs": [
        {
          "internalType": "contract ERC721",
          "name": "",
          "type": "address"
        }
      ],
      "stateMutability": "view",
      "type": "function",
      "constant": true
    },
    {
      "inputs": [],
      "name": "requiredNFT3",
      "outputs": [
        {
          "internalType": "contract ERC721",
          "name": "",
          "type": "address"
        }
      ],
      "stateMutability": "view",
      "type": "function",
      "constant": true
    },
    {
      "inputs": [
        {
          "internalType": "address",
          "name": "from",
          "type": "address"
        },
        {
          "internalType": "address",
          "name": "to",
          "type": "address"
        },
        {
          "internalType": "uint256",
          "name": "tokenId",
          "type": "uint256"
        }
      ],
      "name": "safeTransferFrom",
      "outputs": [],
      "stateMutability": "nonpayable",
      "type": "function"
    },
    {
      "inputs": [
        {
          "internalType": "address",
          "name": "from",
          "type": "address"
        },
        {
          "internalType": "address",
          "name": "to",
          "type": "address"
        },
        {
          "internalType": "uint256",
          "name": "tokenId",
          "type": "uint256"
        },
        {
          "internalType": "bytes",
          "name": "data",
          "type": "bytes"
        }
      ],
      "name": "safeTransferFrom",
      "outputs": [],
      "stateMutability": "nonpayable",
      "type": "function"
    },
    {
      "inputs": [
        {
          "internalType": "address",
          "name": "operator",
          "type": "address"
        },
        {
          "internalType": "bool",
          "name": "approved",
          "type": "bool"
        }
      ],
      "name": "setApprovalForAll",
      "outputs": [],
      "stateMutability": "nonpayable",
      "type": "function"
    },
    {
      "inputs": [],
      "name": "symbol",
      "outputs": [
        {
          "internalType": "string",
          "name": "",
          "type": "string"
        }
      ],
      "stateMutability": "view",
      "type": "function",
      "constant": true
    },
    {
      "inputs": [
        {
          "internalType": "uint256",
          "name": "index",
          "type": "uint256"
        }
      ],
      "name": "tokenByIndex",
      "outputs": [
        {
          "internalType": "uint256",
          "name": "",
          "type": "uint256"
        }
      ],
      "stateMutability": "view",
      "type": "function",
      "constant": true
    },
    {
      "inputs": [
        {
          "internalType": "address",
          "name": "owner",
          "type": "address"
        },
        {
          "internalType": "uint256",
          "name": "index",
          "type": "uint256"
        }
      ],
      "name": "tokenOfOwnerByIndex",
      "outputs": [
        {
          "internalType": "uint256",
          "name": "",
          "type": "uint256"
        }
      ],
      "stateMutability": "view",
      "type": "function",
      "constant": true
    },
    {
      "inputs": [],
      "name": "totalSupply",
      "outputs": [
        {
          "internalType": "uint256",
          "name": "",
          "type": "uint256"
        }
      ],
      "stateMutability": "view",
      "type": "function",
      "constant": true
    },
    {
      "inputs": [
        {
          "internalType": "address",
          "name": "from",
          "type": "address"
        },
        {
          "internalType": "address",
          "name": "to",
          "type": "address"
        },
        {
          "internalType": "uint256",
          "name": "tokenId",
          "type": "uint256"
        }
      ],
      "name": "transferFrom",
      "outputs": [],
      "stateMutability": "nonpayable",
      "type": "function"
    },
    {
      "inputs": [
        {
          "internalType": "address",
          "name": "newOwner",
          "type": "address"
        }
      ],
      "name": "transferOwnership",
      "outputs": [],
      "stateMutability": "nonpayable",
      "type": "function"
    },
    {
      "inputs": [
        {
          "internalType": "contract ERC20",
          "name": "_paymentCurrency",
          "type": "address"
        }
      ],
      "name": "setPaymentCurrency1",
      "outputs": [],
      "stateMutability": "nonpayable",
      "type": "function"
    },
    {
      "inputs": [
        {
          "internalType": "contract ERC20",
          "name": "_paymentCurrency",
          "type": "address"
        }
      ],
      "name": "setPaymentCurrency2",
      "outputs": [],
      "stateMutability": "nonpayable",
      "type": "function"
    },
    {
      "inputs": [
        {
          "internalType": "contract ERC721",
          "name": "_requiredNFT",
          "type": "address"
        }
      ],
      "name": "setRequiredNFT1",
      "outputs": [],
      "stateMutability": "nonpayable",
      "type": "function"
    },
    {
      "inputs": [
        {
          "internalType": "contract ERC721",
          "name": "_requiredNFT",
          "type": "address"
        }
      ],
      "name": "setRequiredNFT2",
      "outputs": [],
      "stateMutability": "nonpayable",
      "type": "function"
    },
    {
      "inputs": [
        {
          "internalType": "contract ERC721",
          "name": "_requiredNFT",
          "type": "address"
        }
      ],
      "name": "setRequiredNFT3",
      "outputs": [],
      "stateMutability": "nonpayable",
      "type": "function"
    },
    {
      "inputs": [
        {
          "internalType": "uint256",
          "name": "_requiredAmount",
          "type": "uint256"
        }
      ],
      "name": "setRequiredAmount1",
      "outputs": [],
      "stateMutability": "nonpayable",
      "type": "function"
    },
    {
      "inputs": [
        {
          "internalType": "uint256",
          "name": "_requiredAmount",
          "type": "uint256"
        }
      ],
      "name": "setRequiredAmount2",
      "outputs": [],
      "stateMutability": "nonpayable",
      "type": "function"
    },
    {
      "inputs": [],
      "name": "buyHammer",
      "outputs": [],
      "stateMutability": "nonpayable",
      "type": "function"
    },
    {
      "inputs": [
        {
          "internalType": "uint256",
          "name": "tokenId",
          "type": "uint256"
        }
      ],
      "name": "tokenURI",
      "outputs": [
        {
          "internalType": "string",
          "name": "",
          "type": "string"
        }
      ],
      "stateMutability": "view",
      "type": "function",
      "constant": true
    },
    {
      "inputs": [
        {
          "internalType": "bytes4",
          "name": "interfaceId",
          "type": "bytes4"
        }
      ],
      "name": "supportsInterface",
      "outputs": [
        {
          "internalType": "bool",
          "name": "",
          "type": "bool"
        }
      ],
      "stateMutability": "view",
      "type": "function",
      "constant": true
    }
  ],
  "bytecode": "0x60806040523480156200001157600080fd5b50604051620051bc380380620051bc833981810160405281019062000037919062000721565b6040518060400160405280600981526020017f48616d6d65724e465400000000000000000000000000000000000000000000008152506040518060400160405280600681526020017f48616d6d657200000000000000000000000000000000000000000000000000008152508160009081620000b4919062000a44565b508060019081620000c6919062000a44565b505050620000e9620000dd6200055560201b60201c565b6200055d60201b60201c565b600073ffffffffffffffffffffffffffffffffffffffff168773ffffffffffffffffffffffffffffffffffffffff16036200015b576040517f08c379a0000000000000000000000000000000000000000000000000000000008152600401620001529062000bb2565b60405180910390fd5b600073ffffffffffffffffffffffffffffffffffffffff168673ffffffffffffffffffffffffffffffffffffffff1603620001cd576040517f08c379a0000000000000000000000000000000000000000000000000000000008152600401620001c49062000bb2565b60405180910390fd5b600073ffffffffffffffffffffffffffffffffffffffff168573ffffffffffffffffffffffffffffffffffffffff16036200023f576040517f08c379a0000000000000000000000000000000000000000000000000000000008152600401620002369062000c24565b60405180910390fd5b600073ffffffffffffffffffffffffffffffffffffffff168473ffffffffffffffffffffffffffffffffffffffff1603620002b1576040517f08c379a0000000000000000000000000000000000000000000000000000000008152600401620002a89062000c24565b60405180910390fd5b600073ffffffffffffffffffffffffffffffffffffffff168373ffffffffffffffffffffffffffffffffffffffff160362000323576040517f08c379a00000000000000000000000000000000000000000000000000000000081526004016200031a9062000c24565b60405180910390fd5b6000821162000369576040517f08c379a0000000000000000000000000000000000000000000000000000000008152600401620003609062000c96565b60405180910390fd5b60008111620003af576040517f08c379a0000000000000000000000000000000000000000000000000000000008152600401620003a69062000c96565b60405180910390fd5b60008111620003f5576040517f08c379a0000000000000000000000000000000000000000000000000000000008152600401620003ec9062000c96565b60405180910390fd5b86600c60006101000a81548173ffffffffffffffffffffffffffffffffffffffff021916908373ffffffffffffffffffffffffffffffffffffffff16021790555085600d60006101000a81548173ffffffffffffffffffffffffffffffffffffffff021916908373ffffffffffffffffffffffffffffffffffffffff16021790555084600e60006101000a81548173ffffffffffffffffffffffffffffffffffffffff021916908373ffffffffffffffffffffffffffffffffffffffff16021790555083600f60006101000a81548173ffffffffffffffffffffffffffffffffffffffff021916908373ffffffffffffffffffffffffffffffffffffffff16021790555082601060006101000a81548173ffffffffffffffffffffffffffffffffffffffff021916908373ffffffffffffffffffffffffffffffffffffffff16021790555081601181905550806012819055505050505050505062000cb8565b600033905090565b6000600b60009054906101000a900473ffffffffffffffffffffffffffffffffffffffff16905081600b60006101000a81548173ffffffffffffffffffffffffffffffffffffffff021916908373ffffffffffffffffffffffffffffffffffffffff1602179055508173ffffffffffffffffffffffffffffffffffffffff168173ffffffffffffffffffffffffffffffffffffffff167f8be0079c531659141344cd1fd0a4f28419497f9722a3daafe3b4186f6b6457e060405160405180910390a35050565b600080fd5b600073ffffffffffffffffffffffffffffffffffffffff82169050919050565b6000620006558262000628565b9050919050565b6000620006698262000648565b9050919050565b6200067b816200065c565b81146200068757600080fd5b50565b6000815190506200069b8162000670565b92915050565b6000620006ae8262000648565b9050919050565b620006c081620006a1565b8114620006cc57600080fd5b50565b600081519050620006e081620006b5565b92915050565b6000819050919050565b620006fb81620006e6565b81146200070757600080fd5b50565b6000815190506200071b81620006f0565b92915050565b600080600080600080600060e0888a03121562000743576200074262000623565b5b6000620007538a828b016200068a565b9750506020620007668a828b016200068a565b9650506040620007798a828b01620006cf565b95505060606200078c8a828b01620006cf565b94505060806200079f8a828b01620006cf565b93505060a0620007b28a828b016200070a565b92505060c0620007c58a828b016200070a565b91505092959891949750929550565b600081519050919050565b7f4e487b7100000000000000000000000000000000000000000000000000000000600052604160045260246000fd5b7f4e487b7100000000000000000000000000000000000000000000000000000000600052602260045260246000fd5b600060028204905060018216806200085657607f821691505b6020821081036200086c576200086b6200080e565b5b50919050565b60008190508160005260206000209050919050565b60006020601f8301049050919050565b600082821b905092915050565b600060088302620008d67fffffffffffffffffffffffffffffffffffffffffffffffffffffffffffffffff8262000897565b620008e2868362000897565b95508019841693508086168417925050509392505050565b6000819050919050565b6000620009256200091f6200091984620006e6565b620008fa565b620006e6565b9050919050565b6000819050919050565b620009418362000904565b6200095962000950826200092c565b848454620008a4565b825550505050565b600090565b6200097062000961565b6200097d81848462000936565b505050565b5b81811015620009a5576200099960008262000966565b60018101905062000983565b5050565b601f821115620009f457620009be8162000872565b620009c98462000887565b81016020851015620009d9578190505b620009f1620009e88562000887565b83018262000982565b50505b505050565b600082821c905092915050565b600062000a1960001984600802620009f9565b1980831691505092915050565b600062000a34838362000a06565b9150826002028217905092915050565b62000a4f82620007d4565b67ffffffffffffffff81111562000a6b5762000a6a620007df565b5b62000a7782546200083d565b62000a84828285620009a9565b600060209050601f83116001811462000abc576000841562000aa7578287015190505b62000ab3858262000a26565b86555062000b23565b601f19841662000acc8662000872565b60005b8281101562000af65784890151825560018201915060208501945060208101905062000acf565b8683101562000b16578489015162000b12601f89168262000a06565b8355505b6001600288020188555050505b505050505050565b600082825260208201905092915050565b7f546f6b656e20616464726573732063616e27742062652061646472657373207a60008201527f65726f0000000000000000000000000000000000000000000000000000000000602082015250565b600062000b9a60238362000b2b565b915062000ba78262000b3c565b604082019050919050565b6000602082019050818103600083015262000bcd8162000b8b565b9050919050565b7f41646472657373732063616e2774206265207a65726f00000000000000000000600082015250565b600062000c0c60168362000b2b565b915062000c198262000bd4565b602082019050919050565b6000602082019050818103600083015262000c3f8162000bfd565b9050919050565b7f616d6f756e742063616e6e6f74206265207a65726f0000000000000000000000600082015250565b600062000c7e60158362000b2b565b915062000c8b8262000c46565b602082019050919050565b6000602082019050818103600083015262000cb18162000c6f565b9050919050565b6144f48062000cc86000396000f3fe608060405234801561001057600080fd5b50600436106102065760003560e01c806376e8074e1161011a578063b2a77331116100ad578063cc528abb1161007c578063cc528abb146105b3578063d8615841146105cf578063e985e9c5146105eb578063f2fde38b1461061b578063f8e80d861461063757610206565b8063b2a773311461052d578063b88d4fde14610549578063c3cce1b414610565578063c87b56dd1461058357610206565b806395d89b41116100e957806395d89b41146104b9578063a22cb465146104d7578063a9084571146104f3578063ac4d6a721461051157610206565b806376e8074e146104575780637ed3f629146104755780638da5cb5b1461049157806394af7562146104af57610206565b80632f745c591161019d5780634f6ccce71161016c5780634f6ccce71461039f5780635d8c9ee6146103cf5780636352211e146103ed57806370a082311461041d578063715018a61461044d57610206565b80632f745c59146103195780633db437721461034957806342842e0e146103675780634b084c521461038357610206565b80630cd73ee4116101d95780630cd73ee4146102a55780630eb547c9146102c357806318160ddd146102df57806323b872dd146102fd57610206565b806301ffc9a71461020b57806306fdde031461023b578063081812fc14610259578063095ea7b314610289575b600080fd5b61022560048036038101906102209190612c92565b610655565b6040516102329190612cda565b60405180910390f35b610243610667565b6040516102509190612d85565b60405180910390f35b610273600480360381019061026e9190612ddd565b6106f9565b6040516102809190612e4b565b60405180910390f35b6102a3600480360381019061029e9190612e92565b61073f565b005b6102ad610856565b6040516102ba9190612ee1565b60405180910390f35b6102dd60048036038101906102d89190612f3a565b61085c565b005b6102e7610917565b6040516102f49190612ee1565b60405180910390f35b61031760048036038101906103129190612f67565b610924565b005b610333600480360381019061032e9190612e92565b610984565b6040516103409190612ee1565b60405180910390f35b610351610a29565b60405161035e9190613019565b60405180910390f35b610381600480360381019061037c9190612f67565b610a4f565b005b61039d60048036038101906103989190612f3a565b610a6f565b005b6103b960048036038101906103b49190612ddd565b610b2a565b6040516103c69190612ee1565b60405180910390f35b6103d7610b9b565b6040516103e49190613055565b60405180910390f35b61040760048036038101906104029190612ddd565b610bc1565b6040516104149190612e4b565b60405180910390f35b61043760048036038101906104329190613070565b610c47565b6040516104449190612ee1565b60405180910390f35b610455610cfe565b005b61045f610d12565b60405161046c9190613019565b60405180910390f35b61048f600480360381019061048a9190612ddd565b610d38565b005b610499610d8d565b6040516104a69190612e4b565b60405180910390f35b6104b7610db7565b005b6104c1610fb8565b6040516104ce9190612d85565b60405180910390f35b6104f160048036038101906104ec91906130c9565b61104a565b005b6104fb611060565b6040516105089190613055565b60405180910390f35b61052b60048036038101906105269190612f3a565b611086565b005b61054760048036038101906105429190613147565b611141565b005b610563600480360381019061055e91906132a9565b6111fc565b005b61056d61125e565b60405161057a9190613019565b60405180910390f35b61059d60048036038101906105989190612ddd565b611284565b6040516105aa9190612d85565b60405180910390f35b6105cd60048036038101906105c89190612ddd565b611296565b005b6105e960048036038101906105e49190613147565b6112eb565b005b6106056004803603810190610600919061332c565b6113a6565b6040516106129190612cda565b60405180910390f35b61063560048036038101906106309190613070565b61143a565b005b61063f6114bd565b60405161064c9190612ee1565b60405180910390f35b6000610660826114c3565b9050919050565b6060600080546106769061339b565b80601f01602080910402602001604051908101604052809291908181526020018280546106a29061339b565b80156106ef5780601f106106c4576101008083540402835291602001916106ef565b820191906000526020600020905b8154815290600101906020018083116106d257829003601f168201915b5050505050905090565b600061070482611524565b6004600083815260200190815260200160002060009054906101000a900473ffffffffffffffffffffffffffffffffffffffff169050919050565b600061074a82610bc1565b90508073ffffffffffffffffffffffffffffffffffffffff168373ffffffffffffffffffffffffffffffffffffffff16036107ba576040517f08c379a00000000000000000000000000000000000000000000000000000000081526004016107b19061343e565b60405180910390fd5b8073ffffffffffffffffffffffffffffffffffffffff166107d961156f565b73ffffffffffffffffffffffffffffffffffffffff16148061080857506108078161080261156f565b6113a6565b5b610847576040517f08c379a000000000000000000000000000000000000000000000000000000000815260040161083e906134d0565b60405180910390fd5b6108518383611577565b505050565b60125481565b610864611630565b600073ffffffffffffffffffffffffffffffffffffffff168173ffffffffffffffffffffffffffffffffffffffff16036108d3576040517f08c379a00000000000000000000000000000000000000000000000000000000081526004016108ca9061353c565b60405180910390fd5b80600f60006101000a81548173ffffffffffffffffffffffffffffffffffffffff021916908373ffffffffffffffffffffffffffffffffffffffff16021790555050565b6000600880549050905090565b61093561092f61156f565b826116ae565b610974576040517f08c379a000000000000000000000000000000000000000000000000000000000815260040161096b906135ce565b60405180910390fd5b61097f838383611743565b505050565b600061098f83610c47565b82106109d0576040517f08c379a00000000000000000000000000000000000000000000000000000000081526004016109c790613660565b60405180910390fd5b600660008473ffffffffffffffffffffffffffffffffffffffff1673ffffffffffffffffffffffffffffffffffffffff168152602001908152602001600020600083815260200190815260200160002054905092915050565b600f60009054906101000a900473ffffffffffffffffffffffffffffffffffffffff1681565b610a6a838383604051806020016040528060008152506111fc565b505050565b610a77611630565b600073ffffffffffffffffffffffffffffffffffffffff168173ffffffffffffffffffffffffffffffffffffffff1603610ae6576040517f08c379a0000000000000000000000000000000000000000000000000000000008152600401610add9061353c565b60405180910390fd5b80600e60006101000a81548173ffffffffffffffffffffffffffffffffffffffff021916908373ffffffffffffffffffffffffffffffffffffffff16021790555050565b6000610b34610917565b8210610b75576040517f08c379a0000000000000000000000000000000000000000000000000000000008152600401610b6c906136f2565b60405180910390fd5b60088281548110610b8957610b88613712565b5b90600052602060002001549050919050565b600d60009054906101000a900473ffffffffffffffffffffffffffffffffffffffff1681565b600080610bcd83611a3c565b9050600073ffffffffffffffffffffffffffffffffffffffff168173ffffffffffffffffffffffffffffffffffffffff1603610c3e576040517f08c379a0000000000000000000000000000000000000000000000000000000008152600401610c359061378d565b60405180910390fd5b80915050919050565b60008073ffffffffffffffffffffffffffffffffffffffff168273ffffffffffffffffffffffffffffffffffffffff1603610cb7576040517f08c379a0000000000000000000000000000000000000000000000000000000008152600401610cae9061381f565b60405180910390fd5b600360008373ffffffffffffffffffffffffffffffffffffffff1673ffffffffffffffffffffffffffffffffffffffff168152602001908152602001600020549050919050565b610d06611630565b610d106000611a79565b565b601060009054906101000a900473ffffffffffffffffffffffffffffffffffffffff1681565b610d40611630565b60008111610d83576040517f08c379a0000000000000000000000000000000000000000000000000000000008152600401610d7a9061388b565b60405180910390fd5b8060118190555050565b6000600b60009054906101000a900473ffffffffffffffffffffffffffffffffffffffff16905090565b600c60009054906101000a900473ffffffffffffffffffffffffffffffffffffffff1673ffffffffffffffffffffffffffffffffffffffff166323b872dd33306011546040518463ffffffff1660e01b8152600401610e18939291906138ab565b6020604051808303816000875af1158015610e37573d6000803e3d6000fd5b505050506040513d601f19601f82011682018060405250810190610e5b91906138f7565b610e9a576040517f08c379a0000000000000000000000000000000000000000000000000000000008152600401610e9190613996565b60405180910390fd5b600d60009054906101000a900473ffffffffffffffffffffffffffffffffffffffff1673ffffffffffffffffffffffffffffffffffffffff166323b872dd33306012546040518463ffffffff1660e01b8152600401610efb939291906138ab565b6020604051808303816000875af1158015610f1a573d6000803e3d6000fd5b505050506040513d601f19601f82011682018060405250810190610f3e91906138f7565b610f7d576040517f08c379a0000000000000000000000000000000000000000000000000000000008152600401610f7490613a28565b60405180910390fd5b6000610f87610917565b9050610f933382611b3f565b610fb58160405180608001604052806050815260200161446f60509139611b5d565b50565b606060018054610fc79061339b565b80601f0160208091040260200160405190810160405280929190818152602001828054610ff39061339b565b80156110405780601f1061101557610100808354040283529160200191611040565b820191906000526020600020905b81548152906001019060200180831161102357829003601f168201915b5050505050905090565b61105c61105561156f565b8383611c01565b5050565b600c60009054906101000a900473ffffffffffffffffffffffffffffffffffffffff1681565b61108e611630565b600073ffffffffffffffffffffffffffffffffffffffff168173ffffffffffffffffffffffffffffffffffffffff16036110fd576040517f08c379a00000000000000000000000000000000000000000000000000000000081526004016110f49061353c565b60405180910390fd5b80601060006101000a81548173ffffffffffffffffffffffffffffffffffffffff021916908373ffffffffffffffffffffffffffffffffffffffff16021790555050565b611149611630565b600073ffffffffffffffffffffffffffffffffffffffff168173ffffffffffffffffffffffffffffffffffffffff16036111b8576040517f08c379a00000000000000000000000000000000000000000000000000000000081526004016111af90613aba565b60405180910390fd5b80600d60006101000a81548173ffffffffffffffffffffffffffffffffffffffff021916908373ffffffffffffffffffffffffffffffffffffffff16021790555050565b61120d61120761156f565b836116ae565b61124c576040517f08c379a0000000000000000000000000000000000000000000000000000000008152600401611243906135ce565b60405180910390fd5b61125884848484611d6d565b50505050565b600e60009054906101000a900473ffffffffffffffffffffffffffffffffffffffff1681565b606061128f82611dc9565b9050919050565b61129e611630565b600081116112e1576040517f08c379a00000000000000000000000000000000000000000000000000000000081526004016112d89061388b565b60405180910390fd5b8060128190555050565b6112f3611630565b600073ffffffffffffffffffffffffffffffffffffffff168173ffffffffffffffffffffffffffffffffffffffff1603611362576040517f08c379a000000000000000000000000000000000000000000000000000000000815260040161135990613aba565b60405180910390fd5b80600c60006101000a81548173ffffffffffffffffffffffffffffffffffffffff021916908373ffffffffffffffffffffffffffffffffffffffff16021790555050565b6000600560008473ffffffffffffffffffffffffffffffffffffffff1673ffffffffffffffffffffffffffffffffffffffff16815260200190815260200160002060008373ffffffffffffffffffffffffffffffffffffffff1673ffffffffffffffffffffffffffffffffffffffff16815260200190815260200160002060009054906101000a900460ff16905092915050565b611442611630565b600073ffffffffffffffffffffffffffffffffffffffff168173ffffffffffffffffffffffffffffffffffffffff16036114b1576040517f08c379a00000000000000000000000000000000000000000000000000000000081526004016114a890613b4c565b60405180910390fd5b6114ba81611a79565b50565b60115481565b6000634906490660e01b7bffffffffffffffffffffffffffffffffffffffffffffffffffffffff1916827bffffffffffffffffffffffffffffffffffffffffffffffffffffffff1916148061151d575061151c82611edb565b5b9050919050565b61152d81611f55565b61156c576040517f08c379a00000000000000000000000000000000000000000000000000000000081526004016115639061378d565b60405180910390fd5b50565b600033905090565b816004600083815260200190815260200160002060006101000a81548173ffffffffffffffffffffffffffffffffffffffff021916908373ffffffffffffffffffffffffffffffffffffffff160217905550808273ffffffffffffffffffffffffffffffffffffffff166115ea83610bc1565b73ffffffffffffffffffffffffffffffffffffffff167f8c5be1e5ebec7d5bd14f71427d1e84f3dd0314c0f7b2291e5b200ac8c7c3b92560405160405180910390a45050565b61163861156f565b73ffffffffffffffffffffffffffffffffffffffff16611656610d8d565b73ffffffffffffffffffffffffffffffffffffffff16146116ac576040517f08c379a00000000000000000000000000000000000000000000000000000000081526004016116a390613bb8565b60405180910390fd5b565b6000806116ba83610bc1565b90508073ffffffffffffffffffffffffffffffffffffffff168473ffffffffffffffffffffffffffffffffffffffff1614806116fc57506116fb81856113a6565b5b8061173a57508373ffffffffffffffffffffffffffffffffffffffff16611722846106f9565b73ffffffffffffffffffffffffffffffffffffffff16145b91505092915050565b8273ffffffffffffffffffffffffffffffffffffffff1661176382610bc1565b73ffffffffffffffffffffffffffffffffffffffff16146117b9576040517f08c379a00000000000000000000000000000000000000000000000000000000081526004016117b090613c4a565b60405180910390fd5b600073ffffffffffffffffffffffffffffffffffffffff168273ffffffffffffffffffffffffffffffffffffffff1603611828576040517f08c379a000000000000000000000000000000000000000000000000000000000815260040161181f90613cdc565b60405180910390fd5b6118358383836001611f96565b8273ffffffffffffffffffffffffffffffffffffffff1661185582610bc1565b73ffffffffffffffffffffffffffffffffffffffff16146118ab576040517f08c379a00000000000000000000000000000000000000000000000000000000081526004016118a290613c4a565b60405180910390fd5b6004600082815260200190815260200160002060006101000a81549073ffffffffffffffffffffffffffffffffffffffff02191690556001600360008573ffffffffffffffffffffffffffffffffffffffff1673ffffffffffffffffffffffffffffffffffffffff168152602001908152602001600020600082825403925050819055506001600360008473ffffffffffffffffffffffffffffffffffffffff1673ffffffffffffffffffffffffffffffffffffffff16815260200190815260200160002060008282540192505081905550816002600083815260200190815260200160002060006101000a81548173ffffffffffffffffffffffffffffffffffffffff021916908373ffffffffffffffffffffffffffffffffffffffff160217905550808273ffffffffffffffffffffffffffffffffffffffff168473ffffffffffffffffffffffffffffffffffffffff167fddf252ad1be2c89b69c2b068fc378daa952ba7f163c4a11628f55a4df523b3ef60405160405180910390a4611a378383836001611fa8565b505050565b60006002600083815260200190815260200160002060009054906101000a900473ffffffffffffffffffffffffffffffffffffffff169050919050565b6000600b60009054906101000a900473ffffffffffffffffffffffffffffffffffffffff16905081600b60006101000a81548173ffffffffffffffffffffffffffffffffffffffff021916908373ffffffffffffffffffffffffffffffffffffffff1602179055508173ffffffffffffffffffffffffffffffffffffffff168173ffffffffffffffffffffffffffffffffffffffff167f8be0079c531659141344cd1fd0a4f28419497f9722a3daafe3b4186f6b6457e060405160405180910390a35050565b611b59828260405180602001604052806000815250611fae565b5050565b611b6682611f55565b611ba5576040517f08c379a0000000000000000000000000000000000000000000000000000000008152600401611b9c90613d6e565b60405180910390fd5b80600a60008481526020019081526020016000209081611bc59190613f30565b507ff8e1a15aba9398e019f0b49df1a4fde98ee17ae345cb5f6b5e2c27f5033e8ce782604051611bf59190612ee1565b60405180910390a15050565b8173ffffffffffffffffffffffffffffffffffffffff168373ffffffffffffffffffffffffffffffffffffffff1603611c6f576040517f08c379a0000000000000000000000000000000000000000000000000000000008152600401611c669061404e565b60405180910390fd5b80600560008573ffffffffffffffffffffffffffffffffffffffff1673ffffffffffffffffffffffffffffffffffffffff16815260200190815260200160002060008473ffffffffffffffffffffffffffffffffffffffff1673ffffffffffffffffffffffffffffffffffffffff16815260200190815260200160002060006101000a81548160ff0219169083151502179055508173ffffffffffffffffffffffffffffffffffffffff168373ffffffffffffffffffffffffffffffffffffffff167f17307eab39ab6107e8899845ad3d59bd9653f200f220920489ca2b5937696c3183604051611d609190612cda565b60405180910390a3505050565b611d78848484611743565b611d8484848484612009565b611dc3576040517f08c379a0000000000000000000000000000000000000000000000000000000008152600401611dba906140e0565b60405180910390fd5b50505050565b6060611dd482611524565b6000600a60008481526020019081526020016000208054611df49061339b565b80601f0160208091040260200160405190810160405280929190818152602001828054611e209061339b565b8015611e6d5780601f10611e4257610100808354040283529160200191611e6d565b820191906000526020600020905b815481529060010190602001808311611e5057829003601f168201915b505050505090506000611e7e612190565b90506000815103611e93578192505050611ed6565b600082511115611ec8578082604051602001611eb092919061413c565b60405160208183030381529060405292505050611ed6565b611ed1846121a7565b925050505b919050565b60007f780e9d63000000000000000000000000000000000000000000000000000000007bffffffffffffffffffffffffffffffffffffffffffffffffffffffff1916827bffffffffffffffffffffffffffffffffffffffffffffffffffffffff19161480611f4e5750611f4d8261220f565b5b9050919050565b60008073ffffffffffffffffffffffffffffffffffffffff16611f7783611a3c565b73ffffffffffffffffffffffffffffffffffffffff1614159050919050565b611fa2848484846122f1565b50505050565b50505050565b611fb8838361244f565b611fc56000848484612009565b612004576040517f08c379a0000000000000000000000000000000000000000000000000000000008152600401611ffb906140e0565b60405180910390fd5b505050565b600061202a8473ffffffffffffffffffffffffffffffffffffffff1661266c565b15612183578373ffffffffffffffffffffffffffffffffffffffff1663150b7a0261205361156f565b8786866040518563ffffffff1660e01b815260040161207594939291906141b5565b6020604051808303816000875af19250505080156120b157506040513d601f19601f820116820180604052508101906120ae9190614216565b60015b612133573d80600081146120e1576040519150601f19603f3d011682016040523d82523d6000602084013e6120e6565b606091505b50600081510361212b576040517f08c379a0000000000000000000000000000000000000000000000000000000008152600401612122906140e0565b60405180910390fd5b805181602001fd5b63150b7a0260e01b7bffffffffffffffffffffffffffffffffffffffffffffffffffffffff1916817bffffffffffffffffffffffffffffffffffffffffffffffffffffffff191614915050612188565b600190505b949350505050565b606060405180602001604052806000815250905090565b60606121b282611524565b60006121bc612190565b905060008151116121dc5760405180602001604052806000815250612207565b806121e68461268f565b6040516020016121f792919061413c565b6040516020818303038152906040525b915050919050565b60007f80ac58cd000000000000000000000000000000000000000000000000000000007bffffffffffffffffffffffffffffffffffffffffffffffffffffffff1916827bffffffffffffffffffffffffffffffffffffffffffffffffffffffff191614806122da57507f5b5e139f000000000000000000000000000000000000000000000000000000007bffffffffffffffffffffffffffffffffffffffffffffffffffffffff1916827bffffffffffffffffffffffffffffffffffffffffffffffffffffffff1916145b806122ea57506122e98261275d565b5b9050919050565b6122fd848484846127c7565b6001811115612341576040517f08c379a0000000000000000000000000000000000000000000000000000000008152600401612338906142b5565b60405180910390fd5b6000829050600073ffffffffffffffffffffffffffffffffffffffff168573ffffffffffffffffffffffffffffffffffffffff160361238857612383816127cd565b6123c7565b8373ffffffffffffffffffffffffffffffffffffffff168573ffffffffffffffffffffffffffffffffffffffff16146123c6576123c58582612816565b5b5b600073ffffffffffffffffffffffffffffffffffffffff168473ffffffffffffffffffffffffffffffffffffffff16036124095761240481612983565b612448565b8473ffffffffffffffffffffffffffffffffffffffff168473ffffffffffffffffffffffffffffffffffffffff1614612447576124468482612a54565b5b5b5050505050565b600073ffffffffffffffffffffffffffffffffffffffff168273ffffffffffffffffffffffffffffffffffffffff16036124be576040517f08c379a00000000000000000000000000000000000000000000000000000000081526004016124b590614321565b60405180910390fd5b6124c781611f55565b15612507576040517f08c379a00000000000000000000000000000000000000000000000000000000081526004016124fe9061438d565b60405180910390fd5b612515600083836001611f96565b61251e81611f55565b1561255e576040517f08c379a00000000000000000000000000000000000000000000000000000000081526004016125559061438d565b60405180910390fd5b6001600360008473ffffffffffffffffffffffffffffffffffffffff1673ffffffffffffffffffffffffffffffffffffffff16815260200190815260200160002060008282540192505081905550816002600083815260200190815260200160002060006101000a81548173ffffffffffffffffffffffffffffffffffffffff021916908373ffffffffffffffffffffffffffffffffffffffff160217905550808273ffffffffffffffffffffffffffffffffffffffff16600073ffffffffffffffffffffffffffffffffffffffff167fddf252ad1be2c89b69c2b068fc378daa952ba7f163c4a11628f55a4df523b3ef60405160405180910390a4612668600083836001611fa8565b5050565b6000808273ffffffffffffffffffffffffffffffffffffffff163b119050919050565b60606000600161269e84612ad3565b01905060008167ffffffffffffffff8111156126bd576126bc61317e565b5b6040519080825280601f01601f1916602001820160405280156126ef5781602001600182028036833780820191505090505b509050600082602001820190505b600115612752578080600190039150507f3031323334353637383961626364656600000000000000000000000000000000600a86061a8153600a8581612746576127456143ad565b5b049450600085036126fd575b819350505050919050565b60007f01ffc9a7000000000000000000000000000000000000000000000000000000007bffffffffffffffffffffffffffffffffffffffffffffffffffffffff1916827bffffffffffffffffffffffffffffffffffffffffffffffffffffffff1916149050919050565b50505050565b6008805490506009600083815260200190815260200160002081905550600881908060018154018082558091505060019003906000526020600020016000909190919091505550565b6000600161282384610c47565b61282d919061440b565b9050600060076000848152602001908152602001600020549050818114612912576000600660008673ffffffffffffffffffffffffffffffffffffffff1673ffffffffffffffffffffffffffffffffffffffff168152602001908152602001600020600084815260200190815260200160002054905080600660008773ffffffffffffffffffffffffffffffffffffffff1673ffffffffffffffffffffffffffffffffffffffff168152602001908152602001600020600084815260200190815260200160002081905550816007600083815260200190815260200160002081905550505b6007600084815260200190815260200160002060009055600660008573ffffffffffffffffffffffffffffffffffffffff1673ffffffffffffffffffffffffffffffffffffffff16815260200190815260200160002060008381526020019081526020016000206000905550505050565b60006001600880549050612997919061440b565b90506000600960008481526020019081526020016000205490506000600883815481106129c7576129c6613712565b5b9060005260206000200154905080600883815481106129e9576129e8613712565b5b906000526020600020018190555081600960008381526020019081526020016000208190555060096000858152602001908152602001600020600090556008805480612a3857612a3761443f565b5b6001900381819060005260206000200160009055905550505050565b6000612a5f83610c47565b905081600660008573ffffffffffffffffffffffffffffffffffffffff1673ffffffffffffffffffffffffffffffffffffffff168152602001908152602001600020600083815260200190815260200160002081905550806007600084815260200190815260200160002081905550505050565b600080600090507a184f03e93ff9f4daa797ed6e38ed64bf6a1f0100000000000000008310612b31577a184f03e93ff9f4daa797ed6e38ed64bf6a1f0100000000000000008381612b2757612b266143ad565b5b0492506040810190505b6d04ee2d6d415b85acef81000000008310612b6e576d04ee2d6d415b85acef81000000008381612b6457612b636143ad565b5b0492506020810190505b662386f26fc100008310612b9d57662386f26fc100008381612b9357612b926143ad565b5b0492506010810190505b6305f5e1008310612bc6576305f5e1008381612bbc57612bbb6143ad565b5b0492506008810190505b6127108310612beb576127108381612be157612be06143ad565b5b0492506004810190505b60648310612c0e5760648381612c0457612c036143ad565b5b0492506002810190505b600a8310612c1d576001810190505b80915050919050565b6000604051905090565b600080fd5b600080fd5b60007fffffffff0000000000000000000000000000000000000000000000000000000082169050919050565b612c6f81612c3a565b8114612c7a57600080fd5b50565b600081359050612c8c81612c66565b92915050565b600060208284031215612ca857612ca7612c30565b5b6000612cb684828501612c7d565b91505092915050565b60008115159050919050565b612cd481612cbf565b82525050565b6000602082019050612cef6000830184612ccb565b92915050565b600081519050919050565b600082825260208201905092915050565b60005b83811015612d2f578082015181840152602081019050612d14565b60008484015250505050565b6000601f19601f8301169050919050565b6000612d5782612cf5565b612d618185612d00565b9350612d71818560208601612d11565b612d7a81612d3b565b840191505092915050565b60006020820190508181036000830152612d9f8184612d4c565b905092915050565b6000819050919050565b612dba81612da7565b8114612dc557600080fd5b50565b600081359050612dd781612db1565b92915050565b600060208284031215612df357612df2612c30565b5b6000612e0184828501612dc8565b91505092915050565b600073ffffffffffffffffffffffffffffffffffffffff82169050919050565b6000612e3582612e0a565b9050919050565b612e4581612e2a565b82525050565b6000602082019050612e606000830184612e3c565b92915050565b612e6f81612e2a565b8114612e7a57600080fd5b50565b600081359050612e8c81612e66565b92915050565b60008060408385031215612ea957612ea8612c30565b5b6000612eb785828601612e7d565b9250506020612ec885828601612dc8565b9150509250929050565b612edb81612da7565b82525050565b6000602082019050612ef66000830184612ed2565b92915050565b6000612f0782612e2a565b9050919050565b612f1781612efc565b8114612f2257600080fd5b50565b600081359050612f3481612f0e565b92915050565b600060208284031215612f5057612f4f612c30565b5b6000612f5e84828501612f25565b91505092915050565b600080600060608486031215612f8057612f7f612c30565b5b6000612f8e86828701612e7d565b9350506020612f9f86828701612e7d565b9250506040612fb086828701612dc8565b9150509250925092565b6000819050919050565b6000612fdf612fda612fd584612e0a565b612fba565b612e0a565b9050919050565b6000612ff182612fc4565b9050919050565b600061300382612fe6565b9050919050565b61301381612ff8565b82525050565b600060208201905061302e600083018461300a565b92915050565b600061303f82612fe6565b9050919050565b61304f81613034565b82525050565b600060208201905061306a6000830184613046565b92915050565b60006020828403121561308657613085612c30565b5b600061309484828501612e7d565b91505092915050565b6130a681612cbf565b81146130b157600080fd5b50565b6000813590506130c38161309d565b92915050565b600080604083850312156130e0576130df612c30565b5b60006130ee85828601612e7d565b92505060206130ff858286016130b4565b9150509250929050565b600061311482612e2a565b9050919050565b61312481613109565b811461312f57600080fd5b50565b6000813590506131418161311b565b92915050565b60006020828403121561315d5761315c612c30565b5b600061316b84828501613132565b91505092915050565b600080fd5b600080fd5b7f4e487b7100000000000000000000000000000000000000000000000000000000600052604160045260246000fd5b6131b682612d3b565b810181811067ffffffffffffffff821117156131d5576131d461317e565b5b80604052505050565b60006131e8612c26565b90506131f482826131ad565b919050565b600067ffffffffffffffff8211156132145761321361317e565b5b61321d82612d3b565b9050602081019050919050565b82818337600083830152505050565b600061324c613247846131f9565b6131de565b90508281526020810184848401111561326857613267613179565b5b61327384828561322a565b509392505050565b600082601f8301126132905761328f613174565b5b81356132a0848260208601613239565b91505092915050565b600080600080608085870312156132c3576132c2612c30565b5b60006132d187828801612e7d565b94505060206132e287828801612e7d565b93505060406132f387828801612dc8565b925050606085013567ffffffffffffffff81111561331457613313612c35565b5b6133208782880161327b565b91505092959194509250565b6000806040838503121561334357613342612c30565b5b600061335185828601612e7d565b925050602061336285828601612e7d565b9150509250929050565b7f4e487b7100000000000000000000000000000000000000000000000000000000600052602260045260246000fd5b600060028204905060018216806133b357607f821691505b6020821081036133c6576133c561336c565b5b50919050565b7f4552433732313a20617070726f76616c20746f2063757272656e74206f776e6560008201527f7200000000000000000000000000000000000000000000000000000000000000602082015250565b6000613428602183612d00565b9150613433826133cc565b604082019050919050565b600060208201905081810360008301526134578161341b565b9050919050565b7f4552433732313a20617070726f76652063616c6c6572206973206e6f7420746f60008201527f6b656e206f776e6572206f7220617070726f76656420666f7220616c6c000000602082015250565b60006134ba603d83612d00565b91506134c58261345e565b604082019050919050565b600060208201905081810360008301526134e9816134ad565b9050919050565b7f416464726573732063616e2774206265207a65726f0000000000000000000000600082015250565b6000613526601583612d00565b9150613531826134f0565b602082019050919050565b6000602082019050818103600083015261355581613519565b9050919050565b7f4552433732313a2063616c6c6572206973206e6f7420746f6b656e206f776e6560008201527f72206f7220617070726f76656400000000000000000000000000000000000000602082015250565b60006135b8602d83612d00565b91506135c38261355c565b604082019050919050565b600060208201905081810360008301526135e7816135ab565b9050919050565b7f455243373231456e756d657261626c653a206f776e657220696e646578206f7560008201527f74206f6620626f756e6473000000000000000000000000000000000000000000602082015250565b600061364a602b83612d00565b9150613655826135ee565b604082019050919050565b600060208201905081810360008301526136798161363d565b9050919050565b7f455243373231456e756d657261626c653a20676c6f62616c20696e646578206f60008201527f7574206f6620626f756e64730000000000000000000000000000000000000000602082015250565b60006136dc602c83612d00565b91506136e782613680565b604082019050919050565b6000602082019050818103600083015261370b816136cf565b9050919050565b7f4e487b7100000000000000000000000000000000000000000000000000000000600052603260045260246000fd5b7f4552433732313a20696e76616c696420746f6b656e2049440000000000000000600082015250565b6000613777601883612d00565b915061378282613741565b602082019050919050565b600060208201905081810360008301526137a68161376a565b9050919050565b7f4552433732313a2061646472657373207a65726f206973206e6f74206120766160008201527f6c6964206f776e65720000000000000000000000000000000000000000000000602082015250565b6000613809602983612d00565b9150613814826137ad565b604082019050919050565b60006020820190508181036000830152613838816137fc565b9050919050565b7f416d6f756e742063616e6e6f74206265207a65726f0000000000000000000000600082015250565b6000613875601583612d00565b91506138808261383f565b602082019050919050565b600060208201905081810360008301526138a481613868565b9050919050565b60006060820190506138c06000830186612e3c565b6138cd6020830185612e3c565b6138da6040830184612ed2565b949350505050565b6000815190506138f18161309d565b92915050565b60006020828403121561390d5761390c612c30565b5b600061391b848285016138e2565b91505092915050565b7f4661696c656420746f2070726f63657373207061796d656e7420666f7220637560008201527f7272656e63792031210000000000000000000000000000000000000000000000602082015250565b6000613980602983612d00565b915061398b82613924565b604082019050919050565b600060208201905081810360008301526139af81613973565b9050919050565b7f4661696c656420746f2070726f63657373207061796d656e7420666f7220637560008201527f7272656e63792032210000000000000000000000000000000000000000000000602082015250565b6000613a12602983612d00565b9150613a1d826139b6565b604082019050919050565b60006020820190508181036000830152613a4181613a05565b9050919050565b7f546f6b656e20616464726573732063616e27742062652061646472657373207a60008201527f65726f0000000000000000000000000000000000000000000000000000000000602082015250565b6000613aa4602383612d00565b9150613aaf82613a48565b604082019050919050565b60006020820190508181036000830152613ad381613a97565b9050919050565b7f4f776e61626c653a206e6577206f776e657220697320746865207a65726f206160008201527f6464726573730000000000000000000000000000000000000000000000000000602082015250565b6000613b36602683612d00565b9150613b4182613ada565b604082019050919050565b60006020820190508181036000830152613b6581613b29565b9050919050565b7f4f776e61626c653a2063616c6c6572206973206e6f7420746865206f776e6572600082015250565b6000613ba2602083612d00565b9150613bad82613b6c565b602082019050919050565b60006020820190508181036000830152613bd181613b95565b9050919050565b7f4552433732313a207472616e736665722066726f6d20696e636f72726563742060008201527f6f776e6572000000000000000000000000000000000000000000000000000000602082015250565b6000613c34602583612d00565b9150613c3f82613bd8565b604082019050919050565b60006020820190508181036000830152613c6381613c27565b9050919050565b7f4552433732313a207472616e7366657220746f20746865207a65726f2061646460008201527f7265737300000000000000000000000000000000000000000000000000000000602082015250565b6000613cc6602483612d00565b9150613cd182613c6a565b604082019050919050565b60006020820190508181036000830152613cf581613cb9565b9050919050565b7f45524337323155524953746f726167653a2055524920736574206f66206e6f6e60008201527f6578697374656e7420746f6b656e000000000000000000000000000000000000602082015250565b6000613d58602e83612d00565b9150613d6382613cfc565b604082019050919050565b60006020820190508181036000830152613d8781613d4b565b9050919050565b60008190508160005260206000209050919050565b60006020601f8301049050919050565b600082821b905092915050565b600060088302613df07fffffffffffffffffffffffffffffffffffffffffffffffffffffffffffffffff82613db3565b613dfa8683613db3565b95508019841693508086168417925050509392505050565b6000613e2d613e28613e2384612da7565b612fba565b612da7565b9050919050565b6000819050919050565b613e4783613e12565b613e5b613e5382613e34565b848454613dc0565b825550505050565b600090565b613e70613e63565b613e7b818484613e3e565b505050565b5b81811015613e9f57613e94600082613e68565b600181019050613e81565b5050565b601f821115613ee457613eb581613d8e565b613ebe84613da3565b81016020851015613ecd578190505b613ee1613ed985613da3565b830182613e80565b50505b505050565b600082821c905092915050565b6000613f0760001984600802613ee9565b1980831691505092915050565b6000613f208383613ef6565b9150826002028217905092915050565b613f3982612cf5565b67ffffffffffffffff811115613f5257613f5161317e565b5b613f5c825461339b565b613f67828285613ea3565b600060209050601f831160018114613f9a5760008415613f88578287015190505b613f928582613f14565b865550613ffa565b601f198416613fa886613d8e565b60005b82811015613fd057848901518255600182019150602085019450602081019050613fab565b86831015613fed5784890151613fe9601f891682613ef6565b8355505b6001600288020188555050505b505050505050565b7f4552433732313a20617070726f766520746f2063616c6c657200000000000000600082015250565b6000614038601983612d00565b915061404382614002565b602082019050919050565b600060208201905081810360008301526140678161402b565b9050919050565b7f4552433732313a207472616e7366657220746f206e6f6e20455243373231526560008201527f63656976657220696d706c656d656e7465720000000000000000000000000000602082015250565b60006140ca603283612d00565b91506140d58261406e565b604082019050919050565b600060208201905081810360008301526140f9816140bd565b9050919050565b600081905092915050565b600061411682612cf5565b6141208185614100565b9350614130818560208601612d11565b80840191505092915050565b6000614148828561410b565b9150614154828461410b565b91508190509392505050565b600081519050919050565b600082825260208201905092915050565b600061418782614160565b614191818561416b565b93506141a1818560208601612d11565b6141aa81612d3b565b840191505092915050565b60006080820190506141ca6000830187612e3c565b6141d76020830186612e3c565b6141e46040830185612ed2565b81810360608301526141f6818461417c565b905095945050505050565b60008151905061421081612c66565b92915050565b60006020828403121561422c5761422b612c30565b5b600061423a84828501614201565b91505092915050565b7f455243373231456e756d657261626c653a20636f6e736563757469766520747260008201527f616e7366657273206e6f7420737570706f727465640000000000000000000000602082015250565b600061429f603583612d00565b91506142aa82614243565b604082019050919050565b600060208201905081810360008301526142ce81614292565b9050919050565b7f4552433732313a206d696e7420746f20746865207a65726f2061646472657373600082015250565b600061430b602083612d00565b9150614316826142d5565b602082019050919050565b6000602082019050818103600083015261433a816142fe565b9050919050565b7f4552433732313a20746f6b656e20616c7265616479206d696e74656400000000600082015250565b6000614377601c83612d00565b915061438282614341565b602082019050919050565b600060208201905081810360008301526143a68161436a565b9050919050565b7f4e487b7100000000000000000000000000000000000000000000000000000000600052601260045260246000fd5b7f4e487b7100000000000000000000000000000000000000000000000000000000600052601160045260246000fd5b600061441682612da7565b915061442183612da7565b9250828203905081811115614439576144386143dc565b5b92915050565b7f4e487b7100000000000000000000000000000000000000000000000000000000600052603160045260246000fdfe68747470733a2f2f676174657761792e70696e6174612e636c6f75642f697066732f516d5455734b746133447955776f63774b78476d4e56725738324344456b4b65465a4e344e6d4b656842457a784da2646970667358221220255302468377fd2bfd450a6d9e48be3a43794631855e28860a95e8afa067c4f164736f6c63430008100033",
  "immutableReferences": {},
  "source": "// SPDX-License-Identifier: MIT\r\npragma solidity ^0.8.7;\r\n\r\nimport \"@openzeppelin/contracts/token/ERC20/ERC20.sol\";\r\nimport \"@openzeppelin/contracts/token/ERC721/ERC721.sol\";\r\nimport \"@openzeppelin/contracts/token/ERC721/extensions/ERC721Enumerable.sol\";\r\nimport \"@openzeppelin/contracts/token/ERC721/extensions/ERC721URIStorage.sol\";\r\nimport \"@openzeppelin/contracts/access/Ownable.sol\";\r\n\r\ncontract HammerNFT is ERC721, ERC721Enumerable, ERC721URIStorage, Ownable {\r\n    ERC20 public paymentCurrency1;\r\n    ERC20 public paymentCurrency2;\r\n    ERC721 public requiredNFT1;\r\n    ERC721 public requiredNFT2;\r\n    ERC721 public requiredNFT3;\r\n\r\n    uint256 public requiredAmount1;\r\n    uint256 public requiredAmount2;\r\n\r\n    constructor(\r\n        ERC20 _paymentCurrency1,\r\n        ERC20 _paymentCurrency2,\r\n        ERC721 _requiredNFT1,\r\n        ERC721 _requiredNFT2,\r\n        ERC721 _requiredNFT3,\r\n        uint256 _requiredAmount1,\r\n        uint256 _requiredAmount2\r\n    ) ERC721(\"HammerNFT\", \"Hammer\") {\r\n        require(\r\n            address(_paymentCurrency1) != address(0),\r\n            \"Token address can't be address zero\"\r\n        );\r\n        require(\r\n            address(_paymentCurrency2) != address(0),\r\n            \"Token address can't be address zero\"\r\n        );\r\n        require(address(_requiredNFT1) != address(0), \"Addresss can't be zero\");\r\n        require(address(_requiredNFT2) != address(0), \"Addresss can't be zero\");\r\n        require(address(_requiredNFT3) != address(0), \"Addresss can't be zero\");\r\n        require(_requiredAmount1 > 0, \"amount cannot be zero\");\r\n        require(_requiredAmount2 > 0, \"amount cannot be zero\");\r\n        require(_requiredAmount2 > 0, \"amount cannot be zero\");\r\n        paymentCurrency1 = _paymentCurrency1;\r\n        paymentCurrency2 = _paymentCurrency2;\r\n        requiredNFT1 = _requiredNFT1;\r\n        requiredNFT2 = _requiredNFT2;\r\n        requiredNFT3 = _requiredNFT3;\r\n        requiredAmount1 = _requiredAmount1;\r\n        requiredAmount2 = _requiredAmount2;\r\n    }\r\n\r\n    \r\n    //Setter Functions\r\n\r\n    function setPaymentCurrency1(ERC20 _paymentCurrency) public onlyOwner {\r\n        require(\r\n            address(_paymentCurrency) != address(0),\r\n            \"Token address can't be address zero\"\r\n        );\r\n        paymentCurrency1 = _paymentCurrency;\r\n    }\r\n\r\n    function setPaymentCurrency2(ERC20 _paymentCurrency) public onlyOwner {\r\n        require(\r\n            address(_paymentCurrency) != address(0),\r\n            \"Token address can't be address zero\"\r\n        );\r\n        paymentCurrency2 = _paymentCurrency;\r\n    }\r\n\r\n    function setRequiredNFT1(ERC721 _requiredNFT) public onlyOwner {\r\n        require(address(_requiredNFT) != address(0), \"Address can't be zero\");\r\n        requiredNFT1 = _requiredNFT;\r\n    }\r\n\r\n    function setRequiredNFT2(ERC721 _requiredNFT) public onlyOwner {\r\n        require(address(_requiredNFT) != address(0), \"Address can't be zero\");\r\n        requiredNFT2 = _requiredNFT;\r\n    }\r\n\r\n    function setRequiredNFT3(ERC721 _requiredNFT) public onlyOwner {\r\n        require(address(_requiredNFT) != address(0), \"Address can't be zero\");\r\n        requiredNFT3 = _requiredNFT;\r\n    }\r\n\r\n    function setRequiredAmount1(uint256 _requiredAmount) public onlyOwner {\r\n        require(_requiredAmount > 0, \"Amount cannot be zero\");\r\n        requiredAmount1 = _requiredAmount;\r\n    }\r\n\r\n    function setRequiredAmount2(uint256 _requiredAmount) public onlyOwner {\r\n        require(_requiredAmount > 0, \"Amount cannot be zero\");\r\n        requiredAmount2 = _requiredAmount;\r\n    }\r\n\r\n    // buy function}\r\n\r\n    function buyHammer() public {\r\n        require(\r\n            paymentCurrency1.transferFrom(\r\n                msg.sender,\r\n                address(this),\r\n                requiredAmount1\r\n            ),\r\n            \"Failed to process payment for currency 1!\"\r\n        );\r\n        require(\r\n            paymentCurrency2.transferFrom(\r\n                msg.sender,\r\n                address(this),\r\n                requiredAmount2\r\n            ),\r\n            \"Failed to process payment for currency 2!\"\r\n        );\r\n        uint256 tokenId = totalSupply(); // Use totalSupply() to get the next token ID\r\n        _safeMint(msg.sender, tokenId);\r\n        _setTokenURI(\r\n            tokenId,\r\n            \"https://gateway.pinata.cloud/ipfs/QmTUsKta3DyUwocwKxGmNVrW82CDEkKeFZN4NmKehBEzxM\"\r\n        );\r\n    }\r\n\r\n    // The following functions are overrides required by Solidity.\r\n\r\n    function _beforeTokenTransfer(\r\n        address from,\r\n        address to,\r\n        uint256 tokenId,\r\n        uint256 batchSize\r\n    ) internal override(ERC721, ERC721Enumerable) {\r\n        super._beforeTokenTransfer(from, to, tokenId, batchSize);\r\n    }\r\n\r\n    function _burn(\r\n        uint256 tokenId\r\n    ) internal override(ERC721, ERC721URIStorage) {\r\n        super._burn(tokenId);\r\n    }\r\n\r\n    function tokenURI(\r\n        uint256 tokenId\r\n    ) public view override(ERC721, ERC721URIStorage) returns (string memory) {\r\n        return super.tokenURI(tokenId);\r\n    }\r\n\r\n    function supportsInterface(\r\n        bytes4 interfaceId\r\n    )\r\n        public\r\n        view\r\n        override(ERC721, ERC721Enumerable, ERC721URIStorage)\r\n        returns (bool)\r\n    {\r\n        return super.supportsInterface(interfaceId);\r\n    }\r\n}\r\n",
  "sourcePath": "C:\\Users\\sumer\\OneDrive\\Desktop\\Workbench\\NFTDeployment\\contracts\\HammerNFT.sol",
  "compiler": {
    "name": "solc",
    "version": "0.8.16+commit.07a7930e.Emscripten.clang"
  },
  "schemaVersion": "3.4.15",
  "updatedAt": "2023-08-14T13:13:57.212Z",
  "networkType": "ethereum",
  "devdoc": {
    "kind": "dev",
    "methods": {
      "approve(address,uint256)": {
        "details": "See {IERC721-approve}."
      },
      "balanceOf(address)": {
        "details": "See {IERC721-balanceOf}."
      },
      "getApproved(uint256)": {
        "details": "See {IERC721-getApproved}."
      },
      "isApprovedForAll(address,address)": {
        "details": "See {IERC721-isApprovedForAll}."
      },
      "name()": {
        "details": "See {IERC721Metadata-name}."
      },
      "owner()": {
        "details": "Returns the address of the current owner."
      },
      "ownerOf(uint256)": {
        "details": "See {IERC721-ownerOf}."
      },
      "renounceOwnership()": {
        "details": "Leaves the contract without owner. It will not be possible to call `onlyOwner` functions. Can only be called by the current owner. NOTE: Renouncing ownership will leave the contract without an owner, thereby disabling any functionality that is only available to the owner."
      },
      "safeTransferFrom(address,address,uint256)": {
        "details": "See {IERC721-safeTransferFrom}."
      },
      "safeTransferFrom(address,address,uint256,bytes)": {
        "details": "See {IERC721-safeTransferFrom}."
      },
      "setApprovalForAll(address,bool)": {
        "details": "See {IERC721-setApprovalForAll}."
      },
      "symbol()": {
        "details": "See {IERC721Metadata-symbol}."
      },
      "tokenByIndex(uint256)": {
        "details": "See {IERC721Enumerable-tokenByIndex}."
      },
      "tokenOfOwnerByIndex(address,uint256)": {
        "details": "See {IERC721Enumerable-tokenOfOwnerByIndex}."
      },
      "totalSupply()": {
        "details": "See {IERC721Enumerable-totalSupply}."
      },
      "transferFrom(address,address,uint256)": {
        "details": "See {IERC721-transferFrom}."
      },
      "transferOwnership(address)": {
        "details": "Transfers ownership of the contract to a new account (`newOwner`). Can only be called by the current owner."
      }
    },
    "version": 1
  },
  "userdoc": {
    "kind": "user",
    "methods": {},
    "version": 1
  }
}