{
  "contractName": "NetNFT",
  "abi": [
    {
      "inputs": [
        {
          "internalType": "contract ERC20",
          "name": "_paymentCurrency1",
          "type": "address"
        },
        {
          "internalType": "contract ERC20",
          "name": "_paymentCurrency2",
          "type": "address"
        },
        {
          "internalType": "contract ERC721",
          "name": "_requiredNFT",
          "type": "address"
        },
        {
          "internalType": "uint256",
          "name": "_requiredAmount1",
          "type": "uint256"
        },
        {
          "internalType": "uint256",
          "name": "_requiredAmount2",
          "type": "uint256"
        }
      ],
      "stateMutability": "nonpayable",
      "type": "constructor"
    },
    {
      "anonymous": false,
      "inputs": [
        {
          "indexed": true,
          "internalType": "address",
          "name": "owner",
          "type": "address"
        },
        {
          "indexed": true,
          "internalType": "address",
          "name": "approved",
          "type": "address"
        },
        {
          "indexed": true,
          "internalType": "uint256",
          "name": "tokenId",
          "type": "uint256"
        }
      ],
      "name": "Approval",
      "type": "event"
    },
    {
      "anonymous": false,
      "inputs": [
        {
          "indexed": true,
          "internalType": "address",
          "name": "owner",
          "type": "address"
        },
        {
          "indexed": true,
          "internalType": "address",
          "name": "operator",
          "type": "address"
        },
        {
          "indexed": false,
          "internalType": "bool",
          "name": "approved",
          "type": "bool"
        }
      ],
      "name": "ApprovalForAll",
      "type": "event"
    },
    {
      "anonymous": false,
      "inputs": [
        {
          "indexed": false,
          "internalType": "uint256",
          "name": "_fromTokenId",
          "type": "uint256"
        },
        {
          "indexed": false,
          "internalType": "uint256",
          "name": "_toTokenId",
          "type": "uint256"
        }
      ],
      "name": "BatchMetadataUpdate",
      "type": "event"
    },
    {
      "anonymous": false,
      "inputs": [
        {
          "indexed": false,
          "internalType": "uint256",
          "name": "_tokenId",
          "type": "uint256"
        }
      ],
      "name": "MetadataUpdate",
      "type": "event"
    },
    {
      "anonymous": false,
      "inputs": [
        {
          "indexed": true,
          "internalType": "address",
          "name": "previousOwner",
          "type": "address"
        },
        {
          "indexed": true,
          "internalType": "address",
          "name": "newOwner",
          "type": "address"
        }
      ],
      "name": "OwnershipTransferred",
      "type": "event"
    },
    {
      "anonymous": false,
      "inputs": [
        {
          "indexed": true,
          "internalType": "address",
          "name": "from",
          "type": "address"
        },
        {
          "indexed": true,
          "internalType": "address",
          "name": "to",
          "type": "address"
        },
        {
          "indexed": true,
          "internalType": "uint256",
          "name": "tokenId",
          "type": "uint256"
        }
      ],
      "name": "Transfer",
      "type": "event"
    },
    {
      "inputs": [
        {
          "internalType": "address",
          "name": "to",
          "type": "address"
        },
        {
          "internalType": "uint256",
          "name": "tokenId",
          "type": "uint256"
        }
      ],
      "name": "approve",
      "outputs": [],
      "stateMutability": "nonpayable",
      "type": "function"
    },
    {
      "inputs": [
        {
          "internalType": "address",
          "name": "owner",
          "type": "address"
        }
      ],
      "name": "balanceOf",
      "outputs": [
        {
          "internalType": "uint256",
          "name": "",
          "type": "uint256"
        }
      ],
      "stateMutability": "view",
      "type": "function",
      "constant": true
    },
    {
      "inputs": [
        {
          "internalType": "uint256",
          "name": "tokenId",
          "type": "uint256"
        }
      ],
      "name": "getApproved",
      "outputs": [
        {
          "internalType": "address",
          "name": "",
          "type": "address"
        }
      ],
      "stateMutability": "view",
      "type": "function",
      "constant": true
    },
    {
      "inputs": [
        {
          "internalType": "address",
          "name": "owner",
          "type": "address"
        },
        {
          "internalType": "address",
          "name": "operator",
          "type": "address"
        }
      ],
      "name": "isApprovedForAll",
      "outputs": [
        {
          "internalType": "bool",
          "name": "",
          "type": "bool"
        }
      ],
      "stateMutability": "view",
      "type": "function",
      "constant": true
    },
    {
      "inputs": [],
      "name": "name",
      "outputs": [
        {
          "internalType": "string",
          "name": "",
          "type": "string"
        }
      ],
      "stateMutability": "view",
      "type": "function",
      "constant": true
    },
    {
      "inputs": [],
      "name": "owner",
      "outputs": [
        {
          "internalType": "address",
          "name": "",
          "type": "address"
        }
      ],
      "stateMutability": "view",
      "type": "function",
      "constant": true
    },
    {
      "inputs": [
        {
          "internalType": "uint256",
          "name": "tokenId",
          "type": "uint256"
        }
      ],
      "name": "ownerOf",
      "outputs": [
        {
          "internalType": "address",
          "name": "",
          "type": "address"
        }
      ],
      "stateMutability": "view",
      "type": "function",
      "constant": true
    },
    {
      "inputs": [],
      "name": "paymentCurrency1",
      "outputs": [
        {
          "internalType": "contract ERC20",
          "name": "",
          "type": "address"
        }
      ],
      "stateMutability": "view",
      "type": "function",
      "constant": true
    },
    {
      "inputs": [],
      "name": "paymentCurrency2",
      "outputs": [
        {
          "internalType": "contract ERC20",
          "name": "",
          "type": "address"
        }
      ],
      "stateMutability": "view",
      "type": "function",
      "constant": true
    },
    {
      "inputs": [],
      "name": "renounceOwnership",
      "outputs": [],
      "stateMutability": "nonpayable",
      "type": "function"
    },
    {
      "inputs": [],
      "name": "requiredAmount1",
      "outputs": [
        {
          "internalType": "uint256",
          "name": "",
          "type": "uint256"
        }
      ],
      "stateMutability": "view",
      "type": "function",
      "constant": true
    },
    {
      "inputs": [],
      "name": "requiredAmount2",
      "outputs": [
        {
          "internalType": "uint256",
          "name": "",
          "type": "uint256"
        }
      ],
      "stateMutability": "view",
      "type": "function",
      "constant": true
    },
    {
      "inputs": [],
      "name": "requiredNFT",
      "outputs": [
        {
          "internalType": "contract ERC721",
          "name": "",
          "type": "address"
        }
      ],
      "stateMutability": "view",
      "type": "function",
      "constant": true
    },
    {
      "inputs": [
        {
          "internalType": "address",
          "name": "from",
          "type": "address"
        },
        {
          "internalType": "address",
          "name": "to",
          "type": "address"
        },
        {
          "internalType": "uint256",
          "name": "tokenId",
          "type": "uint256"
        }
      ],
      "name": "safeTransferFrom",
      "outputs": [],
      "stateMutability": "nonpayable",
      "type": "function"
    },
    {
      "inputs": [
        {
          "internalType": "address",
          "name": "from",
          "type": "address"
        },
        {
          "internalType": "address",
          "name": "to",
          "type": "address"
        },
        {
          "internalType": "uint256",
          "name": "tokenId",
          "type": "uint256"
        },
        {
          "internalType": "bytes",
          "name": "data",
          "type": "bytes"
        }
      ],
      "name": "safeTransferFrom",
      "outputs": [],
      "stateMutability": "nonpayable",
      "type": "function"
    },
    {
      "inputs": [
        {
          "internalType": "address",
          "name": "operator",
          "type": "address"
        },
        {
          "internalType": "bool",
          "name": "approved",
          "type": "bool"
        }
      ],
      "name": "setApprovalForAll",
      "outputs": [],
      "stateMutability": "nonpayable",
      "type": "function"
    },
    {
      "inputs": [],
      "name": "symbol",
      "outputs": [
        {
          "internalType": "string",
          "name": "",
          "type": "string"
        }
      ],
      "stateMutability": "view",
      "type": "function",
      "constant": true
    },
    {
      "inputs": [
        {
          "internalType": "uint256",
          "name": "index",
          "type": "uint256"
        }
      ],
      "name": "tokenByIndex",
      "outputs": [
        {
          "internalType": "uint256",
          "name": "",
          "type": "uint256"
        }
      ],
      "stateMutability": "view",
      "type": "function",
      "constant": true
    },
    {
      "inputs": [
        {
          "internalType": "address",
          "name": "owner",
          "type": "address"
        },
        {
          "internalType": "uint256",
          "name": "index",
          "type": "uint256"
        }
      ],
      "name": "tokenOfOwnerByIndex",
      "outputs": [
        {
          "internalType": "uint256",
          "name": "",
          "type": "uint256"
        }
      ],
      "stateMutability": "view",
      "type": "function",
      "constant": true
    },
    {
      "inputs": [],
      "name": "totalSupply",
      "outputs": [
        {
          "internalType": "uint256",
          "name": "",
          "type": "uint256"
        }
      ],
      "stateMutability": "view",
      "type": "function",
      "constant": true
    },
    {
      "inputs": [
        {
          "internalType": "address",
          "name": "from",
          "type": "address"
        },
        {
          "internalType": "address",
          "name": "to",
          "type": "address"
        },
        {
          "internalType": "uint256",
          "name": "tokenId",
          "type": "uint256"
        }
      ],
      "name": "transferFrom",
      "outputs": [],
      "stateMutability": "nonpayable",
      "type": "function"
    },
    {
      "inputs": [
        {
          "internalType": "address",
          "name": "newOwner",
          "type": "address"
        }
      ],
      "name": "transferOwnership",
      "outputs": [],
      "stateMutability": "nonpayable",
      "type": "function"
    },
    {
      "inputs": [
        {
          "internalType": "contract ERC20",
          "name": "_paymentCurrency",
          "type": "address"
        }
      ],
      "name": "setPaymentCurrency1",
      "outputs": [],
      "stateMutability": "nonpayable",
      "type": "function"
    },
    {
      "inputs": [
        {
          "internalType": "contract ERC20",
          "name": "_paymentCurrency",
          "type": "address"
        }
      ],
      "name": "setPaymentCurrency2",
      "outputs": [],
      "stateMutability": "nonpayable",
      "type": "function"
    },
    {
      "inputs": [
        {
          "internalType": "contract ERC721",
          "name": "_requiredNFT",
          "type": "address"
        }
      ],
      "name": "setRequiredNFT",
      "outputs": [],
      "stateMutability": "nonpayable",
      "type": "function"
    },
    {
      "inputs": [
        {
          "internalType": "uint256",
          "name": "_requiredAmount",
          "type": "uint256"
        }
      ],
      "name": "setRequiredAmount1",
      "outputs": [],
      "stateMutability": "nonpayable",
      "type": "function"
    },
    {
      "inputs": [
        {
          "internalType": "uint256",
          "name": "_requiredAmount",
          "type": "uint256"
        }
      ],
      "name": "setRequiredAmount2",
      "outputs": [],
      "stateMutability": "nonpayable",
      "type": "function"
    },
    {
      "inputs": [],
      "name": "buyNet",
      "outputs": [],
      "stateMutability": "nonpayable",
      "type": "function"
    },
    {
      "inputs": [
        {
          "internalType": "uint256",
          "name": "tokenId",
          "type": "uint256"
        }
      ],
      "name": "tokenURI",
      "outputs": [
        {
          "internalType": "string",
          "name": "",
          "type": "string"
        }
      ],
      "stateMutability": "view",
      "type": "function",
      "constant": true
    },
    {
      "inputs": [
        {
          "internalType": "bytes4",
          "name": "interfaceId",
          "type": "bytes4"
        }
      ],
      "name": "supportsInterface",
      "outputs": [
        {
          "internalType": "bool",
          "name": "",
          "type": "bool"
        }
      ],
      "stateMutability": "view",
      "type": "function",
      "constant": true
    }
  ],
  "bytecode": "0x60806040523480156200001157600080fd5b5060405162004d8138038062004d81833981810160405281019062000037919062000573565b6040518060400160405280600681526020017f4e65744e465400000000000000000000000000000000000000000000000000008152506040518060400160405280600381526020017f4e657400000000000000000000000000000000000000000000000000000000008152508160009081620000b491906200086b565b508060019081620000c691906200086b565b505050620000e9620000dd620003a760201b60201c565b620003af60201b60201c565b600073ffffffffffffffffffffffffffffffffffffffff168573ffffffffffffffffffffffffffffffffffffffff16036200015b576040517f08c379a00000000000000000000000000000000000000000000000000000000081526004016200015290620009d9565b60405180910390fd5b600073ffffffffffffffffffffffffffffffffffffffff168473ffffffffffffffffffffffffffffffffffffffff1603620001cd576040517f08c379a0000000000000000000000000000000000000000000000000000000008152600401620001c490620009d9565b60405180910390fd5b600073ffffffffffffffffffffffffffffffffffffffff168373ffffffffffffffffffffffffffffffffffffffff16036200023f576040517f08c379a0000000000000000000000000000000000000000000000000000000008152600401620002369062000a4b565b60405180910390fd5b6000821162000285576040517f08c379a00000000000000000000000000000000000000000000000000000000081526004016200027c9062000abd565b60405180910390fd5b60008111620002cb576040517f08c379a0000000000000000000000000000000000000000000000000000000008152600401620002c29062000abd565b60405180910390fd5b84600c60006101000a81548173ffffffffffffffffffffffffffffffffffffffff021916908373ffffffffffffffffffffffffffffffffffffffff16021790555083600d60006101000a81548173ffffffffffffffffffffffffffffffffffffffff021916908373ffffffffffffffffffffffffffffffffffffffff16021790555082600e60006101000a81548173ffffffffffffffffffffffffffffffffffffffff021916908373ffffffffffffffffffffffffffffffffffffffff16021790555081600f8190555080601081905550505050505062000adf565b600033905090565b6000600b60009054906101000a900473ffffffffffffffffffffffffffffffffffffffff16905081600b60006101000a81548173ffffffffffffffffffffffffffffffffffffffff021916908373ffffffffffffffffffffffffffffffffffffffff1602179055508173ffffffffffffffffffffffffffffffffffffffff168173ffffffffffffffffffffffffffffffffffffffff167f8be0079c531659141344cd1fd0a4f28419497f9722a3daafe3b4186f6b6457e060405160405180910390a35050565b600080fd5b600073ffffffffffffffffffffffffffffffffffffffff82169050919050565b6000620004a7826200047a565b9050919050565b6000620004bb826200049a565b9050919050565b620004cd81620004ae565b8114620004d957600080fd5b50565b600081519050620004ed81620004c2565b92915050565b600062000500826200049a565b9050919050565b6200051281620004f3565b81146200051e57600080fd5b50565b600081519050620005328162000507565b92915050565b6000819050919050565b6200054d8162000538565b81146200055957600080fd5b50565b6000815190506200056d8162000542565b92915050565b600080600080600060a0868803121562000592576200059162000475565b5b6000620005a288828901620004dc565b9550506020620005b588828901620004dc565b9450506040620005c88882890162000521565b9350506060620005db888289016200055c565b9250506080620005ee888289016200055c565b9150509295509295909350565b600081519050919050565b7f4e487b7100000000000000000000000000000000000000000000000000000000600052604160045260246000fd5b7f4e487b7100000000000000000000000000000000000000000000000000000000600052602260045260246000fd5b600060028204905060018216806200067d57607f821691505b60208210810362000693576200069262000635565b5b50919050565b60008190508160005260206000209050919050565b60006020601f8301049050919050565b600082821b905092915050565b600060088302620006fd7fffffffffffffffffffffffffffffffffffffffffffffffffffffffffffffffff82620006be565b620007098683620006be565b95508019841693508086168417925050509392505050565b6000819050919050565b60006200074c62000746620007408462000538565b62000721565b62000538565b9050919050565b6000819050919050565b62000768836200072b565b62000780620007778262000753565b848454620006cb565b825550505050565b600090565b6200079762000788565b620007a48184846200075d565b505050565b5b81811015620007cc57620007c06000826200078d565b600181019050620007aa565b5050565b601f8211156200081b57620007e58162000699565b620007f084620006ae565b8101602085101562000800578190505b620008186200080f85620006ae565b830182620007a9565b50505b505050565b600082821c905092915050565b6000620008406000198460080262000820565b1980831691505092915050565b60006200085b83836200082d565b9150826002028217905092915050565b6200087682620005fb565b67ffffffffffffffff81111562000892576200089162000606565b5b6200089e825462000664565b620008ab828285620007d0565b600060209050601f831160018114620008e35760008415620008ce578287015190505b620008da85826200084d565b8655506200094a565b601f198416620008f38662000699565b60005b828110156200091d57848901518255600182019150602085019450602081019050620008f6565b868310156200093d578489015162000939601f8916826200082d565b8355505b6001600288020188555050505b505050505050565b600082825260208201905092915050565b7f546f6b656e20616464726573732063616e27742062652061646472657373207a60008201527f65726f0000000000000000000000000000000000000000000000000000000000602082015250565b6000620009c160238362000952565b9150620009ce8262000963565b604082019050919050565b60006020820190508181036000830152620009f481620009b2565b9050919050565b7f41646472657373732063616e2774206265207a65726f00000000000000000000600082015250565b600062000a3360168362000952565b915062000a4082620009fb565b602082019050919050565b6000602082019050818103600083015262000a668162000a24565b9050919050565b7f616d6f756e742063616e6e6f74206265207a65726f0000000000000000000000600082015250565b600062000aa560158362000952565b915062000ab28262000a6d565b602082019050919050565b6000602082019050818103600083015262000ad88162000a96565b9050919050565b6142928062000aef6000396000f3fe608060405234801561001057600080fd5b50600436106101da5760003560e01c806370a0823111610104578063b2a77331116100a2578063d861584111610071578063d86158411461052f578063e985e9c51461054b578063f2fde38b1461057b578063f8e80d8614610597576101da565b8063b2a77331146104ab578063b88d4fde146104c7578063c87b56dd146104e3578063cc528abb14610513576101da565b80638da5cb5b116100de5780638da5cb5b1461043557806395d89b4114610453578063a22cb46514610471578063a90845711461048d576101da565b806370a08231146103df578063715018a61461040f5780637ed3f62914610419576101da565b806323b872dd1161017c5780634f6ccce71161014b5780634f6ccce7146103575780635d8c9ee61461038757806362892a8f146103a55780636352211e146103af576101da565b806323b872dd146102d35780632ddc0cda146102ef5780632f745c591461030b57806342842e0e1461033b576101da565b8063095ea7b3116101b8578063095ea7b31461025d5780630cd73ee414610279578063155804151461029757806318160ddd146102b5576101da565b806301ffc9a7146101df57806306fdde031461020f578063081812fc1461022d575b600080fd5b6101f960048036038101906101f49190612a30565b6105b5565b6040516102069190612a78565b60405180910390f35b6102176105c7565b6040516102249190612b23565b60405180910390f35b61024760048036038101906102429190612b7b565b610659565b6040516102549190612be9565b60405180910390f35b61027760048036038101906102729190612c30565b61069f565b005b6102816107b6565b60405161028e9190612c7f565b60405180910390f35b61029f6107bc565b6040516102ac9190612cf9565b60405180910390f35b6102bd6107e2565b6040516102ca9190612c7f565b60405180910390f35b6102ed60048036038101906102e89190612d14565b6107ef565b005b61030960048036038101906103049190612da5565b61084f565b005b61032560048036038101906103209190612c30565b61090a565b6040516103329190612c7f565b60405180910390f35b61035560048036038101906103509190612d14565b6109af565b005b610371600480360381019061036c9190612b7b565b6109cf565b60405161037e9190612c7f565b60405180910390f35b61038f610a40565b60405161039c9190612df3565b60405180910390f35b6103ad610a66565b005b6103c960048036038101906103c49190612b7b565b610c67565b6040516103d69190612be9565b60405180910390f35b6103f960048036038101906103f49190612e0e565b610ced565b6040516104069190612c7f565b60405180910390f35b610417610da4565b005b610433600480360381019061042e9190612b7b565b610db8565b005b61043d610e0d565b60405161044a9190612be9565b60405180910390f35b61045b610e37565b6040516104689190612b23565b60405180910390f35b61048b60048036038101906104869190612e67565b610ec9565b005b610495610edf565b6040516104a29190612df3565b60405180910390f35b6104c560048036038101906104c09190612ee5565b610f05565b005b6104e160048036038101906104dc9190613047565b610fc0565b005b6104fd60048036038101906104f89190612b7b565b611022565b60405161050a9190612b23565b60405180910390f35b61052d60048036038101906105289190612b7b565b611034565b005b61054960048036038101906105449190612ee5565b611089565b005b610565600480360381019061056091906130ca565b611144565b6040516105729190612a78565b60405180910390f35b61059560048036038101906105909190612e0e565b6111d8565b005b61059f61125b565b6040516105ac9190612c7f565b60405180910390f35b60006105c082611261565b9050919050565b6060600080546105d690613139565b80601f016020809104026020016040519081016040528092919081815260200182805461060290613139565b801561064f5780601f106106245761010080835404028352916020019161064f565b820191906000526020600020905b81548152906001019060200180831161063257829003601f168201915b5050505050905090565b6000610664826112c2565b6004600083815260200190815260200160002060009054906101000a900473ffffffffffffffffffffffffffffffffffffffff169050919050565b60006106aa82610c67565b90508073ffffffffffffffffffffffffffffffffffffffff168373ffffffffffffffffffffffffffffffffffffffff160361071a576040517f08c379a0000000000000000000000000000000000000000000000000000000008152600401610711906131dc565b60405180910390fd5b8073ffffffffffffffffffffffffffffffffffffffff1661073961130d565b73ffffffffffffffffffffffffffffffffffffffff16148061076857506107678161076261130d565b611144565b5b6107a7576040517f08c379a000000000000000000000000000000000000000000000000000000000815260040161079e9061326e565b60405180910390fd5b6107b18383611315565b505050565b60105481565b600e60009054906101000a900473ffffffffffffffffffffffffffffffffffffffff1681565b6000600880549050905090565b6108006107fa61130d565b826113ce565b61083f576040517f08c379a000000000000000000000000000000000000000000000000000000000815260040161083690613300565b60405180910390fd5b61084a838383611463565b505050565b61085761175c565b600073ffffffffffffffffffffffffffffffffffffffff168173ffffffffffffffffffffffffffffffffffffffff16036108c6576040517f08c379a00000000000000000000000000000000000000000000000000000000081526004016108bd9061336c565b60405180910390fd5b80600e60006101000a81548173ffffffffffffffffffffffffffffffffffffffff021916908373ffffffffffffffffffffffffffffffffffffffff16021790555050565b600061091583610ced565b8210610956576040517f08c379a000000000000000000000000000000000000000000000000000000000815260040161094d906133fe565b60405180910390fd5b600660008473ffffffffffffffffffffffffffffffffffffffff1673ffffffffffffffffffffffffffffffffffffffff168152602001908152602001600020600083815260200190815260200160002054905092915050565b6109ca83838360405180602001604052806000815250610fc0565b505050565b60006109d96107e2565b8210610a1a576040517f08c379a0000000000000000000000000000000000000000000000000000000008152600401610a1190613490565b60405180910390fd5b60088281548110610a2e57610a2d6134b0565b5b90600052602060002001549050919050565b600d60009054906101000a900473ffffffffffffffffffffffffffffffffffffffff1681565b600c60009054906101000a900473ffffffffffffffffffffffffffffffffffffffff1673ffffffffffffffffffffffffffffffffffffffff166323b872dd3330600f546040518463ffffffff1660e01b8152600401610ac7939291906134df565b6020604051808303816000875af1158015610ae6573d6000803e3d6000fd5b505050506040513d601f19601f82011682018060405250810190610b0a919061352b565b610b49576040517f08c379a0000000000000000000000000000000000000000000000000000000008152600401610b40906135ca565b60405180910390fd5b600d60009054906101000a900473ffffffffffffffffffffffffffffffffffffffff1673ffffffffffffffffffffffffffffffffffffffff166323b872dd33306010546040518463ffffffff1660e01b8152600401610baa939291906134df565b6020604051808303816000875af1158015610bc9573d6000803e3d6000fd5b505050506040513d601f19601f82011682018060405250810190610bed919061352b565b610c2c576040517f08c379a0000000000000000000000000000000000000000000000000000000008152600401610c239061365c565b60405180910390fd5b6000610c366107e2565b9050610c4233826117da565b610c648160405180608001604052806050815260200161420d605091396117f8565b50565b600080610c738361189c565b9050600073ffffffffffffffffffffffffffffffffffffffff168173ffffffffffffffffffffffffffffffffffffffff1603610ce4576040517f08c379a0000000000000000000000000000000000000000000000000000000008152600401610cdb906136c8565b60405180910390fd5b80915050919050565b60008073ffffffffffffffffffffffffffffffffffffffff168273ffffffffffffffffffffffffffffffffffffffff1603610d5d576040517f08c379a0000000000000000000000000000000000000000000000000000000008152600401610d549061375a565b60405180910390fd5b600360008373ffffffffffffffffffffffffffffffffffffffff1673ffffffffffffffffffffffffffffffffffffffff168152602001908152602001600020549050919050565b610dac61175c565b610db660006118d9565b565b610dc061175c565b60008111610e03576040517f08c379a0000000000000000000000000000000000000000000000000000000008152600401610dfa906137c6565b60405180910390fd5b80600f8190555050565b6000600b60009054906101000a900473ffffffffffffffffffffffffffffffffffffffff16905090565b606060018054610e4690613139565b80601f0160208091040260200160405190810160405280929190818152602001828054610e7290613139565b8015610ebf5780601f10610e9457610100808354040283529160200191610ebf565b820191906000526020600020905b815481529060010190602001808311610ea257829003601f168201915b5050505050905090565b610edb610ed461130d565b838361199f565b5050565b600c60009054906101000a900473ffffffffffffffffffffffffffffffffffffffff1681565b610f0d61175c565b600073ffffffffffffffffffffffffffffffffffffffff168173ffffffffffffffffffffffffffffffffffffffff1603610f7c576040517f08c379a0000000000000000000000000000000000000000000000000000000008152600401610f7390613858565b60405180910390fd5b80600d60006101000a81548173ffffffffffffffffffffffffffffffffffffffff021916908373ffffffffffffffffffffffffffffffffffffffff16021790555050565b610fd1610fcb61130d565b836113ce565b611010576040517f08c379a000000000000000000000000000000000000000000000000000000000815260040161100790613300565b60405180910390fd5b61101c84848484611b0b565b50505050565b606061102d82611b67565b9050919050565b61103c61175c565b6000811161107f576040517f08c379a0000000000000000000000000000000000000000000000000000000008152600401611076906137c6565b60405180910390fd5b8060108190555050565b61109161175c565b600073ffffffffffffffffffffffffffffffffffffffff168173ffffffffffffffffffffffffffffffffffffffff1603611100576040517f08c379a00000000000000000000000000000000000000000000000000000000081526004016110f790613858565b60405180910390fd5b80600c60006101000a81548173ffffffffffffffffffffffffffffffffffffffff021916908373ffffffffffffffffffffffffffffffffffffffff16021790555050565b6000600560008473ffffffffffffffffffffffffffffffffffffffff1673ffffffffffffffffffffffffffffffffffffffff16815260200190815260200160002060008373ffffffffffffffffffffffffffffffffffffffff1673ffffffffffffffffffffffffffffffffffffffff16815260200190815260200160002060009054906101000a900460ff16905092915050565b6111e061175c565b600073ffffffffffffffffffffffffffffffffffffffff168173ffffffffffffffffffffffffffffffffffffffff160361124f576040517f08c379a0000000000000000000000000000000000000000000000000000000008152600401611246906138ea565b60405180910390fd5b611258816118d9565b50565b600f5481565b6000634906490660e01b7bffffffffffffffffffffffffffffffffffffffffffffffffffffffff1916827bffffffffffffffffffffffffffffffffffffffffffffffffffffffff191614806112bb57506112ba82611c79565b5b9050919050565b6112cb81611cf3565b61130a576040517f08c379a0000000000000000000000000000000000000000000000000000000008152600401611301906136c8565b60405180910390fd5b50565b600033905090565b816004600083815260200190815260200160002060006101000a81548173ffffffffffffffffffffffffffffffffffffffff021916908373ffffffffffffffffffffffffffffffffffffffff160217905550808273ffffffffffffffffffffffffffffffffffffffff1661138883610c67565b73ffffffffffffffffffffffffffffffffffffffff167f8c5be1e5ebec7d5bd14f71427d1e84f3dd0314c0f7b2291e5b200ac8c7c3b92560405160405180910390a45050565b6000806113da83610c67565b90508073ffffffffffffffffffffffffffffffffffffffff168473ffffffffffffffffffffffffffffffffffffffff16148061141c575061141b8185611144565b5b8061145a57508373ffffffffffffffffffffffffffffffffffffffff1661144284610659565b73ffffffffffffffffffffffffffffffffffffffff16145b91505092915050565b8273ffffffffffffffffffffffffffffffffffffffff1661148382610c67565b73ffffffffffffffffffffffffffffffffffffffff16146114d9576040517f08c379a00000000000000000000000000000000000000000000000000000000081526004016114d09061397c565b60405180910390fd5b600073ffffffffffffffffffffffffffffffffffffffff168273ffffffffffffffffffffffffffffffffffffffff1603611548576040517f08c379a000000000000000000000000000000000000000000000000000000000815260040161153f90613a0e565b60405180910390fd5b6115558383836001611d34565b8273ffffffffffffffffffffffffffffffffffffffff1661157582610c67565b73ffffffffffffffffffffffffffffffffffffffff16146115cb576040517f08c379a00000000000000000000000000000000000000000000000000000000081526004016115c29061397c565b60405180910390fd5b6004600082815260200190815260200160002060006101000a81549073ffffffffffffffffffffffffffffffffffffffff02191690556001600360008573ffffffffffffffffffffffffffffffffffffffff1673ffffffffffffffffffffffffffffffffffffffff168152602001908152602001600020600082825403925050819055506001600360008473ffffffffffffffffffffffffffffffffffffffff1673ffffffffffffffffffffffffffffffffffffffff16815260200190815260200160002060008282540192505081905550816002600083815260200190815260200160002060006101000a81548173ffffffffffffffffffffffffffffffffffffffff021916908373ffffffffffffffffffffffffffffffffffffffff160217905550808273ffffffffffffffffffffffffffffffffffffffff168473ffffffffffffffffffffffffffffffffffffffff167fddf252ad1be2c89b69c2b068fc378daa952ba7f163c4a11628f55a4df523b3ef60405160405180910390a46117578383836001611d46565b505050565b61176461130d565b73ffffffffffffffffffffffffffffffffffffffff16611782610e0d565b73ffffffffffffffffffffffffffffffffffffffff16146117d8576040517f08c379a00000000000000000000000000000000000000000000000000000000081526004016117cf90613a7a565b60405180910390fd5b565b6117f4828260405180602001604052806000815250611d4c565b5050565b61180182611cf3565b611840576040517f08c379a000000000000000000000000000000000000000000000000000000000815260040161183790613b0c565b60405180910390fd5b80600a600084815260200190815260200160002090816118609190613cce565b507ff8e1a15aba9398e019f0b49df1a4fde98ee17ae345cb5f6b5e2c27f5033e8ce7826040516118909190612c7f565b60405180910390a15050565b60006002600083815260200190815260200160002060009054906101000a900473ffffffffffffffffffffffffffffffffffffffff169050919050565b6000600b60009054906101000a900473ffffffffffffffffffffffffffffffffffffffff16905081600b60006101000a81548173ffffffffffffffffffffffffffffffffffffffff021916908373ffffffffffffffffffffffffffffffffffffffff1602179055508173ffffffffffffffffffffffffffffffffffffffff168173ffffffffffffffffffffffffffffffffffffffff167f8be0079c531659141344cd1fd0a4f28419497f9722a3daafe3b4186f6b6457e060405160405180910390a35050565b8173ffffffffffffffffffffffffffffffffffffffff168373ffffffffffffffffffffffffffffffffffffffff1603611a0d576040517f08c379a0000000000000000000000000000000000000000000000000000000008152600401611a0490613dec565b60405180910390fd5b80600560008573ffffffffffffffffffffffffffffffffffffffff1673ffffffffffffffffffffffffffffffffffffffff16815260200190815260200160002060008473ffffffffffffffffffffffffffffffffffffffff1673ffffffffffffffffffffffffffffffffffffffff16815260200190815260200160002060006101000a81548160ff0219169083151502179055508173ffffffffffffffffffffffffffffffffffffffff168373ffffffffffffffffffffffffffffffffffffffff167f17307eab39ab6107e8899845ad3d59bd9653f200f220920489ca2b5937696c3183604051611afe9190612a78565b60405180910390a3505050565b611b16848484611463565b611b2284848484611da7565b611b61576040517f08c379a0000000000000000000000000000000000000000000000000000000008152600401611b5890613e7e565b60405180910390fd5b50505050565b6060611b72826112c2565b6000600a60008481526020019081526020016000208054611b9290613139565b80601f0160208091040260200160405190810160405280929190818152602001828054611bbe90613139565b8015611c0b5780601f10611be057610100808354040283529160200191611c0b565b820191906000526020600020905b815481529060010190602001808311611bee57829003601f168201915b505050505090506000611c1c611f2e565b90506000815103611c31578192505050611c74565b600082511115611c66578082604051602001611c4e929190613eda565b60405160208183030381529060405292505050611c74565b611c6f84611f45565b925050505b919050565b60007f780e9d63000000000000000000000000000000000000000000000000000000007bffffffffffffffffffffffffffffffffffffffffffffffffffffffff1916827bffffffffffffffffffffffffffffffffffffffffffffffffffffffff19161480611cec5750611ceb82611fad565b5b9050919050565b60008073ffffffffffffffffffffffffffffffffffffffff16611d158361189c565b73ffffffffffffffffffffffffffffffffffffffff1614159050919050565b611d408484848461208f565b50505050565b50505050565b611d5683836121ed565b611d636000848484611da7565b611da2576040517f08c379a0000000000000000000000000000000000000000000000000000000008152600401611d9990613e7e565b60405180910390fd5b505050565b6000611dc88473ffffffffffffffffffffffffffffffffffffffff1661240a565b15611f21578373ffffffffffffffffffffffffffffffffffffffff1663150b7a02611df161130d565b8786866040518563ffffffff1660e01b8152600401611e139493929190613f53565b6020604051808303816000875af1925050508015611e4f57506040513d601f19601f82011682018060405250810190611e4c9190613fb4565b60015b611ed1573d8060008114611e7f576040519150601f19603f3d011682016040523d82523d6000602084013e611e84565b606091505b506000815103611ec9576040517f08c379a0000000000000000000000000000000000000000000000000000000008152600401611ec090613e7e565b60405180910390fd5b805181602001fd5b63150b7a0260e01b7bffffffffffffffffffffffffffffffffffffffffffffffffffffffff1916817bffffffffffffffffffffffffffffffffffffffffffffffffffffffff191614915050611f26565b600190505b949350505050565b606060405180602001604052806000815250905090565b6060611f50826112c2565b6000611f5a611f2e565b90506000815111611f7a5760405180602001604052806000815250611fa5565b80611f848461242d565b604051602001611f95929190613eda565b6040516020818303038152906040525b915050919050565b60007f80ac58cd000000000000000000000000000000000000000000000000000000007bffffffffffffffffffffffffffffffffffffffffffffffffffffffff1916827bffffffffffffffffffffffffffffffffffffffffffffffffffffffff1916148061207857507f5b5e139f000000000000000000000000000000000000000000000000000000007bffffffffffffffffffffffffffffffffffffffffffffffffffffffff1916827bffffffffffffffffffffffffffffffffffffffffffffffffffffffff1916145b806120885750612087826124fb565b5b9050919050565b61209b84848484612565565b60018111156120df576040517f08c379a00000000000000000000000000000000000000000000000000000000081526004016120d690614053565b60405180910390fd5b6000829050600073ffffffffffffffffffffffffffffffffffffffff168573ffffffffffffffffffffffffffffffffffffffff1603612126576121218161256b565b612165565b8373ffffffffffffffffffffffffffffffffffffffff168573ffffffffffffffffffffffffffffffffffffffff16146121645761216385826125b4565b5b5b600073ffffffffffffffffffffffffffffffffffffffff168473ffffffffffffffffffffffffffffffffffffffff16036121a7576121a281612721565b6121e6565b8473ffffffffffffffffffffffffffffffffffffffff168473ffffffffffffffffffffffffffffffffffffffff16146121e5576121e484826127f2565b5b5b5050505050565b600073ffffffffffffffffffffffffffffffffffffffff168273ffffffffffffffffffffffffffffffffffffffff160361225c576040517f08c379a0000000000000000000000000000000000000000000000000000000008152600401612253906140bf565b60405180910390fd5b61226581611cf3565b156122a5576040517f08c379a000000000000000000000000000000000000000000000000000000000815260040161229c9061412b565b60405180910390fd5b6122b3600083836001611d34565b6122bc81611cf3565b156122fc576040517f08c379a00000000000000000000000000000000000000000000000000000000081526004016122f39061412b565b60405180910390fd5b6001600360008473ffffffffffffffffffffffffffffffffffffffff1673ffffffffffffffffffffffffffffffffffffffff16815260200190815260200160002060008282540192505081905550816002600083815260200190815260200160002060006101000a81548173ffffffffffffffffffffffffffffffffffffffff021916908373ffffffffffffffffffffffffffffffffffffffff160217905550808273ffffffffffffffffffffffffffffffffffffffff16600073ffffffffffffffffffffffffffffffffffffffff167fddf252ad1be2c89b69c2b068fc378daa952ba7f163c4a11628f55a4df523b3ef60405160405180910390a4612406600083836001611d46565b5050565b6000808273ffffffffffffffffffffffffffffffffffffffff163b119050919050565b60606000600161243c84612871565b01905060008167ffffffffffffffff81111561245b5761245a612f1c565b5b6040519080825280601f01601f19166020018201604052801561248d5781602001600182028036833780820191505090505b509050600082602001820190505b6001156124f0578080600190039150507f3031323334353637383961626364656600000000000000000000000000000000600a86061a8153600a85816124e4576124e361414b565b5b0494506000850361249b575b819350505050919050565b60007f01ffc9a7000000000000000000000000000000000000000000000000000000007bffffffffffffffffffffffffffffffffffffffffffffffffffffffff1916827bffffffffffffffffffffffffffffffffffffffffffffffffffffffff1916149050919050565b50505050565b6008805490506009600083815260200190815260200160002081905550600881908060018154018082558091505060019003906000526020600020016000909190919091505550565b600060016125c184610ced565b6125cb91906141a9565b90506000600760008481526020019081526020016000205490508181146126b0576000600660008673ffffffffffffffffffffffffffffffffffffffff1673ffffffffffffffffffffffffffffffffffffffff168152602001908152602001600020600084815260200190815260200160002054905080600660008773ffffffffffffffffffffffffffffffffffffffff1673ffffffffffffffffffffffffffffffffffffffff168152602001908152602001600020600084815260200190815260200160002081905550816007600083815260200190815260200160002081905550505b6007600084815260200190815260200160002060009055600660008573ffffffffffffffffffffffffffffffffffffffff1673ffffffffffffffffffffffffffffffffffffffff16815260200190815260200160002060008381526020019081526020016000206000905550505050565b6000600160088054905061273591906141a9565b9050600060096000848152602001908152602001600020549050600060088381548110612765576127646134b0565b5b906000526020600020015490508060088381548110612787576127866134b0565b5b9060005260206000200181905550816009600083815260200190815260200160002081905550600960008581526020019081526020016000206000905560088054806127d6576127d56141dd565b5b6001900381819060005260206000200160009055905550505050565b60006127fd83610ced565b905081600660008573ffffffffffffffffffffffffffffffffffffffff1673ffffffffffffffffffffffffffffffffffffffff168152602001908152602001600020600083815260200190815260200160002081905550806007600084815260200190815260200160002081905550505050565b600080600090507a184f03e93ff9f4daa797ed6e38ed64bf6a1f01000000000000000083106128cf577a184f03e93ff9f4daa797ed6e38ed64bf6a1f01000000000000000083816128c5576128c461414b565b5b0492506040810190505b6d04ee2d6d415b85acef8100000000831061290c576d04ee2d6d415b85acef810000000083816129025761290161414b565b5b0492506020810190505b662386f26fc10000831061293b57662386f26fc1000083816129315761293061414b565b5b0492506010810190505b6305f5e1008310612964576305f5e100838161295a5761295961414b565b5b0492506008810190505b612710831061298957612710838161297f5761297e61414b565b5b0492506004810190505b606483106129ac57606483816129a2576129a161414b565b5b0492506002810190505b600a83106129bb576001810190505b80915050919050565b6000604051905090565b600080fd5b600080fd5b60007fffffffff0000000000000000000000000000000000000000000000000000000082169050919050565b612a0d816129d8565b8114612a1857600080fd5b50565b600081359050612a2a81612a04565b92915050565b600060208284031215612a4657612a456129ce565b5b6000612a5484828501612a1b565b91505092915050565b60008115159050919050565b612a7281612a5d565b82525050565b6000602082019050612a8d6000830184612a69565b92915050565b600081519050919050565b600082825260208201905092915050565b60005b83811015612acd578082015181840152602081019050612ab2565b60008484015250505050565b6000601f19601f8301169050919050565b6000612af582612a93565b612aff8185612a9e565b9350612b0f818560208601612aaf565b612b1881612ad9565b840191505092915050565b60006020820190508181036000830152612b3d8184612aea565b905092915050565b6000819050919050565b612b5881612b45565b8114612b6357600080fd5b50565b600081359050612b7581612b4f565b92915050565b600060208284031215612b9157612b906129ce565b5b6000612b9f84828501612b66565b91505092915050565b600073ffffffffffffffffffffffffffffffffffffffff82169050919050565b6000612bd382612ba8565b9050919050565b612be381612bc8565b82525050565b6000602082019050612bfe6000830184612bda565b92915050565b612c0d81612bc8565b8114612c1857600080fd5b50565b600081359050612c2a81612c04565b92915050565b60008060408385031215612c4757612c466129ce565b5b6000612c5585828601612c1b565b9250506020612c6685828601612b66565b9150509250929050565b612c7981612b45565b82525050565b6000602082019050612c946000830184612c70565b92915050565b6000819050919050565b6000612cbf612cba612cb584612ba8565b612c9a565b612ba8565b9050919050565b6000612cd182612ca4565b9050919050565b6000612ce382612cc6565b9050919050565b612cf381612cd8565b82525050565b6000602082019050612d0e6000830184612cea565b92915050565b600080600060608486031215612d2d57612d2c6129ce565b5b6000612d3b86828701612c1b565b9350506020612d4c86828701612c1b565b9250506040612d5d86828701612b66565b9150509250925092565b6000612d7282612bc8565b9050919050565b612d8281612d67565b8114612d8d57600080fd5b50565b600081359050612d9f81612d79565b92915050565b600060208284031215612dbb57612dba6129ce565b5b6000612dc984828501612d90565b91505092915050565b6000612ddd82612cc6565b9050919050565b612ded81612dd2565b82525050565b6000602082019050612e086000830184612de4565b92915050565b600060208284031215612e2457612e236129ce565b5b6000612e3284828501612c1b565b91505092915050565b612e4481612a5d565b8114612e4f57600080fd5b50565b600081359050612e6181612e3b565b92915050565b60008060408385031215612e7e57612e7d6129ce565b5b6000612e8c85828601612c1b565b9250506020612e9d85828601612e52565b9150509250929050565b6000612eb282612bc8565b9050919050565b612ec281612ea7565b8114612ecd57600080fd5b50565b600081359050612edf81612eb9565b92915050565b600060208284031215612efb57612efa6129ce565b5b6000612f0984828501612ed0565b91505092915050565b600080fd5b600080fd5b7f4e487b7100000000000000000000000000000000000000000000000000000000600052604160045260246000fd5b612f5482612ad9565b810181811067ffffffffffffffff82111715612f7357612f72612f1c565b5b80604052505050565b6000612f866129c4565b9050612f928282612f4b565b919050565b600067ffffffffffffffff821115612fb257612fb1612f1c565b5b612fbb82612ad9565b9050602081019050919050565b82818337600083830152505050565b6000612fea612fe584612f97565b612f7c565b90508281526020810184848401111561300657613005612f17565b5b613011848285612fc8565b509392505050565b600082601f83011261302e5761302d612f12565b5b813561303e848260208601612fd7565b91505092915050565b60008060008060808587031215613061576130606129ce565b5b600061306f87828801612c1b565b945050602061308087828801612c1b565b935050604061309187828801612b66565b925050606085013567ffffffffffffffff8111156130b2576130b16129d3565b5b6130be87828801613019565b91505092959194509250565b600080604083850312156130e1576130e06129ce565b5b60006130ef85828601612c1b565b925050602061310085828601612c1b565b9150509250929050565b7f4e487b7100000000000000000000000000000000000000000000000000000000600052602260045260246000fd5b6000600282049050600182168061315157607f821691505b6020821081036131645761316361310a565b5b50919050565b7f4552433732313a20617070726f76616c20746f2063757272656e74206f776e6560008201527f7200000000000000000000000000000000000000000000000000000000000000602082015250565b60006131c6602183612a9e565b91506131d18261316a565b604082019050919050565b600060208201905081810360008301526131f5816131b9565b9050919050565b7f4552433732313a20617070726f76652063616c6c6572206973206e6f7420746f60008201527f6b656e206f776e6572206f7220617070726f76656420666f7220616c6c000000602082015250565b6000613258603d83612a9e565b9150613263826131fc565b604082019050919050565b600060208201905081810360008301526132878161324b565b9050919050565b7f4552433732313a2063616c6c6572206973206e6f7420746f6b656e206f776e6560008201527f72206f7220617070726f76656400000000000000000000000000000000000000602082015250565b60006132ea602d83612a9e565b91506132f58261328e565b604082019050919050565b60006020820190508181036000830152613319816132dd565b9050919050565b7f416464726573732063616e2774206265207a65726f0000000000000000000000600082015250565b6000613356601583612a9e565b915061336182613320565b602082019050919050565b6000602082019050818103600083015261338581613349565b9050919050565b7f455243373231456e756d657261626c653a206f776e657220696e646578206f7560008201527f74206f6620626f756e6473000000000000000000000000000000000000000000602082015250565b60006133e8602b83612a9e565b91506133f38261338c565b604082019050919050565b60006020820190508181036000830152613417816133db565b9050919050565b7f455243373231456e756d657261626c653a20676c6f62616c20696e646578206f60008201527f7574206f6620626f756e64730000000000000000000000000000000000000000602082015250565b600061347a602c83612a9e565b91506134858261341e565b604082019050919050565b600060208201905081810360008301526134a98161346d565b9050919050565b7f4e487b7100000000000000000000000000000000000000000000000000000000600052603260045260246000fd5b60006060820190506134f46000830186612bda565b6135016020830185612bda565b61350e6040830184612c70565b949350505050565b60008151905061352581612e3b565b92915050565b600060208284031215613541576135406129ce565b5b600061354f84828501613516565b91505092915050565b7f4661696c656420746f2070726f63657373207061796d656e7420666f7220637560008201527f7272656e63792031210000000000000000000000000000000000000000000000602082015250565b60006135b4602983612a9e565b91506135bf82613558565b604082019050919050565b600060208201905081810360008301526135e3816135a7565b9050919050565b7f4661696c656420746f2070726f63657373207061796d656e7420666f7220637560008201527f7272656e63792032210000000000000000000000000000000000000000000000602082015250565b6000613646602983612a9e565b9150613651826135ea565b604082019050919050565b6000602082019050818103600083015261367581613639565b9050919050565b7f4552433732313a20696e76616c696420746f6b656e2049440000000000000000600082015250565b60006136b2601883612a9e565b91506136bd8261367c565b602082019050919050565b600060208201905081810360008301526136e1816136a5565b9050919050565b7f4552433732313a2061646472657373207a65726f206973206e6f74206120766160008201527f6c6964206f776e65720000000000000000000000000000000000000000000000602082015250565b6000613744602983612a9e565b915061374f826136e8565b604082019050919050565b6000602082019050818103600083015261377381613737565b9050919050565b7f416d6f756e742063616e6e6f74206265207a65726f0000000000000000000000600082015250565b60006137b0601583612a9e565b91506137bb8261377a565b602082019050919050565b600060208201905081810360008301526137df816137a3565b9050919050565b7f546f6b656e20616464726573732063616e27742062652061646472657373207a60008201527f65726f0000000000000000000000000000000000000000000000000000000000602082015250565b6000613842602383612a9e565b915061384d826137e6565b604082019050919050565b6000602082019050818103600083015261387181613835565b9050919050565b7f4f776e61626c653a206e6577206f776e657220697320746865207a65726f206160008201527f6464726573730000000000000000000000000000000000000000000000000000602082015250565b60006138d4602683612a9e565b91506138df82613878565b604082019050919050565b60006020820190508181036000830152613903816138c7565b9050919050565b7f4552433732313a207472616e736665722066726f6d20696e636f72726563742060008201527f6f776e6572000000000000000000000000000000000000000000000000000000602082015250565b6000613966602583612a9e565b91506139718261390a565b604082019050919050565b6000602082019050818103600083015261399581613959565b9050919050565b7f4552433732313a207472616e7366657220746f20746865207a65726f2061646460008201527f7265737300000000000000000000000000000000000000000000000000000000602082015250565b60006139f8602483612a9e565b9150613a038261399c565b604082019050919050565b60006020820190508181036000830152613a27816139eb565b9050919050565b7f4f776e61626c653a2063616c6c6572206973206e6f7420746865206f776e6572600082015250565b6000613a64602083612a9e565b9150613a6f82613a2e565b602082019050919050565b60006020820190508181036000830152613a9381613a57565b9050919050565b7f45524337323155524953746f726167653a2055524920736574206f66206e6f6e60008201527f6578697374656e7420746f6b656e000000000000000000000000000000000000602082015250565b6000613af6602e83612a9e565b9150613b0182613a9a565b604082019050919050565b60006020820190508181036000830152613b2581613ae9565b9050919050565b60008190508160005260206000209050919050565b60006020601f8301049050919050565b600082821b905092915050565b600060088302613b8e7fffffffffffffffffffffffffffffffffffffffffffffffffffffffffffffffff82613b51565b613b988683613b51565b95508019841693508086168417925050509392505050565b6000613bcb613bc6613bc184612b45565b612c9a565b612b45565b9050919050565b6000819050919050565b613be583613bb0565b613bf9613bf182613bd2565b848454613b5e565b825550505050565b600090565b613c0e613c01565b613c19818484613bdc565b505050565b5b81811015613c3d57613c32600082613c06565b600181019050613c1f565b5050565b601f821115613c8257613c5381613b2c565b613c5c84613b41565b81016020851015613c6b578190505b613c7f613c7785613b41565b830182613c1e565b50505b505050565b600082821c905092915050565b6000613ca560001984600802613c87565b1980831691505092915050565b6000613cbe8383613c94565b9150826002028217905092915050565b613cd782612a93565b67ffffffffffffffff811115613cf057613cef612f1c565b5b613cfa8254613139565b613d05828285613c41565b600060209050601f831160018114613d385760008415613d26578287015190505b613d308582613cb2565b865550613d98565b601f198416613d4686613b2c565b60005b82811015613d6e57848901518255600182019150602085019450602081019050613d49565b86831015613d8b5784890151613d87601f891682613c94565b8355505b6001600288020188555050505b505050505050565b7f4552433732313a20617070726f766520746f2063616c6c657200000000000000600082015250565b6000613dd6601983612a9e565b9150613de182613da0565b602082019050919050565b60006020820190508181036000830152613e0581613dc9565b9050919050565b7f4552433732313a207472616e7366657220746f206e6f6e20455243373231526560008201527f63656976657220696d706c656d656e7465720000000000000000000000000000602082015250565b6000613e68603283612a9e565b9150613e7382613e0c565b604082019050919050565b60006020820190508181036000830152613e9781613e5b565b9050919050565b600081905092915050565b6000613eb482612a93565b613ebe8185613e9e565b9350613ece818560208601612aaf565b80840191505092915050565b6000613ee68285613ea9565b9150613ef28284613ea9565b91508190509392505050565b600081519050919050565b600082825260208201905092915050565b6000613f2582613efe565b613f2f8185613f09565b9350613f3f818560208601612aaf565b613f4881612ad9565b840191505092915050565b6000608082019050613f686000830187612bda565b613f756020830186612bda565b613f826040830185612c70565b8181036060830152613f948184613f1a565b905095945050505050565b600081519050613fae81612a04565b92915050565b600060208284031215613fca57613fc96129ce565b5b6000613fd884828501613f9f565b91505092915050565b7f455243373231456e756d657261626c653a20636f6e736563757469766520747260008201527f616e7366657273206e6f7420737570706f727465640000000000000000000000602082015250565b600061403d603583612a9e565b915061404882613fe1565b604082019050919050565b6000602082019050818103600083015261406c81614030565b9050919050565b7f4552433732313a206d696e7420746f20746865207a65726f2061646472657373600082015250565b60006140a9602083612a9e565b91506140b482614073565b602082019050919050565b600060208201905081810360008301526140d88161409c565b9050919050565b7f4552433732313a20746f6b656e20616c7265616479206d696e74656400000000600082015250565b6000614115601c83612a9e565b9150614120826140df565b602082019050919050565b6000602082019050818103600083015261414481614108565b9050919050565b7f4e487b7100000000000000000000000000000000000000000000000000000000600052601260045260246000fd5b7f4e487b7100000000000000000000000000000000000000000000000000000000600052601160045260246000fd5b60006141b482612b45565b91506141bf83612b45565b92508282039050818111156141d7576141d661417a565b5b92915050565b7f4e487b7100000000000000000000000000000000000000000000000000000000600052603160045260246000fdfe68747470733a2f2f676174657761792e70696e6174612e636c6f75642f697066732f516d596e354739697353457a64726d70774b6d346b42366b4b624e345733516d4c59465772667557667868676b31a2646970667358221220a3ff328bd7b3c8e8ae8d697af40c70cf926be29555c29cdb026c48964172f4e764736f6c63430008100033",
  "immutableReferences": {},
  "source": "// SPDX-License-Identifier: MIT\r\npragma solidity ^0.8.7;\r\n\r\nimport \"@openzeppelin/contracts/token/ERC20/ERC20.sol\";\r\nimport \"@openzeppelin/contracts/token/ERC721/ERC721.sol\";\r\nimport \"@openzeppelin/contracts/token/ERC721/extensions/ERC721Enumerable.sol\";\r\nimport \"@openzeppelin/contracts/token/ERC721/extensions/ERC721URIStorage.sol\";\r\nimport \"@openzeppelin/contracts/access/Ownable.sol\";\r\n\r\ncontract NetNFT is ERC721, ERC721Enumerable, ERC721URIStorage, Ownable {\r\n    ERC20 public paymentCurrency1;\r\n    ERC20 public paymentCurrency2;\r\n    ERC721 public requiredNFT;\r\n\r\n    uint256 public requiredAmount1;\r\n    uint256 public requiredAmount2;\r\n\r\n    constructor(\r\n        ERC20 _paymentCurrency1,\r\n        ERC20 _paymentCurrency2,\r\n        ERC721 _requiredNFT,\r\n        uint256 _requiredAmount1,\r\n        uint256 _requiredAmount2\r\n    ) ERC721(\"NetNFT\", \"Net\") {\r\n        require(\r\n            address(_paymentCurrency1) != address(0),\r\n            \"Token address can't be address zero\"\r\n        );\r\n        require(\r\n            address(_paymentCurrency2) != address(0),\r\n            \"Token address can't be address zero\"\r\n        );\r\n        require(address(_requiredNFT) != address(0), \"Addresss can't be zero\");\r\n        require(_requiredAmount1 > 0, \"amount cannot be zero\");\r\n        require(_requiredAmount2 > 0, \"amount cannot be zero\");\r\n        paymentCurrency1 = _paymentCurrency1;\r\n        paymentCurrency2 = _paymentCurrency2;\r\n        requiredNFT = _requiredNFT;\r\n        requiredAmount1 = _requiredAmount1;\r\n        requiredAmount2 = _requiredAmount2;\r\n    }\r\n\r\n    //Setter Functions\r\n\r\n    function setPaymentCurrency1(ERC20 _paymentCurrency) public onlyOwner {\r\n        require(\r\n            address(_paymentCurrency) != address(0),\r\n            \"Token address can't be address zero\"\r\n        );\r\n        paymentCurrency1 = _paymentCurrency;\r\n    }\r\n\r\n    function setPaymentCurrency2(ERC20 _paymentCurrency) public onlyOwner {\r\n        require(\r\n            address(_paymentCurrency) != address(0),\r\n            \"Token address can't be address zero\"\r\n        );\r\n        paymentCurrency2 = _paymentCurrency;\r\n    }\r\n\r\n    function setRequiredNFT(ERC721 _requiredNFT) public onlyOwner {\r\n        require(address(_requiredNFT) != address(0), \"Address can't be zero\");\r\n        requiredNFT = _requiredNFT;\r\n    }\r\n\r\n    function setRequiredAmount1(uint256 _requiredAmount) public onlyOwner {\r\n        require(_requiredAmount > 0, \"Amount cannot be zero\");\r\n        requiredAmount1 = _requiredAmount;\r\n    }\r\n\r\n    function setRequiredAmount2(uint256 _requiredAmount) public onlyOwner {\r\n        require(_requiredAmount > 0, \"Amount cannot be zero\");\r\n        requiredAmount2 = _requiredAmount;\r\n    }\r\n\r\n    // buy function\r\n\r\n    function buyNet() public {\r\n        require(\r\n            paymentCurrency1.transferFrom(\r\n                msg.sender,\r\n                address(this),\r\n                requiredAmount1\r\n            ),\r\n            \"Failed to process payment for currency 1!\"\r\n        );\r\n        require(\r\n            paymentCurrency2.transferFrom(\r\n                msg.sender,\r\n                address(this),\r\n                requiredAmount2\r\n            ),\r\n            \"Failed to process payment for currency 2!\"\r\n        );\r\n        uint256 tokenId = totalSupply(); // Use totalSupply() to get the next token ID\r\n        _safeMint(msg.sender, tokenId);\r\n        _setTokenURI(\r\n            tokenId,\r\n            \"https://gateway.pinata.cloud/ipfs/QmYn5G9isSEzdrmpwKm4kB6kKbN4W3QmLYFWrfuWfxhgk1\"\r\n        );\r\n    }\r\n\r\n    // The following functions are overrides required by Solidity.\r\n\r\n    function _beforeTokenTransfer(\r\n        address from,\r\n        address to,\r\n        uint256 tokenId,\r\n        uint256 batchSize\r\n    ) internal override(ERC721, ERC721Enumerable) {\r\n        super._beforeTokenTransfer(from, to, tokenId, batchSize);\r\n    }\r\n\r\n    function _burn(\r\n        uint256 tokenId\r\n    ) internal override(ERC721, ERC721URIStorage) {\r\n        super._burn(tokenId);\r\n    }\r\n\r\n    function tokenURI(\r\n        uint256 tokenId\r\n    ) public view override(ERC721, ERC721URIStorage) returns (string memory) {\r\n        return super.tokenURI(tokenId);\r\n    }\r\n\r\n    function supportsInterface(\r\n        bytes4 interfaceId\r\n    )\r\n        public\r\n        view\r\n        override(ERC721, ERC721Enumerable, ERC721URIStorage)\r\n        returns (bool)\r\n    {\r\n        return super.supportsInterface(interfaceId);\r\n    }\r\n}\r\n",
  "sourcePath": "C:\\Users\\sumer\\OneDrive\\Desktop\\Workbench\\NFTDeployment\\contracts\\NetNFT.sol",
  "compiler": {
    "name": "solc",
    "version": "0.8.16+commit.07a7930e.Emscripten.clang"
  },
  "schemaVersion": "3.4.15",
  "updatedAt": "2023-08-14T13:13:57.264Z",
  "networkType": "ethereum",
  "devdoc": {
    "kind": "dev",
    "methods": {
      "approve(address,uint256)": {
        "details": "See {IERC721-approve}."
      },
      "balanceOf(address)": {
        "details": "See {IERC721-balanceOf}."
      },
      "getApproved(uint256)": {
        "details": "See {IERC721-getApproved}."
      },
      "isApprovedForAll(address,address)": {
        "details": "See {IERC721-isApprovedForAll}."
      },
      "name()": {
        "details": "See {IERC721Metadata-name}."
      },
      "owner()": {
        "details": "Returns the address of the current owner."
      },
      "ownerOf(uint256)": {
        "details": "See {IERC721-ownerOf}."
      },
      "renounceOwnership()": {
        "details": "Leaves the contract without owner. It will not be possible to call `onlyOwner` functions. Can only be called by the current owner. NOTE: Renouncing ownership will leave the contract without an owner, thereby disabling any functionality that is only available to the owner."
      },
      "safeTransferFrom(address,address,uint256)": {
        "details": "See {IERC721-safeTransferFrom}."
      },
      "safeTransferFrom(address,address,uint256,bytes)": {
        "details": "See {IERC721-safeTransferFrom}."
      },
      "setApprovalForAll(address,bool)": {
        "details": "See {IERC721-setApprovalForAll}."
      },
      "symbol()": {
        "details": "See {IERC721Metadata-symbol}."
      },
      "tokenByIndex(uint256)": {
        "details": "See {IERC721Enumerable-tokenByIndex}."
      },
      "tokenOfOwnerByIndex(address,uint256)": {
        "details": "See {IERC721Enumerable-tokenOfOwnerByIndex}."
      },
      "totalSupply()": {
        "details": "See {IERC721Enumerable-totalSupply}."
      },
      "transferFrom(address,address,uint256)": {
        "details": "See {IERC721-transferFrom}."
      },
      "transferOwnership(address)": {
        "details": "Transfers ownership of the contract to a new account (`newOwner`). Can only be called by the current owner."
      }
    },
    "version": 1
  },
  "userdoc": {
    "kind": "user",
    "methods": {},
    "version": 1
  }
}