{
  "contractName": "RowBoatNFT",
  "abi": [
    {
      "inputs": [
        {
          "internalType": "contract ERC20",
          "name": "_paymentCurrency",
          "type": "address"
        },
        {
          "internalType": "contract ERC721",
          "name": "_requiredNFT1",
          "type": "address"
        },
        {
          "internalType": "contract ERC721",
          "name": "_requiredNFT2",
          "type": "address"
        },
        {
          "internalType": "contract ERC721",
          "name": "_requiredNFT3",
          "type": "address"
        },
        {
          "internalType": "uint256",
          "name": "_requiredAmount",
          "type": "uint256"
        }
      ],
      "stateMutability": "nonpayable",
      "type": "constructor"
    },
    {
      "anonymous": false,
      "inputs": [
        {
          "indexed": true,
          "internalType": "address",
          "name": "owner",
          "type": "address"
        },
        {
          "indexed": true,
          "internalType": "address",
          "name": "approved",
          "type": "address"
        },
        {
          "indexed": true,
          "internalType": "uint256",
          "name": "tokenId",
          "type": "uint256"
        }
      ],
      "name": "Approval",
      "type": "event"
    },
    {
      "anonymous": false,
      "inputs": [
        {
          "indexed": true,
          "internalType": "address",
          "name": "owner",
          "type": "address"
        },
        {
          "indexed": true,
          "internalType": "address",
          "name": "operator",
          "type": "address"
        },
        {
          "indexed": false,
          "internalType": "bool",
          "name": "approved",
          "type": "bool"
        }
      ],
      "name": "ApprovalForAll",
      "type": "event"
    },
    {
      "anonymous": false,
      "inputs": [
        {
          "indexed": false,
          "internalType": "uint256",
          "name": "_fromTokenId",
          "type": "uint256"
        },
        {
          "indexed": false,
          "internalType": "uint256",
          "name": "_toTokenId",
          "type": "uint256"
        }
      ],
      "name": "BatchMetadataUpdate",
      "type": "event"
    },
    {
      "anonymous": false,
      "inputs": [
        {
          "indexed": false,
          "internalType": "uint256",
          "name": "_tokenId",
          "type": "uint256"
        }
      ],
      "name": "MetadataUpdate",
      "type": "event"
    },
    {
      "anonymous": false,
      "inputs": [
        {
          "indexed": true,
          "internalType": "address",
          "name": "previousOwner",
          "type": "address"
        },
        {
          "indexed": true,
          "internalType": "address",
          "name": "newOwner",
          "type": "address"
        }
      ],
      "name": "OwnershipTransferred",
      "type": "event"
    },
    {
      "anonymous": false,
      "inputs": [
        {
          "indexed": true,
          "internalType": "address",
          "name": "from",
          "type": "address"
        },
        {
          "indexed": true,
          "internalType": "address",
          "name": "to",
          "type": "address"
        },
        {
          "indexed": true,
          "internalType": "uint256",
          "name": "tokenId",
          "type": "uint256"
        }
      ],
      "name": "Transfer",
      "type": "event"
    },
    {
      "inputs": [
        {
          "internalType": "address",
          "name": "to",
          "type": "address"
        },
        {
          "internalType": "uint256",
          "name": "tokenId",
          "type": "uint256"
        }
      ],
      "name": "approve",
      "outputs": [],
      "stateMutability": "nonpayable",
      "type": "function"
    },
    {
      "inputs": [
        {
          "internalType": "address",
          "name": "owner",
          "type": "address"
        }
      ],
      "name": "balanceOf",
      "outputs": [
        {
          "internalType": "uint256",
          "name": "",
          "type": "uint256"
        }
      ],
      "stateMutability": "view",
      "type": "function",
      "constant": true
    },
    {
      "inputs": [
        {
          "internalType": "uint256",
          "name": "tokenId",
          "type": "uint256"
        }
      ],
      "name": "getApproved",
      "outputs": [
        {
          "internalType": "address",
          "name": "",
          "type": "address"
        }
      ],
      "stateMutability": "view",
      "type": "function",
      "constant": true
    },
    {
      "inputs": [
        {
          "internalType": "address",
          "name": "owner",
          "type": "address"
        },
        {
          "internalType": "address",
          "name": "operator",
          "type": "address"
        }
      ],
      "name": "isApprovedForAll",
      "outputs": [
        {
          "internalType": "bool",
          "name": "",
          "type": "bool"
        }
      ],
      "stateMutability": "view",
      "type": "function",
      "constant": true
    },
    {
      "inputs": [],
      "name": "name",
      "outputs": [
        {
          "internalType": "string",
          "name": "",
          "type": "string"
        }
      ],
      "stateMutability": "view",
      "type": "function",
      "constant": true
    },
    {
      "inputs": [],
      "name": "owner",
      "outputs": [
        {
          "internalType": "address",
          "name": "",
          "type": "address"
        }
      ],
      "stateMutability": "view",
      "type": "function",
      "constant": true
    },
    {
      "inputs": [
        {
          "internalType": "uint256",
          "name": "tokenId",
          "type": "uint256"
        }
      ],
      "name": "ownerOf",
      "outputs": [
        {
          "internalType": "address",
          "name": "",
          "type": "address"
        }
      ],
      "stateMutability": "view",
      "type": "function",
      "constant": true
    },
    {
      "inputs": [],
      "name": "paymentCurrency",
      "outputs": [
        {
          "internalType": "contract ERC20",
          "name": "",
          "type": "address"
        }
      ],
      "stateMutability": "view",
      "type": "function",
      "constant": true
    },
    {
      "inputs": [],
      "name": "renounceOwnership",
      "outputs": [],
      "stateMutability": "nonpayable",
      "type": "function"
    },
    {
      "inputs": [],
      "name": "requiredAmount",
      "outputs": [
        {
          "internalType": "uint256",
          "name": "",
          "type": "uint256"
        }
      ],
      "stateMutability": "view",
      "type": "function",
      "constant": true
    },
    {
      "inputs": [],
      "name": "requiredNFT1",
      "outputs": [
        {
          "internalType": "contract ERC721",
          "name": "",
          "type": "address"
        }
      ],
      "stateMutability": "view",
      "type": "function",
      "constant": true
    },
    {
      "inputs": [],
      "name": "requiredNFT2",
      "outputs": [
        {
          "internalType": "contract ERC721",
          "name": "",
          "type": "address"
        }
      ],
      "stateMutability": "view",
      "type": "function",
      "constant": true
    },
    {
      "inputs": [],
      "name": "requiredNFT3",
      "outputs": [
        {
          "internalType": "contract ERC721",
          "name": "",
          "type": "address"
        }
      ],
      "stateMutability": "view",
      "type": "function",
      "constant": true
    },
    {
      "inputs": [
        {
          "internalType": "address",
          "name": "from",
          "type": "address"
        },
        {
          "internalType": "address",
          "name": "to",
          "type": "address"
        },
        {
          "internalType": "uint256",
          "name": "tokenId",
          "type": "uint256"
        }
      ],
      "name": "safeTransferFrom",
      "outputs": [],
      "stateMutability": "nonpayable",
      "type": "function"
    },
    {
      "inputs": [
        {
          "internalType": "address",
          "name": "from",
          "type": "address"
        },
        {
          "internalType": "address",
          "name": "to",
          "type": "address"
        },
        {
          "internalType": "uint256",
          "name": "tokenId",
          "type": "uint256"
        },
        {
          "internalType": "bytes",
          "name": "data",
          "type": "bytes"
        }
      ],
      "name": "safeTransferFrom",
      "outputs": [],
      "stateMutability": "nonpayable",
      "type": "function"
    },
    {
      "inputs": [
        {
          "internalType": "address",
          "name": "operator",
          "type": "address"
        },
        {
          "internalType": "bool",
          "name": "approved",
          "type": "bool"
        }
      ],
      "name": "setApprovalForAll",
      "outputs": [],
      "stateMutability": "nonpayable",
      "type": "function"
    },
    {
      "inputs": [],
      "name": "symbol",
      "outputs": [
        {
          "internalType": "string",
          "name": "",
          "type": "string"
        }
      ],
      "stateMutability": "view",
      "type": "function",
      "constant": true
    },
    {
      "inputs": [
        {
          "internalType": "uint256",
          "name": "index",
          "type": "uint256"
        }
      ],
      "name": "tokenByIndex",
      "outputs": [
        {
          "internalType": "uint256",
          "name": "",
          "type": "uint256"
        }
      ],
      "stateMutability": "view",
      "type": "function",
      "constant": true
    },
    {
      "inputs": [
        {
          "internalType": "address",
          "name": "owner",
          "type": "address"
        },
        {
          "internalType": "uint256",
          "name": "index",
          "type": "uint256"
        }
      ],
      "name": "tokenOfOwnerByIndex",
      "outputs": [
        {
          "internalType": "uint256",
          "name": "",
          "type": "uint256"
        }
      ],
      "stateMutability": "view",
      "type": "function",
      "constant": true
    },
    {
      "inputs": [],
      "name": "totalSupply",
      "outputs": [
        {
          "internalType": "uint256",
          "name": "",
          "type": "uint256"
        }
      ],
      "stateMutability": "view",
      "type": "function",
      "constant": true
    },
    {
      "inputs": [
        {
          "internalType": "address",
          "name": "from",
          "type": "address"
        },
        {
          "internalType": "address",
          "name": "to",
          "type": "address"
        },
        {
          "internalType": "uint256",
          "name": "tokenId",
          "type": "uint256"
        }
      ],
      "name": "transferFrom",
      "outputs": [],
      "stateMutability": "nonpayable",
      "type": "function"
    },
    {
      "inputs": [
        {
          "internalType": "address",
          "name": "newOwner",
          "type": "address"
        }
      ],
      "name": "transferOwnership",
      "outputs": [],
      "stateMutability": "nonpayable",
      "type": "function"
    },
    {
      "inputs": [
        {
          "internalType": "contract ERC20",
          "name": "_paymentCurrency",
          "type": "address"
        }
      ],
      "name": "setPaymentCurrency",
      "outputs": [],
      "stateMutability": "nonpayable",
      "type": "function"
    },
    {
      "inputs": [
        {
          "internalType": "contract ERC721",
          "name": "_requiredNFT",
          "type": "address"
        }
      ],
      "name": "setRequiredNFT1",
      "outputs": [],
      "stateMutability": "nonpayable",
      "type": "function"
    },
    {
      "inputs": [
        {
          "internalType": "contract ERC721",
          "name": "_requiredNFT",
          "type": "address"
        }
      ],
      "name": "setRequiredNFT2",
      "outputs": [],
      "stateMutability": "nonpayable",
      "type": "function"
    },
    {
      "inputs": [
        {
          "internalType": "contract ERC721",
          "name": "_requiredNFT",
          "type": "address"
        }
      ],
      "name": "setRequiredNFT3",
      "outputs": [],
      "stateMutability": "nonpayable",
      "type": "function"
    },
    {
      "inputs": [
        {
          "internalType": "uint256",
          "name": "_requiredAmount",
          "type": "uint256"
        }
      ],
      "name": "setRequiredAmount",
      "outputs": [],
      "stateMutability": "nonpayable",
      "type": "function"
    },
    {
      "inputs": [],
      "name": "buyRowBoat",
      "outputs": [],
      "stateMutability": "nonpayable",
      "type": "function"
    },
    {
      "inputs": [
        {
          "internalType": "uint256",
          "name": "tokenId",
          "type": "uint256"
        }
      ],
      "name": "tokenURI",
      "outputs": [
        {
          "internalType": "string",
          "name": "",
          "type": "string"
        }
      ],
      "stateMutability": "view",
      "type": "function",
      "constant": true
    },
    {
      "inputs": [
        {
          "internalType": "bytes4",
          "name": "interfaceId",
          "type": "bytes4"
        }
      ],
      "name": "supportsInterface",
      "outputs": [
        {
          "internalType": "bool",
          "name": "",
          "type": "bool"
        }
      ],
      "stateMutability": "view",
      "type": "function",
      "constant": true
    }
  ],
  "bytecode": "0x60806040523480156200001157600080fd5b5060405162004e6338038062004e638339818101604052810190620000379190620005d9565b6040518060400160405280600a81526020017f526f77426f61744e4654000000000000000000000000000000000000000000008152506040518060400160405280600781526020017f526f77426f6174000000000000000000000000000000000000000000000000008152508160009081620000b49190620008d1565b508060019081620000c69190620008d1565b505050620000e9620000dd6200040d60201b60201c565b6200041560201b60201c565b600073ffffffffffffffffffffffffffffffffffffffff168573ffffffffffffffffffffffffffffffffffffffff16036200015b576040517f08c379a0000000000000000000000000000000000000000000000000000000008152600401620001529062000a3f565b60405180910390fd5b600073ffffffffffffffffffffffffffffffffffffffff168473ffffffffffffffffffffffffffffffffffffffff1603620001cd576040517f08c379a0000000000000000000000000000000000000000000000000000000008152600401620001c49062000ab1565b60405180910390fd5b600073ffffffffffffffffffffffffffffffffffffffff168373ffffffffffffffffffffffffffffffffffffffff16036200023f576040517f08c379a0000000000000000000000000000000000000000000000000000000008152600401620002369062000ab1565b60405180910390fd5b600073ffffffffffffffffffffffffffffffffffffffff168273ffffffffffffffffffffffffffffffffffffffff1603620002b1576040517f08c379a0000000000000000000000000000000000000000000000000000000008152600401620002a89062000ab1565b60405180910390fd5b60008111620002f7576040517f08c379a0000000000000000000000000000000000000000000000000000000008152600401620002ee9062000b23565b60405180910390fd5b84600d60006101000a81548173ffffffffffffffffffffffffffffffffffffffff021916908373ffffffffffffffffffffffffffffffffffffffff16021790555083600e60006101000a81548173ffffffffffffffffffffffffffffffffffffffff021916908373ffffffffffffffffffffffffffffffffffffffff16021790555082600f60006101000a81548173ffffffffffffffffffffffffffffffffffffffff021916908373ffffffffffffffffffffffffffffffffffffffff16021790555081601060006101000a81548173ffffffffffffffffffffffffffffffffffffffff021916908373ffffffffffffffffffffffffffffffffffffffff16021790555080601181905550505050505062000b45565b600033905090565b6000600b60009054906101000a900473ffffffffffffffffffffffffffffffffffffffff16905081600b60006101000a81548173ffffffffffffffffffffffffffffffffffffffff021916908373ffffffffffffffffffffffffffffffffffffffff1602179055508173ffffffffffffffffffffffffffffffffffffffff168173ffffffffffffffffffffffffffffffffffffffff167f8be0079c531659141344cd1fd0a4f28419497f9722a3daafe3b4186f6b6457e060405160405180910390a35050565b600080fd5b600073ffffffffffffffffffffffffffffffffffffffff82169050919050565b60006200050d82620004e0565b9050919050565b6000620005218262000500565b9050919050565b620005338162000514565b81146200053f57600080fd5b50565b600081519050620005538162000528565b92915050565b6000620005668262000500565b9050919050565b620005788162000559565b81146200058457600080fd5b50565b60008151905062000598816200056d565b92915050565b6000819050919050565b620005b3816200059e565b8114620005bf57600080fd5b50565b600081519050620005d381620005a8565b92915050565b600080600080600060a08688031215620005f857620005f7620004db565b5b6000620006088882890162000542565b95505060206200061b8882890162000587565b94505060406200062e8882890162000587565b9350506060620006418882890162000587565b92505060806200065488828901620005c2565b9150509295509295909350565b600081519050919050565b7f4e487b7100000000000000000000000000000000000000000000000000000000600052604160045260246000fd5b7f4e487b7100000000000000000000000000000000000000000000000000000000600052602260045260246000fd5b60006002820490506001821680620006e357607f821691505b602082108103620006f957620006f86200069b565b5b50919050565b60008190508160005260206000209050919050565b60006020601f8301049050919050565b600082821b905092915050565b600060088302620007637fffffffffffffffffffffffffffffffffffffffffffffffffffffffffffffffff8262000724565b6200076f868362000724565b95508019841693508086168417925050509392505050565b6000819050919050565b6000620007b2620007ac620007a6846200059e565b62000787565b6200059e565b9050919050565b6000819050919050565b620007ce8362000791565b620007e6620007dd82620007b9565b84845462000731565b825550505050565b600090565b620007fd620007ee565b6200080a818484620007c3565b505050565b5b81811015620008325762000826600082620007f3565b60018101905062000810565b5050565b601f82111562000881576200084b81620006ff565b620008568462000714565b8101602085101562000866578190505b6200087e620008758562000714565b8301826200080f565b50505b505050565b600082821c905092915050565b6000620008a66000198460080262000886565b1980831691505092915050565b6000620008c1838362000893565b9150826002028217905092915050565b620008dc8262000661565b67ffffffffffffffff811115620008f857620008f76200066c565b5b620009048254620006ca565b6200091182828562000836565b600060209050601f83116001811462000949576000841562000934578287015190505b620009408582620008b3565b865550620009b0565b601f1984166200095986620006ff565b60005b8281101562000983578489015182556001820191506020850194506020810190506200095c565b86831015620009a357848901516200099f601f89168262000893565b8355505b6001600288020188555050505b505050505050565b600082825260208201905092915050565b7f546f6b656e20616464726573732063616e27742062652061646472657373207a60008201527f65726f0000000000000000000000000000000000000000000000000000000000602082015250565b600062000a27602383620009b8565b915062000a3482620009c9565b604082019050919050565b6000602082019050818103600083015262000a5a8162000a18565b9050919050565b7f41646472657373732063616e2774206265207a65726f00000000000000000000600082015250565b600062000a99601683620009b8565b915062000aa68262000a61565b602082019050919050565b6000602082019050818103600083015262000acc8162000a8a565b9050919050565b7f616d6f756e742063616e6e6f74206265207a65726f0000000000000000000000600082015250565b600062000b0b601583620009b8565b915062000b188262000ad3565b602082019050919050565b6000602082019050818103600083015262000b3e8162000afc565b9050919050565b61430e8062000b556000396000f3fe608060405234801561001057600080fd5b50600436106101da5760003560e01c80636352211e11610104578063a22cb465116100a2578063c87b56dd11610071578063c87b56dd1461051d578063e80beaa11461054d578063e985e9c514610569578063f2fde38b14610599576101da565b8063a22cb465146104ab578063ac4d6a72146104c7578063b88d4fde146104e3578063c3cce1b4146104ff576101da565b806376e8074e116100de57806376e8074e146104355780637fe21b69146104535780638da5cb5b1461046f57806395d89b411461048d576101da565b80636352211e146103cb57806370a08231146103fb578063715018a61461042b576101da565b806323b872dd1161017c57806342842e0e1161014b57806342842e0e1461034557806348b9ef40146103615780634b084c521461037f5780634f6ccce71461039b576101da565b806323b872dd146102bd5780632f745c59146102d95780633d15cc6d146103095780633db4377214610327576101da565b8063095ea7b3116101b8578063095ea7b31461025d5780630eb547c91461027957806318160ddd1461029557806323485e58146102b3576101da565b806301ffc9a7146101df57806306fdde031461020f578063081812fc1461022d575b600080fd5b6101f960048036038101906101f49190612a37565b6105b5565b6040516102069190612a7f565b60405180910390f35b6102176105c7565b6040516102249190612b2a565b60405180910390f35b61024760048036038101906102429190612b82565b610659565b6040516102549190612bf0565b60405180910390f35b61027760048036038101906102729190612c37565b61069f565b005b610293600480360381019061028e9190612cb5565b6107b6565b005b61029d610871565b6040516102aa9190612cf1565b60405180910390f35b6102bb61087e565b005b6102d760048036038101906102d29190612d0c565b6109dc565b005b6102f360048036038101906102ee9190612c37565b610a3c565b6040516103009190612cf1565b60405180910390f35b610311610ae1565b60405161031e9190612dbe565b60405180910390f35b61032f610b07565b60405161033c9190612dfa565b60405180910390f35b61035f600480360381019061035a9190612d0c565b610b2d565b005b610369610b4d565b6040516103769190612cf1565b60405180910390f35b61039960048036038101906103949190612cb5565b610b53565b005b6103b560048036038101906103b09190612b82565b610c0e565b6040516103c29190612cf1565b60405180910390f35b6103e560048036038101906103e09190612b82565b610c7f565b6040516103f29190612bf0565b60405180910390f35b61041560048036038101906104109190612e15565b610d05565b6040516104229190612cf1565b60405180910390f35b610433610dbc565b005b61043d610dd0565b60405161044a9190612dfa565b60405180910390f35b61046d60048036038101906104689190612e80565b610df6565b005b610477610eb1565b6040516104849190612bf0565b60405180910390f35b610495610edb565b6040516104a29190612b2a565b60405180910390f35b6104c560048036038101906104c09190612ed9565b610f6d565b005b6104e160048036038101906104dc9190612cb5565b610f83565b005b6104fd60048036038101906104f8919061304e565b61103e565b005b6105076110a0565b6040516105149190612dfa565b60405180910390f35b61053760048036038101906105329190612b82565b6110c6565b6040516105449190612b2a565b60405180910390f35b61056760048036038101906105629190612b82565b6110d8565b005b610583600480360381019061057e91906130d1565b61112d565b6040516105909190612a7f565b60405180910390f35b6105b360048036038101906105ae9190612e15565b6111c1565b005b60006105c082611244565b9050919050565b6060600080546105d690613140565b80601f016020809104026020016040519081016040528092919081815260200182805461060290613140565b801561064f5780601f106106245761010080835404028352916020019161064f565b820191906000526020600020905b81548152906001019060200180831161063257829003601f168201915b5050505050905090565b6000610664826112a5565b6004600083815260200190815260200160002060009054906101000a900473ffffffffffffffffffffffffffffffffffffffff169050919050565b60006106aa82610c7f565b90508073ffffffffffffffffffffffffffffffffffffffff168373ffffffffffffffffffffffffffffffffffffffff160361071a576040517f08c379a0000000000000000000000000000000000000000000000000000000008152600401610711906131e3565b60405180910390fd5b8073ffffffffffffffffffffffffffffffffffffffff166107396112f0565b73ffffffffffffffffffffffffffffffffffffffff1614806107685750610767816107626112f0565b61112d565b5b6107a7576040517f08c379a000000000000000000000000000000000000000000000000000000000815260040161079e90613275565b60405180910390fd5b6107b183836112f8565b505050565b6107be6113b1565b600073ffffffffffffffffffffffffffffffffffffffff168173ffffffffffffffffffffffffffffffffffffffff160361082d576040517f08c379a0000000000000000000000000000000000000000000000000000000008152600401610824906132e1565b60405180910390fd5b80600f60006101000a81548173ffffffffffffffffffffffffffffffffffffffff021916908373ffffffffffffffffffffffffffffffffffffffff16021790555050565b6000600880549050905090565b600d60009054906101000a900473ffffffffffffffffffffffffffffffffffffffff1673ffffffffffffffffffffffffffffffffffffffff166323b872dd3330678ac7230489e800006040518463ffffffff1660e01b81526004016108e59392919061333c565b6020604051808303816000875af1158015610904573d6000803e3d6000fd5b505050506040513d601f19601f820116820180604052508101906109289190613388565b610967576040517f08c379a000000000000000000000000000000000000000000000000000000000815260040161095e90613401565b60405180910390fd5b6000610973600c61142f565b90506000600a826109849190613450565b90506000810361099357600a90505b61099d600c61143d565b6109a73383611453565b6109d8826109b483611471565b6040516020016109c491906135a1565b60405160208183030381529060405261153f565b5050565b6109ed6109e76112f0565b826115e3565b610a2c576040517f08c379a0000000000000000000000000000000000000000000000000000000008152600401610a2390613640565b60405180910390fd5b610a37838383611678565b505050565b6000610a4783610d05565b8210610a88576040517f08c379a0000000000000000000000000000000000000000000000000000000008152600401610a7f906136d2565b60405180910390fd5b600660008473ffffffffffffffffffffffffffffffffffffffff1673ffffffffffffffffffffffffffffffffffffffff168152602001908152602001600020600083815260200190815260200160002054905092915050565b600d60009054906101000a900473ffffffffffffffffffffffffffffffffffffffff1681565b600f60009054906101000a900473ffffffffffffffffffffffffffffffffffffffff1681565b610b488383836040518060200160405280600081525061103e565b505050565b60115481565b610b5b6113b1565b600073ffffffffffffffffffffffffffffffffffffffff168173ffffffffffffffffffffffffffffffffffffffff1603610bca576040517f08c379a0000000000000000000000000000000000000000000000000000000008152600401610bc1906132e1565b60405180910390fd5b80600e60006101000a81548173ffffffffffffffffffffffffffffffffffffffff021916908373ffffffffffffffffffffffffffffffffffffffff16021790555050565b6000610c18610871565b8210610c59576040517f08c379a0000000000000000000000000000000000000000000000000000000008152600401610c5090613764565b60405180910390fd5b60088281548110610c6d57610c6c613784565b5b90600052602060002001549050919050565b600080610c8b83611971565b9050600073ffffffffffffffffffffffffffffffffffffffff168173ffffffffffffffffffffffffffffffffffffffff1603610cfc576040517f08c379a0000000000000000000000000000000000000000000000000000000008152600401610cf3906137ff565b60405180910390fd5b80915050919050565b60008073ffffffffffffffffffffffffffffffffffffffff168273ffffffffffffffffffffffffffffffffffffffff1603610d75576040517f08c379a0000000000000000000000000000000000000000000000000000000008152600401610d6c90613891565b60405180910390fd5b600360008373ffffffffffffffffffffffffffffffffffffffff1673ffffffffffffffffffffffffffffffffffffffff168152602001908152602001600020549050919050565b610dc46113b1565b610dce60006119ae565b565b601060009054906101000a900473ffffffffffffffffffffffffffffffffffffffff1681565b610dfe6113b1565b600073ffffffffffffffffffffffffffffffffffffffff168173ffffffffffffffffffffffffffffffffffffffff1603610e6d576040517f08c379a0000000000000000000000000000000000000000000000000000000008152600401610e6490613923565b60405180910390fd5b80600d60006101000a81548173ffffffffffffffffffffffffffffffffffffffff021916908373ffffffffffffffffffffffffffffffffffffffff16021790555050565b6000600b60009054906101000a900473ffffffffffffffffffffffffffffffffffffffff16905090565b606060018054610eea90613140565b80601f0160208091040260200160405190810160405280929190818152602001828054610f1690613140565b8015610f635780601f10610f3857610100808354040283529160200191610f63565b820191906000526020600020905b815481529060010190602001808311610f4657829003601f168201915b5050505050905090565b610f7f610f786112f0565b8383611a74565b5050565b610f8b6113b1565b600073ffffffffffffffffffffffffffffffffffffffff168173ffffffffffffffffffffffffffffffffffffffff1603610ffa576040517f08c379a0000000000000000000000000000000000000000000000000000000008152600401610ff1906132e1565b60405180910390fd5b80601060006101000a81548173ffffffffffffffffffffffffffffffffffffffff021916908373ffffffffffffffffffffffffffffffffffffffff16021790555050565b61104f6110496112f0565b836115e3565b61108e576040517f08c379a000000000000000000000000000000000000000000000000000000000815260040161108590613640565b60405180910390fd5b61109a84848484611be0565b50505050565b600e60009054906101000a900473ffffffffffffffffffffffffffffffffffffffff1681565b60606110d182611c3c565b9050919050565b6110e06113b1565b60008111611123576040517f08c379a000000000000000000000000000000000000000000000000000000000815260040161111a9061398f565b60405180910390fd5b8060118190555050565b6000600560008473ffffffffffffffffffffffffffffffffffffffff1673ffffffffffffffffffffffffffffffffffffffff16815260200190815260200160002060008373ffffffffffffffffffffffffffffffffffffffff1673ffffffffffffffffffffffffffffffffffffffff16815260200190815260200160002060009054906101000a900460ff16905092915050565b6111c96113b1565b600073ffffffffffffffffffffffffffffffffffffffff168173ffffffffffffffffffffffffffffffffffffffff1603611238576040517f08c379a000000000000000000000000000000000000000000000000000000000815260040161122f90613a21565b60405180910390fd5b611241816119ae565b50565b6000634906490660e01b7bffffffffffffffffffffffffffffffffffffffffffffffffffffffff1916827bffffffffffffffffffffffffffffffffffffffffffffffffffffffff1916148061129e575061129d82611d4e565b5b9050919050565b6112ae81611dc8565b6112ed576040517f08c379a00000000000000000000000000000000000000000000000000000000081526004016112e4906137ff565b60405180910390fd5b50565b600033905090565b816004600083815260200190815260200160002060006101000a81548173ffffffffffffffffffffffffffffffffffffffff021916908373ffffffffffffffffffffffffffffffffffffffff160217905550808273ffffffffffffffffffffffffffffffffffffffff1661136b83610c7f565b73ffffffffffffffffffffffffffffffffffffffff167f8c5be1e5ebec7d5bd14f71427d1e84f3dd0314c0f7b2291e5b200ac8c7c3b92560405160405180910390a45050565b6113b96112f0565b73ffffffffffffffffffffffffffffffffffffffff166113d7610eb1565b73ffffffffffffffffffffffffffffffffffffffff161461142d576040517f08c379a000000000000000000000000000000000000000000000000000000000815260040161142490613a8d565b60405180910390fd5b565b600081600001549050919050565b6001816000016000828254019250508190555050565b61146d828260405180602001604052806000815250611e09565b5050565b60606000600161148084611e64565b01905060008167ffffffffffffffff81111561149f5761149e612f23565b5b6040519080825280601f01601f1916602001820160405280156114d15781602001600182028036833780820191505090505b509050600082602001820190505b600115611534578080600190039150507f3031323334353637383961626364656600000000000000000000000000000000600a86061a8153600a858161152857611527613421565b5b049450600085036114df575b819350505050919050565b61154882611dc8565b611587576040517f08c379a000000000000000000000000000000000000000000000000000000000815260040161157e90613b1f565b60405180910390fd5b80600a600084815260200190815260200160002090816115a79190613ce1565b507ff8e1a15aba9398e019f0b49df1a4fde98ee17ae345cb5f6b5e2c27f5033e8ce7826040516115d79190612cf1565b60405180910390a15050565b6000806115ef83610c7f565b90508073ffffffffffffffffffffffffffffffffffffffff168473ffffffffffffffffffffffffffffffffffffffff1614806116315750611630818561112d565b5b8061166f57508373ffffffffffffffffffffffffffffffffffffffff1661165784610659565b73ffffffffffffffffffffffffffffffffffffffff16145b91505092915050565b8273ffffffffffffffffffffffffffffffffffffffff1661169882610c7f565b73ffffffffffffffffffffffffffffffffffffffff16146116ee576040517f08c379a00000000000000000000000000000000000000000000000000000000081526004016116e590613e25565b60405180910390fd5b600073ffffffffffffffffffffffffffffffffffffffff168273ffffffffffffffffffffffffffffffffffffffff160361175d576040517f08c379a000000000000000000000000000000000000000000000000000000000815260040161175490613eb7565b60405180910390fd5b61176a8383836001611fb7565b8273ffffffffffffffffffffffffffffffffffffffff1661178a82610c7f565b73ffffffffffffffffffffffffffffffffffffffff16146117e0576040517f08c379a00000000000000000000000000000000000000000000000000000000081526004016117d790613e25565b60405180910390fd5b6004600082815260200190815260200160002060006101000a81549073ffffffffffffffffffffffffffffffffffffffff02191690556001600360008573ffffffffffffffffffffffffffffffffffffffff1673ffffffffffffffffffffffffffffffffffffffff168152602001908152602001600020600082825403925050819055506001600360008473ffffffffffffffffffffffffffffffffffffffff1673ffffffffffffffffffffffffffffffffffffffff16815260200190815260200160002060008282540192505081905550816002600083815260200190815260200160002060006101000a81548173ffffffffffffffffffffffffffffffffffffffff021916908373ffffffffffffffffffffffffffffffffffffffff160217905550808273ffffffffffffffffffffffffffffffffffffffff168473ffffffffffffffffffffffffffffffffffffffff167fddf252ad1be2c89b69c2b068fc378daa952ba7f163c4a11628f55a4df523b3ef60405160405180910390a461196c8383836001611fc9565b505050565b60006002600083815260200190815260200160002060009054906101000a900473ffffffffffffffffffffffffffffffffffffffff169050919050565b6000600b60009054906101000a900473ffffffffffffffffffffffffffffffffffffffff16905081600b60006101000a81548173ffffffffffffffffffffffffffffffffffffffff021916908373ffffffffffffffffffffffffffffffffffffffff1602179055508173ffffffffffffffffffffffffffffffffffffffff168173ffffffffffffffffffffffffffffffffffffffff167f8be0079c531659141344cd1fd0a4f28419497f9722a3daafe3b4186f6b6457e060405160405180910390a35050565b8173ffffffffffffffffffffffffffffffffffffffff168373ffffffffffffffffffffffffffffffffffffffff1603611ae2576040517f08c379a0000000000000000000000000000000000000000000000000000000008152600401611ad990613f23565b60405180910390fd5b80600560008573ffffffffffffffffffffffffffffffffffffffff1673ffffffffffffffffffffffffffffffffffffffff16815260200190815260200160002060008473ffffffffffffffffffffffffffffffffffffffff1673ffffffffffffffffffffffffffffffffffffffff16815260200190815260200160002060006101000a81548160ff0219169083151502179055508173ffffffffffffffffffffffffffffffffffffffff168373ffffffffffffffffffffffffffffffffffffffff167f17307eab39ab6107e8899845ad3d59bd9653f200f220920489ca2b5937696c3183604051611bd39190612a7f565b60405180910390a3505050565b611beb848484611678565b611bf784848484611fcf565b611c36576040517f08c379a0000000000000000000000000000000000000000000000000000000008152600401611c2d90613fb5565b60405180910390fd5b50505050565b6060611c47826112a5565b6000600a60008481526020019081526020016000208054611c6790613140565b80601f0160208091040260200160405190810160405280929190818152602001828054611c9390613140565b8015611ce05780601f10611cb557610100808354040283529160200191611ce0565b820191906000526020600020905b815481529060010190602001808311611cc357829003601f168201915b505050505090506000611cf1612156565b90506000815103611d06578192505050611d49565b600082511115611d3b578082604051602001611d23929190613fd5565b60405160208183030381529060405292505050611d49565b611d448461216d565b925050505b919050565b60007f780e9d63000000000000000000000000000000000000000000000000000000007bffffffffffffffffffffffffffffffffffffffffffffffffffffffff1916827bffffffffffffffffffffffffffffffffffffffffffffffffffffffff19161480611dc15750611dc0826121d5565b5b9050919050565b60008073ffffffffffffffffffffffffffffffffffffffff16611dea83611971565b73ffffffffffffffffffffffffffffffffffffffff1614159050919050565b611e1383836122b7565b611e206000848484611fcf565b611e5f576040517f08c379a0000000000000000000000000000000000000000000000000000000008152600401611e5690613fb5565b60405180910390fd5b505050565b600080600090507a184f03e93ff9f4daa797ed6e38ed64bf6a1f0100000000000000008310611ec2577a184f03e93ff9f4daa797ed6e38ed64bf6a1f0100000000000000008381611eb857611eb7613421565b5b0492506040810190505b6d04ee2d6d415b85acef81000000008310611eff576d04ee2d6d415b85acef81000000008381611ef557611ef4613421565b5b0492506020810190505b662386f26fc100008310611f2e57662386f26fc100008381611f2457611f23613421565b5b0492506010810190505b6305f5e1008310611f57576305f5e1008381611f4d57611f4c613421565b5b0492506008810190505b6127108310611f7c576127108381611f7257611f71613421565b5b0492506004810190505b60648310611f9f5760648381611f9557611f94613421565b5b0492506002810190505b600a8310611fae576001810190505b80915050919050565b611fc3848484846124d4565b50505050565b50505050565b6000611ff08473ffffffffffffffffffffffffffffffffffffffff16612632565b15612149578373ffffffffffffffffffffffffffffffffffffffff1663150b7a026120196112f0565b8786866040518563ffffffff1660e01b815260040161203b949392919061404e565b6020604051808303816000875af192505050801561207757506040513d601f19601f8201168201806040525081019061207491906140af565b60015b6120f9573d80600081146120a7576040519150601f19603f3d011682016040523d82523d6000602084013e6120ac565b606091505b5060008151036120f1576040517f08c379a00000000000000000000000000000000000000000000000000000000081526004016120e890613fb5565b60405180910390fd5b805181602001fd5b63150b7a0260e01b7bffffffffffffffffffffffffffffffffffffffffffffffffffffffff1916817bffffffffffffffffffffffffffffffffffffffffffffffffffffffff19161491505061214e565b600190505b949350505050565b606060405180602001604052806000815250905090565b6060612178826112a5565b6000612182612156565b905060008151116121a257604051806020016040528060008152506121cd565b806121ac84611471565b6040516020016121bd929190613fd5565b6040516020818303038152906040525b915050919050565b60007f80ac58cd000000000000000000000000000000000000000000000000000000007bffffffffffffffffffffffffffffffffffffffffffffffffffffffff1916827bffffffffffffffffffffffffffffffffffffffffffffffffffffffff191614806122a057507f5b5e139f000000000000000000000000000000000000000000000000000000007bffffffffffffffffffffffffffffffffffffffffffffffffffffffff1916827bffffffffffffffffffffffffffffffffffffffffffffffffffffffff1916145b806122b057506122af82612655565b5b9050919050565b600073ffffffffffffffffffffffffffffffffffffffff168273ffffffffffffffffffffffffffffffffffffffff1603612326576040517f08c379a000000000000000000000000000000000000000000000000000000000815260040161231d90614128565b60405180910390fd5b61232f81611dc8565b1561236f576040517f08c379a000000000000000000000000000000000000000000000000000000000815260040161236690614194565b60405180910390fd5b61237d600083836001611fb7565b61238681611dc8565b156123c6576040517f08c379a00000000000000000000000000000000000000000000000000000000081526004016123bd90614194565b60405180910390fd5b6001600360008473ffffffffffffffffffffffffffffffffffffffff1673ffffffffffffffffffffffffffffffffffffffff16815260200190815260200160002060008282540192505081905550816002600083815260200190815260200160002060006101000a81548173ffffffffffffffffffffffffffffffffffffffff021916908373ffffffffffffffffffffffffffffffffffffffff160217905550808273ffffffffffffffffffffffffffffffffffffffff16600073ffffffffffffffffffffffffffffffffffffffff167fddf252ad1be2c89b69c2b068fc378daa952ba7f163c4a11628f55a4df523b3ef60405160405180910390a46124d0600083836001611fc9565b5050565b6124e0848484846126bf565b6001811115612524576040517f08c379a000000000000000000000000000000000000000000000000000000000815260040161251b90614226565b60405180910390fd5b6000829050600073ffffffffffffffffffffffffffffffffffffffff168573ffffffffffffffffffffffffffffffffffffffff160361256b57612566816126c5565b6125aa565b8373ffffffffffffffffffffffffffffffffffffffff168573ffffffffffffffffffffffffffffffffffffffff16146125a9576125a8858261270e565b5b5b600073ffffffffffffffffffffffffffffffffffffffff168473ffffffffffffffffffffffffffffffffffffffff16036125ec576125e78161287b565b61262b565b8473ffffffffffffffffffffffffffffffffffffffff168473ffffffffffffffffffffffffffffffffffffffff161461262a57612629848261294c565b5b5b5050505050565b6000808273ffffffffffffffffffffffffffffffffffffffff163b119050919050565b60007f01ffc9a7000000000000000000000000000000000000000000000000000000007bffffffffffffffffffffffffffffffffffffffffffffffffffffffff1916827bffffffffffffffffffffffffffffffffffffffffffffffffffffffff1916149050919050565b50505050565b6008805490506009600083815260200190815260200160002081905550600881908060018154018082558091505060019003906000526020600020016000909190919091505550565b6000600161271b84610d05565b6127259190614275565b905060006007600084815260200190815260200160002054905081811461280a576000600660008673ffffffffffffffffffffffffffffffffffffffff1673ffffffffffffffffffffffffffffffffffffffff168152602001908152602001600020600084815260200190815260200160002054905080600660008773ffffffffffffffffffffffffffffffffffffffff1673ffffffffffffffffffffffffffffffffffffffff168152602001908152602001600020600084815260200190815260200160002081905550816007600083815260200190815260200160002081905550505b6007600084815260200190815260200160002060009055600660008573ffffffffffffffffffffffffffffffffffffffff1673ffffffffffffffffffffffffffffffffffffffff16815260200190815260200160002060008381526020019081526020016000206000905550505050565b6000600160088054905061288f9190614275565b90506000600960008481526020019081526020016000205490506000600883815481106128bf576128be613784565b5b9060005260206000200154905080600883815481106128e1576128e0613784565b5b9060005260206000200181905550816009600083815260200190815260200160002081905550600960008581526020019081526020016000206000905560088054806129305761292f6142a9565b5b6001900381819060005260206000200160009055905550505050565b600061295783610d05565b905081600660008573ffffffffffffffffffffffffffffffffffffffff1673ffffffffffffffffffffffffffffffffffffffff168152602001908152602001600020600083815260200190815260200160002081905550806007600084815260200190815260200160002081905550505050565b6000604051905090565b600080fd5b600080fd5b60007fffffffff0000000000000000000000000000000000000000000000000000000082169050919050565b612a14816129df565b8114612a1f57600080fd5b50565b600081359050612a3181612a0b565b92915050565b600060208284031215612a4d57612a4c6129d5565b5b6000612a5b84828501612a22565b91505092915050565b60008115159050919050565b612a7981612a64565b82525050565b6000602082019050612a946000830184612a70565b92915050565b600081519050919050565b600082825260208201905092915050565b60005b83811015612ad4578082015181840152602081019050612ab9565b60008484015250505050565b6000601f19601f8301169050919050565b6000612afc82612a9a565b612b068185612aa5565b9350612b16818560208601612ab6565b612b1f81612ae0565b840191505092915050565b60006020820190508181036000830152612b448184612af1565b905092915050565b6000819050919050565b612b5f81612b4c565b8114612b6a57600080fd5b50565b600081359050612b7c81612b56565b92915050565b600060208284031215612b9857612b976129d5565b5b6000612ba684828501612b6d565b91505092915050565b600073ffffffffffffffffffffffffffffffffffffffff82169050919050565b6000612bda82612baf565b9050919050565b612bea81612bcf565b82525050565b6000602082019050612c056000830184612be1565b92915050565b612c1481612bcf565b8114612c1f57600080fd5b50565b600081359050612c3181612c0b565b92915050565b60008060408385031215612c4e57612c4d6129d5565b5b6000612c5c85828601612c22565b9250506020612c6d85828601612b6d565b9150509250929050565b6000612c8282612bcf565b9050919050565b612c9281612c77565b8114612c9d57600080fd5b50565b600081359050612caf81612c89565b92915050565b600060208284031215612ccb57612cca6129d5565b5b6000612cd984828501612ca0565b91505092915050565b612ceb81612b4c565b82525050565b6000602082019050612d066000830184612ce2565b92915050565b600080600060608486031215612d2557612d246129d5565b5b6000612d3386828701612c22565b9350506020612d4486828701612c22565b9250506040612d5586828701612b6d565b9150509250925092565b6000819050919050565b6000612d84612d7f612d7a84612baf565b612d5f565b612baf565b9050919050565b6000612d9682612d69565b9050919050565b6000612da882612d8b565b9050919050565b612db881612d9d565b82525050565b6000602082019050612dd36000830184612daf565b92915050565b6000612de482612d8b565b9050919050565b612df481612dd9565b82525050565b6000602082019050612e0f6000830184612deb565b92915050565b600060208284031215612e2b57612e2a6129d5565b5b6000612e3984828501612c22565b91505092915050565b6000612e4d82612bcf565b9050919050565b612e5d81612e42565b8114612e6857600080fd5b50565b600081359050612e7a81612e54565b92915050565b600060208284031215612e9657612e956129d5565b5b6000612ea484828501612e6b565b91505092915050565b612eb681612a64565b8114612ec157600080fd5b50565b600081359050612ed381612ead565b92915050565b60008060408385031215612ef057612eef6129d5565b5b6000612efe85828601612c22565b9250506020612f0f85828601612ec4565b9150509250929050565b600080fd5b600080fd5b7f4e487b7100000000000000000000000000000000000000000000000000000000600052604160045260246000fd5b612f5b82612ae0565b810181811067ffffffffffffffff82111715612f7a57612f79612f23565b5b80604052505050565b6000612f8d6129cb565b9050612f998282612f52565b919050565b600067ffffffffffffffff821115612fb957612fb8612f23565b5b612fc282612ae0565b9050602081019050919050565b82818337600083830152505050565b6000612ff1612fec84612f9e565b612f83565b90508281526020810184848401111561300d5761300c612f1e565b5b613018848285612fcf565b509392505050565b600082601f83011261303557613034612f19565b5b8135613045848260208601612fde565b91505092915050565b60008060008060808587031215613068576130676129d5565b5b600061307687828801612c22565b945050602061308787828801612c22565b935050604061309887828801612b6d565b925050606085013567ffffffffffffffff8111156130b9576130b86129da565b5b6130c587828801613020565b91505092959194509250565b600080604083850312156130e8576130e76129d5565b5b60006130f685828601612c22565b925050602061310785828601612c22565b9150509250929050565b7f4e487b7100000000000000000000000000000000000000000000000000000000600052602260045260246000fd5b6000600282049050600182168061315857607f821691505b60208210810361316b5761316a613111565b5b50919050565b7f4552433732313a20617070726f76616c20746f2063757272656e74206f776e6560008201527f7200000000000000000000000000000000000000000000000000000000000000602082015250565b60006131cd602183612aa5565b91506131d882613171565b604082019050919050565b600060208201905081810360008301526131fc816131c0565b9050919050565b7f4552433732313a20617070726f76652063616c6c6572206973206e6f7420746f60008201527f6b656e206f776e6572206f7220617070726f76656420666f7220616c6c000000602082015250565b600061325f603d83612aa5565b915061326a82613203565b604082019050919050565b6000602082019050818103600083015261328e81613252565b9050919050565b7f416464726573732063616e2774206265207a65726f0000000000000000000000600082015250565b60006132cb601583612aa5565b91506132d682613295565b602082019050919050565b600060208201905081810360008301526132fa816132be565b9050919050565b6000819050919050565b600061332661332161331c84613301565b612d5f565b612b4c565b9050919050565b6133368161330b565b82525050565b60006060820190506133516000830186612be1565b61335e6020830185612be1565b61336b604083018461332d565b949350505050565b60008151905061338281612ead565b92915050565b60006020828403121561339e5761339d6129d5565b5b60006133ac84828501613373565b91505092915050565b7f4661696c656420746f2070726f63657373207061796d656e7421000000000000600082015250565b60006133eb601a83612aa5565b91506133f6826133b5565b602082019050919050565b6000602082019050818103600083015261341a816133de565b9050919050565b7f4e487b7100000000000000000000000000000000000000000000000000000000600052601260045260246000fd5b600061345b82612b4c565b915061346683612b4c565b92508261347657613475613421565b5b828206905092915050565b600081905092915050565b7f68747470733a2f2f676174657761792e70696e6174612e636c6f75642f69706660008201527f732f516d646f6b4739746d6552534e77794456424e394347485874583270504160208201527f7a7852315079636153706a6e476b42422f526f77426f61740000000000000000604082015250565b600061350e605883613481565b91506135198261348c565b605882019050919050565b600061352f82612a9a565b6135398185613481565b9350613549818560208601612ab6565b80840191505092915050565b7f2e6a736f6e000000000000000000000000000000000000000000000000000000600082015250565b600061358b600583613481565b915061359682613555565b600582019050919050565b60006135ac82613501565b91506135b88284613524565b91506135c38261357e565b915081905092915050565b7f4552433732313a2063616c6c6572206973206e6f7420746f6b656e206f776e6560008201527f72206f7220617070726f76656400000000000000000000000000000000000000602082015250565b600061362a602d83612aa5565b9150613635826135ce565b604082019050919050565b600060208201905081810360008301526136598161361d565b9050919050565b7f455243373231456e756d657261626c653a206f776e657220696e646578206f7560008201527f74206f6620626f756e6473000000000000000000000000000000000000000000602082015250565b60006136bc602b83612aa5565b91506136c782613660565b604082019050919050565b600060208201905081810360008301526136eb816136af565b9050919050565b7f455243373231456e756d657261626c653a20676c6f62616c20696e646578206f60008201527f7574206f6620626f756e64730000000000000000000000000000000000000000602082015250565b600061374e602c83612aa5565b9150613759826136f2565b604082019050919050565b6000602082019050818103600083015261377d81613741565b9050919050565b7f4e487b7100000000000000000000000000000000000000000000000000000000600052603260045260246000fd5b7f4552433732313a20696e76616c696420746f6b656e2049440000000000000000600082015250565b60006137e9601883612aa5565b91506137f4826137b3565b602082019050919050565b60006020820190508181036000830152613818816137dc565b9050919050565b7f4552433732313a2061646472657373207a65726f206973206e6f74206120766160008201527f6c6964206f776e65720000000000000000000000000000000000000000000000602082015250565b600061387b602983612aa5565b91506138868261381f565b604082019050919050565b600060208201905081810360008301526138aa8161386e565b9050919050565b7f546f6b656e20616464726573732063616e27742062652061646472657373207a60008201527f65726f0000000000000000000000000000000000000000000000000000000000602082015250565b600061390d602383612aa5565b9150613918826138b1565b604082019050919050565b6000602082019050818103600083015261393c81613900565b9050919050565b7f416d6f756e742063616e6e6f74206265207a65726f0000000000000000000000600082015250565b6000613979601583612aa5565b915061398482613943565b602082019050919050565b600060208201905081810360008301526139a88161396c565b9050919050565b7f4f776e61626c653a206e6577206f776e657220697320746865207a65726f206160008201527f6464726573730000000000000000000000000000000000000000000000000000602082015250565b6000613a0b602683612aa5565b9150613a16826139af565b604082019050919050565b60006020820190508181036000830152613a3a816139fe565b9050919050565b7f4f776e61626c653a2063616c6c6572206973206e6f7420746865206f776e6572600082015250565b6000613a77602083612aa5565b9150613a8282613a41565b602082019050919050565b60006020820190508181036000830152613aa681613a6a565b9050919050565b7f45524337323155524953746f726167653a2055524920736574206f66206e6f6e60008201527f6578697374656e7420746f6b656e000000000000000000000000000000000000602082015250565b6000613b09602e83612aa5565b9150613b1482613aad565b604082019050919050565b60006020820190508181036000830152613b3881613afc565b9050919050565b60008190508160005260206000209050919050565b60006020601f8301049050919050565b600082821b905092915050565b600060088302613ba17fffffffffffffffffffffffffffffffffffffffffffffffffffffffffffffffff82613b64565b613bab8683613b64565b95508019841693508086168417925050509392505050565b6000613bde613bd9613bd484612b4c565b612d5f565b612b4c565b9050919050565b6000819050919050565b613bf883613bc3565b613c0c613c0482613be5565b848454613b71565b825550505050565b600090565b613c21613c14565b613c2c818484613bef565b505050565b5b81811015613c5057613c45600082613c19565b600181019050613c32565b5050565b601f821115613c9557613c6681613b3f565b613c6f84613b54565b81016020851015613c7e578190505b613c92613c8a85613b54565b830182613c31565b50505b505050565b600082821c905092915050565b6000613cb860001984600802613c9a565b1980831691505092915050565b6000613cd18383613ca7565b9150826002028217905092915050565b613cea82612a9a565b67ffffffffffffffff811115613d0357613d02612f23565b5b613d0d8254613140565b613d18828285613c54565b600060209050601f831160018114613d4b5760008415613d39578287015190505b613d438582613cc5565b865550613dab565b601f198416613d5986613b3f565b60005b82811015613d8157848901518255600182019150602085019450602081019050613d5c565b86831015613d9e5784890151613d9a601f891682613ca7565b8355505b6001600288020188555050505b505050505050565b7f4552433732313a207472616e736665722066726f6d20696e636f72726563742060008201527f6f776e6572000000000000000000000000000000000000000000000000000000602082015250565b6000613e0f602583612aa5565b9150613e1a82613db3565b604082019050919050565b60006020820190508181036000830152613e3e81613e02565b9050919050565b7f4552433732313a207472616e7366657220746f20746865207a65726f2061646460008201527f7265737300000000000000000000000000000000000000000000000000000000602082015250565b6000613ea1602483612aa5565b9150613eac82613e45565b604082019050919050565b60006020820190508181036000830152613ed081613e94565b9050919050565b7f4552433732313a20617070726f766520746f2063616c6c657200000000000000600082015250565b6000613f0d601983612aa5565b9150613f1882613ed7565b602082019050919050565b60006020820190508181036000830152613f3c81613f00565b9050919050565b7f4552433732313a207472616e7366657220746f206e6f6e20455243373231526560008201527f63656976657220696d706c656d656e7465720000000000000000000000000000602082015250565b6000613f9f603283612aa5565b9150613faa82613f43565b604082019050919050565b60006020820190508181036000830152613fce81613f92565b9050919050565b6000613fe18285613524565b9150613fed8284613524565b91508190509392505050565b600081519050919050565b600082825260208201905092915050565b600061402082613ff9565b61402a8185614004565b935061403a818560208601612ab6565b61404381612ae0565b840191505092915050565b60006080820190506140636000830187612be1565b6140706020830186612be1565b61407d6040830185612ce2565b818103606083015261408f8184614015565b905095945050505050565b6000815190506140a981612a0b565b92915050565b6000602082840312156140c5576140c46129d5565b5b60006140d38482850161409a565b91505092915050565b7f4552433732313a206d696e7420746f20746865207a65726f2061646472657373600082015250565b6000614112602083612aa5565b915061411d826140dc565b602082019050919050565b6000602082019050818103600083015261414181614105565b9050919050565b7f4552433732313a20746f6b656e20616c7265616479206d696e74656400000000600082015250565b600061417e601c83612aa5565b915061418982614148565b602082019050919050565b600060208201905081810360008301526141ad81614171565b9050919050565b7f455243373231456e756d657261626c653a20636f6e736563757469766520747260008201527f616e7366657273206e6f7420737570706f727465640000000000000000000000602082015250565b6000614210603583612aa5565b915061421b826141b4565b604082019050919050565b6000602082019050818103600083015261423f81614203565b9050919050565b7f4e487b7100000000000000000000000000000000000000000000000000000000600052601160045260246000fd5b600061428082612b4c565b915061428b83612b4c565b92508282039050818111156142a3576142a2614246565b5b92915050565b7f4e487b7100000000000000000000000000000000000000000000000000000000600052603160045260246000fdfea264697066735822122017e9cb96211bf7dee2d5a3aecd948606ad19288c29c0c7919587f47d9a2abca564736f6c63430008100033",
  "immutableReferences": {},
  "source": "// SPDX-License-Identifier: MIT\r\npragma solidity ^0.8.7;\r\n\r\nimport \"@openzeppelin/contracts/token/ERC20/ERC20.sol\";\r\nimport \"@openzeppelin/contracts/token/ERC721/ERC721.sol\";\r\nimport \"@openzeppelin/contracts/token/ERC721/extensions/ERC721Enumerable.sol\";\r\nimport \"@openzeppelin/contracts/token/ERC721/extensions/ERC721URIStorage.sol\";\r\nimport \"@openzeppelin/contracts/utils/Counters.sol\";\r\nimport \"@openzeppelin/contracts/access/Ownable.sol\";\r\n\r\ncontract RowBoatNFT is ERC721, ERC721Enumerable, ERC721URIStorage, Ownable {\r\n    using Counters for Counters.Counter;\r\n\r\n    Counters.Counter private _tokenIdCounter;\r\n\r\n    ERC20 public paymentCurrency;\r\n    ERC721 public requiredNFT1;\r\n    ERC721 public requiredNFT2;\r\n    ERC721 public requiredNFT3;\r\n\r\n    uint256 public requiredAmount;\r\n\r\n    constructor(\r\n        ERC20 _paymentCurrency,\r\n        ERC721 _requiredNFT1,\r\n        ERC721 _requiredNFT2,\r\n        ERC721 _requiredNFT3,\r\n        uint256 _requiredAmount\r\n    ) ERC721(\"RowBoatNFT\", \"RowBoat\") {\r\n        require(\r\n            address(_paymentCurrency) != address(0),\r\n            \"Token address can't be address zero\"\r\n        );\r\n        require(address(_requiredNFT1) != address(0), \"Addresss can't be zero\");\r\n        require(address(_requiredNFT2) != address(0), \"Addresss can't be zero\");\r\n        require(address(_requiredNFT3) != address(0), \"Addresss can't be zero\");\r\n        require(_requiredAmount > 0, \"amount cannot be zero\");\r\n        paymentCurrency = _paymentCurrency;\r\n        requiredNFT1 = _requiredNFT1;\r\n        requiredNFT2 = _requiredNFT2;\r\n        requiredNFT3 = _requiredNFT3;\r\n        requiredAmount = _requiredAmount;\r\n    }\r\n\r\n    //Setter Functions\r\n\r\n    function setPaymentCurrency(ERC20 _paymentCurrency) public onlyOwner {\r\n        require(\r\n            address(_paymentCurrency) != address(0),\r\n            \"Token address can't be address zero\"\r\n        );\r\n        paymentCurrency = _paymentCurrency;\r\n    }\r\n\r\n    function setRequiredNFT1(ERC721 _requiredNFT) public onlyOwner {\r\n        require(address(_requiredNFT) != address(0), \"Address can't be zero\");\r\n        requiredNFT1 = _requiredNFT;\r\n    }\r\n\r\n    function setRequiredNFT2(ERC721 _requiredNFT) public onlyOwner {\r\n        require(address(_requiredNFT) != address(0), \"Address can't be zero\");\r\n        requiredNFT2 = _requiredNFT;\r\n    }\r\n\r\n    function setRequiredNFT3(ERC721 _requiredNFT) public onlyOwner {\r\n        require(address(_requiredNFT) != address(0), \"Address can't be zero\");\r\n        requiredNFT3 = _requiredNFT;\r\n    }\r\n\r\n    function setRequiredAmount(uint256 _requiredAmount) public onlyOwner {\r\n        require(_requiredAmount > 0, \"Amount cannot be zero\");\r\n        requiredAmount = _requiredAmount;\r\n    }\r\n\r\n    // buy function\r\n\r\n    function buyRowBoat() public {\r\n        require(\r\n            paymentCurrency.transferFrom(msg.sender, address(this), 10 ether),\r\n            \"Failed to process payment!\"\r\n        );\r\n        uint256 tokenId = (_tokenIdCounter.current());\r\n        uint256 currentIndex = (tokenId % 10);\r\n        if (currentIndex == 0) {\r\n            currentIndex = 10;\r\n        }\r\n        _tokenIdCounter.increment();\r\n        _safeMint(msg.sender, tokenId);\r\n        _setTokenURI(\r\n            tokenId,\r\n            string(\r\n                abi.encodePacked(\r\n                    \"https://gateway.pinata.cloud/ipfs/QmdokG9tmeRSNwyDVBN9CGHXtX2pPAzxR1PycaSpjnGkBB/RowBoat\",\r\n                    Strings.toString(currentIndex),\r\n                    \".json\"\r\n                )\r\n            )\r\n        );\r\n    }\r\n\r\n    // The following functions are overrides required by Solidity.\r\n\r\n    function _beforeTokenTransfer(\r\n        address from,\r\n        address to,\r\n        uint256 tokenId,\r\n        uint256 batchSize\r\n    ) internal override(ERC721, ERC721Enumerable) {\r\n        super._beforeTokenTransfer(from, to, tokenId, batchSize);\r\n    }\r\n\r\n    function _burn(\r\n        uint256 tokenId\r\n    ) internal override(ERC721, ERC721URIStorage) {\r\n        super._burn(tokenId);\r\n    }\r\n\r\n    function tokenURI(\r\n        uint256 tokenId\r\n    ) public view override(ERC721, ERC721URIStorage) returns (string memory) {\r\n        return super.tokenURI(tokenId);\r\n    }\r\n\r\n    function supportsInterface(\r\n        bytes4 interfaceId\r\n    )\r\n        public\r\n        view\r\n        override(ERC721, ERC721Enumerable, ERC721URIStorage)\r\n        returns (bool)\r\n    {\r\n        return super.supportsInterface(interfaceId);\r\n    }\r\n}\r\n",
  "sourcePath": "C:\\Users\\sumer\\OneDrive\\Desktop\\Workbench\\NFTDeployment\\contracts\\RowBoatNFT.sol",
  "compiler": {
    "name": "solc",
    "version": "0.8.16+commit.07a7930e.Emscripten.clang"
  },
  "schemaVersion": "3.4.15",
  "updatedAt": "2023-08-14T16:02:04.819Z",
  "networkType": "ethereum",
  "devdoc": {
    "kind": "dev",
    "methods": {
      "approve(address,uint256)": {
        "details": "See {IERC721-approve}."
      },
      "balanceOf(address)": {
        "details": "See {IERC721-balanceOf}."
      },
      "getApproved(uint256)": {
        "details": "See {IERC721-getApproved}."
      },
      "isApprovedForAll(address,address)": {
        "details": "See {IERC721-isApprovedForAll}."
      },
      "name()": {
        "details": "See {IERC721Metadata-name}."
      },
      "owner()": {
        "details": "Returns the address of the current owner."
      },
      "ownerOf(uint256)": {
        "details": "See {IERC721-ownerOf}."
      },
      "renounceOwnership()": {
        "details": "Leaves the contract without owner. It will not be possible to call `onlyOwner` functions. Can only be called by the current owner. NOTE: Renouncing ownership will leave the contract without an owner, thereby disabling any functionality that is only available to the owner."
      },
      "safeTransferFrom(address,address,uint256)": {
        "details": "See {IERC721-safeTransferFrom}."
      },
      "safeTransferFrom(address,address,uint256,bytes)": {
        "details": "See {IERC721-safeTransferFrom}."
      },
      "setApprovalForAll(address,bool)": {
        "details": "See {IERC721-setApprovalForAll}."
      },
      "symbol()": {
        "details": "See {IERC721Metadata-symbol}."
      },
      "tokenByIndex(uint256)": {
        "details": "See {IERC721Enumerable-tokenByIndex}."
      },
      "tokenOfOwnerByIndex(address,uint256)": {
        "details": "See {IERC721Enumerable-tokenOfOwnerByIndex}."
      },
      "totalSupply()": {
        "details": "See {IERC721Enumerable-totalSupply}."
      },
      "transferFrom(address,address,uint256)": {
        "details": "See {IERC721-transferFrom}."
      },
      "transferOwnership(address)": {
        "details": "Transfers ownership of the contract to a new account (`newOwner`). Can only be called by the current owner."
      }
    },
    "version": 1
  },
  "userdoc": {
    "kind": "user",
    "methods": {},
    "version": 1
  }
}