{
  "contractName": "ShovelNFT",
  "abi": [
    {
      "inputs": [
        {
          "internalType": "contract ERC20",
          "name": "_paymentCurrency1",
          "type": "address"
        },
        {
          "internalType": "contract ERC20",
          "name": "_paymentCurrency2",
          "type": "address"
        },
        {
          "internalType": "contract ERC721",
          "name": "_requiredNFT1",
          "type": "address"
        },
        {
          "internalType": "contract ERC721",
          "name": "_requiredNFT2",
          "type": "address"
        },
        {
          "internalType": "contract ERC721",
          "name": "_requiredNFT3",
          "type": "address"
        },
        {
          "internalType": "uint256",
          "name": "_requiredAmount1",
          "type": "uint256"
        },
        {
          "internalType": "uint256",
          "name": "_requiredAmount2",
          "type": "uint256"
        }
      ],
      "stateMutability": "nonpayable",
      "type": "constructor"
    },
    {
      "anonymous": false,
      "inputs": [
        {
          "indexed": true,
          "internalType": "address",
          "name": "owner",
          "type": "address"
        },
        {
          "indexed": true,
          "internalType": "address",
          "name": "approved",
          "type": "address"
        },
        {
          "indexed": true,
          "internalType": "uint256",
          "name": "tokenId",
          "type": "uint256"
        }
      ],
      "name": "Approval",
      "type": "event"
    },
    {
      "anonymous": false,
      "inputs": [
        {
          "indexed": true,
          "internalType": "address",
          "name": "owner",
          "type": "address"
        },
        {
          "indexed": true,
          "internalType": "address",
          "name": "operator",
          "type": "address"
        },
        {
          "indexed": false,
          "internalType": "bool",
          "name": "approved",
          "type": "bool"
        }
      ],
      "name": "ApprovalForAll",
      "type": "event"
    },
    {
      "anonymous": false,
      "inputs": [
        {
          "indexed": false,
          "internalType": "uint256",
          "name": "_fromTokenId",
          "type": "uint256"
        },
        {
          "indexed": false,
          "internalType": "uint256",
          "name": "_toTokenId",
          "type": "uint256"
        }
      ],
      "name": "BatchMetadataUpdate",
      "type": "event"
    },
    {
      "anonymous": false,
      "inputs": [
        {
          "indexed": false,
          "internalType": "uint256",
          "name": "_tokenId",
          "type": "uint256"
        }
      ],
      "name": "MetadataUpdate",
      "type": "event"
    },
    {
      "anonymous": false,
      "inputs": [
        {
          "indexed": true,
          "internalType": "address",
          "name": "previousOwner",
          "type": "address"
        },
        {
          "indexed": true,
          "internalType": "address",
          "name": "newOwner",
          "type": "address"
        }
      ],
      "name": "OwnershipTransferred",
      "type": "event"
    },
    {
      "anonymous": false,
      "inputs": [
        {
          "indexed": true,
          "internalType": "address",
          "name": "from",
          "type": "address"
        },
        {
          "indexed": true,
          "internalType": "address",
          "name": "to",
          "type": "address"
        },
        {
          "indexed": true,
          "internalType": "uint256",
          "name": "tokenId",
          "type": "uint256"
        }
      ],
      "name": "Transfer",
      "type": "event"
    },
    {
      "inputs": [
        {
          "internalType": "address",
          "name": "to",
          "type": "address"
        },
        {
          "internalType": "uint256",
          "name": "tokenId",
          "type": "uint256"
        }
      ],
      "name": "approve",
      "outputs": [],
      "stateMutability": "nonpayable",
      "type": "function"
    },
    {
      "inputs": [
        {
          "internalType": "address",
          "name": "owner",
          "type": "address"
        }
      ],
      "name": "balanceOf",
      "outputs": [
        {
          "internalType": "uint256",
          "name": "",
          "type": "uint256"
        }
      ],
      "stateMutability": "view",
      "type": "function",
      "constant": true
    },
    {
      "inputs": [
        {
          "internalType": "uint256",
          "name": "tokenId",
          "type": "uint256"
        }
      ],
      "name": "getApproved",
      "outputs": [
        {
          "internalType": "address",
          "name": "",
          "type": "address"
        }
      ],
      "stateMutability": "view",
      "type": "function",
      "constant": true
    },
    {
      "inputs": [
        {
          "internalType": "address",
          "name": "owner",
          "type": "address"
        },
        {
          "internalType": "address",
          "name": "operator",
          "type": "address"
        }
      ],
      "name": "isApprovedForAll",
      "outputs": [
        {
          "internalType": "bool",
          "name": "",
          "type": "bool"
        }
      ],
      "stateMutability": "view",
      "type": "function",
      "constant": true
    },
    {
      "inputs": [],
      "name": "name",
      "outputs": [
        {
          "internalType": "string",
          "name": "",
          "type": "string"
        }
      ],
      "stateMutability": "view",
      "type": "function",
      "constant": true
    },
    {
      "inputs": [],
      "name": "owner",
      "outputs": [
        {
          "internalType": "address",
          "name": "",
          "type": "address"
        }
      ],
      "stateMutability": "view",
      "type": "function",
      "constant": true
    },
    {
      "inputs": [
        {
          "internalType": "uint256",
          "name": "tokenId",
          "type": "uint256"
        }
      ],
      "name": "ownerOf",
      "outputs": [
        {
          "internalType": "address",
          "name": "",
          "type": "address"
        }
      ],
      "stateMutability": "view",
      "type": "function",
      "constant": true
    },
    {
      "inputs": [],
      "name": "paymentCurrency1",
      "outputs": [
        {
          "internalType": "contract ERC20",
          "name": "",
          "type": "address"
        }
      ],
      "stateMutability": "view",
      "type": "function",
      "constant": true
    },
    {
      "inputs": [],
      "name": "paymentCurrency2",
      "outputs": [
        {
          "internalType": "contract ERC20",
          "name": "",
          "type": "address"
        }
      ],
      "stateMutability": "view",
      "type": "function",
      "constant": true
    },
    {
      "inputs": [],
      "name": "renounceOwnership",
      "outputs": [],
      "stateMutability": "nonpayable",
      "type": "function"
    },
    {
      "inputs": [],
      "name": "requiredAmount1",
      "outputs": [
        {
          "internalType": "uint256",
          "name": "",
          "type": "uint256"
        }
      ],
      "stateMutability": "view",
      "type": "function",
      "constant": true
    },
    {
      "inputs": [],
      "name": "requiredAmount2",
      "outputs": [
        {
          "internalType": "uint256",
          "name": "",
          "type": "uint256"
        }
      ],
      "stateMutability": "view",
      "type": "function",
      "constant": true
    },
    {
      "inputs": [],
      "name": "requiredNFT1",
      "outputs": [
        {
          "internalType": "contract ERC721",
          "name": "",
          "type": "address"
        }
      ],
      "stateMutability": "view",
      "type": "function",
      "constant": true
    },
    {
      "inputs": [],
      "name": "requiredNFT2",
      "outputs": [
        {
          "internalType": "contract ERC721",
          "name": "",
          "type": "address"
        }
      ],
      "stateMutability": "view",
      "type": "function",
      "constant": true
    },
    {
      "inputs": [],
      "name": "requiredNFT3",
      "outputs": [
        {
          "internalType": "contract ERC721",
          "name": "",
          "type": "address"
        }
      ],
      "stateMutability": "view",
      "type": "function",
      "constant": true
    },
    {
      "inputs": [
        {
          "internalType": "address",
          "name": "from",
          "type": "address"
        },
        {
          "internalType": "address",
          "name": "to",
          "type": "address"
        },
        {
          "internalType": "uint256",
          "name": "tokenId",
          "type": "uint256"
        }
      ],
      "name": "safeTransferFrom",
      "outputs": [],
      "stateMutability": "nonpayable",
      "type": "function"
    },
    {
      "inputs": [
        {
          "internalType": "address",
          "name": "from",
          "type": "address"
        },
        {
          "internalType": "address",
          "name": "to",
          "type": "address"
        },
        {
          "internalType": "uint256",
          "name": "tokenId",
          "type": "uint256"
        },
        {
          "internalType": "bytes",
          "name": "data",
          "type": "bytes"
        }
      ],
      "name": "safeTransferFrom",
      "outputs": [],
      "stateMutability": "nonpayable",
      "type": "function"
    },
    {
      "inputs": [
        {
          "internalType": "address",
          "name": "operator",
          "type": "address"
        },
        {
          "internalType": "bool",
          "name": "approved",
          "type": "bool"
        }
      ],
      "name": "setApprovalForAll",
      "outputs": [],
      "stateMutability": "nonpayable",
      "type": "function"
    },
    {
      "inputs": [],
      "name": "symbol",
      "outputs": [
        {
          "internalType": "string",
          "name": "",
          "type": "string"
        }
      ],
      "stateMutability": "view",
      "type": "function",
      "constant": true
    },
    {
      "inputs": [
        {
          "internalType": "uint256",
          "name": "index",
          "type": "uint256"
        }
      ],
      "name": "tokenByIndex",
      "outputs": [
        {
          "internalType": "uint256",
          "name": "",
          "type": "uint256"
        }
      ],
      "stateMutability": "view",
      "type": "function",
      "constant": true
    },
    {
      "inputs": [
        {
          "internalType": "address",
          "name": "owner",
          "type": "address"
        },
        {
          "internalType": "uint256",
          "name": "index",
          "type": "uint256"
        }
      ],
      "name": "tokenOfOwnerByIndex",
      "outputs": [
        {
          "internalType": "uint256",
          "name": "",
          "type": "uint256"
        }
      ],
      "stateMutability": "view",
      "type": "function",
      "constant": true
    },
    {
      "inputs": [],
      "name": "totalSupply",
      "outputs": [
        {
          "internalType": "uint256",
          "name": "",
          "type": "uint256"
        }
      ],
      "stateMutability": "view",
      "type": "function",
      "constant": true
    },
    {
      "inputs": [
        {
          "internalType": "address",
          "name": "from",
          "type": "address"
        },
        {
          "internalType": "address",
          "name": "to",
          "type": "address"
        },
        {
          "internalType": "uint256",
          "name": "tokenId",
          "type": "uint256"
        }
      ],
      "name": "transferFrom",
      "outputs": [],
      "stateMutability": "nonpayable",
      "type": "function"
    },
    {
      "inputs": [
        {
          "internalType": "address",
          "name": "newOwner",
          "type": "address"
        }
      ],
      "name": "transferOwnership",
      "outputs": [],
      "stateMutability": "nonpayable",
      "type": "function"
    },
    {
      "inputs": [
        {
          "internalType": "contract ERC20",
          "name": "_paymentCurrency",
          "type": "address"
        }
      ],
      "name": "setPaymentCurrency1",
      "outputs": [],
      "stateMutability": "nonpayable",
      "type": "function"
    },
    {
      "inputs": [
        {
          "internalType": "contract ERC20",
          "name": "_paymentCurrency",
          "type": "address"
        }
      ],
      "name": "setPaymentCurrency2",
      "outputs": [],
      "stateMutability": "nonpayable",
      "type": "function"
    },
    {
      "inputs": [
        {
          "internalType": "contract ERC721",
          "name": "_requiredNFT",
          "type": "address"
        }
      ],
      "name": "setRequiredNFT1",
      "outputs": [],
      "stateMutability": "nonpayable",
      "type": "function"
    },
    {
      "inputs": [
        {
          "internalType": "contract ERC721",
          "name": "_requiredNFT",
          "type": "address"
        }
      ],
      "name": "setRequiredNFT2",
      "outputs": [],
      "stateMutability": "nonpayable",
      "type": "function"
    },
    {
      "inputs": [
        {
          "internalType": "uint256",
          "name": "_requiredAmount",
          "type": "uint256"
        }
      ],
      "name": "setRequiredAmount1",
      "outputs": [],
      "stateMutability": "nonpayable",
      "type": "function"
    },
    {
      "inputs": [
        {
          "internalType": "uint256",
          "name": "_requiredAmount",
          "type": "uint256"
        }
      ],
      "name": "setRequiredAmount2",
      "outputs": [],
      "stateMutability": "nonpayable",
      "type": "function"
    },
    {
      "inputs": [],
      "name": "buyShovel",
      "outputs": [],
      "stateMutability": "nonpayable",
      "type": "function"
    },
    {
      "inputs": [
        {
          "internalType": "uint256",
          "name": "tokenId",
          "type": "uint256"
        }
      ],
      "name": "tokenURI",
      "outputs": [
        {
          "internalType": "string",
          "name": "",
          "type": "string"
        }
      ],
      "stateMutability": "view",
      "type": "function",
      "constant": true
    },
    {
      "inputs": [
        {
          "internalType": "bytes4",
          "name": "interfaceId",
          "type": "bytes4"
        }
      ],
      "name": "supportsInterface",
      "outputs": [
        {
          "internalType": "bool",
          "name": "",
          "type": "bool"
        }
      ],
      "stateMutability": "view",
      "type": "function",
      "constant": true
    }
  ],
  "bytecode": "0x60806040523480156200001157600080fd5b5060405162005094380380620050948339818101604052810190620000379190620006db565b6040518060400160405280600981526020017f53686f76656c4e465400000000000000000000000000000000000000000000008152506040518060400160405280600681526020017f53686f76656c00000000000000000000000000000000000000000000000000008152508160009081620000b49190620009fe565b508060019081620000c69190620009fe565b505050620000e9620000dd6200050f60201b60201c565b6200051760201b60201c565b600073ffffffffffffffffffffffffffffffffffffffff168773ffffffffffffffffffffffffffffffffffffffff16036200015b576040517f08c379a0000000000000000000000000000000000000000000000000000000008152600401620001529062000b6c565b60405180910390fd5b600073ffffffffffffffffffffffffffffffffffffffff168673ffffffffffffffffffffffffffffffffffffffff1603620001cd576040517f08c379a0000000000000000000000000000000000000000000000000000000008152600401620001c49062000b6c565b60405180910390fd5b600073ffffffffffffffffffffffffffffffffffffffff168573ffffffffffffffffffffffffffffffffffffffff16036200023f576040517f08c379a0000000000000000000000000000000000000000000000000000000008152600401620002369062000bde565b60405180910390fd5b600073ffffffffffffffffffffffffffffffffffffffff168473ffffffffffffffffffffffffffffffffffffffff1603620002b1576040517f08c379a0000000000000000000000000000000000000000000000000000000008152600401620002a89062000bde565b60405180910390fd5b600073ffffffffffffffffffffffffffffffffffffffff168373ffffffffffffffffffffffffffffffffffffffff160362000323576040517f08c379a00000000000000000000000000000000000000000000000000000000081526004016200031a9062000bde565b60405180910390fd5b6000821162000369576040517f08c379a0000000000000000000000000000000000000000000000000000000008152600401620003609062000c50565b60405180910390fd5b60008111620003af576040517f08c379a0000000000000000000000000000000000000000000000000000000008152600401620003a69062000c50565b60405180910390fd5b86600c60006101000a81548173ffffffffffffffffffffffffffffffffffffffff021916908373ffffffffffffffffffffffffffffffffffffffff16021790555085600d60006101000a81548173ffffffffffffffffffffffffffffffffffffffff021916908373ffffffffffffffffffffffffffffffffffffffff16021790555084600e60006101000a81548173ffffffffffffffffffffffffffffffffffffffff021916908373ffffffffffffffffffffffffffffffffffffffff16021790555083600f60006101000a81548173ffffffffffffffffffffffffffffffffffffffff021916908373ffffffffffffffffffffffffffffffffffffffff16021790555082601060006101000a81548173ffffffffffffffffffffffffffffffffffffffff021916908373ffffffffffffffffffffffffffffffffffffffff16021790555081601181905550806012819055505050505050505062000c72565b600033905090565b6000600b60009054906101000a900473ffffffffffffffffffffffffffffffffffffffff16905081600b60006101000a81548173ffffffffffffffffffffffffffffffffffffffff021916908373ffffffffffffffffffffffffffffffffffffffff1602179055508173ffffffffffffffffffffffffffffffffffffffff168173ffffffffffffffffffffffffffffffffffffffff167f8be0079c531659141344cd1fd0a4f28419497f9722a3daafe3b4186f6b6457e060405160405180910390a35050565b600080fd5b600073ffffffffffffffffffffffffffffffffffffffff82169050919050565b60006200060f82620005e2565b9050919050565b6000620006238262000602565b9050919050565b620006358162000616565b81146200064157600080fd5b50565b60008151905062000655816200062a565b92915050565b6000620006688262000602565b9050919050565b6200067a816200065b565b81146200068657600080fd5b50565b6000815190506200069a816200066f565b92915050565b6000819050919050565b620006b581620006a0565b8114620006c157600080fd5b50565b600081519050620006d581620006aa565b92915050565b600080600080600080600060e0888a031215620006fd57620006fc620005dd565b5b60006200070d8a828b0162000644565b9750506020620007208a828b0162000644565b9650506040620007338a828b0162000689565b9550506060620007468a828b0162000689565b9450506080620007598a828b0162000689565b93505060a06200076c8a828b01620006c4565b92505060c06200077f8a828b01620006c4565b91505092959891949750929550565b600081519050919050565b7f4e487b7100000000000000000000000000000000000000000000000000000000600052604160045260246000fd5b7f4e487b7100000000000000000000000000000000000000000000000000000000600052602260045260246000fd5b600060028204905060018216806200081057607f821691505b602082108103620008265762000825620007c8565b5b50919050565b60008190508160005260206000209050919050565b60006020601f8301049050919050565b600082821b905092915050565b600060088302620008907fffffffffffffffffffffffffffffffffffffffffffffffffffffffffffffffff8262000851565b6200089c868362000851565b95508019841693508086168417925050509392505050565b6000819050919050565b6000620008df620008d9620008d384620006a0565b620008b4565b620006a0565b9050919050565b6000819050919050565b620008fb83620008be565b620009136200090a82620008e6565b8484546200085e565b825550505050565b600090565b6200092a6200091b565b62000937818484620008f0565b505050565b5b818110156200095f576200095360008262000920565b6001810190506200093d565b5050565b601f821115620009ae5762000978816200082c565b620009838462000841565b8101602085101562000993578190505b620009ab620009a28562000841565b8301826200093c565b50505b505050565b600082821c905092915050565b6000620009d360001984600802620009b3565b1980831691505092915050565b6000620009ee8383620009c0565b9150826002028217905092915050565b62000a09826200078e565b67ffffffffffffffff81111562000a255762000a2462000799565b5b62000a318254620007f7565b62000a3e82828562000963565b600060209050601f83116001811462000a76576000841562000a61578287015190505b62000a6d8582620009e0565b86555062000add565b601f19841662000a86866200082c565b60005b8281101562000ab05784890151825560018201915060208501945060208101905062000a89565b8683101562000ad0578489015162000acc601f891682620009c0565b8355505b6001600288020188555050505b505050505050565b600082825260208201905092915050565b7f546f6b656e20616464726573732063616e27742062652061646472657373207a60008201527f65726f0000000000000000000000000000000000000000000000000000000000602082015250565b600062000b5460238362000ae5565b915062000b618262000af6565b604082019050919050565b6000602082019050818103600083015262000b878162000b45565b9050919050565b7f41646472657373732063616e2774206265207a65726f00000000000000000000600082015250565b600062000bc660168362000ae5565b915062000bd38262000b8e565b602082019050919050565b6000602082019050818103600083015262000bf98162000bb7565b9050919050565b7f616d6f756e742063616e6e6f74206265207a65726f0000000000000000000000600082015250565b600062000c3860158362000ae5565b915062000c458262000c00565b602082019050919050565b6000602082019050818103600083015262000c6b8162000c29565b9050919050565b6144128062000c826000396000f3fe608060405234801561001057600080fd5b50600436106101fb5760003560e01c8063715018a61161011a578063b88d4fde116100ad578063d86158411161007c578063d86158411461059e578063e985e9c5146105ba578063f2fde38b146105ea578063f64542a014610606578063f8e80d8614610610576101fb565b8063b88d4fde14610518578063c3cce1b414610534578063c87b56dd14610552578063cc528abb14610582576101fb565b806395d89b41116100e957806395d89b41146104a4578063a22cb465146104c2578063a9084571146104de578063b2a77331146104fc576101fb565b8063715018a61461044257806376e8074e1461044c5780637ed3f6291461046a5780638da5cb5b14610486576101fb565b80632f745c59116101925780634f6ccce7116101615780634f6ccce7146103945780635d8c9ee6146103c45780636352211e146103e257806370a0823114610412576101fb565b80632f745c591461030e5780633db437721461033e57806342842e0e1461035c5780634b084c5214610378576101fb565b80630cd73ee4116101ce5780630cd73ee41461029a5780630eb547c9146102b857806318160ddd146102d457806323b872dd146102f2576101fb565b806301ffc9a71461020057806306fdde0314610230578063081812fc1461024e578063095ea7b31461027e575b600080fd5b61021a60048036038101906102159190612bb0565b61062e565b6040516102279190612bf8565b60405180910390f35b610238610640565b6040516102459190612ca3565b60405180910390f35b61026860048036038101906102639190612cfb565b6106d2565b6040516102759190612d69565b60405180910390f35b61029860048036038101906102939190612db0565b610718565b005b6102a261082f565b6040516102af9190612dff565b60405180910390f35b6102d260048036038101906102cd9190612e58565b610835565b005b6102dc6108f0565b6040516102e99190612dff565b60405180910390f35b61030c60048036038101906103079190612e85565b6108fd565b005b61032860048036038101906103239190612db0565b61095d565b6040516103359190612dff565b60405180910390f35b610346610a02565b6040516103539190612f37565b60405180910390f35b61037660048036038101906103719190612e85565b610a28565b005b610392600480360381019061038d9190612e58565b610a48565b005b6103ae60048036038101906103a99190612cfb565b610b03565b6040516103bb9190612dff565b60405180910390f35b6103cc610b74565b6040516103d99190612f73565b60405180910390f35b6103fc60048036038101906103f79190612cfb565b610b9a565b6040516104099190612d69565b60405180910390f35b61042c60048036038101906104279190612f8e565b610c20565b6040516104399190612dff565b60405180910390f35b61044a610cd7565b005b610454610ceb565b6040516104619190612f37565b60405180910390f35b610484600480360381019061047f9190612cfb565b610d11565b005b61048e610d66565b60405161049b9190612d69565b60405180910390f35b6104ac610d90565b6040516104b99190612ca3565b60405180910390f35b6104dc60048036038101906104d79190612fe7565b610e22565b005b6104e6610e38565b6040516104f39190612f73565b60405180910390f35b61051660048036038101906105119190613065565b610e5e565b005b610532600480360381019061052d91906131c7565b610f19565b005b61053c610f7b565b6040516105499190612f37565b60405180910390f35b61056c60048036038101906105679190612cfb565b610fa1565b6040516105799190612ca3565b60405180910390f35b61059c60048036038101906105979190612cfb565b610fb3565b005b6105b860048036038101906105b39190613065565b611008565b005b6105d460048036038101906105cf919061324a565b6110c3565b6040516105e19190612bf8565b60405180910390f35b61060460048036038101906105ff9190612f8e565b611157565b005b61060e6111da565b005b6106186113db565b6040516106259190612dff565b60405180910390f35b6000610639826113e1565b9050919050565b60606000805461064f906132b9565b80601f016020809104026020016040519081016040528092919081815260200182805461067b906132b9565b80156106c85780601f1061069d576101008083540402835291602001916106c8565b820191906000526020600020905b8154815290600101906020018083116106ab57829003601f168201915b5050505050905090565b60006106dd82611442565b6004600083815260200190815260200160002060009054906101000a900473ffffffffffffffffffffffffffffffffffffffff169050919050565b600061072382610b9a565b90508073ffffffffffffffffffffffffffffffffffffffff168373ffffffffffffffffffffffffffffffffffffffff1603610793576040517f08c379a000000000000000000000000000000000000000000000000000000000815260040161078a9061335c565b60405180910390fd5b8073ffffffffffffffffffffffffffffffffffffffff166107b261148d565b73ffffffffffffffffffffffffffffffffffffffff1614806107e157506107e0816107db61148d565b6110c3565b5b610820576040517f08c379a0000000000000000000000000000000000000000000000000000000008152600401610817906133ee565b60405180910390fd5b61082a8383611495565b505050565b60125481565b61083d61154e565b600073ffffffffffffffffffffffffffffffffffffffff168173ffffffffffffffffffffffffffffffffffffffff16036108ac576040517f08c379a00000000000000000000000000000000000000000000000000000000081526004016108a39061345a565b60405180910390fd5b80600f60006101000a81548173ffffffffffffffffffffffffffffffffffffffff021916908373ffffffffffffffffffffffffffffffffffffffff16021790555050565b6000600880549050905090565b61090e61090861148d565b826115cc565b61094d576040517f08c379a0000000000000000000000000000000000000000000000000000000008152600401610944906134ec565b60405180910390fd5b610958838383611661565b505050565b600061096883610c20565b82106109a9576040517f08c379a00000000000000000000000000000000000000000000000000000000081526004016109a09061357e565b60405180910390fd5b600660008473ffffffffffffffffffffffffffffffffffffffff1673ffffffffffffffffffffffffffffffffffffffff168152602001908152602001600020600083815260200190815260200160002054905092915050565b600f60009054906101000a900473ffffffffffffffffffffffffffffffffffffffff1681565b610a4383838360405180602001604052806000815250610f19565b505050565b610a5061154e565b600073ffffffffffffffffffffffffffffffffffffffff168173ffffffffffffffffffffffffffffffffffffffff1603610abf576040517f08c379a0000000000000000000000000000000000000000000000000000000008152600401610ab69061345a565b60405180910390fd5b80600e60006101000a81548173ffffffffffffffffffffffffffffffffffffffff021916908373ffffffffffffffffffffffffffffffffffffffff16021790555050565b6000610b0d6108f0565b8210610b4e576040517f08c379a0000000000000000000000000000000000000000000000000000000008152600401610b4590613610565b60405180910390fd5b60088281548110610b6257610b61613630565b5b90600052602060002001549050919050565b600d60009054906101000a900473ffffffffffffffffffffffffffffffffffffffff1681565b600080610ba68361195a565b9050600073ffffffffffffffffffffffffffffffffffffffff168173ffffffffffffffffffffffffffffffffffffffff1603610c17576040517f08c379a0000000000000000000000000000000000000000000000000000000008152600401610c0e906136ab565b60405180910390fd5b80915050919050565b60008073ffffffffffffffffffffffffffffffffffffffff168273ffffffffffffffffffffffffffffffffffffffff1603610c90576040517f08c379a0000000000000000000000000000000000000000000000000000000008152600401610c879061373d565b60405180910390fd5b600360008373ffffffffffffffffffffffffffffffffffffffff1673ffffffffffffffffffffffffffffffffffffffff168152602001908152602001600020549050919050565b610cdf61154e565b610ce96000611997565b565b601060009054906101000a900473ffffffffffffffffffffffffffffffffffffffff1681565b610d1961154e565b60008111610d5c576040517f08c379a0000000000000000000000000000000000000000000000000000000008152600401610d53906137a9565b60405180910390fd5b8060118190555050565b6000600b60009054906101000a900473ffffffffffffffffffffffffffffffffffffffff16905090565b606060018054610d9f906132b9565b80601f0160208091040260200160405190810160405280929190818152602001828054610dcb906132b9565b8015610e185780601f10610ded57610100808354040283529160200191610e18565b820191906000526020600020905b815481529060010190602001808311610dfb57829003601f168201915b5050505050905090565b610e34610e2d61148d565b8383611a5d565b5050565b600c60009054906101000a900473ffffffffffffffffffffffffffffffffffffffff1681565b610e6661154e565b600073ffffffffffffffffffffffffffffffffffffffff168173ffffffffffffffffffffffffffffffffffffffff1603610ed5576040517f08c379a0000000000000000000000000000000000000000000000000000000008152600401610ecc9061383b565b60405180910390fd5b80600d60006101000a81548173ffffffffffffffffffffffffffffffffffffffff021916908373ffffffffffffffffffffffffffffffffffffffff16021790555050565b610f2a610f2461148d565b836115cc565b610f69576040517f08c379a0000000000000000000000000000000000000000000000000000000008152600401610f60906134ec565b60405180910390fd5b610f7584848484611bc9565b50505050565b600e60009054906101000a900473ffffffffffffffffffffffffffffffffffffffff1681565b6060610fac82611c25565b9050919050565b610fbb61154e565b60008111610ffe576040517f08c379a0000000000000000000000000000000000000000000000000000000008152600401610ff5906137a9565b60405180910390fd5b8060128190555050565b61101061154e565b600073ffffffffffffffffffffffffffffffffffffffff168173ffffffffffffffffffffffffffffffffffffffff160361107f576040517f08c379a00000000000000000000000000000000000000000000000000000000081526004016110769061383b565b60405180910390fd5b80600c60006101000a81548173ffffffffffffffffffffffffffffffffffffffff021916908373ffffffffffffffffffffffffffffffffffffffff16021790555050565b6000600560008473ffffffffffffffffffffffffffffffffffffffff1673ffffffffffffffffffffffffffffffffffffffff16815260200190815260200160002060008373ffffffffffffffffffffffffffffffffffffffff1673ffffffffffffffffffffffffffffffffffffffff16815260200190815260200160002060009054906101000a900460ff16905092915050565b61115f61154e565b600073ffffffffffffffffffffffffffffffffffffffff168173ffffffffffffffffffffffffffffffffffffffff16036111ce576040517f08c379a00000000000000000000000000000000000000000000000000000000081526004016111c5906138cd565b60405180910390fd5b6111d781611997565b50565b600c60009054906101000a900473ffffffffffffffffffffffffffffffffffffffff1673ffffffffffffffffffffffffffffffffffffffff166323b872dd33306011546040518463ffffffff1660e01b815260040161123b939291906138ed565b6020604051808303816000875af115801561125a573d6000803e3d6000fd5b505050506040513d601f19601f8201168201806040525081019061127e9190613939565b6112bd576040517f08c379a00000000000000000000000000000000000000000000000000000000081526004016112b4906139d8565b60405180910390fd5b600d60009054906101000a900473ffffffffffffffffffffffffffffffffffffffff1673ffffffffffffffffffffffffffffffffffffffff166323b872dd33306012546040518463ffffffff1660e01b815260040161131e939291906138ed565b6020604051808303816000875af115801561133d573d6000803e3d6000fd5b505050506040513d601f19601f820116820180604052508101906113619190613939565b6113a0576040517f08c379a000000000000000000000000000000000000000000000000000000000815260040161139790613a6a565b60405180910390fd5b60006113aa6108f0565b90506113b63382611d37565b6113d88160405180608001604052806050815260200161438d60509139611d55565b50565b60115481565b6000634906490660e01b7bffffffffffffffffffffffffffffffffffffffffffffffffffffffff1916827bffffffffffffffffffffffffffffffffffffffffffffffffffffffff1916148061143b575061143a82611df9565b5b9050919050565b61144b81611e73565b61148a576040517f08c379a0000000000000000000000000000000000000000000000000000000008152600401611481906136ab565b60405180910390fd5b50565b600033905090565b816004600083815260200190815260200160002060006101000a81548173ffffffffffffffffffffffffffffffffffffffff021916908373ffffffffffffffffffffffffffffffffffffffff160217905550808273ffffffffffffffffffffffffffffffffffffffff1661150883610b9a565b73ffffffffffffffffffffffffffffffffffffffff167f8c5be1e5ebec7d5bd14f71427d1e84f3dd0314c0f7b2291e5b200ac8c7c3b92560405160405180910390a45050565b61155661148d565b73ffffffffffffffffffffffffffffffffffffffff16611574610d66565b73ffffffffffffffffffffffffffffffffffffffff16146115ca576040517f08c379a00000000000000000000000000000000000000000000000000000000081526004016115c190613ad6565b60405180910390fd5b565b6000806115d883610b9a565b90508073ffffffffffffffffffffffffffffffffffffffff168473ffffffffffffffffffffffffffffffffffffffff16148061161a575061161981856110c3565b5b8061165857508373ffffffffffffffffffffffffffffffffffffffff16611640846106d2565b73ffffffffffffffffffffffffffffffffffffffff16145b91505092915050565b8273ffffffffffffffffffffffffffffffffffffffff1661168182610b9a565b73ffffffffffffffffffffffffffffffffffffffff16146116d7576040517f08c379a00000000000000000000000000000000000000000000000000000000081526004016116ce90613b68565b60405180910390fd5b600073ffffffffffffffffffffffffffffffffffffffff168273ffffffffffffffffffffffffffffffffffffffff1603611746576040517f08c379a000000000000000000000000000000000000000000000000000000000815260040161173d90613bfa565b60405180910390fd5b6117538383836001611eb4565b8273ffffffffffffffffffffffffffffffffffffffff1661177382610b9a565b73ffffffffffffffffffffffffffffffffffffffff16146117c9576040517f08c379a00000000000000000000000000000000000000000000000000000000081526004016117c090613b68565b60405180910390fd5b6004600082815260200190815260200160002060006101000a81549073ffffffffffffffffffffffffffffffffffffffff02191690556001600360008573ffffffffffffffffffffffffffffffffffffffff1673ffffffffffffffffffffffffffffffffffffffff168152602001908152602001600020600082825403925050819055506001600360008473ffffffffffffffffffffffffffffffffffffffff1673ffffffffffffffffffffffffffffffffffffffff16815260200190815260200160002060008282540192505081905550816002600083815260200190815260200160002060006101000a81548173ffffffffffffffffffffffffffffffffffffffff021916908373ffffffffffffffffffffffffffffffffffffffff160217905550808273ffffffffffffffffffffffffffffffffffffffff168473ffffffffffffffffffffffffffffffffffffffff167fddf252ad1be2c89b69c2b068fc378daa952ba7f163c4a11628f55a4df523b3ef60405160405180910390a46119558383836001611ec6565b505050565b60006002600083815260200190815260200160002060009054906101000a900473ffffffffffffffffffffffffffffffffffffffff169050919050565b6000600b60009054906101000a900473ffffffffffffffffffffffffffffffffffffffff16905081600b60006101000a81548173ffffffffffffffffffffffffffffffffffffffff021916908373ffffffffffffffffffffffffffffffffffffffff1602179055508173ffffffffffffffffffffffffffffffffffffffff168173ffffffffffffffffffffffffffffffffffffffff167f8be0079c531659141344cd1fd0a4f28419497f9722a3daafe3b4186f6b6457e060405160405180910390a35050565b8173ffffffffffffffffffffffffffffffffffffffff168373ffffffffffffffffffffffffffffffffffffffff1603611acb576040517f08c379a0000000000000000000000000000000000000000000000000000000008152600401611ac290613c66565b60405180910390fd5b80600560008573ffffffffffffffffffffffffffffffffffffffff1673ffffffffffffffffffffffffffffffffffffffff16815260200190815260200160002060008473ffffffffffffffffffffffffffffffffffffffff1673ffffffffffffffffffffffffffffffffffffffff16815260200190815260200160002060006101000a81548160ff0219169083151502179055508173ffffffffffffffffffffffffffffffffffffffff168373ffffffffffffffffffffffffffffffffffffffff167f17307eab39ab6107e8899845ad3d59bd9653f200f220920489ca2b5937696c3183604051611bbc9190612bf8565b60405180910390a3505050565b611bd4848484611661565b611be084848484611ecc565b611c1f576040517f08c379a0000000000000000000000000000000000000000000000000000000008152600401611c1690613cf8565b60405180910390fd5b50505050565b6060611c3082611442565b6000600a60008481526020019081526020016000208054611c50906132b9565b80601f0160208091040260200160405190810160405280929190818152602001828054611c7c906132b9565b8015611cc95780601f10611c9e57610100808354040283529160200191611cc9565b820191906000526020600020905b815481529060010190602001808311611cac57829003601f168201915b505050505090506000611cda612053565b90506000815103611cef578192505050611d32565b600082511115611d24578082604051602001611d0c929190613d54565b60405160208183030381529060405292505050611d32565b611d2d8461206a565b925050505b919050565b611d518282604051806020016040528060008152506120d2565b5050565b611d5e82611e73565b611d9d576040517f08c379a0000000000000000000000000000000000000000000000000000000008152600401611d9490613dea565b60405180910390fd5b80600a60008481526020019081526020016000209081611dbd9190613fac565b507ff8e1a15aba9398e019f0b49df1a4fde98ee17ae345cb5f6b5e2c27f5033e8ce782604051611ded9190612dff565b60405180910390a15050565b60007f780e9d63000000000000000000000000000000000000000000000000000000007bffffffffffffffffffffffffffffffffffffffffffffffffffffffff1916827bffffffffffffffffffffffffffffffffffffffffffffffffffffffff19161480611e6c5750611e6b8261212d565b5b9050919050565b60008073ffffffffffffffffffffffffffffffffffffffff16611e958361195a565b73ffffffffffffffffffffffffffffffffffffffff1614159050919050565b611ec08484848461220f565b50505050565b50505050565b6000611eed8473ffffffffffffffffffffffffffffffffffffffff1661236d565b15612046578373ffffffffffffffffffffffffffffffffffffffff1663150b7a02611f1661148d565b8786866040518563ffffffff1660e01b8152600401611f3894939291906140d3565b6020604051808303816000875af1925050508015611f7457506040513d601f19601f82011682018060405250810190611f719190614134565b60015b611ff6573d8060008114611fa4576040519150601f19603f3d011682016040523d82523d6000602084013e611fa9565b606091505b506000815103611fee576040517f08c379a0000000000000000000000000000000000000000000000000000000008152600401611fe590613cf8565b60405180910390fd5b805181602001fd5b63150b7a0260e01b7bffffffffffffffffffffffffffffffffffffffffffffffffffffffff1916817bffffffffffffffffffffffffffffffffffffffffffffffffffffffff19161491505061204b565b600190505b949350505050565b606060405180602001604052806000815250905090565b606061207582611442565b600061207f612053565b9050600081511161209f57604051806020016040528060008152506120ca565b806120a984612390565b6040516020016120ba929190613d54565b6040516020818303038152906040525b915050919050565b6120dc838361245e565b6120e96000848484611ecc565b612128576040517f08c379a000000000000000000000000000000000000000000000000000000000815260040161211f90613cf8565b60405180910390fd5b505050565b60007f80ac58cd000000000000000000000000000000000000000000000000000000007bffffffffffffffffffffffffffffffffffffffffffffffffffffffff1916827bffffffffffffffffffffffffffffffffffffffffffffffffffffffff191614806121f857507f5b5e139f000000000000000000000000000000000000000000000000000000007bffffffffffffffffffffffffffffffffffffffffffffffffffffffff1916827bffffffffffffffffffffffffffffffffffffffffffffffffffffffff1916145b8061220857506122078261267b565b5b9050919050565b61221b848484846126e5565b600181111561225f576040517f08c379a0000000000000000000000000000000000000000000000000000000008152600401612256906141d3565b60405180910390fd5b6000829050600073ffffffffffffffffffffffffffffffffffffffff168573ffffffffffffffffffffffffffffffffffffffff16036122a6576122a1816126eb565b6122e5565b8373ffffffffffffffffffffffffffffffffffffffff168573ffffffffffffffffffffffffffffffffffffffff16146122e4576122e38582612734565b5b5b600073ffffffffffffffffffffffffffffffffffffffff168473ffffffffffffffffffffffffffffffffffffffff160361232757612322816128a1565b612366565b8473ffffffffffffffffffffffffffffffffffffffff168473ffffffffffffffffffffffffffffffffffffffff1614612365576123648482612972565b5b5b5050505050565b6000808273ffffffffffffffffffffffffffffffffffffffff163b119050919050565b60606000600161239f846129f1565b01905060008167ffffffffffffffff8111156123be576123bd61309c565b5b6040519080825280601f01601f1916602001820160405280156123f05781602001600182028036833780820191505090505b509050600082602001820190505b600115612453578080600190039150507f3031323334353637383961626364656600000000000000000000000000000000600a86061a8153600a8581612447576124466141f3565b5b049450600085036123fe575b819350505050919050565b600073ffffffffffffffffffffffffffffffffffffffff168273ffffffffffffffffffffffffffffffffffffffff16036124cd576040517f08c379a00000000000000000000000000000000000000000000000000000000081526004016124c49061426e565b60405180910390fd5b6124d681611e73565b15612516576040517f08c379a000000000000000000000000000000000000000000000000000000000815260040161250d906142da565b60405180910390fd5b612524600083836001611eb4565b61252d81611e73565b1561256d576040517f08c379a0000000000000000000000000000000000000000000000000000000008152600401612564906142da565b60405180910390fd5b6001600360008473ffffffffffffffffffffffffffffffffffffffff1673ffffffffffffffffffffffffffffffffffffffff16815260200190815260200160002060008282540192505081905550816002600083815260200190815260200160002060006101000a81548173ffffffffffffffffffffffffffffffffffffffff021916908373ffffffffffffffffffffffffffffffffffffffff160217905550808273ffffffffffffffffffffffffffffffffffffffff16600073ffffffffffffffffffffffffffffffffffffffff167fddf252ad1be2c89b69c2b068fc378daa952ba7f163c4a11628f55a4df523b3ef60405160405180910390a4612677600083836001611ec6565b5050565b60007f01ffc9a7000000000000000000000000000000000000000000000000000000007bffffffffffffffffffffffffffffffffffffffffffffffffffffffff1916827bffffffffffffffffffffffffffffffffffffffffffffffffffffffff1916149050919050565b50505050565b6008805490506009600083815260200190815260200160002081905550600881908060018154018082558091505060019003906000526020600020016000909190919091505550565b6000600161274184610c20565b61274b9190614329565b9050600060076000848152602001908152602001600020549050818114612830576000600660008673ffffffffffffffffffffffffffffffffffffffff1673ffffffffffffffffffffffffffffffffffffffff168152602001908152602001600020600084815260200190815260200160002054905080600660008773ffffffffffffffffffffffffffffffffffffffff1673ffffffffffffffffffffffffffffffffffffffff168152602001908152602001600020600084815260200190815260200160002081905550816007600083815260200190815260200160002081905550505b6007600084815260200190815260200160002060009055600660008573ffffffffffffffffffffffffffffffffffffffff1673ffffffffffffffffffffffffffffffffffffffff16815260200190815260200160002060008381526020019081526020016000206000905550505050565b600060016008805490506128b59190614329565b90506000600960008481526020019081526020016000205490506000600883815481106128e5576128e4613630565b5b90600052602060002001549050806008838154811061290757612906613630565b5b9060005260206000200181905550816009600083815260200190815260200160002081905550600960008581526020019081526020016000206000905560088054806129565761295561435d565b5b6001900381819060005260206000200160009055905550505050565b600061297d83610c20565b905081600660008573ffffffffffffffffffffffffffffffffffffffff1673ffffffffffffffffffffffffffffffffffffffff168152602001908152602001600020600083815260200190815260200160002081905550806007600084815260200190815260200160002081905550505050565b600080600090507a184f03e93ff9f4daa797ed6e38ed64bf6a1f0100000000000000008310612a4f577a184f03e93ff9f4daa797ed6e38ed64bf6a1f0100000000000000008381612a4557612a446141f3565b5b0492506040810190505b6d04ee2d6d415b85acef81000000008310612a8c576d04ee2d6d415b85acef81000000008381612a8257612a816141f3565b5b0492506020810190505b662386f26fc100008310612abb57662386f26fc100008381612ab157612ab06141f3565b5b0492506010810190505b6305f5e1008310612ae4576305f5e1008381612ada57612ad96141f3565b5b0492506008810190505b6127108310612b09576127108381612aff57612afe6141f3565b5b0492506004810190505b60648310612b2c5760648381612b2257612b216141f3565b5b0492506002810190505b600a8310612b3b576001810190505b80915050919050565b6000604051905090565b600080fd5b600080fd5b60007fffffffff0000000000000000000000000000000000000000000000000000000082169050919050565b612b8d81612b58565b8114612b9857600080fd5b50565b600081359050612baa81612b84565b92915050565b600060208284031215612bc657612bc5612b4e565b5b6000612bd484828501612b9b565b91505092915050565b60008115159050919050565b612bf281612bdd565b82525050565b6000602082019050612c0d6000830184612be9565b92915050565b600081519050919050565b600082825260208201905092915050565b60005b83811015612c4d578082015181840152602081019050612c32565b60008484015250505050565b6000601f19601f8301169050919050565b6000612c7582612c13565b612c7f8185612c1e565b9350612c8f818560208601612c2f565b612c9881612c59565b840191505092915050565b60006020820190508181036000830152612cbd8184612c6a565b905092915050565b6000819050919050565b612cd881612cc5565b8114612ce357600080fd5b50565b600081359050612cf581612ccf565b92915050565b600060208284031215612d1157612d10612b4e565b5b6000612d1f84828501612ce6565b91505092915050565b600073ffffffffffffffffffffffffffffffffffffffff82169050919050565b6000612d5382612d28565b9050919050565b612d6381612d48565b82525050565b6000602082019050612d7e6000830184612d5a565b92915050565b612d8d81612d48565b8114612d9857600080fd5b50565b600081359050612daa81612d84565b92915050565b60008060408385031215612dc757612dc6612b4e565b5b6000612dd585828601612d9b565b9250506020612de685828601612ce6565b9150509250929050565b612df981612cc5565b82525050565b6000602082019050612e146000830184612df0565b92915050565b6000612e2582612d48565b9050919050565b612e3581612e1a565b8114612e4057600080fd5b50565b600081359050612e5281612e2c565b92915050565b600060208284031215612e6e57612e6d612b4e565b5b6000612e7c84828501612e43565b91505092915050565b600080600060608486031215612e9e57612e9d612b4e565b5b6000612eac86828701612d9b565b9350506020612ebd86828701612d9b565b9250506040612ece86828701612ce6565b9150509250925092565b6000819050919050565b6000612efd612ef8612ef384612d28565b612ed8565b612d28565b9050919050565b6000612f0f82612ee2565b9050919050565b6000612f2182612f04565b9050919050565b612f3181612f16565b82525050565b6000602082019050612f4c6000830184612f28565b92915050565b6000612f5d82612f04565b9050919050565b612f6d81612f52565b82525050565b6000602082019050612f886000830184612f64565b92915050565b600060208284031215612fa457612fa3612b4e565b5b6000612fb284828501612d9b565b91505092915050565b612fc481612bdd565b8114612fcf57600080fd5b50565b600081359050612fe181612fbb565b92915050565b60008060408385031215612ffe57612ffd612b4e565b5b600061300c85828601612d9b565b925050602061301d85828601612fd2565b9150509250929050565b600061303282612d48565b9050919050565b61304281613027565b811461304d57600080fd5b50565b60008135905061305f81613039565b92915050565b60006020828403121561307b5761307a612b4e565b5b600061308984828501613050565b91505092915050565b600080fd5b600080fd5b7f4e487b7100000000000000000000000000000000000000000000000000000000600052604160045260246000fd5b6130d482612c59565b810181811067ffffffffffffffff821117156130f3576130f261309c565b5b80604052505050565b6000613106612b44565b905061311282826130cb565b919050565b600067ffffffffffffffff8211156131325761313161309c565b5b61313b82612c59565b9050602081019050919050565b82818337600083830152505050565b600061316a61316584613117565b6130fc565b90508281526020810184848401111561318657613185613097565b5b613191848285613148565b509392505050565b600082601f8301126131ae576131ad613092565b5b81356131be848260208601613157565b91505092915050565b600080600080608085870312156131e1576131e0612b4e565b5b60006131ef87828801612d9b565b945050602061320087828801612d9b565b935050604061321187828801612ce6565b925050606085013567ffffffffffffffff81111561323257613231612b53565b5b61323e87828801613199565b91505092959194509250565b6000806040838503121561326157613260612b4e565b5b600061326f85828601612d9b565b925050602061328085828601612d9b565b9150509250929050565b7f4e487b7100000000000000000000000000000000000000000000000000000000600052602260045260246000fd5b600060028204905060018216806132d157607f821691505b6020821081036132e4576132e361328a565b5b50919050565b7f4552433732313a20617070726f76616c20746f2063757272656e74206f776e6560008201527f7200000000000000000000000000000000000000000000000000000000000000602082015250565b6000613346602183612c1e565b9150613351826132ea565b604082019050919050565b6000602082019050818103600083015261337581613339565b9050919050565b7f4552433732313a20617070726f76652063616c6c6572206973206e6f7420746f60008201527f6b656e206f776e6572206f7220617070726f76656420666f7220616c6c000000602082015250565b60006133d8603d83612c1e565b91506133e38261337c565b604082019050919050565b60006020820190508181036000830152613407816133cb565b9050919050565b7f416464726573732063616e2774206265207a65726f0000000000000000000000600082015250565b6000613444601583612c1e565b915061344f8261340e565b602082019050919050565b6000602082019050818103600083015261347381613437565b9050919050565b7f4552433732313a2063616c6c6572206973206e6f7420746f6b656e206f776e6560008201527f72206f7220617070726f76656400000000000000000000000000000000000000602082015250565b60006134d6602d83612c1e565b91506134e18261347a565b604082019050919050565b60006020820190508181036000830152613505816134c9565b9050919050565b7f455243373231456e756d657261626c653a206f776e657220696e646578206f7560008201527f74206f6620626f756e6473000000000000000000000000000000000000000000602082015250565b6000613568602b83612c1e565b91506135738261350c565b604082019050919050565b600060208201905081810360008301526135978161355b565b9050919050565b7f455243373231456e756d657261626c653a20676c6f62616c20696e646578206f60008201527f7574206f6620626f756e64730000000000000000000000000000000000000000602082015250565b60006135fa602c83612c1e565b91506136058261359e565b604082019050919050565b60006020820190508181036000830152613629816135ed565b9050919050565b7f4e487b7100000000000000000000000000000000000000000000000000000000600052603260045260246000fd5b7f4552433732313a20696e76616c696420746f6b656e2049440000000000000000600082015250565b6000613695601883612c1e565b91506136a08261365f565b602082019050919050565b600060208201905081810360008301526136c481613688565b9050919050565b7f4552433732313a2061646472657373207a65726f206973206e6f74206120766160008201527f6c6964206f776e65720000000000000000000000000000000000000000000000602082015250565b6000613727602983612c1e565b9150613732826136cb565b604082019050919050565b600060208201905081810360008301526137568161371a565b9050919050565b7f416d6f756e742063616e6e6f74206265207a65726f0000000000000000000000600082015250565b6000613793601583612c1e565b915061379e8261375d565b602082019050919050565b600060208201905081810360008301526137c281613786565b9050919050565b7f546f6b656e20616464726573732063616e27742062652061646472657373207a60008201527f65726f0000000000000000000000000000000000000000000000000000000000602082015250565b6000613825602383612c1e565b9150613830826137c9565b604082019050919050565b6000602082019050818103600083015261385481613818565b9050919050565b7f4f776e61626c653a206e6577206f776e657220697320746865207a65726f206160008201527f6464726573730000000000000000000000000000000000000000000000000000602082015250565b60006138b7602683612c1e565b91506138c28261385b565b604082019050919050565b600060208201905081810360008301526138e6816138aa565b9050919050565b60006060820190506139026000830186612d5a565b61390f6020830185612d5a565b61391c6040830184612df0565b949350505050565b60008151905061393381612fbb565b92915050565b60006020828403121561394f5761394e612b4e565b5b600061395d84828501613924565b91505092915050565b7f4661696c656420746f2070726f63657373207061796d656e7420666f7220637560008201527f7272656e63792031210000000000000000000000000000000000000000000000602082015250565b60006139c2602983612c1e565b91506139cd82613966565b604082019050919050565b600060208201905081810360008301526139f1816139b5565b9050919050565b7f4661696c656420746f2070726f63657373207061796d656e7420666f7220637560008201527f7272656e63792032210000000000000000000000000000000000000000000000602082015250565b6000613a54602983612c1e565b9150613a5f826139f8565b604082019050919050565b60006020820190508181036000830152613a8381613a47565b9050919050565b7f4f776e61626c653a2063616c6c6572206973206e6f7420746865206f776e6572600082015250565b6000613ac0602083612c1e565b9150613acb82613a8a565b602082019050919050565b60006020820190508181036000830152613aef81613ab3565b9050919050565b7f4552433732313a207472616e736665722066726f6d20696e636f72726563742060008201527f6f776e6572000000000000000000000000000000000000000000000000000000602082015250565b6000613b52602583612c1e565b9150613b5d82613af6565b604082019050919050565b60006020820190508181036000830152613b8181613b45565b9050919050565b7f4552433732313a207472616e7366657220746f20746865207a65726f2061646460008201527f7265737300000000000000000000000000000000000000000000000000000000602082015250565b6000613be4602483612c1e565b9150613bef82613b88565b604082019050919050565b60006020820190508181036000830152613c1381613bd7565b9050919050565b7f4552433732313a20617070726f766520746f2063616c6c657200000000000000600082015250565b6000613c50601983612c1e565b9150613c5b82613c1a565b602082019050919050565b60006020820190508181036000830152613c7f81613c43565b9050919050565b7f4552433732313a207472616e7366657220746f206e6f6e20455243373231526560008201527f63656976657220696d706c656d656e7465720000000000000000000000000000602082015250565b6000613ce2603283612c1e565b9150613ced82613c86565b604082019050919050565b60006020820190508181036000830152613d1181613cd5565b9050919050565b600081905092915050565b6000613d2e82612c13565b613d388185613d18565b9350613d48818560208601612c2f565b80840191505092915050565b6000613d608285613d23565b9150613d6c8284613d23565b91508190509392505050565b7f45524337323155524953746f726167653a2055524920736574206f66206e6f6e60008201527f6578697374656e7420746f6b656e000000000000000000000000000000000000602082015250565b6000613dd4602e83612c1e565b9150613ddf82613d78565b604082019050919050565b60006020820190508181036000830152613e0381613dc7565b9050919050565b60008190508160005260206000209050919050565b60006020601f8301049050919050565b600082821b905092915050565b600060088302613e6c7fffffffffffffffffffffffffffffffffffffffffffffffffffffffffffffffff82613e2f565b613e768683613e2f565b95508019841693508086168417925050509392505050565b6000613ea9613ea4613e9f84612cc5565b612ed8565b612cc5565b9050919050565b6000819050919050565b613ec383613e8e565b613ed7613ecf82613eb0565b848454613e3c565b825550505050565b600090565b613eec613edf565b613ef7818484613eba565b505050565b5b81811015613f1b57613f10600082613ee4565b600181019050613efd565b5050565b601f821115613f6057613f3181613e0a565b613f3a84613e1f565b81016020851015613f49578190505b613f5d613f5585613e1f565b830182613efc565b50505b505050565b600082821c905092915050565b6000613f8360001984600802613f65565b1980831691505092915050565b6000613f9c8383613f72565b9150826002028217905092915050565b613fb582612c13565b67ffffffffffffffff811115613fce57613fcd61309c565b5b613fd882546132b9565b613fe3828285613f1f565b600060209050601f8311600181146140165760008415614004578287015190505b61400e8582613f90565b865550614076565b601f19841661402486613e0a565b60005b8281101561404c57848901518255600182019150602085019450602081019050614027565b868310156140695784890151614065601f891682613f72565b8355505b6001600288020188555050505b505050505050565b600081519050919050565b600082825260208201905092915050565b60006140a58261407e565b6140af8185614089565b93506140bf818560208601612c2f565b6140c881612c59565b840191505092915050565b60006080820190506140e86000830187612d5a565b6140f56020830186612d5a565b6141026040830185612df0565b8181036060830152614114818461409a565b905095945050505050565b60008151905061412e81612b84565b92915050565b60006020828403121561414a57614149612b4e565b5b60006141588482850161411f565b91505092915050565b7f455243373231456e756d657261626c653a20636f6e736563757469766520747260008201527f616e7366657273206e6f7420737570706f727465640000000000000000000000602082015250565b60006141bd603583612c1e565b91506141c882614161565b604082019050919050565b600060208201905081810360008301526141ec816141b0565b9050919050565b7f4e487b7100000000000000000000000000000000000000000000000000000000600052601260045260246000fd5b7f4552433732313a206d696e7420746f20746865207a65726f2061646472657373600082015250565b6000614258602083612c1e565b915061426382614222565b602082019050919050565b600060208201905081810360008301526142878161424b565b9050919050565b7f4552433732313a20746f6b656e20616c7265616479206d696e74656400000000600082015250565b60006142c4601c83612c1e565b91506142cf8261428e565b602082019050919050565b600060208201905081810360008301526142f3816142b7565b9050919050565b7f4e487b7100000000000000000000000000000000000000000000000000000000600052601160045260246000fd5b600061433482612cc5565b915061433f83612cc5565b9250828203905081811115614357576143566142fa565b5b92915050565b7f4e487b7100000000000000000000000000000000000000000000000000000000600052603160045260246000fdfe68747470733a2f2f676174657761792e70696e6174612e636c6f75642f697066732f516d5247394a5435764a5538315666327a5a45694665396b335a715a4c674d6945574832436a745541694a74384ea2646970667358221220c6f8ae79a15f421ae3a9c632c798734ffd87f35a7b9bcef18ae1cc6e04985c9064736f6c63430008100033",
  "immutableReferences": {},
  "source": "// SPDX-License-Identifier: MIT\r\npragma solidity ^0.8.7;\r\n\r\nimport \"@openzeppelin/contracts/token/ERC20/ERC20.sol\";\r\nimport \"@openzeppelin/contracts/token/ERC721/ERC721.sol\";\r\nimport \"@openzeppelin/contracts/token/ERC721/extensions/ERC721Enumerable.sol\";\r\nimport \"@openzeppelin/contracts/token/ERC721/extensions/ERC721URIStorage.sol\";\r\nimport \"@openzeppelin/contracts/access/Ownable.sol\";\r\n\r\ncontract ShovelNFT is ERC721, ERC721Enumerable, ERC721URIStorage, Ownable {\r\n    ERC20 public paymentCurrency1;\r\n    ERC20 public paymentCurrency2;\r\n    ERC721 public requiredNFT1;\r\n    ERC721 public requiredNFT2;\r\n    ERC721 public requiredNFT3;\r\n\r\n    uint256 public requiredAmount1;\r\n    uint256 public requiredAmount2;\r\n\r\n    constructor(\r\n        ERC20 _paymentCurrency1,\r\n        ERC20 _paymentCurrency2,\r\n        ERC721 _requiredNFT1,\r\n        ERC721 _requiredNFT2,\r\n        ERC721 _requiredNFT3,\r\n        uint256 _requiredAmount1,\r\n        uint256 _requiredAmount2\r\n    ) ERC721(\"ShovelNFT\", \"Shovel\") {\r\n        require(\r\n            address(_paymentCurrency1) != address(0),\r\n            \"Token address can't be address zero\"\r\n        );\r\n        require(\r\n            address(_paymentCurrency2) != address(0),\r\n            \"Token address can't be address zero\"\r\n        );\r\n        require(address(_requiredNFT1) != address(0), \"Addresss can't be zero\");\r\n        require(address(_requiredNFT2) != address(0), \"Addresss can't be zero\");\r\n        require(address(_requiredNFT3) != address(0), \"Addresss can't be zero\");\r\n        require(_requiredAmount1 > 0, \"amount cannot be zero\");\r\n        require(_requiredAmount2 > 0, \"amount cannot be zero\");\r\n        paymentCurrency1 = _paymentCurrency1;\r\n        paymentCurrency2 = _paymentCurrency2;\r\n        requiredNFT1 = _requiredNFT1;\r\n        requiredNFT2 = _requiredNFT2;\r\n        requiredNFT3 = _requiredNFT3;\r\n        requiredAmount1 = _requiredAmount1;\r\n        requiredAmount2 = _requiredAmount2;\r\n    }\r\n\r\n    //Setter Functions\r\n\r\n    function setPaymentCurrency1(ERC20 _paymentCurrency) public onlyOwner {\r\n        require(\r\n            address(_paymentCurrency) != address(0),\r\n            \"Token address can't be address zero\"\r\n        );\r\n        paymentCurrency1 = _paymentCurrency;\r\n    }\r\n\r\n    function setPaymentCurrency2(ERC20 _paymentCurrency) public onlyOwner {\r\n        require(\r\n            address(_paymentCurrency) != address(0),\r\n            \"Token address can't be address zero\"\r\n        );\r\n        paymentCurrency2 = _paymentCurrency;\r\n    }\r\n\r\n    function setRequiredNFT1(ERC721 _requiredNFT) public onlyOwner {\r\n        require(address(_requiredNFT) != address(0), \"Address can't be zero\");\r\n        requiredNFT1 = _requiredNFT;\r\n    }\r\n\r\n    function setRequiredNFT2(ERC721 _requiredNFT) public onlyOwner {\r\n        require(address(_requiredNFT) != address(0), \"Address can't be zero\");\r\n        requiredNFT2 = _requiredNFT;\r\n    }\r\n\r\n    function setRequiredAmount1(uint256 _requiredAmount) public onlyOwner {\r\n        require(_requiredAmount > 0, \"Amount cannot be zero\");\r\n        requiredAmount1 = _requiredAmount;\r\n    }\r\n\r\n    function setRequiredAmount2(uint256 _requiredAmount) public onlyOwner {\r\n        require(_requiredAmount > 0, \"Amount cannot be zero\");\r\n        requiredAmount2 = _requiredAmount;\r\n    }\r\n\r\n    // buy function\r\n\r\n    function buyShovel() public {\r\n        require(\r\n            paymentCurrency1.transferFrom(\r\n                msg.sender,\r\n                address(this),\r\n                requiredAmount1\r\n            ),\r\n            \"Failed to process payment for currency 1!\"\r\n        );\r\n        require(\r\n            paymentCurrency2.transferFrom(\r\n                msg.sender,\r\n                address(this),\r\n                requiredAmount2\r\n            ),\r\n            \"Failed to process payment for currency 2!\"\r\n        );\r\n        uint256 tokenId = totalSupply(); // Use totalSupply() to get the next token ID\r\n        _safeMint(msg.sender, tokenId);\r\n        _setTokenURI(\r\n            tokenId,\r\n            \"https://gateway.pinata.cloud/ipfs/QmRG9JT5vJU81Vf2zZEiFe9k3ZqZLgMiEWH2CjtUAiJt8N\"\r\n        );\r\n    }\r\n\r\n    // The following functions are overrides required by Solidity.\r\n\r\n    function _beforeTokenTransfer(\r\n        address from,\r\n        address to,\r\n        uint256 tokenId,\r\n        uint256 batchSize\r\n    ) internal override(ERC721, ERC721Enumerable) {\r\n        super._beforeTokenTransfer(from, to, tokenId, batchSize);\r\n    }\r\n\r\n    function _burn(\r\n        uint256 tokenId\r\n    ) internal override(ERC721, ERC721URIStorage) {\r\n        super._burn(tokenId);\r\n    }\r\n\r\n    function tokenURI(\r\n        uint256 tokenId\r\n    ) public view override(ERC721, ERC721URIStorage) returns (string memory) {\r\n        return super.tokenURI(tokenId);\r\n    }\r\n\r\n    function supportsInterface(\r\n        bytes4 interfaceId\r\n    )\r\n        public\r\n        view\r\n        override(ERC721, ERC721Enumerable, ERC721URIStorage)\r\n        returns (bool)\r\n    {\r\n        return super.supportsInterface(interfaceId);\r\n    }\r\n}",
  "sourcePath": "C:\\Users\\sumer\\OneDrive\\Desktop\\Workbench\\NFTDeployment\\contracts\\ShovelNFT.sol",
  "compiler": {
    "name": "solc",
    "version": "0.8.16+commit.07a7930e.Emscripten.clang"
  },
  "schemaVersion": "3.4.15",
  "updatedAt": "2023-08-15T09:55:18.100Z",
  "networkType": "ethereum",
  "devdoc": {
    "kind": "dev",
    "methods": {
      "approve(address,uint256)": {
        "details": "See {IERC721-approve}."
      },
      "balanceOf(address)": {
        "details": "See {IERC721-balanceOf}."
      },
      "getApproved(uint256)": {
        "details": "See {IERC721-getApproved}."
      },
      "isApprovedForAll(address,address)": {
        "details": "See {IERC721-isApprovedForAll}."
      },
      "name()": {
        "details": "See {IERC721Metadata-name}."
      },
      "owner()": {
        "details": "Returns the address of the current owner."
      },
      "ownerOf(uint256)": {
        "details": "See {IERC721-ownerOf}."
      },
      "renounceOwnership()": {
        "details": "Leaves the contract without owner. It will not be possible to call `onlyOwner` functions. Can only be called by the current owner. NOTE: Renouncing ownership will leave the contract without an owner, thereby disabling any functionality that is only available to the owner."
      },
      "safeTransferFrom(address,address,uint256)": {
        "details": "See {IERC721-safeTransferFrom}."
      },
      "safeTransferFrom(address,address,uint256,bytes)": {
        "details": "See {IERC721-safeTransferFrom}."
      },
      "setApprovalForAll(address,bool)": {
        "details": "See {IERC721-setApprovalForAll}."
      },
      "symbol()": {
        "details": "See {IERC721Metadata-symbol}."
      },
      "tokenByIndex(uint256)": {
        "details": "See {IERC721Enumerable-tokenByIndex}."
      },
      "tokenOfOwnerByIndex(address,uint256)": {
        "details": "See {IERC721Enumerable-tokenOfOwnerByIndex}."
      },
      "totalSupply()": {
        "details": "See {IERC721Enumerable-totalSupply}."
      },
      "transferFrom(address,address,uint256)": {
        "details": "See {IERC721-transferFrom}."
      },
      "transferOwnership(address)": {
        "details": "Transfers ownership of the contract to a new account (`newOwner`). Can only be called by the current owner."
      }
    },
    "version": 1
  },
  "userdoc": {
    "kind": "user",
    "methods": {},
    "version": 1
  }
}