{
  "contractName": "BRICK",
  "abi": [
    {
      "inputs": [
        {
          "internalType": "string",
          "name": "name_",
          "type": "string"
        },
        {
          "internalType": "string",
          "name": "symbol_",
          "type": "string"
        },
        {
          "internalType": "uint8",
          "name": "decimals_",
          "type": "uint8"
        },
        {
          "internalType": "address",
          "name": "requiredToken_",
          "type": "address"
        },
        {
          "internalType": "uint256",
          "name": "requiredAmount_",
          "type": "uint256"
        },
        {
          "internalType": "address",
          "name": "requiredNFT_",
          "type": "address"
        }
      ],
      "stateMutability": "nonpayable",
      "type": "constructor"
    },
    {
      "anonymous": false,
      "inputs": [
        {
          "indexed": true,
          "internalType": "address",
          "name": "owner",
          "type": "address"
        },
        {
          "indexed": true,
          "internalType": "address",
          "name": "spender",
          "type": "address"
        },
        {
          "indexed": false,
          "internalType": "uint256",
          "name": "value",
          "type": "uint256"
        }
      ],
      "name": "Approval",
      "type": "event"
    },
    {
      "anonymous": false,
      "inputs": [
        {
          "indexed": true,
          "internalType": "address",
          "name": "previousOwner",
          "type": "address"
        },
        {
          "indexed": true,
          "internalType": "address",
          "name": "newOwner",
          "type": "address"
        }
      ],
      "name": "OwnershipTransferred",
      "type": "event"
    },
    {
      "anonymous": false,
      "inputs": [
        {
          "indexed": true,
          "internalType": "address",
          "name": "from",
          "type": "address"
        },
        {
          "indexed": true,
          "internalType": "address",
          "name": "to",
          "type": "address"
        },
        {
          "indexed": false,
          "internalType": "uint256",
          "name": "value",
          "type": "uint256"
        }
      ],
      "name": "Transfer",
      "type": "event"
    },
    {
      "inputs": [
        {
          "internalType": "address",
          "name": "owner",
          "type": "address"
        },
        {
          "internalType": "address",
          "name": "spender",
          "type": "address"
        }
      ],
      "name": "allowance",
      "outputs": [
        {
          "internalType": "uint256",
          "name": "",
          "type": "uint256"
        }
      ],
      "stateMutability": "view",
      "type": "function",
      "constant": true
    },
    {
      "inputs": [
        {
          "internalType": "address",
          "name": "spender",
          "type": "address"
        },
        {
          "internalType": "uint256",
          "name": "amount",
          "type": "uint256"
        }
      ],
      "name": "approve",
      "outputs": [
        {
          "internalType": "bool",
          "name": "",
          "type": "bool"
        }
      ],
      "stateMutability": "nonpayable",
      "type": "function"
    },
    {
      "inputs": [
        {
          "internalType": "address",
          "name": "account",
          "type": "address"
        }
      ],
      "name": "balanceOf",
      "outputs": [
        {
          "internalType": "uint256",
          "name": "",
          "type": "uint256"
        }
      ],
      "stateMutability": "view",
      "type": "function",
      "constant": true
    },
    {
      "inputs": [],
      "name": "decimals",
      "outputs": [
        {
          "internalType": "uint8",
          "name": "",
          "type": "uint8"
        }
      ],
      "stateMutability": "view",
      "type": "function",
      "constant": true
    },
    {
      "inputs": [
        {
          "internalType": "address",
          "name": "spender",
          "type": "address"
        },
        {
          "internalType": "uint256",
          "name": "subtractedValue",
          "type": "uint256"
        }
      ],
      "name": "decreaseAllowance",
      "outputs": [
        {
          "internalType": "bool",
          "name": "",
          "type": "bool"
        }
      ],
      "stateMutability": "nonpayable",
      "type": "function"
    },
    {
      "inputs": [
        {
          "internalType": "address",
          "name": "spender",
          "type": "address"
        },
        {
          "internalType": "uint256",
          "name": "addedValue",
          "type": "uint256"
        }
      ],
      "name": "increaseAllowance",
      "outputs": [
        {
          "internalType": "bool",
          "name": "",
          "type": "bool"
        }
      ],
      "stateMutability": "nonpayable",
      "type": "function"
    },
    {
      "inputs": [],
      "name": "name",
      "outputs": [
        {
          "internalType": "string",
          "name": "",
          "type": "string"
        }
      ],
      "stateMutability": "view",
      "type": "function",
      "constant": true
    },
    {
      "inputs": [],
      "name": "owner",
      "outputs": [
        {
          "internalType": "address",
          "name": "",
          "type": "address"
        }
      ],
      "stateMutability": "view",
      "type": "function",
      "constant": true
    },
    {
      "inputs": [],
      "name": "renounceOwnership",
      "outputs": [],
      "stateMutability": "nonpayable",
      "type": "function"
    },
    {
      "inputs": [],
      "name": "requiredNFT",
      "outputs": [
        {
          "internalType": "contract IERC721",
          "name": "",
          "type": "address"
        }
      ],
      "stateMutability": "view",
      "type": "function",
      "constant": true
    },
    {
      "inputs": [],
      "name": "symbol",
      "outputs": [
        {
          "internalType": "string",
          "name": "",
          "type": "string"
        }
      ],
      "stateMutability": "view",
      "type": "function",
      "constant": true
    },
    {
      "inputs": [],
      "name": "totalSupply",
      "outputs": [
        {
          "internalType": "uint256",
          "name": "",
          "type": "uint256"
        }
      ],
      "stateMutability": "view",
      "type": "function",
      "constant": true
    },
    {
      "inputs": [
        {
          "internalType": "address",
          "name": "to",
          "type": "address"
        },
        {
          "internalType": "uint256",
          "name": "amount",
          "type": "uint256"
        }
      ],
      "name": "transfer",
      "outputs": [
        {
          "internalType": "bool",
          "name": "",
          "type": "bool"
        }
      ],
      "stateMutability": "nonpayable",
      "type": "function"
    },
    {
      "inputs": [
        {
          "internalType": "address",
          "name": "from",
          "type": "address"
        },
        {
          "internalType": "address",
          "name": "to",
          "type": "address"
        },
        {
          "internalType": "uint256",
          "name": "amount",
          "type": "uint256"
        }
      ],
      "name": "transferFrom",
      "outputs": [
        {
          "internalType": "bool",
          "name": "",
          "type": "bool"
        }
      ],
      "stateMutability": "nonpayable",
      "type": "function"
    },
    {
      "inputs": [
        {
          "internalType": "address",
          "name": "newOwner",
          "type": "address"
        }
      ],
      "name": "transferOwnership",
      "outputs": [],
      "stateMutability": "nonpayable",
      "type": "function"
    },
    {
      "inputs": [
        {
          "internalType": "address",
          "name": "_paymentCurrency",
          "type": "address"
        }
      ],
      "name": "setPaymentCurrency",
      "outputs": [],
      "stateMutability": "nonpayable",
      "type": "function"
    },
    {
      "inputs": [
        {
          "internalType": "contract IERC721",
          "name": "_requiredNFT",
          "type": "address"
        }
      ],
      "name": "setRequiredNFT",
      "outputs": [],
      "stateMutability": "nonpayable",
      "type": "function"
    },
    {
      "inputs": [
        {
          "internalType": "uint256",
          "name": "requiredAmount",
          "type": "uint256"
        }
      ],
      "name": "setRequiredAmount",
      "outputs": [],
      "stateMutability": "nonpayable",
      "type": "function"
    },
    {
      "inputs": [
        {
          "internalType": "uint256",
          "name": "amount",
          "type": "uint256"
        }
      ],
      "name": "mintBrick",
      "outputs": [],
      "stateMutability": "nonpayable",
      "type": "function"
    }
  ],
  "bytecode": "0x60806040526040518060800160405280605b81526020016200301b605b9139600890816200002e91906200066f565b503480156200003c57600080fd5b50604051620030763803806200307683398181016040528101906200006291906200098e565b858581600390816200007591906200066f565b5080600490816200008791906200066f565b505050620000aa6200009e620001b060201b60201c565b620001b860201b60201c565b8560069081620000bb91906200066f565b508460079081620000cd91906200066f565b5083600960006101000a81548160ff021916908360ff16021790555082600960016101000a81548173ffffffffffffffffffffffffffffffffffffffff021916908373ffffffffffffffffffffffffffffffffffffffff16021790555081600a8190555080600b60006101000a81548173ffffffffffffffffffffffffffffffffffffffff021916908373ffffffffffffffffffffffffffffffffffffffff160217905550620001a4338560ff16600a62000189919062000beb565b61c35062000198919062000c3c565b6200027e60201b60201c565b50505050505062000d89565b600033905090565b6000600560009054906101000a900473ffffffffffffffffffffffffffffffffffffffff16905081600560006101000a81548173ffffffffffffffffffffffffffffffffffffffff021916908373ffffffffffffffffffffffffffffffffffffffff1602179055508173ffffffffffffffffffffffffffffffffffffffff168173ffffffffffffffffffffffffffffffffffffffff167f8be0079c531659141344cd1fd0a4f28419497f9722a3daafe3b4186f6b6457e060405160405180910390a35050565b600073ffffffffffffffffffffffffffffffffffffffff168273ffffffffffffffffffffffffffffffffffffffff1603620002f0576040517f08c379a0000000000000000000000000000000000000000000000000000000008152600401620002e79062000cfe565b60405180910390fd5b6200030460008383620003eb60201b60201c565b806002600082825462000318919062000d20565b92505081905550806000808473ffffffffffffffffffffffffffffffffffffffff1673ffffffffffffffffffffffffffffffffffffffff168152602001908152602001600020600082825401925050819055508173ffffffffffffffffffffffffffffffffffffffff16600073ffffffffffffffffffffffffffffffffffffffff167fddf252ad1be2c89b69c2b068fc378daa952ba7f163c4a11628f55a4df523b3ef83604051620003cb919062000d6c565b60405180910390a3620003e760008383620003f060201b60201c565b5050565b505050565b505050565b600081519050919050565b7f4e487b7100000000000000000000000000000000000000000000000000000000600052604160045260246000fd5b7f4e487b7100000000000000000000000000000000000000000000000000000000600052602260045260246000fd5b600060028204905060018216806200047757607f821691505b6020821081036200048d576200048c6200042f565b5b50919050565b60008190508160005260206000209050919050565b60006020601f8301049050919050565b600082821b905092915050565b600060088302620004f77fffffffffffffffffffffffffffffffffffffffffffffffffffffffffffffffff82620004b8565b620005038683620004b8565b95508019841693508086168417925050509392505050565b6000819050919050565b6000819050919050565b6000620005506200054a62000544846200051b565b62000525565b6200051b565b9050919050565b6000819050919050565b6200056c836200052f565b620005846200057b8262000557565b848454620004c5565b825550505050565b600090565b6200059b6200058c565b620005a881848462000561565b505050565b5b81811015620005d057620005c460008262000591565b600181019050620005ae565b5050565b601f8211156200061f57620005e98162000493565b620005f484620004a8565b8101602085101562000604578190505b6200061c6200061385620004a8565b830182620005ad565b50505b505050565b600082821c905092915050565b6000620006446000198460080262000624565b1980831691505092915050565b60006200065f838362000631565b9150826002028217905092915050565b6200067a82620003f5565b67ffffffffffffffff81111562000696576200069562000400565b5b620006a282546200045e565b620006af828285620005d4565b600060209050601f831160018114620006e75760008415620006d2578287015190505b620006de858262000651565b8655506200074e565b601f198416620006f78662000493565b60005b828110156200072157848901518255600182019150602085019450602081019050620006fa565b868310156200074157848901516200073d601f89168262000631565b8355505b6001600288020188555050505b505050505050565b6000604051905090565b600080fd5b600080fd5b600080fd5b600080fd5b6000601f19601f8301169050919050565b620007908262000774565b810181811067ffffffffffffffff82111715620007b257620007b162000400565b5b80604052505050565b6000620007c762000756565b9050620007d5828262000785565b919050565b600067ffffffffffffffff821115620007f857620007f762000400565b5b620008038262000774565b9050602081019050919050565b60005b838110156200083057808201518184015260208101905062000813565b60008484015250505050565b6000620008536200084d84620007da565b620007bb565b9050828152602081018484840111156200087257620008716200076f565b5b6200087f84828562000810565b509392505050565b600082601f8301126200089f576200089e6200076a565b5b8151620008b18482602086016200083c565b91505092915050565b600060ff82169050919050565b620008d281620008ba565b8114620008de57600080fd5b50565b600081519050620008f281620008c7565b92915050565b600073ffffffffffffffffffffffffffffffffffffffff82169050919050565b60006200092582620008f8565b9050919050565b620009378162000918565b81146200094357600080fd5b50565b60008151905062000957816200092c565b92915050565b62000968816200051b565b81146200097457600080fd5b50565b60008151905062000988816200095d565b92915050565b60008060008060008060c08789031215620009ae57620009ad62000760565b5b600087015167ffffffffffffffff811115620009cf57620009ce62000765565b5b620009dd89828a0162000887565b965050602087015167ffffffffffffffff81111562000a015762000a0062000765565b5b62000a0f89828a0162000887565b955050604062000a2289828a01620008e1565b945050606062000a3589828a0162000946565b935050608062000a4889828a0162000977565b92505060a062000a5b89828a0162000946565b9150509295509295509295565b7f4e487b7100000000000000000000000000000000000000000000000000000000600052601160045260246000fd5b60008160011c9050919050565b6000808291508390505b600185111562000af65780860481111562000ace5762000acd62000a68565b5b600185161562000ade5780820291505b808102905062000aee8562000a97565b945062000aae565b94509492505050565b60008262000b11576001905062000be4565b8162000b21576000905062000be4565b816001811462000b3a576002811462000b455762000b7b565b600191505062000be4565b60ff84111562000b5a5762000b5962000a68565b5b8360020a91508482111562000b745762000b7362000a68565b5b5062000be4565b5060208310610133831016604e8410600b841016171562000bb55782820a90508381111562000baf5762000bae62000a68565b5b62000be4565b62000bc4848484600162000aa4565b9250905081840481111562000bde5762000bdd62000a68565b5b81810290505b9392505050565b600062000bf8826200051b565b915062000c05836200051b565b925062000c347fffffffffffffffffffffffffffffffffffffffffffffffffffffffffffffffff848462000aff565b905092915050565b600062000c49826200051b565b915062000c56836200051b565b9250817fffffffffffffffffffffffffffffffffffffffffffffffffffffffffffffffff048311821515161562000c925762000c9162000a68565b5b828202905092915050565b600082825260208201905092915050565b7f45524332303a206d696e7420746f20746865207a65726f206164647265737300600082015250565b600062000ce6601f8362000c9d565b915062000cf38262000cae565b602082019050919050565b6000602082019050818103600083015262000d198162000cd7565b9050919050565b600062000d2d826200051b565b915062000d3a836200051b565b925082820190508082111562000d555762000d5462000a68565b5b92915050565b62000d66816200051b565b82525050565b600060208201905062000d83600083018462000d5b565b92915050565b6122828062000d996000396000f3fe608060405234801561001057600080fd5b50600436106101215760003560e01c8063715018a6116100ad578063a9059cbb11610071578063a9059cbb1461030c578063b9e157931461033c578063dd62ed3e14610358578063e80beaa114610388578063f2fde38b146103a457610121565b8063715018a61461027a5780637fe21b69146102845780638da5cb5b146102a057806395d89b41146102be578063a457c2d7146102dc57610121565b806323b872dd116100f457806323b872dd146101b05780632ddc0cda146101e0578063313ce567146101fc578063395093511461021a57806370a082311461024a57610121565b806306fdde0314610126578063095ea7b314610144578063155804151461017457806318160ddd14610192575b600080fd5b61012e6103c0565b60405161013b91906113cd565b60405180910390f35b61015e60048036038101906101599190611488565b610452565b60405161016b91906114e3565b60405180910390f35b61017c610475565b604051610189919061155d565b60405180910390f35b61019a61049b565b6040516101a79190611587565b60405180910390f35b6101ca60048036038101906101c591906115a2565b6104a5565b6040516101d791906114e3565b60405180910390f35b6101fa60048036038101906101f59190611633565b6104d4565b005b61020461058f565b604051610211919061167c565b60405180910390f35b610234600480360381019061022f9190611488565b610598565b60405161024191906114e3565b60405180910390f35b610264600480360381019061025f9190611697565b6105cf565b6040516102719190611587565b60405180910390f35b610282610617565b005b61029e60048036038101906102999190611697565b61062b565b005b6102a86106e6565b6040516102b591906116d3565b60405180910390f35b6102c6610710565b6040516102d391906113cd565b60405180910390f35b6102f660048036038101906102f19190611488565b6107a2565b60405161030391906114e3565b60405180910390f35b61032660048036038101906103219190611488565b610819565b60405161033391906114e3565b60405180910390f35b610356600480360381019061035191906116ee565b61083c565b005b610372600480360381019061036d919061171b565b610a67565b60405161037f9190611587565b60405180910390f35b6103a2600480360381019061039d91906116ee565b610aee565b005b6103be60048036038101906103b99190611697565b610b43565b005b6060600380546103cf9061178a565b80601f01602080910402602001604051908101604052809291908181526020018280546103fb9061178a565b80156104485780601f1061041d57610100808354040283529160200191610448565b820191906000526020600020905b81548152906001019060200180831161042b57829003601f168201915b5050505050905090565b60008061045d610bc6565b905061046a818585610bce565b600191505092915050565b600b60009054906101000a900473ffffffffffffffffffffffffffffffffffffffff1681565b6000600254905090565b6000806104b0610bc6565b90506104bd858285610d97565b6104c8858585610e23565b60019150509392505050565b6104dc611099565b600073ffffffffffffffffffffffffffffffffffffffff168173ffffffffffffffffffffffffffffffffffffffff160361054b576040517f08c379a000000000000000000000000000000000000000000000000000000000815260040161054290611807565b60405180910390fd5b80600b60006101000a81548173ffffffffffffffffffffffffffffffffffffffff021916908373ffffffffffffffffffffffffffffffffffffffff16021790555050565b60006012905090565b6000806105a3610bc6565b90506105c48185856105b58589610a67565b6105bf9190611856565b610bce565b600191505092915050565b60008060008373ffffffffffffffffffffffffffffffffffffffff1673ffffffffffffffffffffffffffffffffffffffff168152602001908152602001600020549050919050565b61061f611099565b6106296000611117565b565b610633611099565b600073ffffffffffffffffffffffffffffffffffffffff168173ffffffffffffffffffffffffffffffffffffffff16036106a2576040517f08c379a0000000000000000000000000000000000000000000000000000000008152600401610699906118fc565b60405180910390fd5b80600960016101000a81548173ffffffffffffffffffffffffffffffffffffffff021916908373ffffffffffffffffffffffffffffffffffffffff16021790555050565b6000600560009054906101000a900473ffffffffffffffffffffffffffffffffffffffff16905090565b60606004805461071f9061178a565b80601f016020809104026020016040519081016040528092919081815260200182805461074b9061178a565b80156107985780601f1061076d57610100808354040283529160200191610798565b820191906000526020600020905b81548152906001019060200180831161077b57829003601f168201915b5050505050905090565b6000806107ad610bc6565b905060006107bb8286610a67565b905083811015610800576040517f08c379a00000000000000000000000000000000000000000000000000000000081526004016107f79061198e565b60405180910390fd5b61080d8286868403610bce565b60019250505092915050565b600080610824610bc6565b9050610831818585610e23565b600191505092915050565b6000600b60009054906101000a900473ffffffffffffffffffffffffffffffffffffffff1673ffffffffffffffffffffffffffffffffffffffff166370a08231336040518263ffffffff1660e01b815260040161089991906116d3565b602060405180830381865afa1580156108b6573d6000803e3d6000fd5b505050506040513d601f19601f820116820180604052508101906108da91906119c3565b1161091a576040517f08c379a000000000000000000000000000000000000000000000000000000000815260040161091190611a3c565b60405180910390fd5b600960019054906101000a900473ffffffffffffffffffffffffffffffffffffffff1673ffffffffffffffffffffffffffffffffffffffff166323b872dd3330600960009054906101000a900460ff16600a6109769190611b8f565b85600a546109849190611bda565b61098e9190611bda565b6040518463ffffffff1660e01b81526004016109ac93929190611c34565b6020604051808303816000875af11580156109cb573d6000803e3d6000fd5b505050506040513d601f19601f820116820180604052508101906109ef9190611c97565b610a2e576040517f08c379a0000000000000000000000000000000000000000000000000000000008152600401610a2590611d10565b60405180910390fd5b6000600960009054906101000a900460ff16600a610a4c9190611b8f565b82610a579190611bda565b9050610a6333826111dd565b5050565b6000600160008473ffffffffffffffffffffffffffffffffffffffff1673ffffffffffffffffffffffffffffffffffffffff16815260200190815260200160002060008373ffffffffffffffffffffffffffffffffffffffff1673ffffffffffffffffffffffffffffffffffffffff16815260200190815260200160002054905092915050565b610af6611099565b60008111610b39576040517f08c379a0000000000000000000000000000000000000000000000000000000008152600401610b3090611d7c565b60405180910390fd5b80600a8190555050565b610b4b611099565b600073ffffffffffffffffffffffffffffffffffffffff168173ffffffffffffffffffffffffffffffffffffffff1603610bba576040517f08c379a0000000000000000000000000000000000000000000000000000000008152600401610bb190611e0e565b60405180910390fd5b610bc381611117565b50565b600033905090565b600073ffffffffffffffffffffffffffffffffffffffff168373ffffffffffffffffffffffffffffffffffffffff1603610c3d576040517f08c379a0000000000000000000000000000000000000000000000000000000008152600401610c3490611ea0565b60405180910390fd5b600073ffffffffffffffffffffffffffffffffffffffff168273ffffffffffffffffffffffffffffffffffffffff1603610cac576040517f08c379a0000000000000000000000000000000000000000000000000000000008152600401610ca390611f32565b60405180910390fd5b80600160008573ffffffffffffffffffffffffffffffffffffffff1673ffffffffffffffffffffffffffffffffffffffff16815260200190815260200160002060008473ffffffffffffffffffffffffffffffffffffffff1673ffffffffffffffffffffffffffffffffffffffff168152602001908152602001600020819055508173ffffffffffffffffffffffffffffffffffffffff168373ffffffffffffffffffffffffffffffffffffffff167f8c5be1e5ebec7d5bd14f71427d1e84f3dd0314c0f7b2291e5b200ac8c7c3b92583604051610d8a9190611587565b60405180910390a3505050565b6000610da38484610a67565b90507fffffffffffffffffffffffffffffffffffffffffffffffffffffffffffffffff8114610e1d5781811015610e0f576040517f08c379a0000000000000000000000000000000000000000000000000000000008152600401610e0690611f9e565b60405180910390fd5b610e1c8484848403610bce565b5b50505050565b600073ffffffffffffffffffffffffffffffffffffffff168373ffffffffffffffffffffffffffffffffffffffff1603610e92576040517f08c379a0000000000000000000000000000000000000000000000000000000008152600401610e8990612030565b60405180910390fd5b600073ffffffffffffffffffffffffffffffffffffffff168273ffffffffffffffffffffffffffffffffffffffff1603610f01576040517f08c379a0000000000000000000000000000000000000000000000000000000008152600401610ef8906120c2565b60405180910390fd5b610f0c838383611333565b60008060008573ffffffffffffffffffffffffffffffffffffffff1673ffffffffffffffffffffffffffffffffffffffff16815260200190815260200160002054905081811015610f92576040517f08c379a0000000000000000000000000000000000000000000000000000000008152600401610f8990612154565b60405180910390fd5b8181036000808673ffffffffffffffffffffffffffffffffffffffff1673ffffffffffffffffffffffffffffffffffffffff16815260200190815260200160002081905550816000808573ffffffffffffffffffffffffffffffffffffffff1673ffffffffffffffffffffffffffffffffffffffff168152602001908152602001600020600082825401925050819055508273ffffffffffffffffffffffffffffffffffffffff168473ffffffffffffffffffffffffffffffffffffffff167fddf252ad1be2c89b69c2b068fc378daa952ba7f163c4a11628f55a4df523b3ef846040516110809190611587565b60405180910390a3611093848484611338565b50505050565b6110a1610bc6565b73ffffffffffffffffffffffffffffffffffffffff166110bf6106e6565b73ffffffffffffffffffffffffffffffffffffffff1614611115576040517f08c379a000000000000000000000000000000000000000000000000000000000815260040161110c906121c0565b60405180910390fd5b565b6000600560009054906101000a900473ffffffffffffffffffffffffffffffffffffffff16905081600560006101000a81548173ffffffffffffffffffffffffffffffffffffffff021916908373ffffffffffffffffffffffffffffffffffffffff1602179055508173ffffffffffffffffffffffffffffffffffffffff168173ffffffffffffffffffffffffffffffffffffffff167f8be0079c531659141344cd1fd0a4f28419497f9722a3daafe3b4186f6b6457e060405160405180910390a35050565b600073ffffffffffffffffffffffffffffffffffffffff168273ffffffffffffffffffffffffffffffffffffffff160361124c576040517f08c379a00000000000000000000000000000000000000000000000000000000081526004016112439061222c565b60405180910390fd5b61125860008383611333565b806002600082825461126a9190611856565b92505081905550806000808473ffffffffffffffffffffffffffffffffffffffff1673ffffffffffffffffffffffffffffffffffffffff168152602001908152602001600020600082825401925050819055508173ffffffffffffffffffffffffffffffffffffffff16600073ffffffffffffffffffffffffffffffffffffffff167fddf252ad1be2c89b69c2b068fc378daa952ba7f163c4a11628f55a4df523b3ef8360405161131b9190611587565b60405180910390a361132f60008383611338565b5050565b505050565b505050565b600081519050919050565b600082825260208201905092915050565b60005b8381101561137757808201518184015260208101905061135c565b60008484015250505050565b6000601f19601f8301169050919050565b600061139f8261133d565b6113a98185611348565b93506113b9818560208601611359565b6113c281611383565b840191505092915050565b600060208201905081810360008301526113e78184611394565b905092915050565b600080fd5b600073ffffffffffffffffffffffffffffffffffffffff82169050919050565b600061141f826113f4565b9050919050565b61142f81611414565b811461143a57600080fd5b50565b60008135905061144c81611426565b92915050565b6000819050919050565b61146581611452565b811461147057600080fd5b50565b6000813590506114828161145c565b92915050565b6000806040838503121561149f5761149e6113ef565b5b60006114ad8582860161143d565b92505060206114be85828601611473565b9150509250929050565b60008115159050919050565b6114dd816114c8565b82525050565b60006020820190506114f860008301846114d4565b92915050565b6000819050919050565b600061152361151e611519846113f4565b6114fe565b6113f4565b9050919050565b600061153582611508565b9050919050565b60006115478261152a565b9050919050565b6115578161153c565b82525050565b6000602082019050611572600083018461154e565b92915050565b61158181611452565b82525050565b600060208201905061159c6000830184611578565b92915050565b6000806000606084860312156115bb576115ba6113ef565b5b60006115c98682870161143d565b93505060206115da8682870161143d565b92505060406115eb86828701611473565b9150509250925092565b600061160082611414565b9050919050565b611610816115f5565b811461161b57600080fd5b50565b60008135905061162d81611607565b92915050565b600060208284031215611649576116486113ef565b5b60006116578482850161161e565b91505092915050565b600060ff82169050919050565b61167681611660565b82525050565b6000602082019050611691600083018461166d565b92915050565b6000602082840312156116ad576116ac6113ef565b5b60006116bb8482850161143d565b91505092915050565b6116cd81611414565b82525050565b60006020820190506116e860008301846116c4565b92915050565b600060208284031215611704576117036113ef565b5b600061171284828501611473565b91505092915050565b60008060408385031215611732576117316113ef565b5b60006117408582860161143d565b92505060206117518582860161143d565b9150509250929050565b7f4e487b7100000000000000000000000000000000000000000000000000000000600052602260045260246000fd5b600060028204905060018216806117a257607f821691505b6020821081036117b5576117b461175b565b5b50919050565b7f416464726573732063616e2774206265207a65726f0000000000000000000000600082015250565b60006117f1601583611348565b91506117fc826117bb565b602082019050919050565b60006020820190508181036000830152611820816117e4565b9050919050565b7f4e487b7100000000000000000000000000000000000000000000000000000000600052601160045260246000fd5b600061186182611452565b915061186c83611452565b925082820190508082111561188457611883611827565b5b92915050565b7f546f6b656e20616464726573732063616e27742062652061646472657373207a60008201527f65726f0000000000000000000000000000000000000000000000000000000000602082015250565b60006118e6602383611348565b91506118f18261188a565b604082019050919050565b60006020820190508181036000830152611915816118d9565b9050919050565b7f45524332303a2064656372656173656420616c6c6f77616e63652062656c6f7760008201527f207a65726f000000000000000000000000000000000000000000000000000000602082015250565b6000611978602583611348565b91506119838261191c565b604082019050919050565b600060208201905081810360008301526119a78161196b565b9050919050565b6000815190506119bd8161145c565b92915050565b6000602082840312156119d9576119d86113ef565b5b60006119e7848285016119ae565b91505092915050565b7f596f75204e656564206120436861726163746572204e46540000000000000000600082015250565b6000611a26601883611348565b9150611a31826119f0565b602082019050919050565b60006020820190508181036000830152611a5581611a19565b9050919050565b60008160011c9050919050565b6000808291508390505b6001851115611ab357808604811115611a8f57611a8e611827565b5b6001851615611a9e5780820291505b8081029050611aac85611a5c565b9450611a73565b94509492505050565b600082611acc5760019050611b88565b81611ada5760009050611b88565b8160018114611af05760028114611afa57611b29565b6001915050611b88565b60ff841115611b0c57611b0b611827565b5b8360020a915084821115611b2357611b22611827565b5b50611b88565b5060208310610133831016604e8410600b8410161715611b5e5782820a905083811115611b5957611b58611827565b5b611b88565b611b6b8484846001611a69565b92509050818404811115611b8257611b81611827565b5b81810290505b9392505050565b6000611b9a82611452565b9150611ba583611660565b9250611bd27fffffffffffffffffffffffffffffffffffffffffffffffffffffffffffffffff8484611abc565b905092915050565b6000611be582611452565b9150611bf083611452565b9250817fffffffffffffffffffffffffffffffffffffffffffffffffffffffffffffffff0483118215151615611c2957611c28611827565b5b828202905092915050565b6000606082019050611c4960008301866116c4565b611c5660208301856116c4565b611c636040830184611578565b949350505050565b611c74816114c8565b8114611c7f57600080fd5b50565b600081519050611c9181611c6b565b92915050565b600060208284031215611cad57611cac6113ef565b5b6000611cbb84828501611c82565b91505092915050565b7f5472616e73666572206f6620746f6b656e206661696c65640000000000000000600082015250565b6000611cfa601883611348565b9150611d0582611cc4565b602082019050919050565b60006020820190508181036000830152611d2981611ced565b9050919050565b7f416d6f756e742063616e6e6f74206265207a65726f0000000000000000000000600082015250565b6000611d66601583611348565b9150611d7182611d30565b602082019050919050565b60006020820190508181036000830152611d9581611d59565b9050919050565b7f4f776e61626c653a206e6577206f776e657220697320746865207a65726f206160008201527f6464726573730000000000000000000000000000000000000000000000000000602082015250565b6000611df8602683611348565b9150611e0382611d9c565b604082019050919050565b60006020820190508181036000830152611e2781611deb565b9050919050565b7f45524332303a20617070726f76652066726f6d20746865207a65726f2061646460008201527f7265737300000000000000000000000000000000000000000000000000000000602082015250565b6000611e8a602483611348565b9150611e9582611e2e565b604082019050919050565b60006020820190508181036000830152611eb981611e7d565b9050919050565b7f45524332303a20617070726f766520746f20746865207a65726f20616464726560008201527f7373000000000000000000000000000000000000000000000000000000000000602082015250565b6000611f1c602283611348565b9150611f2782611ec0565b604082019050919050565b60006020820190508181036000830152611f4b81611f0f565b9050919050565b7f45524332303a20696e73756666696369656e7420616c6c6f77616e6365000000600082015250565b6000611f88601d83611348565b9150611f9382611f52565b602082019050919050565b60006020820190508181036000830152611fb781611f7b565b9050919050565b7f45524332303a207472616e736665722066726f6d20746865207a65726f20616460008201527f6472657373000000000000000000000000000000000000000000000000000000602082015250565b600061201a602583611348565b915061202582611fbe565b604082019050919050565b600060208201905081810360008301526120498161200d565b9050919050565b7f45524332303a207472616e7366657220746f20746865207a65726f206164647260008201527f6573730000000000000000000000000000000000000000000000000000000000602082015250565b60006120ac602383611348565b91506120b782612050565b604082019050919050565b600060208201905081810360008301526120db8161209f565b9050919050565b7f45524332303a207472616e7366657220616d6f756e742065786365656473206260008201527f616c616e63650000000000000000000000000000000000000000000000000000602082015250565b600061213e602683611348565b9150612149826120e2565b604082019050919050565b6000602082019050818103600083015261216d81612131565b9050919050565b7f4f776e61626c653a2063616c6c6572206973206e6f7420746865206f776e6572600082015250565b60006121aa602083611348565b91506121b582612174565b602082019050919050565b600060208201905081810360008301526121d98161219d565b9050919050565b7f45524332303a206d696e7420746f20746865207a65726f206164647265737300600082015250565b6000612216601f83611348565b9150612221826121e0565b602082019050919050565b6000602082019050818103600083015261224581612209565b905091905056fea2646970667358221220a7b95e42fd060925c9341dc0e73f5050608e5273a43e86f95e430b8ecf0b4a0564736f6c6343000810003368747470733a2f2f676174657761792e70696e6174612e636c6f75642f697066732f516d575038396f3747767a7a58715867316b734d3764474141674c644c475a5878436f356856766e6737384769582f627269636b2e6a736f6e",
  "immutableReferences": {},
  "source": "// SPDX-License-Identifier: MIT\r\npragma solidity ^0.8.7;\r\n\r\nimport \"@openzeppelin/contracts/token/ERC20/ERC20.sol\";\r\nimport \"@openzeppelin/contracts/token/ERC20/extensions/ERC20Burnable.sol\";\r\nimport \"@openzeppelin/contracts/access/Ownable.sol\";\r\nimport \"@openzeppelin/contracts/token/ERC721/IERC721.sol\";\r\n\r\ncontract BRICK is ERC20, Ownable {\r\n    string private _name;\r\n    string private _symbol;\r\n    string private _tokenURI = \"https://gateway.pinata.cloud/ipfs/QmWP89o7GvzzXqXg1ksM7dGAAgLdLGZXxCo5hVvng78GiX/brick.json\";\r\n    uint8 private _decimals;\r\n\r\n    address private _requiredToken;\r\n    uint256 private _requiredAmount;\r\n\r\n    IERC721 public requiredNFT;\r\n\r\n    constructor(\r\n        string memory name_,\r\n        string memory symbol_,\r\n        uint8 decimals_,\r\n        address requiredToken_,\r\n        uint256 requiredAmount_,\r\n        address requiredNFT_\r\n    ) ERC20(name_, symbol_) {\r\n        _name = name_;\r\n        _symbol = symbol_;\r\n        _decimals = decimals_;\r\n        _requiredToken = requiredToken_;\r\n        _requiredAmount = requiredAmount_;\r\n        requiredNFT = IERC721(requiredNFT_);\r\n        _mint(msg.sender, 50000 * 10 ** uint256(decimals_));\r\n    }\r\n\r\n    //Setter Functions\r\n\r\n    function setPaymentCurrency(address _paymentCurrency) public onlyOwner {\r\n        require(\r\n            address(_paymentCurrency) != address(0),\r\n            \"Token address can't be address zero\"\r\n        );\r\n        _requiredToken = _paymentCurrency;\r\n    }\r\n\r\n    function setRequiredNFT(IERC721 _requiredNFT) public onlyOwner {\r\n        require(address(_requiredNFT) != address(0), \"Address can't be zero\");\r\n        requiredNFT = _requiredNFT;\r\n    }\r\n\r\n    function setRequiredAmount(uint256 requiredAmount) public onlyOwner {\r\n        require(requiredAmount > 0, \"Amount cannot be zero\");\r\n        _requiredAmount = requiredAmount;\r\n    }\r\n\r\n    // buy function\r\n\r\n    function mintBrick(uint256 amount) public {\r\n        require(\r\n            IERC721(requiredNFT).balanceOf(msg.sender) > 0,\r\n            \"You Need a Character NFT\"\r\n        );\r\n        require(\r\n            IERC20(_requiredToken).transferFrom(\r\n                msg.sender,\r\n                address(this),\r\n                _requiredAmount * amount * (10 ** _decimals)\r\n            ),\r\n            \"Transfer of token failed\"\r\n        );\r\n\r\n        uint256 mintAmount = amount * (10 ** _decimals);\r\n        _mint(msg.sender, mintAmount);\r\n    }\r\n}\r\n",
  "sourcePath": "C:\\Users\\sumer\\OneDrive\\Desktop\\Workbench\\NFTDeployment\\contracts\\BRICK.sol",
  "compiler": {
    "name": "solc",
    "version": "0.8.16+commit.07a7930e.Emscripten.clang"
  },
  "schemaVersion": "3.4.15",
  "updatedAt": "2023-08-14T13:13:57.387Z",
  "networkType": "ethereum",
  "devdoc": {
    "kind": "dev",
    "methods": {
      "allowance(address,address)": {
        "details": "See {IERC20-allowance}."
      },
      "approve(address,uint256)": {
        "details": "See {IERC20-approve}. NOTE: If `amount` is the maximum `uint256`, the allowance is not updated on `transferFrom`. This is semantically equivalent to an infinite approval. Requirements: - `spender` cannot be the zero address."
      },
      "balanceOf(address)": {
        "details": "See {IERC20-balanceOf}."
      },
      "decimals()": {
        "details": "Returns the number of decimals used to get its user representation. For example, if `decimals` equals `2`, a balance of `505` tokens should be displayed to a user as `5.05` (`505 / 10 ** 2`). Tokens usually opt for a value of 18, imitating the relationship between Ether and Wei. This is the default value returned by this function, unless it's overridden. NOTE: This information is only used for _display_ purposes: it in no way affects any of the arithmetic of the contract, including {IERC20-balanceOf} and {IERC20-transfer}."
      },
      "decreaseAllowance(address,uint256)": {
        "details": "Atomically decreases the allowance granted to `spender` by the caller. This is an alternative to {approve} that can be used as a mitigation for problems described in {IERC20-approve}. Emits an {Approval} event indicating the updated allowance. Requirements: - `spender` cannot be the zero address. - `spender` must have allowance for the caller of at least `subtractedValue`."
      },
      "increaseAllowance(address,uint256)": {
        "details": "Atomically increases the allowance granted to `spender` by the caller. This is an alternative to {approve} that can be used as a mitigation for problems described in {IERC20-approve}. Emits an {Approval} event indicating the updated allowance. Requirements: - `spender` cannot be the zero address."
      },
      "name()": {
        "details": "Returns the name of the token."
      },
      "owner()": {
        "details": "Returns the address of the current owner."
      },
      "renounceOwnership()": {
        "details": "Leaves the contract without owner. It will not be possible to call `onlyOwner` functions. Can only be called by the current owner. NOTE: Renouncing ownership will leave the contract without an owner, thereby disabling any functionality that is only available to the owner."
      },
      "symbol()": {
        "details": "Returns the symbol of the token, usually a shorter version of the name."
      },
      "totalSupply()": {
        "details": "See {IERC20-totalSupply}."
      },
      "transfer(address,uint256)": {
        "details": "See {IERC20-transfer}. Requirements: - `to` cannot be the zero address. - the caller must have a balance of at least `amount`."
      },
      "transferFrom(address,address,uint256)": {
        "details": "See {IERC20-transferFrom}. Emits an {Approval} event indicating the updated allowance. This is not required by the EIP. See the note at the beginning of {ERC20}. NOTE: Does not update the allowance if the current allowance is the maximum `uint256`. Requirements: - `from` and `to` cannot be the zero address. - `from` must have a balance of at least `amount`. - the caller must have allowance for ``from``'s tokens of at least `amount`."
      },
      "transferOwnership(address)": {
        "details": "Transfers ownership of the contract to a new account (`newOwner`). Can only be called by the current owner."
      }
    },
    "version": 1
  },
  "userdoc": {
    "kind": "user",
    "methods": {},
    "version": 1
  }
}