{
  "contractName": "IRON",
  "abi": [
    {
      "inputs": [
        {
          "internalType": "string",
          "name": "name_",
          "type": "string"
        },
        {
          "internalType": "string",
          "name": "symbol_",
          "type": "string"
        },
        {
          "internalType": "uint8",
          "name": "decimals_",
          "type": "uint8"
        },
        {
          "internalType": "address",
          "name": "requiredToken1_",
          "type": "address"
        },
        {
          "internalType": "uint256",
          "name": "requiredAmount1_",
          "type": "uint256"
        },
        {
          "internalType": "address",
          "name": "requiredToken2_",
          "type": "address"
        },
        {
          "internalType": "uint256",
          "name": "requiredAmount2_",
          "type": "uint256"
        },
        {
          "internalType": "address",
          "name": "requiredNFT1_",
          "type": "address"
        },
        {
          "internalType": "address",
          "name": "requiredNFT2_",
          "type": "address"
        }
      ],
      "stateMutability": "nonpayable",
      "type": "constructor"
    },
    {
      "anonymous": false,
      "inputs": [
        {
          "indexed": true,
          "internalType": "address",
          "name": "owner",
          "type": "address"
        },
        {
          "indexed": true,
          "internalType": "address",
          "name": "spender",
          "type": "address"
        },
        {
          "indexed": false,
          "internalType": "uint256",
          "name": "value",
          "type": "uint256"
        }
      ],
      "name": "Approval",
      "type": "event"
    },
    {
      "anonymous": false,
      "inputs": [
        {
          "indexed": true,
          "internalType": "address",
          "name": "previousOwner",
          "type": "address"
        },
        {
          "indexed": true,
          "internalType": "address",
          "name": "newOwner",
          "type": "address"
        }
      ],
      "name": "OwnershipTransferred",
      "type": "event"
    },
    {
      "anonymous": false,
      "inputs": [
        {
          "indexed": true,
          "internalType": "address",
          "name": "from",
          "type": "address"
        },
        {
          "indexed": true,
          "internalType": "address",
          "name": "to",
          "type": "address"
        },
        {
          "indexed": false,
          "internalType": "uint256",
          "name": "value",
          "type": "uint256"
        }
      ],
      "name": "Transfer",
      "type": "event"
    },
    {
      "inputs": [
        {
          "internalType": "address",
          "name": "owner",
          "type": "address"
        },
        {
          "internalType": "address",
          "name": "spender",
          "type": "address"
        }
      ],
      "name": "allowance",
      "outputs": [
        {
          "internalType": "uint256",
          "name": "",
          "type": "uint256"
        }
      ],
      "stateMutability": "view",
      "type": "function",
      "constant": true
    },
    {
      "inputs": [
        {
          "internalType": "address",
          "name": "spender",
          "type": "address"
        },
        {
          "internalType": "uint256",
          "name": "amount",
          "type": "uint256"
        }
      ],
      "name": "approve",
      "outputs": [
        {
          "internalType": "bool",
          "name": "",
          "type": "bool"
        }
      ],
      "stateMutability": "nonpayable",
      "type": "function"
    },
    {
      "inputs": [
        {
          "internalType": "address",
          "name": "account",
          "type": "address"
        }
      ],
      "name": "balanceOf",
      "outputs": [
        {
          "internalType": "uint256",
          "name": "",
          "type": "uint256"
        }
      ],
      "stateMutability": "view",
      "type": "function",
      "constant": true
    },
    {
      "inputs": [],
      "name": "decimals",
      "outputs": [
        {
          "internalType": "uint8",
          "name": "",
          "type": "uint8"
        }
      ],
      "stateMutability": "view",
      "type": "function",
      "constant": true
    },
    {
      "inputs": [
        {
          "internalType": "address",
          "name": "spender",
          "type": "address"
        },
        {
          "internalType": "uint256",
          "name": "subtractedValue",
          "type": "uint256"
        }
      ],
      "name": "decreaseAllowance",
      "outputs": [
        {
          "internalType": "bool",
          "name": "",
          "type": "bool"
        }
      ],
      "stateMutability": "nonpayable",
      "type": "function"
    },
    {
      "inputs": [
        {
          "internalType": "address",
          "name": "spender",
          "type": "address"
        },
        {
          "internalType": "uint256",
          "name": "addedValue",
          "type": "uint256"
        }
      ],
      "name": "increaseAllowance",
      "outputs": [
        {
          "internalType": "bool",
          "name": "",
          "type": "bool"
        }
      ],
      "stateMutability": "nonpayable",
      "type": "function"
    },
    {
      "inputs": [],
      "name": "name",
      "outputs": [
        {
          "internalType": "string",
          "name": "",
          "type": "string"
        }
      ],
      "stateMutability": "view",
      "type": "function",
      "constant": true
    },
    {
      "inputs": [],
      "name": "owner",
      "outputs": [
        {
          "internalType": "address",
          "name": "",
          "type": "address"
        }
      ],
      "stateMutability": "view",
      "type": "function",
      "constant": true
    },
    {
      "inputs": [],
      "name": "renounceOwnership",
      "outputs": [],
      "stateMutability": "nonpayable",
      "type": "function"
    },
    {
      "inputs": [],
      "name": "requiredNFT1",
      "outputs": [
        {
          "internalType": "contract IERC721",
          "name": "",
          "type": "address"
        }
      ],
      "stateMutability": "view",
      "type": "function",
      "constant": true
    },
    {
      "inputs": [],
      "name": "requiredNFT2",
      "outputs": [
        {
          "internalType": "contract IERC721",
          "name": "",
          "type": "address"
        }
      ],
      "stateMutability": "view",
      "type": "function",
      "constant": true
    },
    {
      "inputs": [],
      "name": "symbol",
      "outputs": [
        {
          "internalType": "string",
          "name": "",
          "type": "string"
        }
      ],
      "stateMutability": "view",
      "type": "function",
      "constant": true
    },
    {
      "inputs": [],
      "name": "totalSupply",
      "outputs": [
        {
          "internalType": "uint256",
          "name": "",
          "type": "uint256"
        }
      ],
      "stateMutability": "view",
      "type": "function",
      "constant": true
    },
    {
      "inputs": [
        {
          "internalType": "address",
          "name": "to",
          "type": "address"
        },
        {
          "internalType": "uint256",
          "name": "amount",
          "type": "uint256"
        }
      ],
      "name": "transfer",
      "outputs": [
        {
          "internalType": "bool",
          "name": "",
          "type": "bool"
        }
      ],
      "stateMutability": "nonpayable",
      "type": "function"
    },
    {
      "inputs": [
        {
          "internalType": "address",
          "name": "from",
          "type": "address"
        },
        {
          "internalType": "address",
          "name": "to",
          "type": "address"
        },
        {
          "internalType": "uint256",
          "name": "amount",
          "type": "uint256"
        }
      ],
      "name": "transferFrom",
      "outputs": [
        {
          "internalType": "bool",
          "name": "",
          "type": "bool"
        }
      ],
      "stateMutability": "nonpayable",
      "type": "function"
    },
    {
      "inputs": [
        {
          "internalType": "address",
          "name": "newOwner",
          "type": "address"
        }
      ],
      "name": "transferOwnership",
      "outputs": [],
      "stateMutability": "nonpayable",
      "type": "function"
    },
    {
      "inputs": [
        {
          "internalType": "address",
          "name": "_paymentCurrency",
          "type": "address"
        }
      ],
      "name": "setPaymentCurrency1",
      "outputs": [],
      "stateMutability": "nonpayable",
      "type": "function"
    },
    {
      "inputs": [
        {
          "internalType": "address",
          "name": "_paymentCurrency",
          "type": "address"
        }
      ],
      "name": "setPaymentCurrency2",
      "outputs": [],
      "stateMutability": "nonpayable",
      "type": "function"
    },
    {
      "inputs": [
        {
          "internalType": "contract IERC721",
          "name": "_requiredNFT",
          "type": "address"
        }
      ],
      "name": "setRequiredNFT1",
      "outputs": [],
      "stateMutability": "nonpayable",
      "type": "function"
    },
    {
      "inputs": [
        {
          "internalType": "contract IERC721",
          "name": "_requiredNFT",
          "type": "address"
        }
      ],
      "name": "setRequiredNFT2",
      "outputs": [],
      "stateMutability": "nonpayable",
      "type": "function"
    },
    {
      "inputs": [
        {
          "internalType": "uint256",
          "name": "requiredAmount",
          "type": "uint256"
        }
      ],
      "name": "setRequiredAmount1",
      "outputs": [],
      "stateMutability": "nonpayable",
      "type": "function"
    },
    {
      "inputs": [
        {
          "internalType": "uint256",
          "name": "requiredAmount",
          "type": "uint256"
        }
      ],
      "name": "setRequiredAmount2",
      "outputs": [],
      "stateMutability": "nonpayable",
      "type": "function"
    },
    {
      "inputs": [
        {
          "internalType": "uint256",
          "name": "amount",
          "type": "uint256"
        }
      ],
      "name": "mintIron",
      "outputs": [],
      "stateMutability": "nonpayable",
      "type": "function"
    }
  ],
  "bytecode": "0x60806040526040518060800160405280605081526020016200364360509139600890816200002e9190620006fb565b503480156200003c57600080fd5b506040516200369338038062003693833981810160405281019062000062919062000a1a565b88888160039081620000759190620006fb565b508060049081620000879190620006fb565b505050620000aa6200009e6200023c60201b60201c565b6200024460201b60201c565b8860069081620000bb9190620006fb565b508760079081620000cd9190620006fb565b5086600960006101000a81548160ff021916908360ff16021790555085600960016101000a81548173ffffffffffffffffffffffffffffffffffffffff021916908373ffffffffffffffffffffffffffffffffffffffff16021790555084600a8190555083600b60006101000a81548173ffffffffffffffffffffffffffffffffffffffff021916908373ffffffffffffffffffffffffffffffffffffffff16021790555082600c8190555081600d60006101000a81548173ffffffffffffffffffffffffffffffffffffffff021916908373ffffffffffffffffffffffffffffffffffffffff16021790555080600e60006101000a81548173ffffffffffffffffffffffffffffffffffffffff021916908373ffffffffffffffffffffffffffffffffffffffff1602179055506200022d338860ff16600a62000212919062000cba565b61c35062000221919062000d0b565b6200030a60201b60201c565b50505050505050505062000e58565b600033905090565b6000600560009054906101000a900473ffffffffffffffffffffffffffffffffffffffff16905081600560006101000a81548173ffffffffffffffffffffffffffffffffffffffff021916908373ffffffffffffffffffffffffffffffffffffffff1602179055508173ffffffffffffffffffffffffffffffffffffffff168173ffffffffffffffffffffffffffffffffffffffff167f8be0079c531659141344cd1fd0a4f28419497f9722a3daafe3b4186f6b6457e060405160405180910390a35050565b600073ffffffffffffffffffffffffffffffffffffffff168273ffffffffffffffffffffffffffffffffffffffff16036200037c576040517f08c379a0000000000000000000000000000000000000000000000000000000008152600401620003739062000dcd565b60405180910390fd5b62000390600083836200047760201b60201c565b8060026000828254620003a4919062000def565b92505081905550806000808473ffffffffffffffffffffffffffffffffffffffff1673ffffffffffffffffffffffffffffffffffffffff168152602001908152602001600020600082825401925050819055508173ffffffffffffffffffffffffffffffffffffffff16600073ffffffffffffffffffffffffffffffffffffffff167fddf252ad1be2c89b69c2b068fc378daa952ba7f163c4a11628f55a4df523b3ef8360405162000457919062000e3b565b60405180910390a362000473600083836200047c60201b60201c565b5050565b505050565b505050565b600081519050919050565b7f4e487b7100000000000000000000000000000000000000000000000000000000600052604160045260246000fd5b7f4e487b7100000000000000000000000000000000000000000000000000000000600052602260045260246000fd5b600060028204905060018216806200050357607f821691505b602082108103620005195762000518620004bb565b5b50919050565b60008190508160005260206000209050919050565b60006020601f8301049050919050565b600082821b905092915050565b600060088302620005837fffffffffffffffffffffffffffffffffffffffffffffffffffffffffffffffff8262000544565b6200058f868362000544565b95508019841693508086168417925050509392505050565b6000819050919050565b6000819050919050565b6000620005dc620005d6620005d084620005a7565b620005b1565b620005a7565b9050919050565b6000819050919050565b620005f883620005bb565b620006106200060782620005e3565b84845462000551565b825550505050565b600090565b6200062762000618565b62000634818484620005ed565b505050565b5b818110156200065c57620006506000826200061d565b6001810190506200063a565b5050565b601f821115620006ab5762000675816200051f565b620006808462000534565b8101602085101562000690578190505b620006a86200069f8562000534565b83018262000639565b50505b505050565b600082821c905092915050565b6000620006d060001984600802620006b0565b1980831691505092915050565b6000620006eb8383620006bd565b9150826002028217905092915050565b620007068262000481565b67ffffffffffffffff8111156200072257620007216200048c565b5b6200072e8254620004ea565b6200073b82828562000660565b600060209050601f8311600181146200077357600084156200075e578287015190505b6200076a8582620006dd565b865550620007da565b601f19841662000783866200051f565b60005b82811015620007ad5784890151825560018201915060208501945060208101905062000786565b86831015620007cd5784890151620007c9601f891682620006bd565b8355505b6001600288020188555050505b505050505050565b6000604051905090565b600080fd5b600080fd5b600080fd5b600080fd5b6000601f19601f8301169050919050565b6200081c8262000800565b810181811067ffffffffffffffff821117156200083e576200083d6200048c565b5b80604052505050565b600062000853620007e2565b905062000861828262000811565b919050565b600067ffffffffffffffff8211156200088457620008836200048c565b5b6200088f8262000800565b9050602081019050919050565b60005b83811015620008bc5780820151818401526020810190506200089f565b60008484015250505050565b6000620008df620008d98462000866565b62000847565b905082815260208101848484011115620008fe57620008fd620007fb565b5b6200090b8482856200089c565b509392505050565b600082601f8301126200092b576200092a620007f6565b5b81516200093d848260208601620008c8565b91505092915050565b600060ff82169050919050565b6200095e8162000946565b81146200096a57600080fd5b50565b6000815190506200097e8162000953565b92915050565b600073ffffffffffffffffffffffffffffffffffffffff82169050919050565b6000620009b18262000984565b9050919050565b620009c381620009a4565b8114620009cf57600080fd5b50565b600081519050620009e381620009b8565b92915050565b620009f481620005a7565b811462000a0057600080fd5b50565b60008151905062000a1481620009e9565b92915050565b60008060008060008060008060006101208a8c03121562000a405762000a3f620007ec565b5b60008a015167ffffffffffffffff81111562000a615762000a60620007f1565b5b62000a6f8c828d0162000913565b99505060208a015167ffffffffffffffff81111562000a935762000a92620007f1565b5b62000aa18c828d0162000913565b985050604062000ab48c828d016200096d565b975050606062000ac78c828d01620009d2565b965050608062000ada8c828d0162000a03565b95505060a062000aed8c828d01620009d2565b94505060c062000b008c828d0162000a03565b93505060e062000b138c828d01620009d2565b92505061010062000b278c828d01620009d2565b9150509295985092959850929598565b7f4e487b7100000000000000000000000000000000000000000000000000000000600052601160045260246000fd5b60008160011c9050919050565b6000808291508390505b600185111562000bc55780860481111562000b9d5762000b9c62000b37565b5b600185161562000bad5780820291505b808102905062000bbd8562000b66565b945062000b7d565b94509492505050565b60008262000be0576001905062000cb3565b8162000bf0576000905062000cb3565b816001811462000c09576002811462000c145762000c4a565b600191505062000cb3565b60ff84111562000c295762000c2862000b37565b5b8360020a91508482111562000c435762000c4262000b37565b5b5062000cb3565b5060208310610133831016604e8410600b841016171562000c845782820a90508381111562000c7e5762000c7d62000b37565b5b62000cb3565b62000c93848484600162000b73565b9250905081840481111562000cad5762000cac62000b37565b5b81810290505b9392505050565b600062000cc782620005a7565b915062000cd483620005a7565b925062000d037fffffffffffffffffffffffffffffffffffffffffffffffffffffffffffffffff848462000bce565b905092915050565b600062000d1882620005a7565b915062000d2583620005a7565b9250817fffffffffffffffffffffffffffffffffffffffffffffffffffffffffffffffff048311821515161562000d615762000d6062000b37565b5b828202905092915050565b600082825260208201905092915050565b7f45524332303a206d696e7420746f20746865207a65726f206164647265737300600082015250565b600062000db5601f8362000d6c565b915062000dc28262000d7d565b602082019050919050565b6000602082019050818103600083015262000de88162000da6565b9050919050565b600062000dfc82620005a7565b915062000e0983620005a7565b925082820190508082111562000e245762000e2362000b37565b5b92915050565b62000e3581620005a7565b82525050565b600060208201905062000e52600083018462000e2a565b92915050565b6127db8062000e686000396000f3fe608060405234801561001057600080fd5b506004361061014d5760003560e01c80637ed3f629116100c3578063b2a773311161007c578063b2a77331146103a0578063c3cce1b4146103bc578063cc528abb146103da578063d8615841146103f6578063dd62ed3e14610412578063f2fde38b146104425761014d565b80637ed3f629146102cc5780638da5cb5b146102e857806395d89b41146103065780639a16a49114610324578063a457c2d714610340578063a9059cbb146103705761014d565b8063313ce56711610115578063313ce5671461020a57806339509351146102285780633db43772146102585780634b084c521461027657806370a0823114610292578063715018a6146102c25761014d565b806306fdde0314610152578063095ea7b3146101705780630eb547c9146101a057806318160ddd146101bc57806323b872dd146101da575b600080fd5b61015a61045e565b604051610167919061184e565b60405180910390f35b61018a60048036038101906101859190611909565b6104f0565b6040516101979190611964565b60405180910390f35b6101ba60048036038101906101b591906119bd565b610513565b005b6101c46105ce565b6040516101d191906119f9565b60405180910390f35b6101f460048036038101906101ef9190611a14565b6105d8565b6040516102019190611964565b60405180910390f35b610212610607565b60405161021f9190611a83565b60405180910390f35b610242600480360381019061023d9190611909565b610610565b60405161024f9190611964565b60405180910390f35b610260610647565b60405161026d9190611afd565b60405180910390f35b610290600480360381019061028b91906119bd565b61066d565b005b6102ac60048036038101906102a79190611b18565b610728565b6040516102b991906119f9565b60405180910390f35b6102ca610770565b005b6102e660048036038101906102e19190611b45565b610784565b005b6102f06107d9565b6040516102fd9190611b81565b60405180910390f35b61030e610803565b60405161031b919061184e565b60405180910390f35b61033e60048036038101906103399190611b45565b610895565b005b61035a60048036038101906103559190611909565b610cb2565b6040516103679190611964565b60405180910390f35b61038a60048036038101906103859190611909565b610d29565b6040516103979190611964565b60405180910390f35b6103ba60048036038101906103b59190611b18565b610d4c565b005b6103c4610e07565b6040516103d19190611afd565b60405180910390f35b6103f460048036038101906103ef9190611b45565b610e2d565b005b610410600480360381019061040b9190611b18565b610e82565b005b61042c60048036038101906104279190611b9c565b610f3d565b60405161043991906119f9565b60405180910390f35b61045c60048036038101906104579190611b18565b610fc4565b005b60606003805461046d90611c0b565b80601f016020809104026020016040519081016040528092919081815260200182805461049990611c0b565b80156104e65780601f106104bb576101008083540402835291602001916104e6565b820191906000526020600020905b8154815290600101906020018083116104c957829003601f168201915b5050505050905090565b6000806104fb611047565b905061050881858561104f565b600191505092915050565b61051b611218565b600073ffffffffffffffffffffffffffffffffffffffff168173ffffffffffffffffffffffffffffffffffffffff160361058a576040517f08c379a000000000000000000000000000000000000000000000000000000000815260040161058190611c88565b60405180910390fd5b80600e60006101000a81548173ffffffffffffffffffffffffffffffffffffffff021916908373ffffffffffffffffffffffffffffffffffffffff16021790555050565b6000600254905090565b6000806105e3611047565b90506105f0858285611296565b6105fb858585611322565b60019150509392505050565b60006012905090565b60008061061b611047565b905061063c81858561062d8589610f3d565b6106379190611cd7565b61104f565b600191505092915050565b600e60009054906101000a900473ffffffffffffffffffffffffffffffffffffffff1681565b610675611218565b600073ffffffffffffffffffffffffffffffffffffffff168173ffffffffffffffffffffffffffffffffffffffff16036106e4576040517f08c379a00000000000000000000000000000000000000000000000000000000081526004016106db90611c88565b60405180910390fd5b80600d60006101000a81548173ffffffffffffffffffffffffffffffffffffffff021916908373ffffffffffffffffffffffffffffffffffffffff16021790555050565b60008060008373ffffffffffffffffffffffffffffffffffffffff1673ffffffffffffffffffffffffffffffffffffffff168152602001908152602001600020549050919050565b610778611218565b6107826000611598565b565b61078c611218565b600081116107cf576040517f08c379a00000000000000000000000000000000000000000000000000000000081526004016107c690611d57565b60405180910390fd5b80600a8190555050565b6000600560009054906101000a900473ffffffffffffffffffffffffffffffffffffffff16905090565b60606004805461081290611c0b565b80601f016020809104026020016040519081016040528092919081815260200182805461083e90611c0b565b801561088b5780601f106108605761010080835404028352916020019161088b565b820191906000526020600020905b81548152906001019060200180831161086e57829003601f168201915b5050505050905090565b6000600d60009054906101000a900473ffffffffffffffffffffffffffffffffffffffff1673ffffffffffffffffffffffffffffffffffffffff166370a08231336040518263ffffffff1660e01b81526004016108f29190611b81565b602060405180830381865afa15801561090f573d6000803e3d6000fd5b505050506040513d601f19601f820116820180604052508101906109339190611d8c565b11610973576040517f08c379a000000000000000000000000000000000000000000000000000000000815260040161096a90611e05565b60405180910390fd5b6000600e60009054906101000a900473ffffffffffffffffffffffffffffffffffffffff1673ffffffffffffffffffffffffffffffffffffffff166370a08231336040518263ffffffff1660e01b81526004016109d09190611b81565b602060405180830381865afa1580156109ed573d6000803e3d6000fd5b505050506040513d601f19601f82011682018060405250810190610a119190611d8c565b11610a51576040517f08c379a0000000000000000000000000000000000000000000000000000000008152600401610a4890611e71565b60405180910390fd5b600960019054906101000a900473ffffffffffffffffffffffffffffffffffffffff1673ffffffffffffffffffffffffffffffffffffffff166323b872dd3330600960009054906101000a900460ff16600a610aad9190611fc4565b85600a54610abb919061200f565b610ac5919061200f565b6040518463ffffffff1660e01b8152600401610ae393929190612069565b6020604051808303816000875af1158015610b02573d6000803e3d6000fd5b505050506040513d601f19601f82011682018060405250810190610b2691906120cc565b610b65576040517f08c379a0000000000000000000000000000000000000000000000000000000008152600401610b5c90612145565b60405180910390fd5b600b60009054906101000a900473ffffffffffffffffffffffffffffffffffffffff1673ffffffffffffffffffffffffffffffffffffffff166323b872dd3330600960009054906101000a900460ff16600a610bc19190611fc4565b85600c54610bcf919061200f565b610bd9919061200f565b6040518463ffffffff1660e01b8152600401610bf793929190612069565b6020604051808303816000875af1158015610c16573d6000803e3d6000fd5b505050506040513d601f19601f82011682018060405250810190610c3a91906120cc565b610c79576040517f08c379a0000000000000000000000000000000000000000000000000000000008152600401610c70906121b1565b60405180910390fd5b6000600960009054906101000a900460ff16600a610c979190611fc4565b82610ca2919061200f565b9050610cae338261165e565b5050565b600080610cbd611047565b90506000610ccb8286610f3d565b905083811015610d10576040517f08c379a0000000000000000000000000000000000000000000000000000000008152600401610d0790612243565b60405180910390fd5b610d1d828686840361104f565b60019250505092915050565b600080610d34611047565b9050610d41818585611322565b600191505092915050565b610d54611218565b600073ffffffffffffffffffffffffffffffffffffffff168173ffffffffffffffffffffffffffffffffffffffff1603610dc3576040517f08c379a0000000000000000000000000000000000000000000000000000000008152600401610dba906122d5565b60405180910390fd5b80600b60006101000a81548173ffffffffffffffffffffffffffffffffffffffff021916908373ffffffffffffffffffffffffffffffffffffffff16021790555050565b600d60009054906101000a900473ffffffffffffffffffffffffffffffffffffffff1681565b610e35611218565b60008111610e78576040517f08c379a0000000000000000000000000000000000000000000000000000000008152600401610e6f90611d57565b60405180910390fd5b80600c8190555050565b610e8a611218565b600073ffffffffffffffffffffffffffffffffffffffff168173ffffffffffffffffffffffffffffffffffffffff1603610ef9576040517f08c379a0000000000000000000000000000000000000000000000000000000008152600401610ef0906122d5565b60405180910390fd5b80600960016101000a81548173ffffffffffffffffffffffffffffffffffffffff021916908373ffffffffffffffffffffffffffffffffffffffff16021790555050565b6000600160008473ffffffffffffffffffffffffffffffffffffffff1673ffffffffffffffffffffffffffffffffffffffff16815260200190815260200160002060008373ffffffffffffffffffffffffffffffffffffffff1673ffffffffffffffffffffffffffffffffffffffff16815260200190815260200160002054905092915050565b610fcc611218565b600073ffffffffffffffffffffffffffffffffffffffff168173ffffffffffffffffffffffffffffffffffffffff160361103b576040517f08c379a000000000000000000000000000000000000000000000000000000000815260040161103290612367565b60405180910390fd5b61104481611598565b50565b600033905090565b600073ffffffffffffffffffffffffffffffffffffffff168373ffffffffffffffffffffffffffffffffffffffff16036110be576040517f08c379a00000000000000000000000000000000000000000000000000000000081526004016110b5906123f9565b60405180910390fd5b600073ffffffffffffffffffffffffffffffffffffffff168273ffffffffffffffffffffffffffffffffffffffff160361112d576040517f08c379a00000000000000000000000000000000000000000000000000000000081526004016111249061248b565b60405180910390fd5b80600160008573ffffffffffffffffffffffffffffffffffffffff1673ffffffffffffffffffffffffffffffffffffffff16815260200190815260200160002060008473ffffffffffffffffffffffffffffffffffffffff1673ffffffffffffffffffffffffffffffffffffffff168152602001908152602001600020819055508173ffffffffffffffffffffffffffffffffffffffff168373ffffffffffffffffffffffffffffffffffffffff167f8c5be1e5ebec7d5bd14f71427d1e84f3dd0314c0f7b2291e5b200ac8c7c3b9258360405161120b91906119f9565b60405180910390a3505050565b611220611047565b73ffffffffffffffffffffffffffffffffffffffff1661123e6107d9565b73ffffffffffffffffffffffffffffffffffffffff1614611294576040517f08c379a000000000000000000000000000000000000000000000000000000000815260040161128b906124f7565b60405180910390fd5b565b60006112a28484610f3d565b90507fffffffffffffffffffffffffffffffffffffffffffffffffffffffffffffffff811461131c578181101561130e576040517f08c379a000000000000000000000000000000000000000000000000000000000815260040161130590612563565b60405180910390fd5b61131b848484840361104f565b5b50505050565b600073ffffffffffffffffffffffffffffffffffffffff168373ffffffffffffffffffffffffffffffffffffffff1603611391576040517f08c379a0000000000000000000000000000000000000000000000000000000008152600401611388906125f5565b60405180910390fd5b600073ffffffffffffffffffffffffffffffffffffffff168273ffffffffffffffffffffffffffffffffffffffff1603611400576040517f08c379a00000000000000000000000000000000000000000000000000000000081526004016113f790612687565b60405180910390fd5b61140b8383836117b4565b60008060008573ffffffffffffffffffffffffffffffffffffffff1673ffffffffffffffffffffffffffffffffffffffff16815260200190815260200160002054905081811015611491576040517f08c379a000000000000000000000000000000000000000000000000000000000815260040161148890612719565b60405180910390fd5b8181036000808673ffffffffffffffffffffffffffffffffffffffff1673ffffffffffffffffffffffffffffffffffffffff16815260200190815260200160002081905550816000808573ffffffffffffffffffffffffffffffffffffffff1673ffffffffffffffffffffffffffffffffffffffff168152602001908152602001600020600082825401925050819055508273ffffffffffffffffffffffffffffffffffffffff168473ffffffffffffffffffffffffffffffffffffffff167fddf252ad1be2c89b69c2b068fc378daa952ba7f163c4a11628f55a4df523b3ef8460405161157f91906119f9565b60405180910390a36115928484846117b9565b50505050565b6000600560009054906101000a900473ffffffffffffffffffffffffffffffffffffffff16905081600560006101000a81548173ffffffffffffffffffffffffffffffffffffffff021916908373ffffffffffffffffffffffffffffffffffffffff1602179055508173ffffffffffffffffffffffffffffffffffffffff168173ffffffffffffffffffffffffffffffffffffffff167f8be0079c531659141344cd1fd0a4f28419497f9722a3daafe3b4186f6b6457e060405160405180910390a35050565b600073ffffffffffffffffffffffffffffffffffffffff168273ffffffffffffffffffffffffffffffffffffffff16036116cd576040517f08c379a00000000000000000000000000000000000000000000000000000000081526004016116c490612785565b60405180910390fd5b6116d9600083836117b4565b80600260008282546116eb9190611cd7565b92505081905550806000808473ffffffffffffffffffffffffffffffffffffffff1673ffffffffffffffffffffffffffffffffffffffff168152602001908152602001600020600082825401925050819055508173ffffffffffffffffffffffffffffffffffffffff16600073ffffffffffffffffffffffffffffffffffffffff167fddf252ad1be2c89b69c2b068fc378daa952ba7f163c4a11628f55a4df523b3ef8360405161179c91906119f9565b60405180910390a36117b0600083836117b9565b5050565b505050565b505050565b600081519050919050565b600082825260208201905092915050565b60005b838110156117f85780820151818401526020810190506117dd565b60008484015250505050565b6000601f19601f8301169050919050565b6000611820826117be565b61182a81856117c9565b935061183a8185602086016117da565b61184381611804565b840191505092915050565b600060208201905081810360008301526118688184611815565b905092915050565b600080fd5b600073ffffffffffffffffffffffffffffffffffffffff82169050919050565b60006118a082611875565b9050919050565b6118b081611895565b81146118bb57600080fd5b50565b6000813590506118cd816118a7565b92915050565b6000819050919050565b6118e6816118d3565b81146118f157600080fd5b50565b600081359050611903816118dd565b92915050565b600080604083850312156119205761191f611870565b5b600061192e858286016118be565b925050602061193f858286016118f4565b9150509250929050565b60008115159050919050565b61195e81611949565b82525050565b60006020820190506119796000830184611955565b92915050565b600061198a82611895565b9050919050565b61199a8161197f565b81146119a557600080fd5b50565b6000813590506119b781611991565b92915050565b6000602082840312156119d3576119d2611870565b5b60006119e1848285016119a8565b91505092915050565b6119f3816118d3565b82525050565b6000602082019050611a0e60008301846119ea565b92915050565b600080600060608486031215611a2d57611a2c611870565b5b6000611a3b868287016118be565b9350506020611a4c868287016118be565b9250506040611a5d868287016118f4565b9150509250925092565b600060ff82169050919050565b611a7d81611a67565b82525050565b6000602082019050611a986000830184611a74565b92915050565b6000819050919050565b6000611ac3611abe611ab984611875565b611a9e565b611875565b9050919050565b6000611ad582611aa8565b9050919050565b6000611ae782611aca565b9050919050565b611af781611adc565b82525050565b6000602082019050611b126000830184611aee565b92915050565b600060208284031215611b2e57611b2d611870565b5b6000611b3c848285016118be565b91505092915050565b600060208284031215611b5b57611b5a611870565b5b6000611b69848285016118f4565b91505092915050565b611b7b81611895565b82525050565b6000602082019050611b966000830184611b72565b92915050565b60008060408385031215611bb357611bb2611870565b5b6000611bc1858286016118be565b9250506020611bd2858286016118be565b9150509250929050565b7f4e487b7100000000000000000000000000000000000000000000000000000000600052602260045260246000fd5b60006002820490506001821680611c2357607f821691505b602082108103611c3657611c35611bdc565b5b50919050565b7f416464726573732063616e2774206265207a65726f0000000000000000000000600082015250565b6000611c726015836117c9565b9150611c7d82611c3c565b602082019050919050565b60006020820190508181036000830152611ca181611c65565b9050919050565b7f4e487b7100000000000000000000000000000000000000000000000000000000600052601160045260246000fd5b6000611ce2826118d3565b9150611ced836118d3565b9250828201905080821115611d0557611d04611ca8565b5b92915050565b7f416d6f756e742063616e6e6f74206265207a65726f0000000000000000000000600082015250565b6000611d416015836117c9565b9150611d4c82611d0b565b602082019050919050565b60006020820190508181036000830152611d7081611d34565b9050919050565b600081519050611d86816118dd565b92915050565b600060208284031215611da257611da1611870565b5b6000611db084828501611d77565b91505092915050565b7f596f75204e656564206120466f726765204e4654000000000000000000000000600082015250565b6000611def6014836117c9565b9150611dfa82611db9565b602082019050919050565b60006020820190508181036000830152611e1e81611de2565b9050919050565b7f596f75204e656564206120436861726163746572204e46540000000000000000600082015250565b6000611e5b6018836117c9565b9150611e6682611e25565b602082019050919050565b60006020820190508181036000830152611e8a81611e4e565b9050919050565b60008160011c9050919050565b6000808291508390505b6001851115611ee857808604811115611ec457611ec3611ca8565b5b6001851615611ed35780820291505b8081029050611ee185611e91565b9450611ea8565b94509492505050565b600082611f015760019050611fbd565b81611f0f5760009050611fbd565b8160018114611f255760028114611f2f57611f5e565b6001915050611fbd565b60ff841115611f4157611f40611ca8565b5b8360020a915084821115611f5857611f57611ca8565b5b50611fbd565b5060208310610133831016604e8410600b8410161715611f935782820a905083811115611f8e57611f8d611ca8565b5b611fbd565b611fa08484846001611e9e565b92509050818404811115611fb757611fb6611ca8565b5b81810290505b9392505050565b6000611fcf826118d3565b9150611fda83611a67565b92506120077fffffffffffffffffffffffffffffffffffffffffffffffffffffffffffffffff8484611ef1565b905092915050565b600061201a826118d3565b9150612025836118d3565b9250817fffffffffffffffffffffffffffffffffffffffffffffffffffffffffffffffff048311821515161561205e5761205d611ca8565b5b828202905092915050565b600060608201905061207e6000830186611b72565b61208b6020830185611b72565b61209860408301846119ea565b949350505050565b6120a981611949565b81146120b457600080fd5b50565b6000815190506120c6816120a0565b92915050565b6000602082840312156120e2576120e1611870565b5b60006120f0848285016120b7565b91505092915050565b7f5472616e73666572206f6620746f6b656e31206661696c656400000000000000600082015250565b600061212f6019836117c9565b915061213a826120f9565b602082019050919050565b6000602082019050818103600083015261215e81612122565b9050919050565b7f5472616e73666572206f6620746f6b656e32206661696c656400000000000000600082015250565b600061219b6019836117c9565b91506121a682612165565b602082019050919050565b600060208201905081810360008301526121ca8161218e565b9050919050565b7f45524332303a2064656372656173656420616c6c6f77616e63652062656c6f7760008201527f207a65726f000000000000000000000000000000000000000000000000000000602082015250565b600061222d6025836117c9565b9150612238826121d1565b604082019050919050565b6000602082019050818103600083015261225c81612220565b9050919050565b7f546f6b656e20616464726573732063616e27742062652061646472657373207a60008201527f65726f0000000000000000000000000000000000000000000000000000000000602082015250565b60006122bf6023836117c9565b91506122ca82612263565b604082019050919050565b600060208201905081810360008301526122ee816122b2565b9050919050565b7f4f776e61626c653a206e6577206f776e657220697320746865207a65726f206160008201527f6464726573730000000000000000000000000000000000000000000000000000602082015250565b60006123516026836117c9565b915061235c826122f5565b604082019050919050565b6000602082019050818103600083015261238081612344565b9050919050565b7f45524332303a20617070726f76652066726f6d20746865207a65726f2061646460008201527f7265737300000000000000000000000000000000000000000000000000000000602082015250565b60006123e36024836117c9565b91506123ee82612387565b604082019050919050565b60006020820190508181036000830152612412816123d6565b9050919050565b7f45524332303a20617070726f766520746f20746865207a65726f20616464726560008201527f7373000000000000000000000000000000000000000000000000000000000000602082015250565b60006124756022836117c9565b915061248082612419565b604082019050919050565b600060208201905081810360008301526124a481612468565b9050919050565b7f4f776e61626c653a2063616c6c6572206973206e6f7420746865206f776e6572600082015250565b60006124e16020836117c9565b91506124ec826124ab565b602082019050919050565b60006020820190508181036000830152612510816124d4565b9050919050565b7f45524332303a20696e73756666696369656e7420616c6c6f77616e6365000000600082015250565b600061254d601d836117c9565b915061255882612517565b602082019050919050565b6000602082019050818103600083015261257c81612540565b9050919050565b7f45524332303a207472616e736665722066726f6d20746865207a65726f20616460008201527f6472657373000000000000000000000000000000000000000000000000000000602082015250565b60006125df6025836117c9565b91506125ea82612583565b604082019050919050565b6000602082019050818103600083015261260e816125d2565b9050919050565b7f45524332303a207472616e7366657220746f20746865207a65726f206164647260008201527f6573730000000000000000000000000000000000000000000000000000000000602082015250565b60006126716023836117c9565b915061267c82612615565b604082019050919050565b600060208201905081810360008301526126a081612664565b9050919050565b7f45524332303a207472616e7366657220616d6f756e742065786365656473206260008201527f616c616e63650000000000000000000000000000000000000000000000000000602082015250565b60006127036026836117c9565b915061270e826126a7565b604082019050919050565b60006020820190508181036000830152612732816126f6565b9050919050565b7f45524332303a206d696e7420746f20746865207a65726f206164647265737300600082015250565b600061276f601f836117c9565b915061277a82612739565b602082019050919050565b6000602082019050818103600083015261279e81612762565b905091905056fea264697066735822122044de1602f609abea479f1f0ac302ac1dc5a967efcccf006ae3c2792b45e5490e64736f6c6343000810003368747470733a2f2f676174657761792e70696e6174612e636c6f75642f697066732f516d507a7147416a644c6e65703179426133395457724a4e626356794c554b366d43545061664e38507665506b63",
  "immutableReferences": {},
  "source": "// SPDX-License-Identifier: MIT\r\npragma solidity ^0.8.7;\r\n\r\nimport \"@openzeppelin/contracts/token/ERC20/ERC20.sol\";\r\nimport \"@openzeppelin/contracts/token/ERC20/extensions/ERC20Burnable.sol\";\r\nimport \"@openzeppelin/contracts/access/Ownable.sol\";\r\nimport \"@openzeppelin/contracts/token/ERC721/IERC721.sol\";\r\n\r\ncontract IRON is ERC20, Ownable {\r\n    string private _name;\r\n    string private _symbol;\r\n    string private _tokenURI = \"https://gateway.pinata.cloud/ipfs/QmPzqGAjdLnep1yBa39TWrJNbcVyLUK6mCTPafN8PvePkc\";\r\n    uint8 private _decimals;\r\n\r\n    address private _requiredToken1;\r\n    uint256 private _requiredAmount1;\r\n\r\n    address private _requiredToken2;\r\n    uint256 private _requiredAmount2;\r\n\r\n    IERC721 public requiredNFT1;\r\n    IERC721 public requiredNFT2;\r\n\r\n    constructor(\r\n        string memory name_,\r\n        string memory symbol_,\r\n        uint8 decimals_,\r\n        address requiredToken1_,\r\n        uint256 requiredAmount1_,\r\n        address requiredToken2_,\r\n        uint256 requiredAmount2_,\r\n        address requiredNFT1_,\r\n        address requiredNFT2_\r\n    ) ERC20(name_, symbol_) {\r\n        _name = name_;\r\n        _symbol = symbol_;\r\n        _decimals = decimals_;\r\n        _requiredToken1 = requiredToken1_;\r\n        _requiredAmount1 = requiredAmount1_;\r\n        _requiredToken2 = requiredToken2_;\r\n        _requiredAmount2 = requiredAmount2_;\r\n        requiredNFT1 = IERC721(requiredNFT1_);\r\n        requiredNFT2 = IERC721(requiredNFT2_);\r\n        _mint(msg.sender, 50000 * 10 ** uint256(decimals_));\r\n    }\r\n\r\n    //Setter Functions\r\n\r\n    function setPaymentCurrency1(address _paymentCurrency) public onlyOwner {\r\n        require(\r\n            address(_paymentCurrency) != address(0),\r\n            \"Token address can't be address zero\"\r\n        );\r\n        _requiredToken1 = _paymentCurrency;\r\n    }\r\n\r\n    function setPaymentCurrency2(address _paymentCurrency) public onlyOwner {\r\n        require(\r\n            address(_paymentCurrency) != address(0),\r\n            \"Token address can't be address zero\"\r\n        );\r\n        _requiredToken2 = _paymentCurrency;\r\n    }\r\n\r\n    function setRequiredNFT1(IERC721 _requiredNFT) public onlyOwner {\r\n        require(address(_requiredNFT) != address(0), \"Address can't be zero\");\r\n        requiredNFT1 = _requiredNFT;\r\n    }\r\n\r\n    function setRequiredNFT2(IERC721 _requiredNFT) public onlyOwner {\r\n        require(address(_requiredNFT) != address(0), \"Address can't be zero\");\r\n        requiredNFT2 = _requiredNFT;\r\n    }\r\n\r\n    function setRequiredAmount1(uint256 requiredAmount) public onlyOwner {\r\n        require(requiredAmount > 0, \"Amount cannot be zero\");\r\n        _requiredAmount1 = requiredAmount;\r\n    }\r\n\r\n    function setRequiredAmount2(uint256 requiredAmount) public onlyOwner {\r\n        require(requiredAmount > 0, \"Amount cannot be zero\");\r\n        _requiredAmount2 = requiredAmount;\r\n    }\r\n\r\n    // buy function\r\n\r\n    function mintIron(uint256 amount) public {\r\n        require(\r\n            IERC721(requiredNFT1).balanceOf(msg.sender) > 0,\r\n            \"You Need a Forge NFT\"\r\n        );\r\n        require(\r\n            IERC721(requiredNFT2).balanceOf(msg.sender) > 0,\r\n            \"You Need a Character NFT\"\r\n        );\r\n        require(\r\n            IERC20(_requiredToken1).transferFrom(\r\n                msg.sender,\r\n                address(this),\r\n                _requiredAmount1 * amount * (10 ** _decimals)\r\n            ),\r\n            \"Transfer of token1 failed\"\r\n        );\r\n        require(\r\n            IERC20(_requiredToken2).transferFrom(\r\n                msg.sender,\r\n                address(this),\r\n                _requiredAmount2 * amount * (10 ** _decimals)\r\n            ),\r\n            \"Transfer of token2 failed\"\r\n        );\r\n\r\n        uint256 mintAmount = amount * (10 ** _decimals);\r\n        _mint(msg.sender, mintAmount);\r\n    }\r\n}\r\n",
  "sourcePath": "C:\\Users\\sumer\\OneDrive\\Desktop\\Workbench\\NFTDeployment\\contracts\\IRON.sol",
  "compiler": {
    "name": "solc",
    "version": "0.8.16+commit.07a7930e.Emscripten.clang"
  },
  "schemaVersion": "3.4.15",
  "updatedAt": "2023-08-14T13:13:57.443Z",
  "networkType": "ethereum",
  "devdoc": {
    "kind": "dev",
    "methods": {
      "allowance(address,address)": {
        "details": "See {IERC20-allowance}."
      },
      "approve(address,uint256)": {
        "details": "See {IERC20-approve}. NOTE: If `amount` is the maximum `uint256`, the allowance is not updated on `transferFrom`. This is semantically equivalent to an infinite approval. Requirements: - `spender` cannot be the zero address."
      },
      "balanceOf(address)": {
        "details": "See {IERC20-balanceOf}."
      },
      "decimals()": {
        "details": "Returns the number of decimals used to get its user representation. For example, if `decimals` equals `2`, a balance of `505` tokens should be displayed to a user as `5.05` (`505 / 10 ** 2`). Tokens usually opt for a value of 18, imitating the relationship between Ether and Wei. This is the default value returned by this function, unless it's overridden. NOTE: This information is only used for _display_ purposes: it in no way affects any of the arithmetic of the contract, including {IERC20-balanceOf} and {IERC20-transfer}."
      },
      "decreaseAllowance(address,uint256)": {
        "details": "Atomically decreases the allowance granted to `spender` by the caller. This is an alternative to {approve} that can be used as a mitigation for problems described in {IERC20-approve}. Emits an {Approval} event indicating the updated allowance. Requirements: - `spender` cannot be the zero address. - `spender` must have allowance for the caller of at least `subtractedValue`."
      },
      "increaseAllowance(address,uint256)": {
        "details": "Atomically increases the allowance granted to `spender` by the caller. This is an alternative to {approve} that can be used as a mitigation for problems described in {IERC20-approve}. Emits an {Approval} event indicating the updated allowance. Requirements: - `spender` cannot be the zero address."
      },
      "name()": {
        "details": "Returns the name of the token."
      },
      "owner()": {
        "details": "Returns the address of the current owner."
      },
      "renounceOwnership()": {
        "details": "Leaves the contract without owner. It will not be possible to call `onlyOwner` functions. Can only be called by the current owner. NOTE: Renouncing ownership will leave the contract without an owner, thereby disabling any functionality that is only available to the owner."
      },
      "symbol()": {
        "details": "Returns the symbol of the token, usually a shorter version of the name."
      },
      "totalSupply()": {
        "details": "See {IERC20-totalSupply}."
      },
      "transfer(address,uint256)": {
        "details": "See {IERC20-transfer}. Requirements: - `to` cannot be the zero address. - the caller must have a balance of at least `amount`."
      },
      "transferFrom(address,address,uint256)": {
        "details": "See {IERC20-transferFrom}. Emits an {Approval} event indicating the updated allowance. This is not required by the EIP. See the note at the beginning of {ERC20}. NOTE: Does not update the allowance if the current allowance is the maximum `uint256`. Requirements: - `from` and `to` cannot be the zero address. - `from` must have a balance of at least `amount`. - the caller must have allowance for ``from``'s tokens of at least `amount`."
      },
      "transferOwnership(address)": {
        "details": "Transfers ownership of the contract to a new account (`newOwner`). Can only be called by the current owner."
      }
    },
    "version": 1
  },
  "userdoc": {
    "kind": "user",
    "methods": {},
    "version": 1
  }
}