{
  "contractName": "LUMBER",
  "abi": [
    {
      "inputs": [
        {
          "internalType": "string",
          "name": "name_",
          "type": "string"
        },
        {
          "internalType": "string",
          "name": "symbol_",
          "type": "string"
        },
        {
          "internalType": "uint8",
          "name": "decimals_",
          "type": "uint8"
        },
        {
          "internalType": "address",
          "name": "requiredToken_",
          "type": "address"
        },
        {
          "internalType": "uint256",
          "name": "requiredAmount_",
          "type": "uint256"
        },
        {
          "internalType": "address",
          "name": "requiredNFT1_",
          "type": "address"
        },
        {
          "internalType": "address",
          "name": "requiredNFT2_",
          "type": "address"
        }
      ],
      "stateMutability": "nonpayable",
      "type": "constructor"
    },
    {
      "anonymous": false,
      "inputs": [
        {
          "indexed": true,
          "internalType": "address",
          "name": "owner",
          "type": "address"
        },
        {
          "indexed": true,
          "internalType": "address",
          "name": "spender",
          "type": "address"
        },
        {
          "indexed": false,
          "internalType": "uint256",
          "name": "value",
          "type": "uint256"
        }
      ],
      "name": "Approval",
      "type": "event"
    },
    {
      "anonymous": false,
      "inputs": [
        {
          "indexed": true,
          "internalType": "address",
          "name": "previousOwner",
          "type": "address"
        },
        {
          "indexed": true,
          "internalType": "address",
          "name": "newOwner",
          "type": "address"
        }
      ],
      "name": "OwnershipTransferred",
      "type": "event"
    },
    {
      "anonymous": false,
      "inputs": [
        {
          "indexed": true,
          "internalType": "address",
          "name": "from",
          "type": "address"
        },
        {
          "indexed": true,
          "internalType": "address",
          "name": "to",
          "type": "address"
        },
        {
          "indexed": false,
          "internalType": "uint256",
          "name": "value",
          "type": "uint256"
        }
      ],
      "name": "Transfer",
      "type": "event"
    },
    {
      "inputs": [
        {
          "internalType": "address",
          "name": "owner",
          "type": "address"
        },
        {
          "internalType": "address",
          "name": "spender",
          "type": "address"
        }
      ],
      "name": "allowance",
      "outputs": [
        {
          "internalType": "uint256",
          "name": "",
          "type": "uint256"
        }
      ],
      "stateMutability": "view",
      "type": "function",
      "constant": true
    },
    {
      "inputs": [
        {
          "internalType": "address",
          "name": "spender",
          "type": "address"
        },
        {
          "internalType": "uint256",
          "name": "amount",
          "type": "uint256"
        }
      ],
      "name": "approve",
      "outputs": [
        {
          "internalType": "bool",
          "name": "",
          "type": "bool"
        }
      ],
      "stateMutability": "nonpayable",
      "type": "function"
    },
    {
      "inputs": [
        {
          "internalType": "address",
          "name": "account",
          "type": "address"
        }
      ],
      "name": "balanceOf",
      "outputs": [
        {
          "internalType": "uint256",
          "name": "",
          "type": "uint256"
        }
      ],
      "stateMutability": "view",
      "type": "function",
      "constant": true
    },
    {
      "inputs": [],
      "name": "decimals",
      "outputs": [
        {
          "internalType": "uint8",
          "name": "",
          "type": "uint8"
        }
      ],
      "stateMutability": "view",
      "type": "function",
      "constant": true
    },
    {
      "inputs": [
        {
          "internalType": "address",
          "name": "spender",
          "type": "address"
        },
        {
          "internalType": "uint256",
          "name": "subtractedValue",
          "type": "uint256"
        }
      ],
      "name": "decreaseAllowance",
      "outputs": [
        {
          "internalType": "bool",
          "name": "",
          "type": "bool"
        }
      ],
      "stateMutability": "nonpayable",
      "type": "function"
    },
    {
      "inputs": [
        {
          "internalType": "address",
          "name": "spender",
          "type": "address"
        },
        {
          "internalType": "uint256",
          "name": "addedValue",
          "type": "uint256"
        }
      ],
      "name": "increaseAllowance",
      "outputs": [
        {
          "internalType": "bool",
          "name": "",
          "type": "bool"
        }
      ],
      "stateMutability": "nonpayable",
      "type": "function"
    },
    {
      "inputs": [],
      "name": "name",
      "outputs": [
        {
          "internalType": "string",
          "name": "",
          "type": "string"
        }
      ],
      "stateMutability": "view",
      "type": "function",
      "constant": true
    },
    {
      "inputs": [],
      "name": "owner",
      "outputs": [
        {
          "internalType": "address",
          "name": "",
          "type": "address"
        }
      ],
      "stateMutability": "view",
      "type": "function",
      "constant": true
    },
    {
      "inputs": [],
      "name": "renounceOwnership",
      "outputs": [],
      "stateMutability": "nonpayable",
      "type": "function"
    },
    {
      "inputs": [],
      "name": "requiredNFT1",
      "outputs": [
        {
          "internalType": "contract IERC721",
          "name": "",
          "type": "address"
        }
      ],
      "stateMutability": "view",
      "type": "function",
      "constant": true
    },
    {
      "inputs": [],
      "name": "requiredNFT2",
      "outputs": [
        {
          "internalType": "contract IERC721",
          "name": "",
          "type": "address"
        }
      ],
      "stateMutability": "view",
      "type": "function",
      "constant": true
    },
    {
      "inputs": [],
      "name": "symbol",
      "outputs": [
        {
          "internalType": "string",
          "name": "",
          "type": "string"
        }
      ],
      "stateMutability": "view",
      "type": "function",
      "constant": true
    },
    {
      "inputs": [],
      "name": "totalSupply",
      "outputs": [
        {
          "internalType": "uint256",
          "name": "",
          "type": "uint256"
        }
      ],
      "stateMutability": "view",
      "type": "function",
      "constant": true
    },
    {
      "inputs": [
        {
          "internalType": "address",
          "name": "to",
          "type": "address"
        },
        {
          "internalType": "uint256",
          "name": "amount",
          "type": "uint256"
        }
      ],
      "name": "transfer",
      "outputs": [
        {
          "internalType": "bool",
          "name": "",
          "type": "bool"
        }
      ],
      "stateMutability": "nonpayable",
      "type": "function"
    },
    {
      "inputs": [
        {
          "internalType": "address",
          "name": "from",
          "type": "address"
        },
        {
          "internalType": "address",
          "name": "to",
          "type": "address"
        },
        {
          "internalType": "uint256",
          "name": "amount",
          "type": "uint256"
        }
      ],
      "name": "transferFrom",
      "outputs": [
        {
          "internalType": "bool",
          "name": "",
          "type": "bool"
        }
      ],
      "stateMutability": "nonpayable",
      "type": "function"
    },
    {
      "inputs": [
        {
          "internalType": "address",
          "name": "newOwner",
          "type": "address"
        }
      ],
      "name": "transferOwnership",
      "outputs": [],
      "stateMutability": "nonpayable",
      "type": "function"
    },
    {
      "inputs": [
        {
          "internalType": "address",
          "name": "_paymentCurrency",
          "type": "address"
        }
      ],
      "name": "setPaymentCurrency",
      "outputs": [],
      "stateMutability": "nonpayable",
      "type": "function"
    },
    {
      "inputs": [
        {
          "internalType": "contract IERC721",
          "name": "_requiredNFT",
          "type": "address"
        }
      ],
      "name": "setRequiredNFT1",
      "outputs": [],
      "stateMutability": "nonpayable",
      "type": "function"
    },
    {
      "inputs": [
        {
          "internalType": "contract IERC721",
          "name": "_requiredNFT",
          "type": "address"
        }
      ],
      "name": "setRequiredNFT2",
      "outputs": [],
      "stateMutability": "nonpayable",
      "type": "function"
    },
    {
      "inputs": [
        {
          "internalType": "uint256",
          "name": "requiredAmount",
          "type": "uint256"
        }
      ],
      "name": "setRequiredAmount",
      "outputs": [],
      "stateMutability": "nonpayable",
      "type": "function"
    },
    {
      "inputs": [
        {
          "internalType": "uint256",
          "name": "amount",
          "type": "uint256"
        }
      ],
      "name": "mintLumber",
      "outputs": [],
      "stateMutability": "nonpayable",
      "type": "function"
    }
  ],
  "bytecode": "0x60806040526040518060800160405280605c8152602001620032ef605c9139600890816200002e9190620006b1565b503480156200003c57600080fd5b506040516200334b3803806200334b8339818101604052810190620000629190620009d0565b86868160039081620000759190620006b1565b508060049081620000879190620006b1565b505050620000aa6200009e620001f260201b60201c565b620001fa60201b60201c565b8660069081620000bb9190620006b1565b508560079081620000cd9190620006b1565b5084600960006101000a81548160ff021916908360ff16021790555083600960016101000a81548173ffffffffffffffffffffffffffffffffffffffff021916908373ffffffffffffffffffffffffffffffffffffffff16021790555082600a8190555081600b60006101000a81548173ffffffffffffffffffffffffffffffffffffffff021916908373ffffffffffffffffffffffffffffffffffffffff16021790555080600c60006101000a81548173ffffffffffffffffffffffffffffffffffffffff021916908373ffffffffffffffffffffffffffffffffffffffff160217905550620001e5338660ff16600a620001ca919062000c44565b61c350620001d9919062000c95565b620002c060201b60201c565b5050505050505062000de2565b600033905090565b6000600560009054906101000a900473ffffffffffffffffffffffffffffffffffffffff16905081600560006101000a81548173ffffffffffffffffffffffffffffffffffffffff021916908373ffffffffffffffffffffffffffffffffffffffff1602179055508173ffffffffffffffffffffffffffffffffffffffff168173ffffffffffffffffffffffffffffffffffffffff167f8be0079c531659141344cd1fd0a4f28419497f9722a3daafe3b4186f6b6457e060405160405180910390a35050565b600073ffffffffffffffffffffffffffffffffffffffff168273ffffffffffffffffffffffffffffffffffffffff160362000332576040517f08c379a0000000000000000000000000000000000000000000000000000000008152600401620003299062000d57565b60405180910390fd5b62000346600083836200042d60201b60201c565b80600260008282546200035a919062000d79565b92505081905550806000808473ffffffffffffffffffffffffffffffffffffffff1673ffffffffffffffffffffffffffffffffffffffff168152602001908152602001600020600082825401925050819055508173ffffffffffffffffffffffffffffffffffffffff16600073ffffffffffffffffffffffffffffffffffffffff167fddf252ad1be2c89b69c2b068fc378daa952ba7f163c4a11628f55a4df523b3ef836040516200040d919062000dc5565b60405180910390a362000429600083836200043260201b60201c565b5050565b505050565b505050565b600081519050919050565b7f4e487b7100000000000000000000000000000000000000000000000000000000600052604160045260246000fd5b7f4e487b7100000000000000000000000000000000000000000000000000000000600052602260045260246000fd5b60006002820490506001821680620004b957607f821691505b602082108103620004cf57620004ce62000471565b5b50919050565b60008190508160005260206000209050919050565b60006020601f8301049050919050565b600082821b905092915050565b600060088302620005397fffffffffffffffffffffffffffffffffffffffffffffffffffffffffffffffff82620004fa565b620005458683620004fa565b95508019841693508086168417925050509392505050565b6000819050919050565b6000819050919050565b6000620005926200058c62000586846200055d565b62000567565b6200055d565b9050919050565b6000819050919050565b620005ae8362000571565b620005c6620005bd8262000599565b84845462000507565b825550505050565b600090565b620005dd620005ce565b620005ea818484620005a3565b505050565b5b81811015620006125762000606600082620005d3565b600181019050620005f0565b5050565b601f82111562000661576200062b81620004d5565b6200063684620004ea565b8101602085101562000646578190505b6200065e6200065585620004ea565b830182620005ef565b50505b505050565b600082821c905092915050565b6000620006866000198460080262000666565b1980831691505092915050565b6000620006a1838362000673565b9150826002028217905092915050565b620006bc8262000437565b67ffffffffffffffff811115620006d857620006d762000442565b5b620006e48254620004a0565b620006f182828562000616565b600060209050601f83116001811462000729576000841562000714578287015190505b62000720858262000693565b86555062000790565b601f1984166200073986620004d5565b60005b8281101562000763578489015182556001820191506020850194506020810190506200073c565b868310156200078357848901516200077f601f89168262000673565b8355505b6001600288020188555050505b505050505050565b6000604051905090565b600080fd5b600080fd5b600080fd5b600080fd5b6000601f19601f8301169050919050565b620007d282620007b6565b810181811067ffffffffffffffff82111715620007f457620007f362000442565b5b80604052505050565b60006200080962000798565b9050620008178282620007c7565b919050565b600067ffffffffffffffff8211156200083a576200083962000442565b5b6200084582620007b6565b9050602081019050919050565b60005b838110156200087257808201518184015260208101905062000855565b60008484015250505050565b6000620008956200088f846200081c565b620007fd565b905082815260208101848484011115620008b457620008b3620007b1565b5b620008c184828562000852565b509392505050565b600082601f830112620008e157620008e0620007ac565b5b8151620008f38482602086016200087e565b91505092915050565b600060ff82169050919050565b6200091481620008fc565b81146200092057600080fd5b50565b600081519050620009348162000909565b92915050565b600073ffffffffffffffffffffffffffffffffffffffff82169050919050565b600062000967826200093a565b9050919050565b62000979816200095a565b81146200098557600080fd5b50565b60008151905062000999816200096e565b92915050565b620009aa816200055d565b8114620009b657600080fd5b50565b600081519050620009ca816200099f565b92915050565b600080600080600080600060e0888a031215620009f257620009f1620007a2565b5b600088015167ffffffffffffffff81111562000a135762000a12620007a7565b5b62000a218a828b01620008c9565b975050602088015167ffffffffffffffff81111562000a455762000a44620007a7565b5b62000a538a828b01620008c9565b965050604062000a668a828b0162000923565b955050606062000a798a828b0162000988565b945050608062000a8c8a828b01620009b9565b93505060a062000a9f8a828b0162000988565b92505060c062000ab28a828b0162000988565b91505092959891949750929550565b7f4e487b7100000000000000000000000000000000000000000000000000000000600052601160045260246000fd5b60008160011c9050919050565b6000808291508390505b600185111562000b4f5780860481111562000b275762000b2662000ac1565b5b600185161562000b375780820291505b808102905062000b478562000af0565b945062000b07565b94509492505050565b60008262000b6a576001905062000c3d565b8162000b7a576000905062000c3d565b816001811462000b93576002811462000b9e5762000bd4565b600191505062000c3d565b60ff84111562000bb35762000bb262000ac1565b5b8360020a91508482111562000bcd5762000bcc62000ac1565b5b5062000c3d565b5060208310610133831016604e8410600b841016171562000c0e5782820a90508381111562000c085762000c0762000ac1565b5b62000c3d565b62000c1d848484600162000afd565b9250905081840481111562000c375762000c3662000ac1565b5b81810290505b9392505050565b600062000c51826200055d565b915062000c5e836200055d565b925062000c8d7fffffffffffffffffffffffffffffffffffffffffffffffffffffffffffffffff848462000b58565b905092915050565b600062000ca2826200055d565b915062000caf836200055d565b9250817fffffffffffffffffffffffffffffffffffffffffffffffffffffffffffffffff048311821515161562000ceb5762000cea62000ac1565b5b828202905092915050565b600082825260208201905092915050565b7f45524332303a206d696e7420746f20746865207a65726f206164647265737300600082015250565b600062000d3f601f8362000cf6565b915062000d4c8262000d07565b602082019050919050565b6000602082019050818103600083015262000d728162000d30565b9050919050565b600062000d86826200055d565b915062000d93836200055d565b925082820190508082111562000dae5762000dad62000ac1565b5b92915050565b62000dbf816200055d565b82525050565b600060208201905062000ddc600083018462000db4565b92915050565b6124fd8062000df26000396000f3fe608060405234801561001057600080fd5b50600436106101375760003560e01c806370a08231116100b8578063a457c2d71161007c578063a457c2d71461032a578063a9059cbb1461035a578063c3cce1b41461038a578063dd62ed3e146103a8578063e80beaa1146103d8578063f2fde38b146103f457610137565b806370a0823114610298578063715018a6146102c85780637fe21b69146102d25780638da5cb5b146102ee57806395d89b411461030c57610137565b8063313ce567116100ff578063313ce567146101f457806339509351146102125780633db43772146102425780634b084c52146102605780635ddb932b1461027c57610137565b806306fdde031461013c578063095ea7b31461015a5780630eb547c91461018a57806318160ddd146101a657806323b872dd146101c4575b600080fd5b610144610410565b60405161015191906115dc565b60405180910390f35b610174600480360381019061016f9190611697565b6104a2565b60405161018191906116f2565b60405180910390f35b6101a4600480360381019061019f919061174b565b6104c5565b005b6101ae610580565b6040516101bb9190611787565b60405180910390f35b6101de60048036038101906101d991906117a2565b61058a565b6040516101eb91906116f2565b60405180910390f35b6101fc6105b9565b6040516102099190611811565b60405180910390f35b61022c60048036038101906102279190611697565b6105c2565b60405161023991906116f2565b60405180910390f35b61024a6105f9565b604051610257919061188b565b60405180910390f35b61027a6004803603810190610275919061174b565b61061f565b005b610296600480360381019061029191906118a6565b6106da565b005b6102b260048036038101906102ad91906118d3565b6109e3565b6040516102bf9190611787565b60405180910390f35b6102d0610a2b565b005b6102ec60048036038101906102e791906118d3565b610a3f565b005b6102f6610afa565b604051610303919061190f565b60405180910390f35b610314610b24565b60405161032191906115dc565b60405180910390f35b610344600480360381019061033f9190611697565b610bb6565b60405161035191906116f2565b60405180910390f35b610374600480360381019061036f9190611697565b610c2d565b60405161038191906116f2565b60405180910390f35b610392610c50565b60405161039f919061188b565b60405180910390f35b6103c260048036038101906103bd919061192a565b610c76565b6040516103cf9190611787565b60405180910390f35b6103f260048036038101906103ed91906118a6565b610cfd565b005b61040e600480360381019061040991906118d3565b610d52565b005b60606003805461041f90611999565b80601f016020809104026020016040519081016040528092919081815260200182805461044b90611999565b80156104985780601f1061046d57610100808354040283529160200191610498565b820191906000526020600020905b81548152906001019060200180831161047b57829003601f168201915b5050505050905090565b6000806104ad610dd5565b90506104ba818585610ddd565b600191505092915050565b6104cd610fa6565b600073ffffffffffffffffffffffffffffffffffffffff168173ffffffffffffffffffffffffffffffffffffffff160361053c576040517f08c379a000000000000000000000000000000000000000000000000000000000815260040161053390611a16565b60405180910390fd5b80600c60006101000a81548173ffffffffffffffffffffffffffffffffffffffff021916908373ffffffffffffffffffffffffffffffffffffffff16021790555050565b6000600254905090565b600080610595610dd5565b90506105a2858285611024565b6105ad8585856110b0565b60019150509392505050565b60006012905090565b6000806105cd610dd5565b90506105ee8185856105df8589610c76565b6105e99190611a65565b610ddd565b600191505092915050565b600c60009054906101000a900473ffffffffffffffffffffffffffffffffffffffff1681565b610627610fa6565b600073ffffffffffffffffffffffffffffffffffffffff168173ffffffffffffffffffffffffffffffffffffffff1603610696576040517f08c379a000000000000000000000000000000000000000000000000000000000815260040161068d90611a16565b60405180910390fd5b80600b60006101000a81548173ffffffffffffffffffffffffffffffffffffffff021916908373ffffffffffffffffffffffffffffffffffffffff16021790555050565b6000600b60009054906101000a900473ffffffffffffffffffffffffffffffffffffffff1673ffffffffffffffffffffffffffffffffffffffff166370a08231336040518263ffffffff1660e01b8152600401610737919061190f565b602060405180830381865afa158015610754573d6000803e3d6000fd5b505050506040513d601f19601f820116820180604052508101906107789190611aae565b116107b8576040517f08c379a00000000000000000000000000000000000000000000000000000000081526004016107af90611b27565b60405180910390fd5b6000600c60009054906101000a900473ffffffffffffffffffffffffffffffffffffffff1673ffffffffffffffffffffffffffffffffffffffff166370a08231336040518263ffffffff1660e01b8152600401610815919061190f565b602060405180830381865afa158015610832573d6000803e3d6000fd5b505050506040513d601f19601f820116820180604052508101906108569190611aae565b11610896576040517f08c379a000000000000000000000000000000000000000000000000000000000815260040161088d90611b93565b60405180910390fd5b600960019054906101000a900473ffffffffffffffffffffffffffffffffffffffff1673ffffffffffffffffffffffffffffffffffffffff166323b872dd3330600960009054906101000a900460ff16600a6108f29190611ce6565b85600a546109009190611d31565b61090a9190611d31565b6040518463ffffffff1660e01b815260040161092893929190611d8b565b6020604051808303816000875af1158015610947573d6000803e3d6000fd5b505050506040513d601f19601f8201168201806040525081019061096b9190611dee565b6109aa576040517f08c379a00000000000000000000000000000000000000000000000000000000081526004016109a190611e67565b60405180910390fd5b6000600960009054906101000a900460ff16600a6109c89190611ce6565b826109d39190611d31565b90506109df3382611326565b5050565b60008060008373ffffffffffffffffffffffffffffffffffffffff1673ffffffffffffffffffffffffffffffffffffffff168152602001908152602001600020549050919050565b610a33610fa6565b610a3d600061147c565b565b610a47610fa6565b600073ffffffffffffffffffffffffffffffffffffffff168173ffffffffffffffffffffffffffffffffffffffff1603610ab6576040517f08c379a0000000000000000000000000000000000000000000000000000000008152600401610aad90611ef9565b60405180910390fd5b80600960016101000a81548173ffffffffffffffffffffffffffffffffffffffff021916908373ffffffffffffffffffffffffffffffffffffffff16021790555050565b6000600560009054906101000a900473ffffffffffffffffffffffffffffffffffffffff16905090565b606060048054610b3390611999565b80601f0160208091040260200160405190810160405280929190818152602001828054610b5f90611999565b8015610bac5780601f10610b8157610100808354040283529160200191610bac565b820191906000526020600020905b815481529060010190602001808311610b8f57829003601f168201915b5050505050905090565b600080610bc1610dd5565b90506000610bcf8286610c76565b905083811015610c14576040517f08c379a0000000000000000000000000000000000000000000000000000000008152600401610c0b90611f8b565b60405180910390fd5b610c218286868403610ddd565b60019250505092915050565b600080610c38610dd5565b9050610c458185856110b0565b600191505092915050565b600b60009054906101000a900473ffffffffffffffffffffffffffffffffffffffff1681565b6000600160008473ffffffffffffffffffffffffffffffffffffffff1673ffffffffffffffffffffffffffffffffffffffff16815260200190815260200160002060008373ffffffffffffffffffffffffffffffffffffffff1673ffffffffffffffffffffffffffffffffffffffff16815260200190815260200160002054905092915050565b610d05610fa6565b60008111610d48576040517f08c379a0000000000000000000000000000000000000000000000000000000008152600401610d3f90611ff7565b60405180910390fd5b80600a8190555050565b610d5a610fa6565b600073ffffffffffffffffffffffffffffffffffffffff168173ffffffffffffffffffffffffffffffffffffffff1603610dc9576040517f08c379a0000000000000000000000000000000000000000000000000000000008152600401610dc090612089565b60405180910390fd5b610dd28161147c565b50565b600033905090565b600073ffffffffffffffffffffffffffffffffffffffff168373ffffffffffffffffffffffffffffffffffffffff1603610e4c576040517f08c379a0000000000000000000000000000000000000000000000000000000008152600401610e439061211b565b60405180910390fd5b600073ffffffffffffffffffffffffffffffffffffffff168273ffffffffffffffffffffffffffffffffffffffff1603610ebb576040517f08c379a0000000000000000000000000000000000000000000000000000000008152600401610eb2906121ad565b60405180910390fd5b80600160008573ffffffffffffffffffffffffffffffffffffffff1673ffffffffffffffffffffffffffffffffffffffff16815260200190815260200160002060008473ffffffffffffffffffffffffffffffffffffffff1673ffffffffffffffffffffffffffffffffffffffff168152602001908152602001600020819055508173ffffffffffffffffffffffffffffffffffffffff168373ffffffffffffffffffffffffffffffffffffffff167f8c5be1e5ebec7d5bd14f71427d1e84f3dd0314c0f7b2291e5b200ac8c7c3b92583604051610f999190611787565b60405180910390a3505050565b610fae610dd5565b73ffffffffffffffffffffffffffffffffffffffff16610fcc610afa565b73ffffffffffffffffffffffffffffffffffffffff1614611022576040517f08c379a000000000000000000000000000000000000000000000000000000000815260040161101990612219565b60405180910390fd5b565b60006110308484610c76565b90507fffffffffffffffffffffffffffffffffffffffffffffffffffffffffffffffff81146110aa578181101561109c576040517f08c379a000000000000000000000000000000000000000000000000000000000815260040161109390612285565b60405180910390fd5b6110a98484848403610ddd565b5b50505050565b600073ffffffffffffffffffffffffffffffffffffffff168373ffffffffffffffffffffffffffffffffffffffff160361111f576040517f08c379a000000000000000000000000000000000000000000000000000000000815260040161111690612317565b60405180910390fd5b600073ffffffffffffffffffffffffffffffffffffffff168273ffffffffffffffffffffffffffffffffffffffff160361118e576040517f08c379a0000000000000000000000000000000000000000000000000000000008152600401611185906123a9565b60405180910390fd5b611199838383611542565b60008060008573ffffffffffffffffffffffffffffffffffffffff1673ffffffffffffffffffffffffffffffffffffffff1681526020019081526020016000205490508181101561121f576040517f08c379a00000000000000000000000000000000000000000000000000000000081526004016112169061243b565b60405180910390fd5b8181036000808673ffffffffffffffffffffffffffffffffffffffff1673ffffffffffffffffffffffffffffffffffffffff16815260200190815260200160002081905550816000808573ffffffffffffffffffffffffffffffffffffffff1673ffffffffffffffffffffffffffffffffffffffff168152602001908152602001600020600082825401925050819055508273ffffffffffffffffffffffffffffffffffffffff168473ffffffffffffffffffffffffffffffffffffffff167fddf252ad1be2c89b69c2b068fc378daa952ba7f163c4a11628f55a4df523b3ef8460405161130d9190611787565b60405180910390a3611320848484611547565b50505050565b600073ffffffffffffffffffffffffffffffffffffffff168273ffffffffffffffffffffffffffffffffffffffff1603611395576040517f08c379a000000000000000000000000000000000000000000000000000000000815260040161138c906124a7565b60405180910390fd5b6113a160008383611542565b80600260008282546113b39190611a65565b92505081905550806000808473ffffffffffffffffffffffffffffffffffffffff1673ffffffffffffffffffffffffffffffffffffffff168152602001908152602001600020600082825401925050819055508173ffffffffffffffffffffffffffffffffffffffff16600073ffffffffffffffffffffffffffffffffffffffff167fddf252ad1be2c89b69c2b068fc378daa952ba7f163c4a11628f55a4df523b3ef836040516114649190611787565b60405180910390a361147860008383611547565b5050565b6000600560009054906101000a900473ffffffffffffffffffffffffffffffffffffffff16905081600560006101000a81548173ffffffffffffffffffffffffffffffffffffffff021916908373ffffffffffffffffffffffffffffffffffffffff1602179055508173ffffffffffffffffffffffffffffffffffffffff168173ffffffffffffffffffffffffffffffffffffffff167f8be0079c531659141344cd1fd0a4f28419497f9722a3daafe3b4186f6b6457e060405160405180910390a35050565b505050565b505050565b600081519050919050565b600082825260208201905092915050565b60005b8381101561158657808201518184015260208101905061156b565b60008484015250505050565b6000601f19601f8301169050919050565b60006115ae8261154c565b6115b88185611557565b93506115c8818560208601611568565b6115d181611592565b840191505092915050565b600060208201905081810360008301526115f681846115a3565b905092915050565b600080fd5b600073ffffffffffffffffffffffffffffffffffffffff82169050919050565b600061162e82611603565b9050919050565b61163e81611623565b811461164957600080fd5b50565b60008135905061165b81611635565b92915050565b6000819050919050565b61167481611661565b811461167f57600080fd5b50565b6000813590506116918161166b565b92915050565b600080604083850312156116ae576116ad6115fe565b5b60006116bc8582860161164c565b92505060206116cd85828601611682565b9150509250929050565b60008115159050919050565b6116ec816116d7565b82525050565b600060208201905061170760008301846116e3565b92915050565b600061171882611623565b9050919050565b6117288161170d565b811461173357600080fd5b50565b6000813590506117458161171f565b92915050565b600060208284031215611761576117606115fe565b5b600061176f84828501611736565b91505092915050565b61178181611661565b82525050565b600060208201905061179c6000830184611778565b92915050565b6000806000606084860312156117bb576117ba6115fe565b5b60006117c98682870161164c565b93505060206117da8682870161164c565b92505060406117eb86828701611682565b9150509250925092565b600060ff82169050919050565b61180b816117f5565b82525050565b60006020820190506118266000830184611802565b92915050565b6000819050919050565b600061185161184c61184784611603565b61182c565b611603565b9050919050565b600061186382611836565b9050919050565b600061187582611858565b9050919050565b6118858161186a565b82525050565b60006020820190506118a0600083018461187c565b92915050565b6000602082840312156118bc576118bb6115fe565b5b60006118ca84828501611682565b91505092915050565b6000602082840312156118e9576118e86115fe565b5b60006118f78482850161164c565b91505092915050565b61190981611623565b82525050565b60006020820190506119246000830184611900565b92915050565b60008060408385031215611941576119406115fe565b5b600061194f8582860161164c565b92505060206119608582860161164c565b9150509250929050565b7f4e487b7100000000000000000000000000000000000000000000000000000000600052602260045260246000fd5b600060028204905060018216806119b157607f821691505b6020821081036119c4576119c361196a565b5b50919050565b7f416464726573732063616e2774206265207a65726f0000000000000000000000600082015250565b6000611a00601583611557565b9150611a0b826119ca565b602082019050919050565b60006020820190508181036000830152611a2f816119f3565b9050919050565b7f4e487b7100000000000000000000000000000000000000000000000000000000600052601160045260246000fd5b6000611a7082611661565b9150611a7b83611661565b9250828201905080821115611a9357611a92611a36565b5b92915050565b600081519050611aa88161166b565b92915050565b600060208284031215611ac457611ac36115fe565b5b6000611ad284828501611a99565b91505092915050565b7f596f75204e656564206120436861726163746572204e46540000000000000000600082015250565b6000611b11601883611557565b9150611b1c82611adb565b602082019050919050565b60006020820190508181036000830152611b4081611b04565b9050919050565b7f596f75204e656564206120536177204e46540000000000000000000000000000600082015250565b6000611b7d601283611557565b9150611b8882611b47565b602082019050919050565b60006020820190508181036000830152611bac81611b70565b9050919050565b60008160011c9050919050565b6000808291508390505b6001851115611c0a57808604811115611be657611be5611a36565b5b6001851615611bf55780820291505b8081029050611c0385611bb3565b9450611bca565b94509492505050565b600082611c235760019050611cdf565b81611c315760009050611cdf565b8160018114611c475760028114611c5157611c80565b6001915050611cdf565b60ff841115611c6357611c62611a36565b5b8360020a915084821115611c7a57611c79611a36565b5b50611cdf565b5060208310610133831016604e8410600b8410161715611cb55782820a905083811115611cb057611caf611a36565b5b611cdf565b611cc28484846001611bc0565b92509050818404811115611cd957611cd8611a36565b5b81810290505b9392505050565b6000611cf182611661565b9150611cfc836117f5565b9250611d297fffffffffffffffffffffffffffffffffffffffffffffffffffffffffffffffff8484611c13565b905092915050565b6000611d3c82611661565b9150611d4783611661565b9250817fffffffffffffffffffffffffffffffffffffffffffffffffffffffffffffffff0483118215151615611d8057611d7f611a36565b5b828202905092915050565b6000606082019050611da06000830186611900565b611dad6020830185611900565b611dba6040830184611778565b949350505050565b611dcb816116d7565b8114611dd657600080fd5b50565b600081519050611de881611dc2565b92915050565b600060208284031215611e0457611e036115fe565b5b6000611e1284828501611dd9565b91505092915050565b7f5472616e73666572206f6620746f6b656e206661696c65640000000000000000600082015250565b6000611e51601883611557565b9150611e5c82611e1b565b602082019050919050565b60006020820190508181036000830152611e8081611e44565b9050919050565b7f546f6b656e20616464726573732063616e27742062652061646472657373207a60008201527f65726f0000000000000000000000000000000000000000000000000000000000602082015250565b6000611ee3602383611557565b9150611eee82611e87565b604082019050919050565b60006020820190508181036000830152611f1281611ed6565b9050919050565b7f45524332303a2064656372656173656420616c6c6f77616e63652062656c6f7760008201527f207a65726f000000000000000000000000000000000000000000000000000000602082015250565b6000611f75602583611557565b9150611f8082611f19565b604082019050919050565b60006020820190508181036000830152611fa481611f68565b9050919050565b7f416d6f756e742063616e6e6f74206265207a65726f0000000000000000000000600082015250565b6000611fe1601583611557565b9150611fec82611fab565b602082019050919050565b6000602082019050818103600083015261201081611fd4565b9050919050565b7f4f776e61626c653a206e6577206f776e657220697320746865207a65726f206160008201527f6464726573730000000000000000000000000000000000000000000000000000602082015250565b6000612073602683611557565b915061207e82612017565b604082019050919050565b600060208201905081810360008301526120a281612066565b9050919050565b7f45524332303a20617070726f76652066726f6d20746865207a65726f2061646460008201527f7265737300000000000000000000000000000000000000000000000000000000602082015250565b6000612105602483611557565b9150612110826120a9565b604082019050919050565b60006020820190508181036000830152612134816120f8565b9050919050565b7f45524332303a20617070726f766520746f20746865207a65726f20616464726560008201527f7373000000000000000000000000000000000000000000000000000000000000602082015250565b6000612197602283611557565b91506121a28261213b565b604082019050919050565b600060208201905081810360008301526121c68161218a565b9050919050565b7f4f776e61626c653a2063616c6c6572206973206e6f7420746865206f776e6572600082015250565b6000612203602083611557565b915061220e826121cd565b602082019050919050565b60006020820190508181036000830152612232816121f6565b9050919050565b7f45524332303a20696e73756666696369656e7420616c6c6f77616e6365000000600082015250565b600061226f601d83611557565b915061227a82612239565b602082019050919050565b6000602082019050818103600083015261229e81612262565b9050919050565b7f45524332303a207472616e736665722066726f6d20746865207a65726f20616460008201527f6472657373000000000000000000000000000000000000000000000000000000602082015250565b6000612301602583611557565b915061230c826122a5565b604082019050919050565b60006020820190508181036000830152612330816122f4565b9050919050565b7f45524332303a207472616e7366657220746f20746865207a65726f206164647260008201527f6573730000000000000000000000000000000000000000000000000000000000602082015250565b6000612393602383611557565b915061239e82612337565b604082019050919050565b600060208201905081810360008301526123c281612386565b9050919050565b7f45524332303a207472616e7366657220616d6f756e742065786365656473206260008201527f616c616e63650000000000000000000000000000000000000000000000000000602082015250565b6000612425602683611557565b9150612430826123c9565b604082019050919050565b6000602082019050818103600083015261245481612418565b9050919050565b7f45524332303a206d696e7420746f20746865207a65726f206164647265737300600082015250565b6000612491601f83611557565b915061249c8261245b565b602082019050919050565b600060208201905081810360008301526124c081612484565b905091905056fea2646970667358221220f2537a28bbee27a3c007e5e0e3d99fe1fc507eb7e4ba3de8fc79d61a06986ee864736f6c6343000810003368747470733a2f2f676174657761792e70696e6174612e636c6f75642f697066732f516d575038396f3747767a7a58715867316b734d3764474141674c644c475a5878436f356856766e6737384769582f6c756d6265722e6a736f6e",
  "immutableReferences": {},
  "source": "// SPDX-License-Identifier: MIT\r\npragma solidity ^0.8.7;\r\n\r\nimport \"@openzeppelin/contracts/token/ERC20/ERC20.sol\";\r\nimport \"@openzeppelin/contracts/token/ERC20/extensions/ERC20Burnable.sol\";\r\nimport \"@openzeppelin/contracts/access/Ownable.sol\";\r\nimport \"@openzeppelin/contracts/token/ERC721/IERC721.sol\";\r\n\r\ncontract LUMBER is ERC20, Ownable {\r\n    string private _name;\r\n    string private _symbol;\r\n    string private _tokenURI = \"https://gateway.pinata.cloud/ipfs/QmWP89o7GvzzXqXg1ksM7dGAAgLdLGZXxCo5hVvng78GiX/lumber.json\";\r\n    uint8 private _decimals;\r\n\r\n    address private _requiredToken;\r\n    uint256 private _requiredAmount;\r\n\r\n    IERC721 public requiredNFT1;\r\n    IERC721 public requiredNFT2;\r\n\r\n    constructor(\r\n        string memory name_,\r\n        string memory symbol_,\r\n        uint8 decimals_,\r\n        address requiredToken_,\r\n        uint256 requiredAmount_,\r\n        address requiredNFT1_,\r\n        address requiredNFT2_\r\n    ) ERC20(name_, symbol_) {\r\n        _name = name_;\r\n        _symbol = symbol_;\r\n        _decimals = decimals_;\r\n        _requiredToken = requiredToken_;\r\n        _requiredAmount = requiredAmount_;\r\n        requiredNFT1 = IERC721(requiredNFT1_);\r\n        requiredNFT2 = IERC721(requiredNFT2_);\r\n        _mint(msg.sender, 50000 * 10 ** uint256(decimals_));\r\n    }\r\n\r\n    //Setter Functions\r\n\r\n    function setPaymentCurrency(address _paymentCurrency) public onlyOwner {\r\n        require(\r\n            address(_paymentCurrency) != address(0),\r\n            \"Token address can't be address zero\"\r\n        );\r\n        _requiredToken = _paymentCurrency;\r\n    }\r\n\r\n    function setRequiredNFT1(IERC721 _requiredNFT) public onlyOwner {\r\n        require(address(_requiredNFT) != address(0), \"Address can't be zero\");\r\n        requiredNFT1 = _requiredNFT;\r\n    }\r\n\r\n    function setRequiredNFT2(IERC721 _requiredNFT) public onlyOwner {\r\n        require(address(_requiredNFT) != address(0), \"Address can't be zero\");\r\n        requiredNFT2 = _requiredNFT;\r\n    }\r\n\r\n    function setRequiredAmount(uint256 requiredAmount) public onlyOwner {\r\n        require(requiredAmount > 0, \"Amount cannot be zero\");\r\n        _requiredAmount = requiredAmount;\r\n    }\r\n\r\n    // buy function\r\n\r\n    function mintLumber(uint256 amount) public {\r\n        require(\r\n            IERC721(requiredNFT1).balanceOf(msg.sender) > 0,\r\n            \"You Need a Character NFT\"\r\n        );\r\n        require(\r\n            IERC721(requiredNFT2).balanceOf(msg.sender) > 0,\r\n            \"You Need a Saw NFT\"\r\n        );\r\n        require(\r\n            IERC20(_requiredToken).transferFrom(\r\n                msg.sender,\r\n                address(this),\r\n                _requiredAmount * amount * (10 ** _decimals)\r\n            ),\r\n            \"Transfer of token failed\"\r\n        );\r\n\r\n        uint256 mintAmount = amount * (10 ** _decimals);\r\n        _mint(msg.sender, mintAmount);\r\n    }\r\n}\r\n",
  "sourcePath": "C:\\Users\\sumer\\OneDrive\\Desktop\\Workbench\\NFTDeployment\\contracts\\LUMBER.sol",
  "compiler": {
    "name": "solc",
    "version": "0.8.16+commit.07a7930e.Emscripten.clang"
  },
  "schemaVersion": "3.4.15",
  "updatedAt": "2023-08-14T13:13:57.475Z",
  "networkType": "ethereum",
  "devdoc": {
    "kind": "dev",
    "methods": {
      "allowance(address,address)": {
        "details": "See {IERC20-allowance}."
      },
      "approve(address,uint256)": {
        "details": "See {IERC20-approve}. NOTE: If `amount` is the maximum `uint256`, the allowance is not updated on `transferFrom`. This is semantically equivalent to an infinite approval. Requirements: - `spender` cannot be the zero address."
      },
      "balanceOf(address)": {
        "details": "See {IERC20-balanceOf}."
      },
      "decimals()": {
        "details": "Returns the number of decimals used to get its user representation. For example, if `decimals` equals `2`, a balance of `505` tokens should be displayed to a user as `5.05` (`505 / 10 ** 2`). Tokens usually opt for a value of 18, imitating the relationship between Ether and Wei. This is the default value returned by this function, unless it's overridden. NOTE: This information is only used for _display_ purposes: it in no way affects any of the arithmetic of the contract, including {IERC20-balanceOf} and {IERC20-transfer}."
      },
      "decreaseAllowance(address,uint256)": {
        "details": "Atomically decreases the allowance granted to `spender` by the caller. This is an alternative to {approve} that can be used as a mitigation for problems described in {IERC20-approve}. Emits an {Approval} event indicating the updated allowance. Requirements: - `spender` cannot be the zero address. - `spender` must have allowance for the caller of at least `subtractedValue`."
      },
      "increaseAllowance(address,uint256)": {
        "details": "Atomically increases the allowance granted to `spender` by the caller. This is an alternative to {approve} that can be used as a mitigation for problems described in {IERC20-approve}. Emits an {Approval} event indicating the updated allowance. Requirements: - `spender` cannot be the zero address."
      },
      "name()": {
        "details": "Returns the name of the token."
      },
      "owner()": {
        "details": "Returns the address of the current owner."
      },
      "renounceOwnership()": {
        "details": "Leaves the contract without owner. It will not be possible to call `onlyOwner` functions. Can only be called by the current owner. NOTE: Renouncing ownership will leave the contract without an owner, thereby disabling any functionality that is only available to the owner."
      },
      "symbol()": {
        "details": "Returns the symbol of the token, usually a shorter version of the name."
      },
      "totalSupply()": {
        "details": "See {IERC20-totalSupply}."
      },
      "transfer(address,uint256)": {
        "details": "See {IERC20-transfer}. Requirements: - `to` cannot be the zero address. - the caller must have a balance of at least `amount`."
      },
      "transferFrom(address,address,uint256)": {
        "details": "See {IERC20-transferFrom}. Emits an {Approval} event indicating the updated allowance. This is not required by the EIP. See the note at the beginning of {ERC20}. NOTE: Does not update the allowance if the current allowance is the maximum `uint256`. Requirements: - `from` and `to` cannot be the zero address. - `from` must have a balance of at least `amount`. - the caller must have allowance for ``from``'s tokens of at least `amount`."
      },
      "transferOwnership(address)": {
        "details": "Transfers ownership of the contract to a new account (`newOwner`). Can only be called by the current owner."
      }
    },
    "version": 1
  },
  "userdoc": {
    "kind": "user",
    "methods": {},
    "version": 1
  }
}