{
  "contractName": "NAIL",
  "abi": [
    {
      "inputs": [
        {
          "internalType": "string",
          "name": "name_",
          "type": "string"
        },
        {
          "internalType": "string",
          "name": "symbol_",
          "type": "string"
        },
        {
          "internalType": "uint8",
          "name": "decimals_",
          "type": "uint8"
        },
        {
          "internalType": "address",
          "name": "requiredToken1_",
          "type": "address"
        },
        {
          "internalType": "uint256",
          "name": "requiredAmount1_",
          "type": "uint256"
        },
        {
          "internalType": "address",
          "name": "requiredToken2_",
          "type": "address"
        },
        {
          "internalType": "uint256",
          "name": "requiredAmount2_",
          "type": "uint256"
        },
        {
          "internalType": "address",
          "name": "requiredNFT1_",
          "type": "address"
        },
        {
          "internalType": "address",
          "name": "requiredNFT2_",
          "type": "address"
        },
        {
          "internalType": "address",
          "name": "requiredNFT3_",
          "type": "address"
        }
      ],
      "stateMutability": "nonpayable",
      "type": "constructor"
    },
    {
      "anonymous": false,
      "inputs": [
        {
          "indexed": true,
          "internalType": "address",
          "name": "owner",
          "type": "address"
        },
        {
          "indexed": true,
          "internalType": "address",
          "name": "spender",
          "type": "address"
        },
        {
          "indexed": false,
          "internalType": "uint256",
          "name": "value",
          "type": "uint256"
        }
      ],
      "name": "Approval",
      "type": "event"
    },
    {
      "anonymous": false,
      "inputs": [
        {
          "indexed": true,
          "internalType": "address",
          "name": "previousOwner",
          "type": "address"
        },
        {
          "indexed": true,
          "internalType": "address",
          "name": "newOwner",
          "type": "address"
        }
      ],
      "name": "OwnershipTransferred",
      "type": "event"
    },
    {
      "anonymous": false,
      "inputs": [
        {
          "indexed": true,
          "internalType": "address",
          "name": "from",
          "type": "address"
        },
        {
          "indexed": true,
          "internalType": "address",
          "name": "to",
          "type": "address"
        },
        {
          "indexed": false,
          "internalType": "uint256",
          "name": "value",
          "type": "uint256"
        }
      ],
      "name": "Transfer",
      "type": "event"
    },
    {
      "inputs": [
        {
          "internalType": "address",
          "name": "owner",
          "type": "address"
        },
        {
          "internalType": "address",
          "name": "spender",
          "type": "address"
        }
      ],
      "name": "allowance",
      "outputs": [
        {
          "internalType": "uint256",
          "name": "",
          "type": "uint256"
        }
      ],
      "stateMutability": "view",
      "type": "function",
      "constant": true
    },
    {
      "inputs": [
        {
          "internalType": "address",
          "name": "spender",
          "type": "address"
        },
        {
          "internalType": "uint256",
          "name": "amount",
          "type": "uint256"
        }
      ],
      "name": "approve",
      "outputs": [
        {
          "internalType": "bool",
          "name": "",
          "type": "bool"
        }
      ],
      "stateMutability": "nonpayable",
      "type": "function"
    },
    {
      "inputs": [
        {
          "internalType": "address",
          "name": "account",
          "type": "address"
        }
      ],
      "name": "balanceOf",
      "outputs": [
        {
          "internalType": "uint256",
          "name": "",
          "type": "uint256"
        }
      ],
      "stateMutability": "view",
      "type": "function",
      "constant": true
    },
    {
      "inputs": [],
      "name": "decimals",
      "outputs": [
        {
          "internalType": "uint8",
          "name": "",
          "type": "uint8"
        }
      ],
      "stateMutability": "view",
      "type": "function",
      "constant": true
    },
    {
      "inputs": [
        {
          "internalType": "address",
          "name": "spender",
          "type": "address"
        },
        {
          "internalType": "uint256",
          "name": "subtractedValue",
          "type": "uint256"
        }
      ],
      "name": "decreaseAllowance",
      "outputs": [
        {
          "internalType": "bool",
          "name": "",
          "type": "bool"
        }
      ],
      "stateMutability": "nonpayable",
      "type": "function"
    },
    {
      "inputs": [
        {
          "internalType": "address",
          "name": "spender",
          "type": "address"
        },
        {
          "internalType": "uint256",
          "name": "addedValue",
          "type": "uint256"
        }
      ],
      "name": "increaseAllowance",
      "outputs": [
        {
          "internalType": "bool",
          "name": "",
          "type": "bool"
        }
      ],
      "stateMutability": "nonpayable",
      "type": "function"
    },
    {
      "inputs": [],
      "name": "name",
      "outputs": [
        {
          "internalType": "string",
          "name": "",
          "type": "string"
        }
      ],
      "stateMutability": "view",
      "type": "function",
      "constant": true
    },
    {
      "inputs": [],
      "name": "owner",
      "outputs": [
        {
          "internalType": "address",
          "name": "",
          "type": "address"
        }
      ],
      "stateMutability": "view",
      "type": "function",
      "constant": true
    },
    {
      "inputs": [],
      "name": "renounceOwnership",
      "outputs": [],
      "stateMutability": "nonpayable",
      "type": "function"
    },
    {
      "inputs": [],
      "name": "requiredNFT1",
      "outputs": [
        {
          "internalType": "contract IERC721",
          "name": "",
          "type": "address"
        }
      ],
      "stateMutability": "view",
      "type": "function",
      "constant": true
    },
    {
      "inputs": [],
      "name": "requiredNFT2",
      "outputs": [
        {
          "internalType": "contract IERC721",
          "name": "",
          "type": "address"
        }
      ],
      "stateMutability": "view",
      "type": "function",
      "constant": true
    },
    {
      "inputs": [],
      "name": "requiredNFT3",
      "outputs": [
        {
          "internalType": "contract IERC721",
          "name": "",
          "type": "address"
        }
      ],
      "stateMutability": "view",
      "type": "function",
      "constant": true
    },
    {
      "inputs": [],
      "name": "symbol",
      "outputs": [
        {
          "internalType": "string",
          "name": "",
          "type": "string"
        }
      ],
      "stateMutability": "view",
      "type": "function",
      "constant": true
    },
    {
      "inputs": [],
      "name": "totalSupply",
      "outputs": [
        {
          "internalType": "uint256",
          "name": "",
          "type": "uint256"
        }
      ],
      "stateMutability": "view",
      "type": "function",
      "constant": true
    },
    {
      "inputs": [
        {
          "internalType": "address",
          "name": "to",
          "type": "address"
        },
        {
          "internalType": "uint256",
          "name": "amount",
          "type": "uint256"
        }
      ],
      "name": "transfer",
      "outputs": [
        {
          "internalType": "bool",
          "name": "",
          "type": "bool"
        }
      ],
      "stateMutability": "nonpayable",
      "type": "function"
    },
    {
      "inputs": [
        {
          "internalType": "address",
          "name": "from",
          "type": "address"
        },
        {
          "internalType": "address",
          "name": "to",
          "type": "address"
        },
        {
          "internalType": "uint256",
          "name": "amount",
          "type": "uint256"
        }
      ],
      "name": "transferFrom",
      "outputs": [
        {
          "internalType": "bool",
          "name": "",
          "type": "bool"
        }
      ],
      "stateMutability": "nonpayable",
      "type": "function"
    },
    {
      "inputs": [
        {
          "internalType": "address",
          "name": "newOwner",
          "type": "address"
        }
      ],
      "name": "transferOwnership",
      "outputs": [],
      "stateMutability": "nonpayable",
      "type": "function"
    },
    {
      "inputs": [
        {
          "internalType": "address",
          "name": "_paymentCurrency",
          "type": "address"
        }
      ],
      "name": "setPaymentCurrency1",
      "outputs": [],
      "stateMutability": "nonpayable",
      "type": "function"
    },
    {
      "inputs": [
        {
          "internalType": "address",
          "name": "_paymentCurrency",
          "type": "address"
        }
      ],
      "name": "setPaymentCurrency2",
      "outputs": [],
      "stateMutability": "nonpayable",
      "type": "function"
    },
    {
      "inputs": [
        {
          "internalType": "contract IERC721",
          "name": "_requiredNFT",
          "type": "address"
        }
      ],
      "name": "setRequiredNFT1",
      "outputs": [],
      "stateMutability": "nonpayable",
      "type": "function"
    },
    {
      "inputs": [
        {
          "internalType": "contract IERC721",
          "name": "_requiredNFT",
          "type": "address"
        }
      ],
      "name": "setRequiredNFT2",
      "outputs": [],
      "stateMutability": "nonpayable",
      "type": "function"
    },
    {
      "inputs": [
        {
          "internalType": "contract IERC721",
          "name": "_requiredNFT",
          "type": "address"
        }
      ],
      "name": "setRequiredNFT3",
      "outputs": [],
      "stateMutability": "nonpayable",
      "type": "function"
    },
    {
      "inputs": [
        {
          "internalType": "uint256",
          "name": "requiredAmount",
          "type": "uint256"
        }
      ],
      "name": "setRequiredAmount1",
      "outputs": [],
      "stateMutability": "nonpayable",
      "type": "function"
    },
    {
      "inputs": [
        {
          "internalType": "uint256",
          "name": "requiredAmount",
          "type": "uint256"
        }
      ],
      "name": "setRequiredAmount2",
      "outputs": [],
      "stateMutability": "nonpayable",
      "type": "function"
    },
    {
      "inputs": [
        {
          "internalType": "uint256",
          "name": "amount",
          "type": "uint256"
        }
      ],
      "name": "mintNail",
      "outputs": [],
      "stateMutability": "nonpayable",
      "type": "function"
    }
  ],
  "bytecode": "0x60806040526040518060800160405280605b815260200162003927605b9139600890816200002e91906200073d565b503480156200003c57600080fd5b506040516200398238038062003982833981810160405281019062000062919062000a5c565b898981600390816200007591906200073d565b5080600490816200008791906200073d565b505050620000aa6200009e6200027e60201b60201c565b6200028660201b60201c565b8960069081620000bb91906200073d565b508860079081620000cd91906200073d565b5087600960006101000a81548160ff021916908360ff16021790555086600960016101000a81548173ffffffffffffffffffffffffffffffffffffffff021916908373ffffffffffffffffffffffffffffffffffffffff16021790555085600a8190555084600b60006101000a81548173ffffffffffffffffffffffffffffffffffffffff021916908373ffffffffffffffffffffffffffffffffffffffff16021790555083600c8190555082600d60006101000a81548173ffffffffffffffffffffffffffffffffffffffff021916908373ffffffffffffffffffffffffffffffffffffffff16021790555081600e60006101000a81548173ffffffffffffffffffffffffffffffffffffffff021916908373ffffffffffffffffffffffffffffffffffffffff16021790555080600f60006101000a81548173ffffffffffffffffffffffffffffffffffffffff021916908373ffffffffffffffffffffffffffffffffffffffff1602179055506200026e338960ff16600a62000253919062000d13565b61c35062000262919062000d64565b6200034c60201b60201c565b5050505050505050505062000eb1565b600033905090565b6000600560009054906101000a900473ffffffffffffffffffffffffffffffffffffffff16905081600560006101000a81548173ffffffffffffffffffffffffffffffffffffffff021916908373ffffffffffffffffffffffffffffffffffffffff1602179055508173ffffffffffffffffffffffffffffffffffffffff168173ffffffffffffffffffffffffffffffffffffffff167f8be0079c531659141344cd1fd0a4f28419497f9722a3daafe3b4186f6b6457e060405160405180910390a35050565b600073ffffffffffffffffffffffffffffffffffffffff168273ffffffffffffffffffffffffffffffffffffffff1603620003be576040517f08c379a0000000000000000000000000000000000000000000000000000000008152600401620003b59062000e26565b60405180910390fd5b620003d260008383620004b960201b60201c565b8060026000828254620003e6919062000e48565b92505081905550806000808473ffffffffffffffffffffffffffffffffffffffff1673ffffffffffffffffffffffffffffffffffffffff168152602001908152602001600020600082825401925050819055508173ffffffffffffffffffffffffffffffffffffffff16600073ffffffffffffffffffffffffffffffffffffffff167fddf252ad1be2c89b69c2b068fc378daa952ba7f163c4a11628f55a4df523b3ef8360405162000499919062000e94565b60405180910390a3620004b560008383620004be60201b60201c565b5050565b505050565b505050565b600081519050919050565b7f4e487b7100000000000000000000000000000000000000000000000000000000600052604160045260246000fd5b7f4e487b7100000000000000000000000000000000000000000000000000000000600052602260045260246000fd5b600060028204905060018216806200054557607f821691505b6020821081036200055b576200055a620004fd565b5b50919050565b60008190508160005260206000209050919050565b60006020601f8301049050919050565b600082821b905092915050565b600060088302620005c57fffffffffffffffffffffffffffffffffffffffffffffffffffffffffffffffff8262000586565b620005d1868362000586565b95508019841693508086168417925050509392505050565b6000819050919050565b6000819050919050565b60006200061e620006186200061284620005e9565b620005f3565b620005e9565b9050919050565b6000819050919050565b6200063a83620005fd565b62000652620006498262000625565b84845462000593565b825550505050565b600090565b620006696200065a565b620006768184846200062f565b505050565b5b818110156200069e57620006926000826200065f565b6001810190506200067c565b5050565b601f821115620006ed57620006b78162000561565b620006c28462000576565b81016020851015620006d2578190505b620006ea620006e18562000576565b8301826200067b565b50505b505050565b600082821c905092915050565b60006200071260001984600802620006f2565b1980831691505092915050565b60006200072d8383620006ff565b9150826002028217905092915050565b6200074882620004c3565b67ffffffffffffffff811115620007645762000763620004ce565b5b6200077082546200052c565b6200077d828285620006a2565b600060209050601f831160018114620007b55760008415620007a0578287015190505b620007ac85826200071f565b8655506200081c565b601f198416620007c58662000561565b60005b82811015620007ef57848901518255600182019150602085019450602081019050620007c8565b868310156200080f57848901516200080b601f891682620006ff565b8355505b6001600288020188555050505b505050505050565b6000604051905090565b600080fd5b600080fd5b600080fd5b600080fd5b6000601f19601f8301169050919050565b6200085e8262000842565b810181811067ffffffffffffffff8211171562000880576200087f620004ce565b5b80604052505050565b60006200089562000824565b9050620008a3828262000853565b919050565b600067ffffffffffffffff821115620008c657620008c5620004ce565b5b620008d18262000842565b9050602081019050919050565b60005b83811015620008fe578082015181840152602081019050620008e1565b60008484015250505050565b6000620009216200091b84620008a8565b62000889565b90508281526020810184848401111562000940576200093f6200083d565b5b6200094d848285620008de565b509392505050565b600082601f8301126200096d576200096c62000838565b5b81516200097f8482602086016200090a565b91505092915050565b600060ff82169050919050565b620009a08162000988565b8114620009ac57600080fd5b50565b600081519050620009c08162000995565b92915050565b600073ffffffffffffffffffffffffffffffffffffffff82169050919050565b6000620009f382620009c6565b9050919050565b62000a0581620009e6565b811462000a1157600080fd5b50565b60008151905062000a2581620009fa565b92915050565b62000a3681620005e9565b811462000a4257600080fd5b50565b60008151905062000a568162000a2b565b92915050565b6000806000806000806000806000806101408b8d03121562000a835762000a826200082e565b5b60008b015167ffffffffffffffff81111562000aa45762000aa362000833565b5b62000ab28d828e0162000955565b9a505060208b015167ffffffffffffffff81111562000ad65762000ad562000833565b5b62000ae48d828e0162000955565b995050604062000af78d828e01620009af565b985050606062000b0a8d828e0162000a14565b975050608062000b1d8d828e0162000a45565b96505060a062000b308d828e0162000a14565b95505060c062000b438d828e0162000a45565b94505060e062000b568d828e0162000a14565b93505061010062000b6a8d828e0162000a14565b92505061012062000b7e8d828e0162000a14565b9150509295989b9194979a5092959850565b7f4e487b7100000000000000000000000000000000000000000000000000000000600052601160045260246000fd5b60008160011c9050919050565b6000808291508390505b600185111562000c1e5780860481111562000bf65762000bf562000b90565b5b600185161562000c065780820291505b808102905062000c168562000bbf565b945062000bd6565b94509492505050565b60008262000c39576001905062000d0c565b8162000c49576000905062000d0c565b816001811462000c62576002811462000c6d5762000ca3565b600191505062000d0c565b60ff84111562000c825762000c8162000b90565b5b8360020a91508482111562000c9c5762000c9b62000b90565b5b5062000d0c565b5060208310610133831016604e8410600b841016171562000cdd5782820a90508381111562000cd75762000cd662000b90565b5b62000d0c565b62000cec848484600162000bcc565b9250905081840481111562000d065762000d0562000b90565b5b81810290505b9392505050565b600062000d2082620005e9565b915062000d2d83620005e9565b925062000d5c7fffffffffffffffffffffffffffffffffffffffffffffffffffffffffffffffff848462000c27565b905092915050565b600062000d7182620005e9565b915062000d7e83620005e9565b9250817fffffffffffffffffffffffffffffffffffffffffffffffffffffffffffffffff048311821515161562000dba5762000db962000b90565b5b828202905092915050565b600082825260208201905092915050565b7f45524332303a206d696e7420746f20746865207a65726f206164647265737300600082015250565b600062000e0e601f8362000dc5565b915062000e1b8262000dd6565b602082019050919050565b6000602082019050818103600083015262000e418162000dff565b9050919050565b600062000e5582620005e9565b915062000e6283620005e9565b925082820190508082111562000e7d5762000e7c62000b90565b5b92915050565b62000e8e81620005e9565b82525050565b600060208201905062000eab600083018462000e83565b92915050565b612a668062000ec16000396000f3fe608060405234801561001057600080fd5b50600436106101735760003560e01c806376e8074e116100de578063ac4d6a7211610097578063cc528abb11610071578063cc528abb1461043a578063d861584114610456578063dd62ed3e14610472578063f2fde38b146104a257610173565b8063ac4d6a72146103e4578063b2a7733114610400578063c3cce1b41461041c57610173565b806376e8074e1461030e5780637ed3f6291461032c5780638da5cb5b1461034857806395d89b4114610366578063a457c2d714610384578063a9059cbb146103b457610173565b8063313ce56711610130578063313ce5671461024c578063395093511461026a5780633db437721461029a5780634b084c52146102b857806370a08231146102d4578063715018a61461030457610173565b806306fdde0314610178578063095ea7b3146101965780630eb547c9146101c6578063148a0f3f146101e257806318160ddd146101fe57806323b872dd1461021c575b600080fd5b6101806104be565b60405161018d9190611a6d565b60405180910390f35b6101b060048036038101906101ab9190611b28565b610550565b6040516101bd9190611b83565b60405180910390f35b6101e060048036038101906101db9190611bdc565b610573565b005b6101fc60048036038101906101f79190611c09565b61062e565b005b610206610b29565b6040516102139190611c45565b60405180910390f35b61023660048036038101906102319190611c60565b610b33565b6040516102439190611b83565b60405180910390f35b610254610b62565b6040516102619190611ccf565b60405180910390f35b610284600480360381019061027f9190611b28565b610b6b565b6040516102919190611b83565b60405180910390f35b6102a2610ba2565b6040516102af9190611d49565b60405180910390f35b6102d260048036038101906102cd9190611bdc565b610bc8565b005b6102ee60048036038101906102e99190611d64565b610c83565b6040516102fb9190611c45565b60405180910390f35b61030c610ccb565b005b610316610cdf565b6040516103239190611d49565b60405180910390f35b61034660048036038101906103419190611c09565b610d05565b005b610350610d5a565b60405161035d9190611da0565b60405180910390f35b61036e610d84565b60405161037b9190611a6d565b60405180910390f35b61039e60048036038101906103999190611b28565b610e16565b6040516103ab9190611b83565b60405180910390f35b6103ce60048036038101906103c99190611b28565b610e8d565b6040516103db9190611b83565b60405180910390f35b6103fe60048036038101906103f99190611bdc565b610eb0565b005b61041a60048036038101906104159190611d64565b610f6b565b005b610424611026565b6040516104319190611d49565b60405180910390f35b610454600480360381019061044f9190611c09565b61104c565b005b610470600480360381019061046b9190611d64565b6110a1565b005b61048c60048036038101906104879190611dbb565b61115c565b6040516104999190611c45565b60405180910390f35b6104bc60048036038101906104b79190611d64565b6111e3565b005b6060600380546104cd90611e2a565b80601f01602080910402602001604051908101604052809291908181526020018280546104f990611e2a565b80156105465780601f1061051b57610100808354040283529160200191610546565b820191906000526020600020905b81548152906001019060200180831161052957829003601f168201915b5050505050905090565b60008061055b611266565b905061056881858561126e565b600191505092915050565b61057b611437565b600073ffffffffffffffffffffffffffffffffffffffff168173ffffffffffffffffffffffffffffffffffffffff16036105ea576040517f08c379a00000000000000000000000000000000000000000000000000000000081526004016105e190611ea7565b60405180910390fd5b80600e60006101000a81548173ffffffffffffffffffffffffffffffffffffffff021916908373ffffffffffffffffffffffffffffffffffffffff16021790555050565b6000600d60009054906101000a900473ffffffffffffffffffffffffffffffffffffffff1673ffffffffffffffffffffffffffffffffffffffff166370a08231336040518263ffffffff1660e01b815260040161068b9190611da0565b602060405180830381865afa1580156106a8573d6000803e3d6000fd5b505050506040513d601f19601f820116820180604052508101906106cc9190611edc565b1161070c576040517f08c379a000000000000000000000000000000000000000000000000000000000815260040161070390611f55565b60405180910390fd5b6000600e60009054906101000a900473ffffffffffffffffffffffffffffffffffffffff1673ffffffffffffffffffffffffffffffffffffffff166370a08231336040518263ffffffff1660e01b81526004016107699190611da0565b602060405180830381865afa158015610786573d6000803e3d6000fd5b505050506040513d601f19601f820116820180604052508101906107aa9190611edc565b116107ea576040517f08c379a00000000000000000000000000000000000000000000000000000000081526004016107e190611fc1565b60405180910390fd5b6000600f60009054906101000a900473ffffffffffffffffffffffffffffffffffffffff1673ffffffffffffffffffffffffffffffffffffffff166370a08231336040518263ffffffff1660e01b81526004016108479190611da0565b602060405180830381865afa158015610864573d6000803e3d6000fd5b505050506040513d601f19601f820116820180604052508101906108889190611edc565b116108c8576040517f08c379a00000000000000000000000000000000000000000000000000000000081526004016108bf9061202d565b60405180910390fd5b600960019054906101000a900473ffffffffffffffffffffffffffffffffffffffff1673ffffffffffffffffffffffffffffffffffffffff166323b872dd3330600960009054906101000a900460ff16600a61092491906121af565b85600a5461093291906121fa565b61093c91906121fa565b6040518463ffffffff1660e01b815260040161095a93929190612254565b6020604051808303816000875af1158015610979573d6000803e3d6000fd5b505050506040513d601f19601f8201168201806040525081019061099d91906122b7565b6109dc576040517f08c379a00000000000000000000000000000000000000000000000000000000081526004016109d390612330565b60405180910390fd5b600b60009054906101000a900473ffffffffffffffffffffffffffffffffffffffff1673ffffffffffffffffffffffffffffffffffffffff166323b872dd3330600960009054906101000a900460ff16600a610a3891906121af565b85600c54610a4691906121fa565b610a5091906121fa565b6040518463ffffffff1660e01b8152600401610a6e93929190612254565b6020604051808303816000875af1158015610a8d573d6000803e3d6000fd5b505050506040513d601f19601f82011682018060405250810190610ab191906122b7565b610af0576040517f08c379a0000000000000000000000000000000000000000000000000000000008152600401610ae79061239c565b60405180910390fd5b6000600960009054906101000a900460ff16600a610b0e91906121af565b82610b1991906121fa565b9050610b2533826114b5565b5050565b6000600254905090565b600080610b3e611266565b9050610b4b85828561160b565b610b56858585611697565b60019150509392505050565b60006012905090565b600080610b76611266565b9050610b97818585610b88858961115c565b610b9291906123bc565b61126e565b600191505092915050565b600e60009054906101000a900473ffffffffffffffffffffffffffffffffffffffff1681565b610bd0611437565b600073ffffffffffffffffffffffffffffffffffffffff168173ffffffffffffffffffffffffffffffffffffffff1603610c3f576040517f08c379a0000000000000000000000000000000000000000000000000000000008152600401610c3690611ea7565b60405180910390fd5b80600d60006101000a81548173ffffffffffffffffffffffffffffffffffffffff021916908373ffffffffffffffffffffffffffffffffffffffff16021790555050565b60008060008373ffffffffffffffffffffffffffffffffffffffff1673ffffffffffffffffffffffffffffffffffffffff168152602001908152602001600020549050919050565b610cd3611437565b610cdd600061190d565b565b600f60009054906101000a900473ffffffffffffffffffffffffffffffffffffffff1681565b610d0d611437565b60008111610d50576040517f08c379a0000000000000000000000000000000000000000000000000000000008152600401610d479061243c565b60405180910390fd5b80600a8190555050565b6000600560009054906101000a900473ffffffffffffffffffffffffffffffffffffffff16905090565b606060048054610d9390611e2a565b80601f0160208091040260200160405190810160405280929190818152602001828054610dbf90611e2a565b8015610e0c5780601f10610de157610100808354040283529160200191610e0c565b820191906000526020600020905b815481529060010190602001808311610def57829003601f168201915b5050505050905090565b600080610e21611266565b90506000610e2f828661115c565b905083811015610e74576040517f08c379a0000000000000000000000000000000000000000000000000000000008152600401610e6b906124ce565b60405180910390fd5b610e81828686840361126e565b60019250505092915050565b600080610e98611266565b9050610ea5818585611697565b600191505092915050565b610eb8611437565b600073ffffffffffffffffffffffffffffffffffffffff168173ffffffffffffffffffffffffffffffffffffffff1603610f27576040517f08c379a0000000000000000000000000000000000000000000000000000000008152600401610f1e90611ea7565b60405180910390fd5b80600f60006101000a81548173ffffffffffffffffffffffffffffffffffffffff021916908373ffffffffffffffffffffffffffffffffffffffff16021790555050565b610f73611437565b600073ffffffffffffffffffffffffffffffffffffffff168173ffffffffffffffffffffffffffffffffffffffff1603610fe2576040517f08c379a0000000000000000000000000000000000000000000000000000000008152600401610fd990612560565b60405180910390fd5b80600b60006101000a81548173ffffffffffffffffffffffffffffffffffffffff021916908373ffffffffffffffffffffffffffffffffffffffff16021790555050565b600d60009054906101000a900473ffffffffffffffffffffffffffffffffffffffff1681565b611054611437565b60008111611097576040517f08c379a000000000000000000000000000000000000000000000000000000000815260040161108e9061243c565b60405180910390fd5b80600c8190555050565b6110a9611437565b600073ffffffffffffffffffffffffffffffffffffffff168173ffffffffffffffffffffffffffffffffffffffff1603611118576040517f08c379a000000000000000000000000000000000000000000000000000000000815260040161110f90612560565b60405180910390fd5b80600960016101000a81548173ffffffffffffffffffffffffffffffffffffffff021916908373ffffffffffffffffffffffffffffffffffffffff16021790555050565b6000600160008473ffffffffffffffffffffffffffffffffffffffff1673ffffffffffffffffffffffffffffffffffffffff16815260200190815260200160002060008373ffffffffffffffffffffffffffffffffffffffff1673ffffffffffffffffffffffffffffffffffffffff16815260200190815260200160002054905092915050565b6111eb611437565b600073ffffffffffffffffffffffffffffffffffffffff168173ffffffffffffffffffffffffffffffffffffffff160361125a576040517f08c379a0000000000000000000000000000000000000000000000000000000008152600401611251906125f2565b60405180910390fd5b6112638161190d565b50565b600033905090565b600073ffffffffffffffffffffffffffffffffffffffff168373ffffffffffffffffffffffffffffffffffffffff16036112dd576040517f08c379a00000000000000000000000000000000000000000000000000000000081526004016112d490612684565b60405180910390fd5b600073ffffffffffffffffffffffffffffffffffffffff168273ffffffffffffffffffffffffffffffffffffffff160361134c576040517f08c379a000000000000000000000000000000000000000000000000000000000815260040161134390612716565b60405180910390fd5b80600160008573ffffffffffffffffffffffffffffffffffffffff1673ffffffffffffffffffffffffffffffffffffffff16815260200190815260200160002060008473ffffffffffffffffffffffffffffffffffffffff1673ffffffffffffffffffffffffffffffffffffffff168152602001908152602001600020819055508173ffffffffffffffffffffffffffffffffffffffff168373ffffffffffffffffffffffffffffffffffffffff167f8c5be1e5ebec7d5bd14f71427d1e84f3dd0314c0f7b2291e5b200ac8c7c3b9258360405161142a9190611c45565b60405180910390a3505050565b61143f611266565b73ffffffffffffffffffffffffffffffffffffffff1661145d610d5a565b73ffffffffffffffffffffffffffffffffffffffff16146114b3576040517f08c379a00000000000000000000000000000000000000000000000000000000081526004016114aa90612782565b60405180910390fd5b565b600073ffffffffffffffffffffffffffffffffffffffff168273ffffffffffffffffffffffffffffffffffffffff1603611524576040517f08c379a000000000000000000000000000000000000000000000000000000000815260040161151b906127ee565b60405180910390fd5b611530600083836119d3565b806002600082825461154291906123bc565b92505081905550806000808473ffffffffffffffffffffffffffffffffffffffff1673ffffffffffffffffffffffffffffffffffffffff168152602001908152602001600020600082825401925050819055508173ffffffffffffffffffffffffffffffffffffffff16600073ffffffffffffffffffffffffffffffffffffffff167fddf252ad1be2c89b69c2b068fc378daa952ba7f163c4a11628f55a4df523b3ef836040516115f39190611c45565b60405180910390a3611607600083836119d8565b5050565b6000611617848461115c565b90507fffffffffffffffffffffffffffffffffffffffffffffffffffffffffffffffff81146116915781811015611683576040517f08c379a000000000000000000000000000000000000000000000000000000000815260040161167a9061285a565b60405180910390fd5b611690848484840361126e565b5b50505050565b600073ffffffffffffffffffffffffffffffffffffffff168373ffffffffffffffffffffffffffffffffffffffff1603611706576040517f08c379a00000000000000000000000000000000000000000000000000000000081526004016116fd906128ec565b60405180910390fd5b600073ffffffffffffffffffffffffffffffffffffffff168273ffffffffffffffffffffffffffffffffffffffff1603611775576040517f08c379a000000000000000000000000000000000000000000000000000000000815260040161176c9061297e565b60405180910390fd5b6117808383836119d3565b60008060008573ffffffffffffffffffffffffffffffffffffffff1673ffffffffffffffffffffffffffffffffffffffff16815260200190815260200160002054905081811015611806576040517f08c379a00000000000000000000000000000000000000000000000000000000081526004016117fd90612a10565b60405180910390fd5b8181036000808673ffffffffffffffffffffffffffffffffffffffff1673ffffffffffffffffffffffffffffffffffffffff16815260200190815260200160002081905550816000808573ffffffffffffffffffffffffffffffffffffffff1673ffffffffffffffffffffffffffffffffffffffff168152602001908152602001600020600082825401925050819055508273ffffffffffffffffffffffffffffffffffffffff168473ffffffffffffffffffffffffffffffffffffffff167fddf252ad1be2c89b69c2b068fc378daa952ba7f163c4a11628f55a4df523b3ef846040516118f49190611c45565b60405180910390a36119078484846119d8565b50505050565b6000600560009054906101000a900473ffffffffffffffffffffffffffffffffffffffff16905081600560006101000a81548173ffffffffffffffffffffffffffffffffffffffff021916908373ffffffffffffffffffffffffffffffffffffffff1602179055508173ffffffffffffffffffffffffffffffffffffffff168173ffffffffffffffffffffffffffffffffffffffff167f8be0079c531659141344cd1fd0a4f28419497f9722a3daafe3b4186f6b6457e060405160405180910390a35050565b505050565b505050565b600081519050919050565b600082825260208201905092915050565b60005b83811015611a175780820151818401526020810190506119fc565b60008484015250505050565b6000601f19601f8301169050919050565b6000611a3f826119dd565b611a4981856119e8565b9350611a598185602086016119f9565b611a6281611a23565b840191505092915050565b60006020820190508181036000830152611a878184611a34565b905092915050565b600080fd5b600073ffffffffffffffffffffffffffffffffffffffff82169050919050565b6000611abf82611a94565b9050919050565b611acf81611ab4565b8114611ada57600080fd5b50565b600081359050611aec81611ac6565b92915050565b6000819050919050565b611b0581611af2565b8114611b1057600080fd5b50565b600081359050611b2281611afc565b92915050565b60008060408385031215611b3f57611b3e611a8f565b5b6000611b4d85828601611add565b9250506020611b5e85828601611b13565b9150509250929050565b60008115159050919050565b611b7d81611b68565b82525050565b6000602082019050611b986000830184611b74565b92915050565b6000611ba982611ab4565b9050919050565b611bb981611b9e565b8114611bc457600080fd5b50565b600081359050611bd681611bb0565b92915050565b600060208284031215611bf257611bf1611a8f565b5b6000611c0084828501611bc7565b91505092915050565b600060208284031215611c1f57611c1e611a8f565b5b6000611c2d84828501611b13565b91505092915050565b611c3f81611af2565b82525050565b6000602082019050611c5a6000830184611c36565b92915050565b600080600060608486031215611c7957611c78611a8f565b5b6000611c8786828701611add565b9350506020611c9886828701611add565b9250506040611ca986828701611b13565b9150509250925092565b600060ff82169050919050565b611cc981611cb3565b82525050565b6000602082019050611ce46000830184611cc0565b92915050565b6000819050919050565b6000611d0f611d0a611d0584611a94565b611cea565b611a94565b9050919050565b6000611d2182611cf4565b9050919050565b6000611d3382611d16565b9050919050565b611d4381611d28565b82525050565b6000602082019050611d5e6000830184611d3a565b92915050565b600060208284031215611d7a57611d79611a8f565b5b6000611d8884828501611add565b91505092915050565b611d9a81611ab4565b82525050565b6000602082019050611db56000830184611d91565b92915050565b60008060408385031215611dd257611dd1611a8f565b5b6000611de085828601611add565b9250506020611df185828601611add565b9150509250929050565b7f4e487b7100000000000000000000000000000000000000000000000000000000600052602260045260246000fd5b60006002820490506001821680611e4257607f821691505b602082108103611e5557611e54611dfb565b5b50919050565b7f416464726573732063616e2774206265207a65726f0000000000000000000000600082015250565b6000611e916015836119e8565b9150611e9c82611e5b565b602082019050919050565b60006020820190508181036000830152611ec081611e84565b9050919050565b600081519050611ed681611afc565b92915050565b600060208284031215611ef257611ef1611a8f565b5b6000611f0084828501611ec7565b91505092915050565b7f596f75204e656564206120466f726765204e4654000000000000000000000000600082015250565b6000611f3f6014836119e8565b9150611f4a82611f09565b602082019050919050565b60006020820190508181036000830152611f6e81611f32565b9050919050565b7f596f75204e65656420616e20416e76696c204e46540000000000000000000000600082015250565b6000611fab6015836119e8565b9150611fb682611f75565b602082019050919050565b60006020820190508181036000830152611fda81611f9e565b9050919050565b7f596f75204e656564206120436861726163746572204e46540000000000000000600082015250565b60006120176018836119e8565b915061202282611fe1565b602082019050919050565b600060208201905081810360008301526120468161200a565b9050919050565b7f4e487b7100000000000000000000000000000000000000000000000000000000600052601160045260246000fd5b60008160011c9050919050565b6000808291508390505b60018511156120d3578086048111156120af576120ae61204d565b5b60018516156120be5780820291505b80810290506120cc8561207c565b9450612093565b94509492505050565b6000826120ec57600190506121a8565b816120fa57600090506121a8565b8160018114612110576002811461211a57612149565b60019150506121a8565b60ff84111561212c5761212b61204d565b5b8360020a9150848211156121435761214261204d565b5b506121a8565b5060208310610133831016604e8410600b841016171561217e5782820a9050838111156121795761217861204d565b5b6121a8565b61218b8484846001612089565b925090508184048111156121a2576121a161204d565b5b81810290505b9392505050565b60006121ba82611af2565b91506121c583611cb3565b92506121f27fffffffffffffffffffffffffffffffffffffffffffffffffffffffffffffffff84846120dc565b905092915050565b600061220582611af2565b915061221083611af2565b9250817fffffffffffffffffffffffffffffffffffffffffffffffffffffffffffffffff04831182151516156122495761224861204d565b5b828202905092915050565b60006060820190506122696000830186611d91565b6122766020830185611d91565b6122836040830184611c36565b949350505050565b61229481611b68565b811461229f57600080fd5b50565b6000815190506122b18161228b565b92915050565b6000602082840312156122cd576122cc611a8f565b5b60006122db848285016122a2565b91505092915050565b7f5472616e73666572206f6620746f6b656e31206661696c656400000000000000600082015250565b600061231a6019836119e8565b9150612325826122e4565b602082019050919050565b600060208201905081810360008301526123498161230d565b9050919050565b7f5472616e73666572206f6620746f6b656e32206661696c656400000000000000600082015250565b60006123866019836119e8565b915061239182612350565b602082019050919050565b600060208201905081810360008301526123b581612379565b9050919050565b60006123c782611af2565b91506123d283611af2565b92508282019050808211156123ea576123e961204d565b5b92915050565b7f416d6f756e742063616e6e6f74206265207a65726f0000000000000000000000600082015250565b60006124266015836119e8565b9150612431826123f0565b602082019050919050565b6000602082019050818103600083015261245581612419565b9050919050565b7f45524332303a2064656372656173656420616c6c6f77616e63652062656c6f7760008201527f207a65726f000000000000000000000000000000000000000000000000000000602082015250565b60006124b86025836119e8565b91506124c38261245c565b604082019050919050565b600060208201905081810360008301526124e7816124ab565b9050919050565b7f546f6b656e20616464726573732063616e27742062652061646472657373207a60008201527f65726f0000000000000000000000000000000000000000000000000000000000602082015250565b600061254a6023836119e8565b9150612555826124ee565b604082019050919050565b600060208201905081810360008301526125798161253d565b9050919050565b7f4f776e61626c653a206e6577206f776e657220697320746865207a65726f206160008201527f6464726573730000000000000000000000000000000000000000000000000000602082015250565b60006125dc6026836119e8565b91506125e782612580565b604082019050919050565b6000602082019050818103600083015261260b816125cf565b9050919050565b7f45524332303a20617070726f76652066726f6d20746865207a65726f2061646460008201527f7265737300000000000000000000000000000000000000000000000000000000602082015250565b600061266e6024836119e8565b915061267982612612565b604082019050919050565b6000602082019050818103600083015261269d81612661565b9050919050565b7f45524332303a20617070726f766520746f20746865207a65726f20616464726560008201527f7373000000000000000000000000000000000000000000000000000000000000602082015250565b60006127006022836119e8565b915061270b826126a4565b604082019050919050565b6000602082019050818103600083015261272f816126f3565b9050919050565b7f4f776e61626c653a2063616c6c6572206973206e6f7420746865206f776e6572600082015250565b600061276c6020836119e8565b915061277782612736565b602082019050919050565b6000602082019050818103600083015261279b8161275f565b9050919050565b7f45524332303a206d696e7420746f20746865207a65726f206164647265737300600082015250565b60006127d8601f836119e8565b91506127e3826127a2565b602082019050919050565b60006020820190508181036000830152612807816127cb565b9050919050565b7f45524332303a20696e73756666696369656e7420616c6c6f77616e6365000000600082015250565b6000612844601d836119e8565b915061284f8261280e565b602082019050919050565b6000602082019050818103600083015261287381612837565b9050919050565b7f45524332303a207472616e736665722066726f6d20746865207a65726f20616460008201527f6472657373000000000000000000000000000000000000000000000000000000602082015250565b60006128d66025836119e8565b91506128e18261287a565b604082019050919050565b60006020820190508181036000830152612905816128c9565b9050919050565b7f45524332303a207472616e7366657220746f20746865207a65726f206164647260008201527f6573730000000000000000000000000000000000000000000000000000000000602082015250565b60006129686023836119e8565b91506129738261290c565b604082019050919050565b600060208201905081810360008301526129978161295b565b9050919050565b7f45524332303a207472616e7366657220616d6f756e742065786365656473206260008201527f616c616e63650000000000000000000000000000000000000000000000000000602082015250565b60006129fa6026836119e8565b9150612a058261299e565b604082019050919050565b60006020820190508181036000830152612a29816129ed565b905091905056fea2646970667358221220aa5d4deaca818a2d936cbbf54f9069227cb3b57de5e9ecfe4dec2c8341c0aca264736f6c6343000810003368747470733a2f2f676174657761792e70696e6174612e636c6f75642f697066732f516d575038396f3747767a7a58715867316b734d3764474141674c644c475a5878436f356856766e6737384769582f6e61696c732e6a736f6e",
  "immutableReferences": {},
  "source": "// SPDX-License-Identifier: MIT\r\npragma solidity ^0.8.7;\r\n\r\nimport \"@openzeppelin/contracts/token/ERC20/ERC20.sol\";\r\nimport \"@openzeppelin/contracts/token/ERC20/extensions/ERC20Burnable.sol\";\r\nimport \"@openzeppelin/contracts/access/Ownable.sol\";\r\nimport \"@openzeppelin/contracts/token/ERC721/IERC721.sol\";\r\n\r\ncontract NAIL is ERC20, Ownable {\r\n    string private _name;\r\n    string private _symbol;\r\n    string private _tokenURI = \"https://gateway.pinata.cloud/ipfs/QmWP89o7GvzzXqXg1ksM7dGAAgLdLGZXxCo5hVvng78GiX/nails.json\";\r\n    uint8 private _decimals;\r\n\r\n    address private _requiredToken1;\r\n    uint256 private _requiredAmount1;\r\n\r\n    address private _requiredToken2;\r\n    uint256 private _requiredAmount2;\r\n\r\n    IERC721 public requiredNFT1;\r\n    IERC721 public requiredNFT2;\r\n    IERC721 public requiredNFT3;\r\n\r\n    constructor(\r\n        string memory name_,\r\n        string memory symbol_,\r\n        uint8 decimals_,\r\n        address requiredToken1_,\r\n        uint256 requiredAmount1_,\r\n        address requiredToken2_,\r\n        uint256 requiredAmount2_,\r\n        address requiredNFT1_,\r\n        address requiredNFT2_,\r\n        address requiredNFT3_\r\n    ) ERC20(name_, symbol_) {\r\n        _name = name_;\r\n        _symbol = symbol_;\r\n        _decimals = decimals_;\r\n        _requiredToken1 = requiredToken1_;\r\n        _requiredAmount1 = requiredAmount1_;\r\n        _requiredToken2 = requiredToken2_;\r\n        _requiredAmount2 = requiredAmount2_;\r\n        requiredNFT1 = IERC721(requiredNFT1_);\r\n        requiredNFT2 = IERC721(requiredNFT2_);\r\n        requiredNFT3 = IERC721(requiredNFT3_);\r\n        _mint(msg.sender, 50000 * 10 ** uint256(decimals_));\r\n    }\r\n\r\n    //Setter Functions\r\n\r\n    function setPaymentCurrency1(address _paymentCurrency) public onlyOwner {\r\n        require(\r\n            address(_paymentCurrency) != address(0),\r\n            \"Token address can't be address zero\"\r\n        );\r\n        _requiredToken1 = _paymentCurrency;\r\n    }\r\n\r\n    function setPaymentCurrency2(address _paymentCurrency) public onlyOwner {\r\n        require(\r\n            address(_paymentCurrency) != address(0),\r\n            \"Token address can't be address zero\"\r\n        );\r\n        _requiredToken2 = _paymentCurrency;\r\n    }\r\n\r\n    function setRequiredNFT1(IERC721 _requiredNFT) public onlyOwner {\r\n        require(address(_requiredNFT) != address(0), \"Address can't be zero\");\r\n        requiredNFT1 = _requiredNFT;\r\n    }\r\n\r\n    function setRequiredNFT2(IERC721 _requiredNFT) public onlyOwner {\r\n        require(address(_requiredNFT) != address(0), \"Address can't be zero\");\r\n        requiredNFT2 = _requiredNFT;\r\n    }\r\n\r\n    function setRequiredNFT3(IERC721 _requiredNFT) public onlyOwner {\r\n        require(address(_requiredNFT) != address(0), \"Address can't be zero\");\r\n        requiredNFT3 = _requiredNFT;\r\n    }\r\n\r\n    function setRequiredAmount1(uint256 requiredAmount) public onlyOwner {\r\n        require(requiredAmount > 0, \"Amount cannot be zero\");\r\n        _requiredAmount1 = requiredAmount;\r\n    }\r\n\r\n    function setRequiredAmount2(uint256 requiredAmount) public onlyOwner {\r\n        require(requiredAmount > 0, \"Amount cannot be zero\");\r\n        _requiredAmount2 = requiredAmount;\r\n    }\r\n\r\n    // buy function\r\n    function mintNail(uint256 amount) public {\r\n        require(\r\n            IERC721(requiredNFT1).balanceOf(msg.sender) > 0,\r\n            \"You Need a Forge NFT\"\r\n        );\r\n        require(\r\n            IERC721(requiredNFT2).balanceOf(msg.sender) > 0,\r\n            \"You Need an Anvil NFT\"\r\n        );\r\n        require(\r\n            IERC721(requiredNFT3).balanceOf(msg.sender) > 0,\r\n            \"You Need a Character NFT\"\r\n        );\r\n        require(\r\n            IERC20(_requiredToken1).transferFrom(\r\n                msg.sender,\r\n                address(this),\r\n                _requiredAmount1 * amount * (10 ** _decimals)\r\n            ),\r\n            \"Transfer of token1 failed\"\r\n        );\r\n        require(\r\n            IERC20(_requiredToken2).transferFrom(\r\n                msg.sender,\r\n                address(this),\r\n                _requiredAmount2 * amount * (10 ** _decimals)\r\n            ),\r\n            \"Transfer of token2 failed\"\r\n        );\r\n\r\n        uint256 mintAmount = amount * (10 ** _decimals);\r\n        _mint(msg.sender, mintAmount);\r\n    }\r\n}\r\n",
  "sourcePath": "C:\\Users\\sumer\\OneDrive\\Desktop\\Workbench\\NFTDeployment\\contracts\\NAIL.sol",
  "compiler": {
    "name": "solc",
    "version": "0.8.16+commit.07a7930e.Emscripten.clang"
  },
  "schemaVersion": "3.4.15",
  "updatedAt": "2023-08-14T13:13:57.503Z",
  "networkType": "ethereum",
  "devdoc": {
    "kind": "dev",
    "methods": {
      "allowance(address,address)": {
        "details": "See {IERC20-allowance}."
      },
      "approve(address,uint256)": {
        "details": "See {IERC20-approve}. NOTE: If `amount` is the maximum `uint256`, the allowance is not updated on `transferFrom`. This is semantically equivalent to an infinite approval. Requirements: - `spender` cannot be the zero address."
      },
      "balanceOf(address)": {
        "details": "See {IERC20-balanceOf}."
      },
      "decimals()": {
        "details": "Returns the number of decimals used to get its user representation. For example, if `decimals` equals `2`, a balance of `505` tokens should be displayed to a user as `5.05` (`505 / 10 ** 2`). Tokens usually opt for a value of 18, imitating the relationship between Ether and Wei. This is the default value returned by this function, unless it's overridden. NOTE: This information is only used for _display_ purposes: it in no way affects any of the arithmetic of the contract, including {IERC20-balanceOf} and {IERC20-transfer}."
      },
      "decreaseAllowance(address,uint256)": {
        "details": "Atomically decreases the allowance granted to `spender` by the caller. This is an alternative to {approve} that can be used as a mitigation for problems described in {IERC20-approve}. Emits an {Approval} event indicating the updated allowance. Requirements: - `spender` cannot be the zero address. - `spender` must have allowance for the caller of at least `subtractedValue`."
      },
      "increaseAllowance(address,uint256)": {
        "details": "Atomically increases the allowance granted to `spender` by the caller. This is an alternative to {approve} that can be used as a mitigation for problems described in {IERC20-approve}. Emits an {Approval} event indicating the updated allowance. Requirements: - `spender` cannot be the zero address."
      },
      "name()": {
        "details": "Returns the name of the token."
      },
      "owner()": {
        "details": "Returns the address of the current owner."
      },
      "renounceOwnership()": {
        "details": "Leaves the contract without owner. It will not be possible to call `onlyOwner` functions. Can only be called by the current owner. NOTE: Renouncing ownership will leave the contract without an owner, thereby disabling any functionality that is only available to the owner."
      },
      "symbol()": {
        "details": "Returns the symbol of the token, usually a shorter version of the name."
      },
      "totalSupply()": {
        "details": "See {IERC20-totalSupply}."
      },
      "transfer(address,uint256)": {
        "details": "See {IERC20-transfer}. Requirements: - `to` cannot be the zero address. - the caller must have a balance of at least `amount`."
      },
      "transferFrom(address,address,uint256)": {
        "details": "See {IERC20-transferFrom}. Emits an {Approval} event indicating the updated allowance. This is not required by the EIP. See the note at the beginning of {ERC20}. NOTE: Does not update the allowance if the current allowance is the maximum `uint256`. Requirements: - `from` and `to` cannot be the zero address. - `from` must have a balance of at least `amount`. - the caller must have allowance for ``from``'s tokens of at least `amount`."
      },
      "transferOwnership(address)": {
        "details": "Transfers ownership of the contract to a new account (`newOwner`). Can only be called by the current owner."
      }
    },
    "version": 1
  },
  "userdoc": {
    "kind": "user",
    "methods": {},
    "version": 1
  }
}