{
  "contractName": "NFTWalletBalanceChecker",
  "abi": [
    {
      "inputs": [],
      "stateMutability": "nonpayable",
      "type": "constructor"
    },
    {
      "inputs": [],
      "name": "expectedChainId",
      "outputs": [
        {
          "internalType": "uint256",
          "name": "",
          "type": "uint256"
        }
      ],
      "stateMutability": "view",
      "type": "function"
    },
    {
      "inputs": [
        {
          "internalType": "string",
          "name": "",
          "type": "string"
        }
      ],
      "name": "nftContracts",
      "outputs": [
        {
          "internalType": "contract IERC721Enumerable",
          "name": "",
          "type": "address"
        }
      ],
      "stateMutability": "view",
      "type": "function"
    },
    {
      "inputs": [],
      "name": "owner",
      "outputs": [
        {
          "internalType": "address",
          "name": "",
          "type": "address"
        }
      ],
      "stateMutability": "view",
      "type": "function"
    },
    {
      "inputs": [
        {
          "internalType": "uint256",
          "name": "_chainId",
          "type": "uint256"
        }
      ],
      "name": "setExpectedChainId",
      "outputs": [],
      "stateMutability": "nonpayable",
      "type": "function"
    },
    {
      "inputs": [
        {
          "internalType": "address",
          "name": "user",
          "type": "address"
        }
      ],
      "name": "checkNFTBalances",
      "outputs": [
        {
          "internalType": "uint256[10]",
          "name": "nftBalances",
          "type": "uint256[10]"
        }
      ],
      "stateMutability": "view",
      "type": "function"
    }
  ],
  "bytecode": "0x608060405260336001553480156200001657600080fd5b50336000806101000a81548173ffffffffffffffffffffffffffffffffffffffff021916908373ffffffffffffffffffffffffffffffffffffffff1602179055507316ff83dc4db1569fa6fedcbc1f774370f7ba775f60026040516200007c906200071c565b908152602001604051809103902060006101000a81548173ffffffffffffffffffffffffffffffffffffffff021916908373ffffffffffffffffffffffffffffffffffffffff160217905550735ad2430fb36a57318c0e32fe267d54f5a5d105146002604051620000ed906200064d565b908152602001604051809103902060006101000a81548173ffffffffffffffffffffffffffffffffffffffff021916908373ffffffffffffffffffffffffffffffffffffffff160217905550735e84685c79fdcf391fe12570577703944ac983b460026040516200015e9062000692565b908152602001604051809103902060006101000a81548173ffffffffffffffffffffffffffffffffffffffff021916908373ffffffffffffffffffffffffffffffffffffffff160217905550735c617bad7e982d146f22f840c7790173ce972bb86002604051620001cf90620006ee565b908152602001604051809103902060006101000a81548173ffffffffffffffffffffffffffffffffffffffff021916908373ffffffffffffffffffffffffffffffffffffffff160217905550731ad1438c4a3f790d9b4b279510700ceebbd2a47d60026040516200024090620006c0565b908152602001604051809103902060006101000a81548173ffffffffffffffffffffffffffffffffffffffff021916908373ffffffffffffffffffffffffffffffffffffffff160217905550731072850cb1ebc6b820795e5b022f4c7d9247d0fd6002604051620002b19062000705565b908152602001604051809103902060006101000a81548173ffffffffffffffffffffffffffffffffffffffff021916908373ffffffffffffffffffffffffffffffffffffffff160217905550731562162b92c49dea3497d164529152f2fa43cbde60026040516200032290620006a9565b908152602001604051809103902060006101000a81548173ffffffffffffffffffffffffffffffffffffffff021916908373ffffffffffffffffffffffffffffffffffffffff16021790555073b433ae8f7afd292c1688d58903532be9a1f19a0c600260405162000393906200067b565b908152602001604051809103902060006101000a81548173ffffffffffffffffffffffffffffffffffffffff021916908373ffffffffffffffffffffffffffffffffffffffff16021790555073e906b415d6e0f321bd5f9a53e306ced946aa0f616002604051620004049062000664565b908152602001604051809103902060006101000a81548173ffffffffffffffffffffffffffffffffffffffff021916908373ffffffffffffffffffffffffffffffffffffffff160217905550738e6cd2cc71d605b8fb721a49d5e3ee47215435a460026040516200047590620006d7565b908152602001604051809103902060006101000a81548173ffffffffffffffffffffffffffffffffffffffff021916908373ffffffffffffffffffffffffffffffffffffffff160217905550620008d8565b6000620004d660078362000733565b9150620004e3826200073e565b600782019050919050565b6000620004fd600a8362000733565b91506200050a8262000767565b600a82019050919050565b600062000524600a8362000733565b9150620005318262000790565b600a82019050919050565b60006200054b60078362000733565b91506200055882620007b9565b600782019050919050565b600062000572600b8362000733565b91506200057f82620007e2565b600b82019050919050565b600062000599600b8362000733565b9150620005a6826200080b565b600b82019050919050565b6000620005c0600a8362000733565b9150620005cd8262000834565b600a82019050919050565b6000620005e760098362000733565b9150620005f4826200085d565b600982019050919050565b60006200060e60098362000733565b91506200061b8262000886565b600982019050919050565b600062000635600d8362000733565b91506200064282620008af565b600d82019050919050565b60006200065a82620004c7565b9150819050919050565b60006200067182620004ee565b9150819050919050565b6000620006888262000515565b9150819050919050565b60006200069f826200053c565b9150819050919050565b6000620006b68262000563565b9150819050919050565b6000620006cd826200058a565b9150819050919050565b6000620006e482620005b1565b9150819050919050565b6000620006fb82620005d8565b9150819050919050565b60006200071282620005ff565b9150819050919050565b6000620007298262000626565b9150819050919050565b600081905092915050565b7f415845204e465400000000000000000000000000000000000000000000000000600082015250565b7f53686f76656c204e465400000000000000000000000000000000000000000000600082015250565b7f48616d6d6572204e465400000000000000000000000000000000000000000000600082015250565b7f534157204e465400000000000000000000000000000000000000000000000000600082015250565b7f526f77426f6174204e4654000000000000000000000000000000000000000000600082015250565b7f5069636b617865204e4654000000000000000000000000000000000000000000600082015250565b7f536865617273204e465400000000000000000000000000000000000000000000600082015250565b7f466f726765204e46540000000000000000000000000000000000000000000000600082015250565b7f416e76696c204e46540000000000000000000000000000000000000000000000600082015250565b7f436861726163746572204e465400000000000000000000000000000000000000600082015250565b6114fe80620008e86000396000f3fe608060405234801561001057600080fd5b50600436106100575760003560e01c806307e2ae4e1461005c57806336304e7214610078578063762a14e6146100a8578063866dc50c146100d85780638da5cb5b146100f6575b600080fd5b61007660048036038101906100719190610c8c565b610114565b005b610092600480360381019061008d9190610c43565b6101ac565b60405161009f919061103e565b60405180910390f35b6100c260048036038101906100bd9190610c16565b6101f5565b6040516100cf9190611022565b60405180910390f35b6100e0610b1a565b6040516100ed9190611099565b60405180910390f35b6100fe610b20565b60405161010b9190611007565b60405180910390f35b60008054906101000a900473ffffffffffffffffffffffffffffffffffffffff1673ffffffffffffffffffffffffffffffffffffffff163373ffffffffffffffffffffffffffffffffffffffff16146101a2576040517f08c379a000000000000000000000000000000000000000000000000000000000815260040161019990611059565b60405180910390fd5b8060018190555050565b6002818051602081018201805184825260208301602085012081835280955050505050506000915054906101000a900473ffffffffffffffffffffffffffffffffffffffff1681565b6101fd610b44565b6001544614610241576040517f08c379a000000000000000000000000000000000000000000000000000000000815260040161023890611079565b60405180910390fd5b600260405161024f90610ff2565b908152602001604051809103902060009054906101000a900473ffffffffffffffffffffffffffffffffffffffff1673ffffffffffffffffffffffffffffffffffffffff166370a08231836040518263ffffffff1660e01b81526004016102b69190611007565b60206040518083038186803b1580156102ce57600080fd5b505afa1580156102e2573d6000803e3d6000fd5b505050506040513d601f19601f820116820180604052508101906103069190610cb9565b816000600a811061031a57610319611205565b5b602002018181525050600260405161033190610f35565b908152602001604051809103902060009054906101000a900473ffffffffffffffffffffffffffffffffffffffff1673ffffffffffffffffffffffffffffffffffffffff166370a08231836040518263ffffffff1660e01b81526004016103989190611007565b60206040518083038186803b1580156103b057600080fd5b505afa1580156103c4573d6000803e3d6000fd5b505050506040513d601f19601f820116820180604052508101906103e89190610cb9565b816001600a81106103fc576103fb611205565b5b602002018181525050600260405161041390610f74565b908152602001604051809103902060009054906101000a900473ffffffffffffffffffffffffffffffffffffffff1673ffffffffffffffffffffffffffffffffffffffff166370a08231836040518263ffffffff1660e01b815260040161047a9190611007565b60206040518083038186803b15801561049257600080fd5b505afa1580156104a6573d6000803e3d6000fd5b505050506040513d601f19601f820116820180604052508101906104ca9190610cb9565b816002600a81106104de576104dd611205565b5b60200201818152505060026040516104f590610fc8565b908152602001604051809103902060009054906101000a900473ffffffffffffffffffffffffffffffffffffffff1673ffffffffffffffffffffffffffffffffffffffff166370a08231836040518263ffffffff1660e01b815260040161055c9190611007565b60206040518083038186803b15801561057457600080fd5b505afa158015610588573d6000803e3d6000fd5b505050506040513d601f19601f820116820180604052508101906105ac9190610cb9565b816003600a81106105c0576105bf611205565b5b60200201818152505060026040516105d790610f9e565b908152602001604051809103902060009054906101000a900473ffffffffffffffffffffffffffffffffffffffff1673ffffffffffffffffffffffffffffffffffffffff166370a08231836040518263ffffffff1660e01b815260040161063e9190611007565b60206040518083038186803b15801561065657600080fd5b505afa15801561066a573d6000803e3d6000fd5b505050506040513d601f19601f8201168201806040525081019061068e9190610cb9565b816004600a81106106a2576106a1611205565b5b60200201818152505060026040516106b990610fdd565b908152602001604051809103902060009054906101000a900473ffffffffffffffffffffffffffffffffffffffff1673ffffffffffffffffffffffffffffffffffffffff166370a08231836040518263ffffffff1660e01b81526004016107209190611007565b60206040518083038186803b15801561073857600080fd5b505afa15801561074c573d6000803e3d6000fd5b505050506040513d601f19601f820116820180604052508101906107709190610cb9565b816005600a811061078457610783611205565b5b602002018181525050600260405161079b90610f89565b908152602001604051809103902060009054906101000a900473ffffffffffffffffffffffffffffffffffffffff1673ffffffffffffffffffffffffffffffffffffffff166370a08231836040518263ffffffff1660e01b81526004016108029190611007565b60206040518083038186803b15801561081a57600080fd5b505afa15801561082e573d6000803e3d6000fd5b505050506040513d601f19601f820116820180604052508101906108529190610cb9565b816006600a811061086657610865611205565b5b602002018181525050600260405161087d90610f5f565b908152602001604051809103902060009054906101000a900473ffffffffffffffffffffffffffffffffffffffff1673ffffffffffffffffffffffffffffffffffffffff166370a08231836040518263ffffffff1660e01b81526004016108e49190611007565b60206040518083038186803b1580156108fc57600080fd5b505afa158015610910573d6000803e3d6000fd5b505050506040513d601f19601f820116820180604052508101906109349190610cb9565b816007600a811061094857610947611205565b5b602002018181525050600260405161095f90610f4a565b908152602001604051809103902060009054906101000a900473ffffffffffffffffffffffffffffffffffffffff1673ffffffffffffffffffffffffffffffffffffffff166370a08231836040518263ffffffff1660e01b81526004016109c69190611007565b60206040518083038186803b1580156109de57600080fd5b505afa1580156109f2573d6000803e3d6000fd5b505050506040513d601f19601f82011682018060405250810190610a169190610cb9565b816008600a8110610a2a57610a29611205565b5b6020020181815250506002604051610a4190610fb3565b908152602001604051809103902060009054906101000a900473ffffffffffffffffffffffffffffffffffffffff1673ffffffffffffffffffffffffffffffffffffffff166370a08231836040518263ffffffff1660e01b8152600401610aa89190611007565b60206040518083038186803b158015610ac057600080fd5b505afa158015610ad4573d6000803e3d6000fd5b505050506040513d601f19601f82011682018060405250810190610af89190610cb9565b816009600a8110610b0c57610b0b611205565b5b602002018181525050919050565b60015481565b60008054906101000a900473ffffffffffffffffffffffffffffffffffffffff1681565b604051806101400160405280600a90602082028036833780820191505090505090565b6000610b7a610b75846110d9565b6110b4565b905082815260208101848484011115610b9657610b95611268565b5b610ba18482856111c5565b509392505050565b600081359050610bb88161149a565b92915050565b600082601f830112610bd357610bd2611263565b5b8135610be3848260208601610b67565b91505092915050565b600081359050610bfb816114b1565b92915050565b600081519050610c10816114b1565b92915050565b600060208284031215610c2c57610c2b611272565b5b6000610c3a84828501610ba9565b91505092915050565b600060208284031215610c5957610c58611272565b5b600082013567ffffffffffffffff811115610c7757610c7661126d565b5b610c8384828501610bbe565b91505092915050565b600060208284031215610ca257610ca1611272565b5b6000610cb084828501610bec565b91505092915050565b600060208284031215610ccf57610cce611272565b5b6000610cdd84828501610c01565b91505092915050565b6000610cf28383610f17565b60208301905092915050565b610d0781611153565b82525050565b610d1681611114565b610d20818461112c565b9250610d2b8261110a565b8060005b83811015610d5c578151610d438782610ce6565b9650610d4e8361111f565b925050600181019050610d2f565b505050505050565b610d6d8161118f565b82525050565b6000610d80602183611137565b9150610d8b82611288565b604082019050919050565b6000610da3600783611148565b9150610dae826112d7565b600782019050919050565b6000610dc6600a83611148565b9150610dd182611300565b600a82019050919050565b6000610de9600a83611148565b9150610df482611329565b600a82019050919050565b6000610e0c600783611148565b9150610e1782611352565b600782019050919050565b6000610e2f600d83611137565b9150610e3a8261137b565b602082019050919050565b6000610e52600b83611148565b9150610e5d826113a4565b600b82019050919050565b6000610e75600b83611148565b9150610e80826113cd565b600b82019050919050565b6000610e98600a83611148565b9150610ea3826113f6565b600a82019050919050565b6000610ebb600983611148565b9150610ec68261141f565b600982019050919050565b6000610ede600983611148565b9150610ee982611448565b600982019050919050565b6000610f01600d83611148565b9150610f0c82611471565b600d82019050919050565b610f2081611185565b82525050565b610f2f81611185565b82525050565b6000610f4082610d96565b9150819050919050565b6000610f5582610db9565b9150819050919050565b6000610f6a82610ddc565b9150819050919050565b6000610f7f82610dff565b9150819050919050565b6000610f9482610e45565b9150819050919050565b6000610fa982610e68565b9150819050919050565b6000610fbe82610e8b565b9150819050919050565b6000610fd382610eae565b9150819050919050565b6000610fe882610ed1565b9150819050919050565b6000610ffd82610ef4565b9150819050919050565b600060208201905061101c6000830184610cfe565b92915050565b6000610140820190506110386000830184610d0d565b92915050565b60006020820190506110536000830184610d64565b92915050565b6000602082019050818103600083015261107281610d73565b9050919050565b6000602082019050818103600083015261109281610e22565b9050919050565b60006020820190506110ae6000830184610f26565b92915050565b60006110be6110cf565b90506110ca82826111d4565b919050565b6000604051905090565b600067ffffffffffffffff8211156110f4576110f3611234565b5b6110fd82611277565b9050602081019050919050565b6000819050919050565b6000600a9050919050565b6000602082019050919050565b600081905092915050565b600082825260208201905092915050565b600081905092915050565b600061115e82611165565b9050919050565b600073ffffffffffffffffffffffffffffffffffffffff82169050919050565b6000819050919050565b600061119a826111a1565b9050919050565b60006111ac826111b3565b9050919050565b60006111be82611165565b9050919050565b82818337600083830152505050565b6111dd82611277565b810181811067ffffffffffffffff821117156111fc576111fb611234565b5b80604052505050565b7f4e487b7100000000000000000000000000000000000000000000000000000000600052603260045260246000fd5b7f4e487b7100000000000000000000000000000000000000000000000000000000600052604160045260246000fd5b600080fd5b600080fd5b600080fd5b600080fd5b6000601f19601f8301169050919050565b7f4f6e6c79206f776e65722063616e2063616c6c20746869732066756e6374696f60008201527f6e00000000000000000000000000000000000000000000000000000000000000602082015250565b7f415845204e465400000000000000000000000000000000000000000000000000600082015250565b7f53686f76656c204e465400000000000000000000000000000000000000000000600082015250565b7f48616d6d6572204e465400000000000000000000000000000000000000000000600082015250565b7f534157204e465400000000000000000000000000000000000000000000000000600082015250565b7f57726f6e67206e6574776f726b00000000000000000000000000000000000000600082015250565b7f526f77426f6174204e4654000000000000000000000000000000000000000000600082015250565b7f5069636b617865204e4654000000000000000000000000000000000000000000600082015250565b7f536865617273204e465400000000000000000000000000000000000000000000600082015250565b7f466f726765204e46540000000000000000000000000000000000000000000000600082015250565b7f416e76696c204e46540000000000000000000000000000000000000000000000600082015250565b7f436861726163746572204e465400000000000000000000000000000000000000600082015250565b6114a381611153565b81146114ae57600080fd5b50565b6114ba81611185565b81146114c557600080fd5b5056fea26469706673582212202afea7d00f6f26b189ab463eeb83e91bc67218c1644ae264068e5cbfcb694d5b64736f6c63430008070033",
  "immutableReferences": {},
  "source": "// SPDX-License-Identifier: MIT\r\npragma solidity ^0.8.7;\r\n\r\nimport \"@openzeppelin/contracts/token/ERC721/extensions/IERC721Enumerable.sol\";\r\n\r\ncontract NFTWalletBalanceChecker {\r\n\r\n    address public owner;\r\n    uint256 public expectedChainId = 51;\r\n\r\n    mapping(string => IERC721Enumerable) public nftContracts; // Mapping NFT names to their contract addresses\r\n\r\n    modifier onlyOwner() {\r\n        require(msg.sender == owner, \"Only owner can call this function\");\r\n        _;\r\n    }\r\n\r\n    modifier correctChain() {\r\n        require(block.chainid == expectedChainId, \"Wrong network\");\r\n        _;\r\n    }\r\n\r\n    constructor() {\r\n        owner = msg.sender;\r\n\r\n        // Initialize NFT contracts (replace addresses accordingly)\r\n        nftContracts[\"Character NFT\"] = IERC721Enumerable(0x16fF83Dc4db1569fA6fEDCBc1F774370F7ba775f);\r\n        nftContracts[\"AXE NFT\"] = IERC721Enumerable(0x5aD2430fB36a57318C0e32fe267d54f5A5d10514);\r\n        nftContracts[\"SAW NFT\"] = IERC721Enumerable(0x5e84685C79fDcF391Fe12570577703944Ac983b4);\r\n        nftContracts[\"Forge NFT\"] = IERC721Enumerable(0x5C617BAD7e982D146F22f840c7790173Ce972bB8);\r\n        nftContracts[\"Pickaxe NFT\"] = IERC721Enumerable(0x1ad1438C4A3f790D9B4b279510700cEeBbD2A47d);\r\n        nftContracts[\"Anvil NFT\"] = IERC721Enumerable(0x1072850CB1ebc6B820795E5b022f4C7D9247D0fD);\r\n        nftContracts[\"RowBoat NFT\"] = IERC721Enumerable(0x1562162B92c49Dea3497d164529152f2fa43cBDE);\r\n        nftContracts[\"Hammer NFT\"] = IERC721Enumerable(0xb433AE8F7afd292C1688d58903532bE9A1f19A0c);\r\n        nftContracts[\"Shovel NFT\"] = IERC721Enumerable(0xe906B415D6E0f321bD5f9A53E306CED946AA0F61);\r\n        nftContracts[\"Shears NFT\"] = IERC721Enumerable(0x8E6CD2cc71d605b8Fb721a49d5E3eE47215435A4);\r\n    }\r\n\r\n    function setExpectedChainId(uint256 _chainId) external onlyOwner {\r\n        expectedChainId = _chainId;\r\n    }\r\n\r\n    function checkNFTBalances(address user) external view correctChain returns (uint256[10] memory nftBalances) {\r\n        // Check NFT balances\r\n        nftBalances[0] = nftContracts[\"Character NFT\"].balanceOf(user);\r\n        nftBalances[1] = nftContracts[\"AXE NFT\"].balanceOf(user);\r\n        nftBalances[2] = nftContracts[\"SAW NFT\"].balanceOf(user);\r\n        nftBalances[3] = nftContracts[\"Forge NFT\"].balanceOf(user);\r\n        nftBalances[4] = nftContracts[\"Pickaxe NFT\"].balanceOf(user);\r\n        nftBalances[5] = nftContracts[\"Anvil NFT\"].balanceOf(user);\r\n        nftBalances[6] = nftContracts[\"RowBoat NFT\"].balanceOf(user);\r\n        nftBalances[7] = nftContracts[\"Hammer NFT\"].balanceOf(user);\r\n        nftBalances[8] = nftContracts[\"Shovel NFT\"].balanceOf(user);\r\n        nftBalances[9] = nftContracts[\"Shears NFT\"].balanceOf(user);\r\n\r\n        return nftBalances;\r\n    }\r\n}\r\n",
  "sourcePath": "C:\\blockchainlaboratories\\Project4\\mywork\\balance check\\WalletBalance\\contracts\\NFTWalletBalanceChecker.sol",
  "compiler": {
    "name": "solc",
    "version": "0.8.7+commit.e28d00a7.Emscripten.clang"
  },
  "schemaVersion": "3.4.16",
  "updatedAt": "2023-09-25T08:35:11.207Z",
  "devdoc": {
    "kind": "dev",
    "methods": {},
    "version": 1
  },
  "userdoc": {
    "kind": "user",
    "methods": {},
    "version": 1
  }
}