{
  "contractName": "TokenBalanceTracker",
  "abi": [
    {
      "inputs": [
        {
          "internalType": "address[]",
          "name": "_erc20Tokens",
          "type": "address[]"
        },
        {
          "internalType": "address[]",
          "name": "_erc721Tokens",
          "type": "address[]"
        }
      ],
      "stateMutability": "nonpayable",
      "type": "constructor"
    },
    {
      "anonymous": false,
      "inputs": [
        {
          "indexed": true,
          "internalType": "address",
          "name": "previousOwner",
          "type": "address"
        },
        {
          "indexed": true,
          "internalType": "address",
          "name": "newOwner",
          "type": "address"
        }
      ],
      "name": "OwnershipTransferred",
      "type": "event"
    },
    {
      "inputs": [
        {
          "internalType": "uint256",
          "name": "",
          "type": "uint256"
        }
      ],
      "name": "erc20Tokens",
      "outputs": [
        {
          "internalType": "address",
          "name": "",
          "type": "address"
        }
      ],
      "stateMutability": "view",
      "type": "function",
      "constant": true
    },
    {
      "inputs": [
        {
          "internalType": "uint256",
          "name": "",
          "type": "uint256"
        }
      ],
      "name": "erc721Tokens",
      "outputs": [
        {
          "internalType": "address",
          "name": "",
          "type": "address"
        }
      ],
      "stateMutability": "view",
      "type": "function",
      "constant": true
    },
    {
      "inputs": [],
      "name": "owner",
      "outputs": [
        {
          "internalType": "address",
          "name": "",
          "type": "address"
        }
      ],
      "stateMutability": "view",
      "type": "function",
      "constant": true
    },
    {
      "inputs": [],
      "name": "renounceOwnership",
      "outputs": [],
      "stateMutability": "nonpayable",
      "type": "function"
    },
    {
      "inputs": [
        {
          "internalType": "address",
          "name": "newOwner",
          "type": "address"
        }
      ],
      "name": "transferOwnership",
      "outputs": [],
      "stateMutability": "nonpayable",
      "type": "function"
    },
    {
      "inputs": [
        {
          "internalType": "address",
          "name": "tokenAddress",
          "type": "address"
        }
      ],
      "name": "addERC20Token",
      "outputs": [],
      "stateMutability": "nonpayable",
      "type": "function"
    },
    {
      "inputs": [
        {
          "internalType": "address",
          "name": "tokenAddress",
          "type": "address"
        }
      ],
      "name": "addERC721Token",
      "outputs": [],
      "stateMutability": "nonpayable",
      "type": "function"
    },
    {
      "inputs": [],
      "name": "getERC20Balance",
      "outputs": [
        {
          "internalType": "uint256[]",
          "name": "",
          "type": "uint256[]"
        }
      ],
      "stateMutability": "view",
      "type": "function",
      "constant": true
    },
    {
      "inputs": [],
      "name": "getERC721Balance",
      "outputs": [
        {
          "internalType": "uint256[]",
          "name": "",
          "type": "uint256[]"
        }
      ],
      "stateMutability": "view",
      "type": "function",
      "constant": true
    },
    {
      "inputs": [],
      "name": "getERC20array",
      "outputs": [
        {
          "internalType": "address[]",
          "name": "",
          "type": "address[]"
        }
      ],
      "stateMutability": "view",
      "type": "function",
      "constant": true
    },
    {
      "inputs": [],
      "name": "getERC721array",
      "outputs": [
        {
          "internalType": "address[]",
          "name": "",
          "type": "address[]"
        }
      ],
      "stateMutability": "view",
      "type": "function",
      "constant": true
    }
  ],
  "bytecode": "0x60806040523480156200001157600080fd5b5060405162001374380380620013748339818101604052810190620000379190620003f9565b620000576200004b6200009160201b60201c565b6200009960201b60201c565b81600190805190602001906200006f9291906200015d565b508060029080519060200190620000889291906200015d565b5050506200047e565b600033905090565b60008060009054906101000a900473ffffffffffffffffffffffffffffffffffffffff169050816000806101000a81548173ffffffffffffffffffffffffffffffffffffffff021916908373ffffffffffffffffffffffffffffffffffffffff1602179055508173ffffffffffffffffffffffffffffffffffffffff168173ffffffffffffffffffffffffffffffffffffffff167f8be0079c531659141344cd1fd0a4f28419497f9722a3daafe3b4186f6b6457e060405160405180910390a35050565b828054828255906000526020600020908101928215620001d9579160200282015b82811115620001d85782518260006101000a81548173ffffffffffffffffffffffffffffffffffffffff021916908373ffffffffffffffffffffffffffffffffffffffff160217905550916020019190600101906200017e565b5b509050620001e89190620001ec565b5090565b5b8082111562000207576000816000905550600101620001ed565b5090565b6000604051905090565b600080fd5b600080fd5b600080fd5b6000601f19601f8301169050919050565b7f4e487b7100000000000000000000000000000000000000000000000000000000600052604160045260246000fd5b6200026f8262000224565b810181811067ffffffffffffffff8211171562000291576200029062000235565b5b80604052505050565b6000620002a66200020b565b9050620002b4828262000264565b919050565b600067ffffffffffffffff821115620002d757620002d662000235565b5b602082029050602081019050919050565b600080fd5b600073ffffffffffffffffffffffffffffffffffffffff82169050919050565b60006200031a82620002ed565b9050919050565b6200032c816200030d565b81146200033857600080fd5b50565b6000815190506200034c8162000321565b92915050565b6000620003696200036384620002b9565b6200029a565b905080838252602082019050602084028301858111156200038f576200038e620002e8565b5b835b81811015620003bc5780620003a788826200033b565b84526020840193505060208101905062000391565b5050509392505050565b600082601f830112620003de57620003dd6200021f565b5b8151620003f084826020860162000352565b91505092915050565b6000806040838503121562000413576200041262000215565b5b600083015167ffffffffffffffff8111156200043457620004336200021a565b5b6200044285828601620003c6565b925050602083015167ffffffffffffffff8111156200046657620004656200021a565b5b6200047485828601620003c6565b9150509250929050565b610ee6806200048e6000396000f3fe608060405234801561001057600080fd5b50600436106100a95760003560e01c8063971ccc1611610071578063971ccc1614610130578063c3736fe61461014c578063d771f0eb1461016a578063e17640f414610186578063ed907cae146101b6578063f2fde38b146101e6576100a9565b80632025421f146100ae5780634a1b3685146100cc578063715018a6146100ea57806371abaf28146100f45780638da5cb5b14610112575b600080fd5b6100b6610202565b6040516100c39190610a3d565b60405180910390f35b6100d4610290565b6040516100e19190610a3d565b60405180910390f35b6100f261031e565b005b6100fc610332565b6040516101099190610b27565b60405180910390f35b61011a61048e565b6040516101279190610b58565b60405180910390f35b61014a60048036038101906101459190610ba4565b6104b7565b005b610154610525565b6040516101619190610b27565b60405180910390f35b610184600480360381019061017f9190610ba4565b610694565b005b6101a0600480360381019061019b9190610bfd565b610702565b6040516101ad9190610b58565b60405180910390f35b6101d060048036038101906101cb9190610bfd565b610741565b6040516101dd9190610b58565b60405180910390f35b61020060048036038101906101fb9190610ba4565b610780565b005b6060600280548060200260200160405190810160405280929190818152602001828054801561028657602002820191906000526020600020905b8160009054906101000a900473ffffffffffffffffffffffffffffffffffffffff1673ffffffffffffffffffffffffffffffffffffffff168152602001906001019080831161023c575b5050505050905090565b6060600180548060200260200160405190810160405280929190818152602001828054801561031457602002820191906000526020600020905b8160009054906101000a900473ffffffffffffffffffffffffffffffffffffffff1673ffffffffffffffffffffffffffffffffffffffff16815260200190600101908083116102ca575b5050505050905090565b610326610803565b6103306000610881565b565b6060600060028054905067ffffffffffffffff81111561035557610354610c2a565b5b6040519080825280602002602001820160405280156103835781602001602082028036833780820191505090505b50905060005b600280549050811015610486576000600282815481106103ac576103ab610c59565b5b9060005260206000200160009054906101000a900473ffffffffffffffffffffffffffffffffffffffff1673ffffffffffffffffffffffffffffffffffffffff166370a08231336040518263ffffffff1660e01b815260040161040f9190610b58565b602060405180830381865afa15801561042c573d6000803e3d6000fd5b505050506040513d601f19601f820116820180604052508101906104509190610c9d565b90508083838151811061046657610465610c59565b5b60200260200101818152505050808061047e90610cf9565b915050610389565b508091505090565b60008060009054906101000a900473ffffffffffffffffffffffffffffffffffffffff16905090565b6104bf610803565b6001819080600181540180825580915050600190039060005260206000200160009091909190916101000a81548173ffffffffffffffffffffffffffffffffffffffff021916908373ffffffffffffffffffffffffffffffffffffffff16021790555050565b6060600060018054905067ffffffffffffffff81111561054857610547610c2a565b5b6040519080825280602002602001820160405280156105765781602001602082028036833780820191505090505b50905060005b60018054905081101561068c5760006001828154811061059f5761059e610c59565b5b9060005260206000200160009054906101000a900473ffffffffffffffffffffffffffffffffffffffff1673ffffffffffffffffffffffffffffffffffffffff166370a08231336040518263ffffffff1660e01b81526004016106029190610b58565b602060405180830381865afa15801561061f573d6000803e3d6000fd5b505050506040513d601f19601f820116820180604052508101906106439190610c9d565b9050670de0b6b3a7640000816106599190610d70565b83838151811061066c5761066b610c59565b5b60200260200101818152505050808061068490610cf9565b91505061057c565b508091505090565b61069c610803565b6002819080600181540180825580915050600190039060005260206000200160009091909190916101000a81548173ffffffffffffffffffffffffffffffffffffffff021916908373ffffffffffffffffffffffffffffffffffffffff16021790555050565b6001818154811061071257600080fd5b906000526020600020016000915054906101000a900473ffffffffffffffffffffffffffffffffffffffff1681565b6002818154811061075157600080fd5b906000526020600020016000915054906101000a900473ffffffffffffffffffffffffffffffffffffffff1681565b610788610803565b600073ffffffffffffffffffffffffffffffffffffffff168173ffffffffffffffffffffffffffffffffffffffff16036107f7576040517f08c379a00000000000000000000000000000000000000000000000000000000081526004016107ee90610e24565b60405180910390fd5b61080081610881565b50565b61080b610945565b73ffffffffffffffffffffffffffffffffffffffff1661082961048e565b73ffffffffffffffffffffffffffffffffffffffff161461087f576040517f08c379a000000000000000000000000000000000000000000000000000000000815260040161087690610e90565b60405180910390fd5b565b60008060009054906101000a900473ffffffffffffffffffffffffffffffffffffffff169050816000806101000a81548173ffffffffffffffffffffffffffffffffffffffff021916908373ffffffffffffffffffffffffffffffffffffffff1602179055508173ffffffffffffffffffffffffffffffffffffffff168173ffffffffffffffffffffffffffffffffffffffff167f8be0079c531659141344cd1fd0a4f28419497f9722a3daafe3b4186f6b6457e060405160405180910390a35050565b600033905090565b600081519050919050565b600082825260208201905092915050565b6000819050602082019050919050565b600073ffffffffffffffffffffffffffffffffffffffff82169050919050565b60006109a482610979565b9050919050565b6109b481610999565b82525050565b60006109c683836109ab565b60208301905092915050565b6000602082019050919050565b60006109ea8261094d565b6109f48185610958565b93506109ff83610969565b8060005b83811015610a30578151610a1788826109ba565b9750610a22836109d2565b925050600181019050610a03565b5085935050505092915050565b60006020820190508181036000830152610a5781846109df565b905092915050565b600081519050919050565b600082825260208201905092915050565b6000819050602082019050919050565b6000819050919050565b610a9e81610a8b565b82525050565b6000610ab08383610a95565b60208301905092915050565b6000602082019050919050565b6000610ad482610a5f565b610ade8185610a6a565b9350610ae983610a7b565b8060005b83811015610b1a578151610b018882610aa4565b9750610b0c83610abc565b925050600181019050610aed565b5085935050505092915050565b60006020820190508181036000830152610b418184610ac9565b905092915050565b610b5281610999565b82525050565b6000602082019050610b6d6000830184610b49565b92915050565b600080fd5b610b8181610999565b8114610b8c57600080fd5b50565b600081359050610b9e81610b78565b92915050565b600060208284031215610bba57610bb9610b73565b5b6000610bc884828501610b8f565b91505092915050565b610bda81610a8b565b8114610be557600080fd5b50565b600081359050610bf781610bd1565b92915050565b600060208284031215610c1357610c12610b73565b5b6000610c2184828501610be8565b91505092915050565b7f4e487b7100000000000000000000000000000000000000000000000000000000600052604160045260246000fd5b7f4e487b7100000000000000000000000000000000000000000000000000000000600052603260045260246000fd5b600081519050610c9781610bd1565b92915050565b600060208284031215610cb357610cb2610b73565b5b6000610cc184828501610c88565b91505092915050565b7f4e487b7100000000000000000000000000000000000000000000000000000000600052601160045260246000fd5b6000610d0482610a8b565b91507fffffffffffffffffffffffffffffffffffffffffffffffffffffffffffffffff8203610d3657610d35610cca565b5b600182019050919050565b7f4e487b7100000000000000000000000000000000000000000000000000000000600052601260045260246000fd5b6000610d7b82610a8b565b9150610d8683610a8b565b925082610d9657610d95610d41565b5b828204905092915050565b600082825260208201905092915050565b7f4f776e61626c653a206e6577206f776e657220697320746865207a65726f206160008201527f6464726573730000000000000000000000000000000000000000000000000000602082015250565b6000610e0e602683610da1565b9150610e1982610db2565b604082019050919050565b60006020820190508181036000830152610e3d81610e01565b9050919050565b7f4f776e61626c653a2063616c6c6572206973206e6f7420746865206f776e6572600082015250565b6000610e7a602083610da1565b9150610e8582610e44565b602082019050919050565b60006020820190508181036000830152610ea981610e6d565b905091905056fea2646970667358221220b3124d03641d02d6ff55f7103d6fa0f57bc785f4b8e8b80a72927556d0aee0bc64736f6c63430008100033",
  "immutableReferences": {},
  "source": "// SPDX-License-Identifier: MIT\r\npragma solidity ^0.8.16;\r\n\r\nimport \"@openzeppelin/contracts/token/ERC20/IERC20.sol\";\r\nimport \"@openzeppelin/contracts/token/ERC721/IERC721.sol\";\r\nimport \"@openzeppelin/contracts/access/Ownable.sol\";\r\n\r\ncontract TokenBalanceTracker is Ownable {\r\n    address[] public erc20Tokens;\r\n    address[] public erc721Tokens;\r\n\r\n    constructor(address[] memory _erc20Tokens, address[] memory _erc721Tokens) {\r\n        erc20Tokens = _erc20Tokens;\r\n        erc721Tokens = _erc721Tokens;\r\n    }\r\n\r\n    function addERC20Token(address tokenAddress) public onlyOwner {\r\n        erc20Tokens.push(tokenAddress);\r\n    }\r\n\r\n    function addERC721Token(address tokenAddress) public onlyOwner {\r\n        erc721Tokens.push(tokenAddress);\r\n    }\r\n\r\n    function getERC20Balance() public view returns (uint256[] memory) {\r\n        uint256[] memory erc20Balances = new uint256[](erc20Tokens.length);\r\n        for (uint256 i = 0; i < erc20Tokens.length; i++) {\r\n            uint256 balance = IERC20(erc20Tokens[i]).balanceOf(msg.sender);\r\n            erc20Balances[i] = balance / (10 ** 18);\r\n        }\r\n        return erc20Balances;\r\n    }\r\n\r\n    function getERC721Balance() public view returns (uint256[] memory) {\r\n        uint256[] memory erc721Balances = new uint256[](erc721Tokens.length);\r\n        for (uint256 i = 0; i < erc721Tokens.length; i++) {\r\n            uint256 balance = IERC721(erc721Tokens[i]).balanceOf(msg.sender);\r\n            erc721Balances[i] = balance;\r\n        }\r\n        return erc721Balances;\r\n    }\r\n\r\n    function getERC20array() public view returns (address[] memory) {\r\n        return erc20Tokens;\r\n    }\r\n\r\n    function getERC721array() public view returns (address[] memory) {\r\n        return erc721Tokens;\r\n    }\r\n}\r\n",
  "sourcePath": "C:\\Users\\sumer\\OneDrive\\Desktop\\Workbench\\deployment\\contracts\\TokenBalanceTracker.sol",
  "compiler": {
    "name": "solc",
    "version": "0.8.16+commit.07a7930e.Emscripten.clang"
  },
  "schemaVersion": "3.4.15",
  "updatedAt": "2023-08-18T16:34:40.601Z",
  "networkType": "ethereum",
  "devdoc": {
    "kind": "dev",
    "methods": {
      "owner()": {
        "details": "Returns the address of the current owner."
      },
      "renounceOwnership()": {
        "details": "Leaves the contract without owner. It will not be possible to call `onlyOwner` functions. Can only be called by the current owner. NOTE: Renouncing ownership will leave the contract without an owner, thereby disabling any functionality that is only available to the owner."
      },
      "transferOwnership(address)": {
        "details": "Transfers ownership of the contract to a new account (`newOwner`). Can only be called by the current owner."
      }
    },
    "version": 1
  },
  "userdoc": {
    "kind": "user",
    "methods": {},
    "version": 1
  }
}