{
  "contractName": "WalletBalanceChecker",
  "abi": [
    {
      "inputs": [],
      "stateMutability": "nonpayable",
      "type": "constructor"
    },
    {
      "inputs": [],
      "name": "expectedChainId",
      "outputs": [
        {
          "internalType": "uint256",
          "name": "",
          "type": "uint256"
        }
      ],
      "stateMutability": "view",
      "type": "function"
    },
    {
      "inputs": [],
      "name": "owner",
      "outputs": [
        {
          "internalType": "address",
          "name": "",
          "type": "address"
        }
      ],
      "stateMutability": "view",
      "type": "function"
    },
    {
      "inputs": [
        {
          "internalType": "string",
          "name": "",
          "type": "string"
        }
      ],
      "name": "tokens",
      "outputs": [
        {
          "internalType": "contract IERC20",
          "name": "",
          "type": "address"
        }
      ],
      "stateMutability": "view",
      "type": "function"
    },
    {
      "inputs": [
        {
          "internalType": "uint256",
          "name": "_chainId",
          "type": "uint256"
        }
      ],
      "name": "setExpectedChainId",
      "outputs": [],
      "stateMutability": "nonpayable",
      "type": "function"
    },
    {
      "inputs": [
        {
          "internalType": "address",
          "name": "user",
          "type": "address"
        }
      ],
      "name": "checkBalances",
      "outputs": [
        {
          "internalType": "uint256[5]",
          "name": "",
          "type": "uint256[5]"
        }
      ],
      "stateMutability": "view",
      "type": "function"
    }
  ],
  "bytecode": "0x608060405260336001553480156200001657600080fd5b50336000806101000a81548173ffffffffffffffffffffffffffffffffffffffff021916908373ffffffffffffffffffffffffffffffffffffffff1602179055507380ff8a9a77f78fc413015068a858f7a56848480a60026040516200007c906200036c565b908152602001604051809103902060006101000a81548173ffffffffffffffffffffffffffffffffffffffff021916908373ffffffffffffffffffffffffffffffffffffffff16021790555073fe2f637036b869d7f296708baad3622c53f0d97d6002604051620000ed9062000383565b908152602001604051809103902060006101000a81548173ffffffffffffffffffffffffffffffffffffffff021916908373ffffffffffffffffffffffffffffffffffffffff1602179055507317864b7bf61073df9ed6c0ee90f8117687c2ade660026040516200015e906200039a565b908152602001604051809103902060006101000a81548173ffffffffffffffffffffffffffffffffffffffff021916908373ffffffffffffffffffffffffffffffffffffffff16021790555073b41e3ce9a37643d7b4a67f62126468f1c6f703646002604051620001cf9062000355565b908152602001604051809103902060006101000a81548173ffffffffffffffffffffffffffffffffffffffff021916908373ffffffffffffffffffffffffffffffffffffffff1602179055507361d620473acd26cb76c2867860479c9a18e6302060026040516200024090620003b1565b908152602001604051809103902060006101000a81548173ffffffffffffffffffffffffffffffffffffffff021916908373ffffffffffffffffffffffffffffffffffffffff160217905550620004a0565b6000620002a1600483620003c8565b9150620002ae82620003d3565b600482019050919050565b6000620002c8600483620003c8565b9150620002d582620003fc565b600482019050919050565b6000620002ef600483620003c8565b9150620002fc8262000425565b600482019050919050565b600062000316600483620003c8565b915062000323826200044e565b600482019050919050565b60006200033d600483620003c8565b91506200034a8262000477565b600482019050919050565b6000620003628262000292565b9150819050919050565b60006200037982620002b9565b9150819050919050565b60006200039082620002e0565b9150819050919050565b6000620003a78262000307565b9150819050919050565b6000620003be826200032e565b9150819050919050565b600081905092915050565b7f434c415900000000000000000000000000000000000000000000000000000000600082015250565b7f574f4f4c00000000000000000000000000000000000000000000000000000000600082015250565b7f574f4f4400000000000000000000000000000000000000000000000000000000600082015250565b7f524f434b00000000000000000000000000000000000000000000000000000000600082015250565b7f4649534800000000000000000000000000000000000000000000000000000000600082015250565b610eb980620004b06000396000f3fe608060405234801561001057600080fd5b50600436106100575760003560e01c806304c2320b1461005c57806307e2ae4e1461008c57806311cd682d146100a8578063866dc50c146100d85780638da5cb5b146100f6575b600080fd5b610076600480360381019061007191906107e4565b610114565b6040516100839190610ac6565b60405180910390f35b6100a660048036038101906100a1919061082d565b61015d565b005b6100c260048036038101906100bd91906107b7565b6101f5565b6040516100cf9190610aab565b60405180910390f35b6100e06106bc565b6040516100ed9190610b21565b60405180910390f35b6100fe6106c2565b60405161010b9190610a90565b60405180910390f35b6002818051602081018201805184825260208301602085012081835280955050505050506000915054906101000a900473ffffffffffffffffffffffffffffffffffffffff1681565b60008054906101000a900473ffffffffffffffffffffffffffffffffffffffff1673ffffffffffffffffffffffffffffffffffffffff163373ffffffffffffffffffffffffffffffffffffffff16146101eb576040517f08c379a00000000000000000000000000000000000000000000000000000000081526004016101e290610ae1565b60405180910390fd5b8060018190555050565b6101fd6106e6565b6001544614610241576040517f08c379a000000000000000000000000000000000000000000000000000000000815260040161023890610b01565b60405180910390fd5b6102496106e6565b600260405161025790610a3c565b908152602001604051809103902060009054906101000a900473ffffffffffffffffffffffffffffffffffffffff1673ffffffffffffffffffffffffffffffffffffffff166370a08231846040518263ffffffff1660e01b81526004016102be9190610a90565b60206040518083038186803b1580156102d657600080fd5b505afa1580156102ea573d6000803e3d6000fd5b505050506040513d601f19601f8201168201806040525081019061030e919061085a565b8160006005811061032257610321610c8d565b5b602002018181525050600260405161033990610a51565b908152602001604051809103902060009054906101000a900473ffffffffffffffffffffffffffffffffffffffff1673ffffffffffffffffffffffffffffffffffffffff166370a08231846040518263ffffffff1660e01b81526004016103a09190610a90565b60206040518083038186803b1580156103b857600080fd5b505afa1580156103cc573d6000803e3d6000fd5b505050506040513d601f19601f820116820180604052508101906103f0919061085a565b8160016005811061040457610403610c8d565b5b602002018181525050600260405161041b90610a66565b908152602001604051809103902060009054906101000a900473ffffffffffffffffffffffffffffffffffffffff1673ffffffffffffffffffffffffffffffffffffffff166370a08231846040518263ffffffff1660e01b81526004016104829190610a90565b60206040518083038186803b15801561049a57600080fd5b505afa1580156104ae573d6000803e3d6000fd5b505050506040513d601f19601f820116820180604052508101906104d2919061085a565b816002600581106104e6576104e5610c8d565b5b60200201818152505060026040516104fd90610a27565b908152602001604051809103902060009054906101000a900473ffffffffffffffffffffffffffffffffffffffff1673ffffffffffffffffffffffffffffffffffffffff166370a08231846040518263ffffffff1660e01b81526004016105649190610a90565b60206040518083038186803b15801561057c57600080fd5b505afa158015610590573d6000803e3d6000fd5b505050506040513d601f19601f820116820180604052508101906105b4919061085a565b816003600581106105c8576105c7610c8d565b5b60200201818152505060026040516105df90610a7b565b908152602001604051809103902060009054906101000a900473ffffffffffffffffffffffffffffffffffffffff1673ffffffffffffffffffffffffffffffffffffffff166370a08231846040518263ffffffff1660e01b81526004016106469190610a90565b60206040518083038186803b15801561065e57600080fd5b505afa158015610672573d6000803e3d6000fd5b505050506040513d601f19601f82011682018060405250810190610696919061085a565b816004600581106106aa576106a9610c8d565b5b60200201818152505080915050919050565b60015481565b60008054906101000a900473ffffffffffffffffffffffffffffffffffffffff1681565b6040518060a00160405280600590602082028036833780820191505090505090565b600061071b61071684610b61565b610b3c565b90508281526020810184848401111561073757610736610cf0565b5b610742848285610c4d565b509392505050565b60008135905061075981610e55565b92915050565b600082601f83011261077457610773610ceb565b5b8135610784848260208601610708565b91505092915050565b60008135905061079c81610e6c565b92915050565b6000815190506107b181610e6c565b92915050565b6000602082840312156107cd576107cc610cfa565b5b60006107db8482850161074a565b91505092915050565b6000602082840312156107fa576107f9610cfa565b5b600082013567ffffffffffffffff81111561081857610817610cf5565b5b6108248482850161075f565b91505092915050565b60006020828403121561084357610842610cfa565b5b60006108518482850161078d565b91505092915050565b6000602082840312156108705761086f610cfa565b5b600061087e848285016107a2565b91505092915050565b60006108938383610a09565b60208301905092915050565b6108a881610bdb565b82525050565b6108b781610b9c565b6108c18184610bb4565b92506108cc82610b92565b8060005b838110156108fd5781516108e48782610887565b96506108ef83610ba7565b9250506001810190506108d0565b505050505050565b61090e81610c17565b82525050565b6000610921602183610bbf565b915061092c82610d10565b604082019050919050565b6000610944600483610bd0565b915061094f82610d5f565b600482019050919050565b6000610967600483610bd0565b915061097282610d88565b600482019050919050565b600061098a600d83610bbf565b915061099582610db1565b602082019050919050565b60006109ad600483610bd0565b91506109b882610dda565b600482019050919050565b60006109d0600483610bd0565b91506109db82610e03565b600482019050919050565b60006109f3600483610bd0565b91506109fe82610e2c565b600482019050919050565b610a1281610c0d565b82525050565b610a2181610c0d565b82525050565b6000610a3282610937565b9150819050919050565b6000610a478261095a565b9150819050919050565b6000610a5c826109a0565b9150819050919050565b6000610a71826109c3565b9150819050919050565b6000610a86826109e6565b9150819050919050565b6000602082019050610aa5600083018461089f565b92915050565b600060a082019050610ac060008301846108ae565b92915050565b6000602082019050610adb6000830184610905565b92915050565b60006020820190508181036000830152610afa81610914565b9050919050565b60006020820190508181036000830152610b1a8161097d565b9050919050565b6000602082019050610b366000830184610a18565b92915050565b6000610b46610b57565b9050610b528282610c5c565b919050565b6000604051905090565b600067ffffffffffffffff821115610b7c57610b7b610cbc565b5b610b8582610cff565b9050602081019050919050565b6000819050919050565b600060059050919050565b6000602082019050919050565b600081905092915050565b600082825260208201905092915050565b600081905092915050565b6000610be682610bed565b9050919050565b600073ffffffffffffffffffffffffffffffffffffffff82169050919050565b6000819050919050565b6000610c2282610c29565b9050919050565b6000610c3482610c3b565b9050919050565b6000610c4682610bed565b9050919050565b82818337600083830152505050565b610c6582610cff565b810181811067ffffffffffffffff82111715610c8457610c83610cbc565b5b80604052505050565b7f4e487b7100000000000000000000000000000000000000000000000000000000600052603260045260246000fd5b7f4e487b7100000000000000000000000000000000000000000000000000000000600052604160045260246000fd5b600080fd5b600080fd5b600080fd5b600080fd5b6000601f19601f8301169050919050565b7f4f6e6c79206f776e65722063616e2063616c6c20746869732066756e6374696f60008201527f6e00000000000000000000000000000000000000000000000000000000000000602082015250565b7f434c415900000000000000000000000000000000000000000000000000000000600082015250565b7f574f4f4c00000000000000000000000000000000000000000000000000000000600082015250565b7f57726f6e67206e6574776f726b00000000000000000000000000000000000000600082015250565b7f574f4f4400000000000000000000000000000000000000000000000000000000600082015250565b7f524f434b00000000000000000000000000000000000000000000000000000000600082015250565b7f4649534800000000000000000000000000000000000000000000000000000000600082015250565b610e5e81610bdb565b8114610e6957600080fd5b50565b610e7581610c0d565b8114610e8057600080fd5b5056fea2646970667358221220b8da826315ab9a430d14c1314c59be38ee5f44074d23811c083ef7f6e6086a6064736f6c63430008070033",
  "immutableReferences": {},
  "source": "// SPDX-License-Identifier: MIT\r\npragma solidity ^0.8.7;\r\n\r\n\r\ninterface IERC20 {\r\n    function balanceOf(address account) external view returns (uint256);\r\n}\r\n\r\ncontract WalletBalanceChecker {\r\n\r\n    address public owner;\r\n    uint256 public expectedChainId = 51;\r\n\r\n    mapping(string => IERC20) public tokens;\r\n\r\n    modifier onlyOwner() {\r\n        require(msg.sender == owner, \"Only owner can call this function\");\r\n        _;\r\n    }\r\n\r\n    modifier correctChain() {\r\n        require(block.chainid == expectedChainId, \"Wrong network\");\r\n        _;\r\n    }\r\n\r\n    constructor() {\r\n        owner = msg.sender;\r\n        tokens[\"WOOL\"] = IERC20(0x80fF8a9A77F78FC413015068a858F7A56848480A);\r\n        tokens[\"WOOD\"] = IERC20(0xfE2f637036B869d7F296708BaAd3622c53f0D97D);\r\n        tokens[\"ROCK\"] = IERC20(0x17864B7bf61073DF9ED6c0ee90f8117687c2ADe6);\r\n        tokens[\"CLAY\"] = IERC20(0xb41E3ce9A37643d7B4a67f62126468F1C6F70364);\r\n        tokens[\"FISH\"] = IERC20(0x61D620473acd26cB76C2867860479C9a18e63020);\r\n    }\r\n\r\n    function setExpectedChainId(uint256 _chainId) external onlyOwner {\r\n        expectedChainId = _chainId;\r\n    }\r\n\r\n    function checkBalances(address user) external view correctChain returns (uint256[5] memory) {\r\n        uint256[5] memory balances;\r\n\r\n        balances[0] = tokens[\"WOOL\"].balanceOf(user);\r\n        balances[1] = tokens[\"WOOD\"].balanceOf(user);\r\n        balances[2] = tokens[\"ROCK\"].balanceOf(user);\r\n        balances[3] = tokens[\"CLAY\"].balanceOf(user);\r\n        balances[4] = tokens[\"FISH\"].balanceOf(user);\r\n\r\n        return balances;\r\n    }\r\n}\r\n",
  "sourcePath": "C:\\blockchainlaboratories\\Project4\\mywork\\balance check\\WalletBalance\\contracts\\WalletBalanceChecker.sol",
  "compiler": {
    "name": "solc",
    "version": "0.8.7+commit.e28d00a7.Emscripten.clang"
  },
  "schemaVersion": "3.4.16",
  "updatedAt": "2023-09-19T09:17:53.955Z",
  "devdoc": {
    "kind": "dev",
    "methods": {},
    "version": 1
  },
  "userdoc": {
    "kind": "user",
    "methods": {},
    "version": 1
  }
}